Component: ARM Compiler 5.06 update 7 (build 960) Tool: armlink [4d3601]

==============================================================================

Section Cross References

    startup_stm32f103xb.o(RESET) refers to startup_stm32f103xb.o(STACK) for __initial_sp
    startup_stm32f103xb.o(RESET) refers to startup_stm32f103xb.o(.text) for Reset_Handler
    startup_stm32f103xb.o(RESET) refers to stm32f1xx_it.o(i.NMI_Handler) for NMI_Handler
    startup_stm32f103xb.o(RESET) refers to stm32f1xx_it.o(i.HardFault_Handler) for HardFault_Handler
    startup_stm32f103xb.o(RESET) refers to stm32f1xx_it.o(i.MemManage_Handler) for MemManage_Handler
    startup_stm32f103xb.o(RESET) refers to stm32f1xx_it.o(i.BusFault_Handler) for BusFault_Handler
    startup_stm32f103xb.o(RESET) refers to stm32f1xx_it.o(i.UsageFault_Handler) for UsageFault_Handler
    startup_stm32f103xb.o(RESET) refers to stm32f1xx_it.o(i.SVC_Handler) for SVC_Handler
    startup_stm32f103xb.o(RESET) refers to stm32f1xx_it.o(i.DebugMon_Handler) for DebugMon_Handler
    startup_stm32f103xb.o(RESET) refers to stm32f1xx_it.o(i.PendSV_Handler) for PendSV_Handler
    startup_stm32f103xb.o(RESET) refers to stm32f1xx_it.o(i.SysTick_Handler) for SysTick_Handler
    startup_stm32f103xb.o(.text) refers to system_stm32f1xx.o(i.SystemInit) for SystemInit
    startup_stm32f103xb.o(.text) refers to entry.o(.ARM.Collect$$$$00000000) for __main
    xpt2046.o(i.X) refers to xpt2046.o(i.getRaw) for getRaw
    xpt2046.o(i.X) refers to ffltui.o(.text) for __aeabi_ui2f
    xpt2046.o(i.X) refers to xpt2046.o(i.remap) for remap
    xpt2046.o(i.X) refers to ffixui.o(.text) for __aeabi_f2uiz
    xpt2046.o(i.XPT2046_Init) refers to stm32f1xx_hal_spi.o(i.HAL_SPI_Transmit) for HAL_SPI_Transmit
==============================================================================

Removing Unused input sections from the image.

    Removing startup_stm32f103xb.o(HEAP), (512 bytes).
    Removing xpt2046.o(.rev16_text), (4 bytes).
    Removing xpt2046.o(.revsh_text), (4 bytes).
    Removing xpt2046.o(.rrx_text), (6 bytes).
    Removing ssd1963_hal.o(.rev16_text), (4 bytes).
    Removing ssd1963_hal.o(.revsh_text), (4 bytes).
    Removing ssd1963_hal.o(.rrx_text), (6 bytes).
    Removing ssd1963_hal.o(i.LCD_Bright), (32 bytes).
    Removing ssd1963_hal.o(i.LCD_Pixel), (28 bytes).
    Removing ssd1963_hal.o(i.RGB), (10 bytes).
    Removing main.o(.rev16_text), (4 bytes).
    Removing main.o(.revsh_text), (4 bytes).
    Removing main.o(.rrx_text), (6 bytes).
    Removing main.o(i.Error_Handler), (2 bytes).
    Removing main.o(.constdata), (142 bytes).
    Removing main.o(.constdata), (760 bytes).
    Removing main.o(.constdata), (12 bytes).
    Removing main.o(.constdata), (180 bytes).
==============================================================================

Image Symbol Table

    Local Symbols

    Symbol Name                              Value     Ov Type        Size  Object(Section)

    ../Drivers/STM32F1xx_HAL_Driver/Src/stm32f1xx_hal.c 0x00000000   Number         0  stm32f1xx_hal.o ABSOLUTE
    ../Drivers/STM32F1xx_HAL_Driver/Src/stm32f1xx_hal_cortex.c 0x00000000   Number         0  stm32f1xx_hal_cortex.o ABSOLUTE
    ../Drivers/STM32F1xx_HAL_Driver/Src/stm32f1xx_hal_dma.c 0x00000000   Number         0  stm32f1xx_hal_dma.o ABSOLUTE
    ../Drivers/STM32F1xx_HAL_Driver/Src/stm32f1xx_hal_exti.c 0x00000000   Number         0  stm32f1xx_hal_exti.o ABSOLUTE
    ../Drivers/STM32F1xx_HAL_Driver/Src/stm32f1xx_hal_flash.c 0x00000000   Number         0  stm32f1xx_hal_flash.o ABSOLUTE
    ../Drivers/STM32F1xx_HAL_Driver/Src/stm32f1xx_hal_flash_ex.c 0x00000000   Number         0  stm32f1xx_hal_flash_ex.o ABSOLUTE
    ../Drivers/STM32F1xx_HAL_Driver/Src/stm32f1xx_hal_gpio.c 0x00000000   Number         0  stm32f1xx_hal_gpio.o ABSOLUTE
    ../Drivers/STM32F1xx_HAL_Driver/Src/stm32f1xx_hal_gpio_ex.c 0x00000000   Number         0  stm32f1xx_hal_gpio_ex.o ABSOLUTE
    ../Drivers/STM32F1xx_HAL_Driver/Src/stm32f1xx_hal_i2c.c 0x00000000   Number         0  stm32f1xx_hal_i2c.o ABSOLUTE
    ../Drivers/STM32F1xx_HAL_Driver/Src/stm32f1xx_hal_pcd.c 0x00000000   Number         0  stm32f1xx_hal_pcd.o ABSOLUTE
    ../Drivers/STM32F1xx_HAL_Driver/Src/stm32f1xx_hal_pcd_ex.c 0x00000000   Number         0  stm32f1xx_hal_pcd_ex.o ABSOLUTE
    ../Drivers/STM32F1xx_HAL_Driver/Src/stm32f1xx_hal_pwr.c 0x00000000   Number         0  stm32f1xx_hal_pwr.o ABSOLUTE
    ../Drivers/STM32F1xx_HAL_Driver/Src/stm32f1xx_hal_rcc.c 0x00000000   Number         0  stm32f1xx_hal_rcc.o ABSOLUTE
    ../Drivers/STM32F1xx_HAL_Driver/Src/stm32f1xx_hal_rcc_ex.c 0x00000000   Number         0  stm32f1xx_hal_rcc_ex.o ABSOLUTE
    ../Drivers/STM32F1xx_HAL_Driver/Src/stm32f1xx_hal_spi.c 0x00000000   Number         0  stm32f1xx_hal_spi.o ABSOLUTE
    ../Drivers/STM32F1xx_HAL_Driver/Src/stm32f1xx_hal_tim.c 0x00000000   Number         0  stm32f1xx_hal_tim.o ABSOLUTE
    ../Drivers/STM32F1xx_HAL_Driver/Src/stm32f1xx_hal_tim_ex.c 0x00000000   Number         0  stm32f1xx_hal_tim_ex.o ABSOLUTE
    ../Drivers/STM32F1xx_HAL_Driver/Src/stm32f1xx_hal_uart.c 0x00000000   Number         0  stm32f1xx_hal_uart.o ABSOLUTE
    ../Drivers/STM32F1xx_HAL_Driver/Src/stm32f1xx_ll_usb.c 0x00000000   Number         0  stm32f1xx_ll_usb.o ABSOLUTE
    ../Src/main.c                            0x00000000   Number         0  main.o ABSOLUTE
    ../Src/stm32f1xx_hal_msp.c               0x00000000   Number         0  stm32f1xx_hal_msp.o ABSOLUTE
    ../Src/stm32f1xx_it.c                    0x00000000   Number         0  stm32f1xx_it.o ABSOLUTE
    ../Src/system_stm32f1xx.c                0x00000000   Number         0  system_stm32f1xx.o ABSOLUTE
    ../clib/microlib/init/entry.s            0x00000000   Number         0  entry5.o ABSOLUTE
    ../clib/microlib/init/entry.s            0x00000000   Number         0  entry8a.o ABSOLUTE
    ../clib/microlib/init/entry.s            0x00000000   Number         0  entry8b.o ABSOLUTE
    ../clib/microlib/init/entry.s            0x00000000   Number         0  entry9b.o ABSOLUTE
    ../clib/microlib/init/entry.s            0x00000000   Number         0  entry10a.o ABSOLUTE
    ../clib/microlib/init/entry.s            0x00000000   Number         0  entry10b.o ABSOLUTE
    ../clib/microlib/init/entry.s            0x00000000   Number         0  entry.o ABSOLUTE
    ../clib/microlib/init/entry.s            0x00000000   Number         0  entry11a.o ABSOLUTE
    ../clib/microlib/init/entry.s            0x00000000   Number         0  entry11b.o ABSOLUTE
    ../clib/microlib/init/entry.s            0x00000000   Number         0  entry12a.o ABSOLUTE
    ../clib/microlib/init/entry.s            0x00000000   Number         0  entry12b.o ABSOLUTE
    ../clib/microlib/init/entry.s            0x00000000   Number         0  entry9a.o ABSOLUTE
    ../clib/microlib/init/entry.s            0x00000000   Number         0  entry2.o ABSOLUTE
    ../clib/microlib/init/entry.s            0x00000000   Number         0  entry7a.o ABSOLUTE
    ../clib/microlib/init/entry.s            0x00000000   Number         0  entry7b.o ABSOLUTE
    ../clib/microlib/longlong.c              0x00000000   Number         0  llushr.o ABSOLUTE
    ../clib/microlib/string/memcpy.c         0x00000000   Number         0  memcpyb.o ABSOLUTE
    ../clib/microlib/string/memcpy.c         0x00000000   Number         0  memcpya.o ABSOLUTE
    ../clib/microlib/string/memset.c         0x00000000   Number         0  memseta.o ABSOLUTE
    ../clib/microlib/string/strlen.c         0x00000000   Number         0  strlen.o ABSOLUTE
    ../clib/microlib/stubs.s                 0x00000000   Number         0  iusefp.o ABSOLUTE
    ../fplib/microlib/fpadd.c                0x00000000   Number         0  fadd.o ABSOLUTE
    ../fplib/microlib/fpdiv.c                0x00000000   Number         0  fdiv.o ABSOLUTE
    ../fplib/microlib/fpepilogue.c           0x00000000   Number         0  fepilogue.o ABSOLUTE
    ../fplib/microlib/fpfix.c                0x00000000   Number         0  ffixui.o ABSOLUTE
    ../fplib/microlib/fpflt.c                0x00000000   Number         0  ffltui.o ABSOLUTE
    ../fplib/microlib/fpmul.c                0x00000000   Number         0  fmul.o ABSOLUTE
    ..\Drivers\STM32F1xx_HAL_Driver\Src\stm32f1xx_hal.c 0x00000000   Number         0  stm32f1xx_hal.o ABSOLUTE
    ..\Drivers\STM32F1xx_HAL_Driver\Src\stm32f1xx_hal_cortex.c 0x00000000   Number         0  stm32f1xx_hal_cortex.o ABSOLUTE
    ..\Drivers\STM32F1xx_HAL_Driver\Src\stm32f1xx_hal_dma.c 0x00000000   Number         0  stm32f1xx_hal_dma.o ABSOLUTE
    ..\Drivers\STM32F1xx_HAL_Driver\Src\stm32f1xx_hal_exti.c 0x00000000   Number         0  stm32f1xx_hal_exti.o ABSOLUTE
    ..\Drivers\STM32F1xx_HAL_Driver\Src\stm32f1xx_hal_flash.c 0x00000000   Number         0  stm32f1xx_hal_flash.o ABSOLUTE
    ..\Drivers\STM32F1xx_HAL_Driver\Src\stm32f1xx_hal_flash_ex.c 0x00000000   Number         0  stm32f1xx_hal_flash_ex.o ABSOLUTE
    ..\Drivers\STM32F1xx_HAL_Driver\Src\stm32f1xx_hal_gpio.c 0x00000000   Number         0  stm32f1xx_hal_gpio.o ABSOLUTE
    ..\Drivers\STM32F1xx_HAL_Driver\Src\stm32f1xx_hal_gpio_ex.c 0x00000000   Number         0  stm32f1xx_hal_gpio_ex.o ABSOLUTE
    ..\Drivers\STM32F1xx_HAL_Driver\Src\stm32f1xx_hal_i2c.c 0x00000000   Number         0  stm32f1xx_hal_i2c.o ABSOLUTE
    ..\Drivers\STM32F1xx_HAL_Driver\Src\stm32f1xx_hal_pcd.c 0x00000000   Number         0  stm32f1xx_hal_pcd.o ABSOLUTE
    ..\Drivers\STM32F1xx_HAL_Driver\Src\stm32f1xx_hal_pcd_ex.c 0x00000000   Number         0  stm32f1xx_hal_pcd_ex.o ABSOLUTE
    ..\Drivers\STM32F1xx_HAL_Driver\Src\stm32f1xx_hal_pwr.c 0x00000000   Number         0  stm32f1xx_hal_pwr.o ABSOLUTE
    ..\Drivers\STM32F1xx_HAL_Driver\Src\stm32f1xx_hal_rcc.c 0x00000000   Number         0  stm32f1xx_hal_rcc.o ABSOLUTE
    ..\Drivers\STM32F1xx_HAL_Driver\Src\stm32f1xx_hal_rcc_ex.c 0x00000000   Number         0  stm32f1xx_hal_rcc_ex.o ABSOLUTE
    ..\Drivers\STM32F1xx_HAL_Driver\Src\stm32f1xx_hal_spi.c 0x00000000   Number         0  stm32f1xx_hal_spi.o ABSOLUTE
    ..\Drivers\STM32F1xx_HAL_Driver\Src\stm32f1xx_hal_tim.c 0x00000000   Number         0  stm32f1xx_hal_tim.o ABSOLUTE
    ..\Drivers\STM32F1xx_HAL_Driver\Src\stm32f1xx_hal_tim_ex.c 0x00000000   Number         0  stm32f1xx_hal_tim_ex.o ABSOLUTE
    ..\Drivers\STM32F1xx_HAL_Driver\Src\stm32f1xx_hal_uart.c 0x00000000   Number         0  stm32f1xx_hal_uart.o ABSOLUTE
    ..\Drivers\STM32F1xx_HAL_Driver\Src\stm32f1xx_ll_usb.c 0x00000000   Number         0  stm32f1xx_ll_usb.o ABSOLUTE
    ..\Src\main.c                            0x00000000   Number         0  main.o ABSOLUTE
    ..\Src\ssd1963_hal.c                     0x00000000   Number         0  ssd1963_hal.o ABSOLUTE
    ..\Src\stm32f1xx_hal_msp.c               0x00000000   Number         0  stm32f1xx_hal_msp.o ABSOLUTE
    ..\Src\stm32f1xx_it.c                    0x00000000   Number         0  stm32f1xx_it.o ABSOLUTE
    ..\Src\system_stm32f1xx.c                0x00000000   Number         0  system_stm32f1xx.o ABSOLUTE
    ..\Src\xpt2046.c                         0x00000000   Number         0  xpt2046.o ABSOLUTE
    ..\\Src\\ssd1963_hal.c                   0x00000000   Number         0  ssd1963_hal.o ABSOLUTE
    ..\\Src\\xpt2046.c                       0x00000000   Number         0  xpt2046.o ABSOLUTE
    dc.s                                     0x00000000   Number         0  dc.o ABSOLUTE
    handlers.s                               0x00000000   Number         0  handlers.o ABSOLUTE
    init.s                                   0x00000000   Number         0  init.o ABSOLUTE
    startup_stm32f103xb.s                    0x00000000   Number         0  startup_stm32f103xb.o ABSOLUTE
    RESET                                    0x08000000   Section      236  startup_stm32f103xb.o(RESET)
    .ARM.Collect$$$$00000000                 0x080000ec   Section        0  entry.o(.ARM.Collect$$$$00000000)
    .ARM.Collect$$$$00000001                 0x080000ec   Section        4  entry2.o(.ARM.Collect$$$$00000001)
    .ARM.Collect$$$$00000004                 0x080000f0   Section        4  entry5.o(.ARM.Collect$$$$00000004)
    .ARM.Collect$$$$00000008                 0x080000f4   Section        0  entry7b.o(.ARM.Collect$$$$00000008)
    .ARM.Collect$$$$0000000A                 0x080000f4   Section        0  entry8b.o(.ARM.Collect$$$$0000000A)
    .ARM.Collect$$$$0000000B                 0x080000f4   Section        8  entry9a.o(.ARM.Collect$$$$0000000B)
    .ARM.Collect$$$$0000000E                 0x080000fc   Section        4  entry12b.o(.ARM.Collect$$$$0000000E)
    .ARM.Collect$$$$0000000F                 0x08000100   Section        0  entry10a.o(.ARM.Collect$$$$0000000F)
    .ARM.Collect$$$$00000011                 0x08000100   Section        0  entry11a.o(.ARM.Collect$$$$00000011)
    .ARM.Collect$$$$00002712                 0x08000100   Section        4  entry2.o(.ARM.Collect$$$$00002712)
    __lit__00000000                          0x08000100   Data           4  entry2.o(.ARM.Collect$$$$00002712)
    .text                                    0x08000104   Section       36  startup_stm32f103xb.o(.text)
    .text                                    0x08000128   Section        0  memcpya.o(.text)
    .text                                    0x0800014c   Section        0  memseta.o(.text)
    .text                                    0x08000170   Section        0  strlen.o(.text)
    .text                                    0x0800017e   Section        0  fadd.o(.text)
    .text                                    0x0800022e   Section        0  fmul.o(.text)
    .text                                    0x08000292   Section        0  fdiv.o(.text)
    .text                                    0x0800030e   Section        0  ffltui.o(.text)
    .text                                    0x08000318   Section        0  ffixui.o(.text)
    .text                                    0x08000340   Section        0  fepilogue.o(.text)
    .text                                    0x08000340   Section        0  iusefp.o(.text)
    .text                                    0x080003b0   Section       36  init.o(.text)
    i.BusFault_Handler                       0x080003d4   Section        0  stm32f1xx_it.o(i.BusFault_Handler)
    i.DebugMon_Handler                       0x080003d6   Section        0  stm32f1xx_it.o(i.DebugMon_Handler)
    i.H24_RGB565                             0x080003d8   Section        0  ssd1963_hal.o(i.H24_RGB565)
    H24_RGB565                               0x080003d9   Thumb Code    42  ssd1963_hal.o(i.H24_RGB565)
    i.HAL_Delay                              0x08000404   Section        0  stm32f1xx_hal.o(i.HAL_Delay)
    i.HAL_GPIO_Init                          0x08000428   Section        0  stm32f1xx_hal_gpio.o(i.HAL_GPIO_Init)
    i.HAL_GPIO_ReadPin                       0x08000608   Section        0  stm32f1xx_hal_gpio.o(i.HAL_GPIO_ReadPin)
    i.HAL_GPIO_WritePin                      0x08000612   Section        0  stm32f1xx_hal_gpio.o(i.HAL_GPIO_WritePin)
    i.HAL_GetTick                            0x0800061c   Section        0  stm32f1xx_hal.o(i.HAL_GetTick)
    i.HAL_I2C_Init                           0x08000628   Section        0  stm32f1xx_hal_i2c.o(i.HAL_I2C_Init)
    i.HAL_I2C_MspInit                        0x080007b0   Section        0  stm32f1xx_hal_msp.o(i.HAL_I2C_MspInit)
    i.HAL_IncTick                            0x08000810   Section        0  stm32f1xx_hal.o(i.HAL_IncTick)
    i.HAL_Init                               0x08000820   Section        0  stm32f1xx_hal.o(i.HAL_Init)
    i.HAL_InitTick                           0x08000844   Section        0  stm32f1xx_hal.o(i.HAL_InitTick)
    i.HAL_MspInit                            0x08000884   Section        0  stm32f1xx_hal_msp.o(i.HAL_MspInit)
    i.HAL_NVIC_SetPriority                   0x080008c0   Section        0  stm32f1xx_hal_cortex.o(i.HAL_NVIC_SetPriority)
    i.HAL_NVIC_SetPriorityGrouping           0x08000900   Section        0  stm32f1xx_hal_cortex.o(i.HAL_NVIC_SetPriorityGrouping)
    i.HAL_PCD_Init                           0x08000924   Section        0  stm32f1xx_hal_pcd.o(i.HAL_PCD_Init)
    i.HAL_PCD_MspInit                        0x08000a00   Section        0  stm32f1xx_hal_msp.o(i.HAL_PCD_MspInit)
    i.HAL_RCCEx_PeriphCLKConfig              0x08000a28   Section        0  stm32f1xx_hal_rcc_ex.o(i.HAL_RCCEx_PeriphCLKConfig)
    i.HAL_RCC_ClockConfig                    0x08000b14   Section        0  stm32f1xx_hal_rcc.o(i.HAL_RCC_ClockConfig)
    i.HAL_RCC_GetPCLK1Freq                   0x08000c40   Section        0  stm32f1xx_hal_rcc.o(i.HAL_RCC_GetPCLK1Freq)
    i.HAL_RCC_GetPCLK2Freq                   0x08000c60   Section        0  stm32f1xx_hal_rcc.o(i.HAL_RCC_GetPCLK2Freq)
    i.HAL_RCC_GetSysClockFreq                0x08000c80   Section        0  stm32f1xx_hal_rcc.o(i.HAL_RCC_GetSysClockFreq)
    i.HAL_RCC_OscConfig                      0x08000cec   Section        0  stm32f1xx_hal_rcc.o(i.HAL_RCC_OscConfig)
    i.HAL_SPI_Init                           0x0800100c   Section        0  stm32f1xx_hal_spi.o(i.HAL_SPI_Init)
    i.HAL_SPI_MspInit                        0x080010c0   Section        0  stm32f1xx_hal_msp.o(i.HAL_SPI_MspInit)
    i.HAL_SPI_Transmit                       0x08001168   Section        0  stm32f1xx_hal_spi.o(i.HAL_SPI_Transmit)
    i.HAL_SPI_TransmitReceive                0x080012ce   Section        0  stm32f1xx_hal_spi.o(i.HAL_SPI_TransmitReceive)
    i.HAL_SYSTICK_Config                     0x080014b0   Section        0  stm32f1xx_hal_cortex.o(i.HAL_SYSTICK_Config)
    i.HAL_TIMEx_MasterConfigSynchronization  0x080014d8   Section        0  stm32f1xx_hal_tim_ex.o(i.HAL_TIMEx_MasterConfigSynchronization)
    i.HAL_TIM_IC_ConfigChannel               0x08001540   Section        0  stm32f1xx_hal_tim.o(i.HAL_TIM_IC_ConfigChannel)
    i.HAL_TIM_IC_Init                        0x0800164e   Section        0  stm32f1xx_hal_tim.o(i.HAL_TIM_IC_Init)
    i.HAL_TIM_IC_MspInit                     0x080016a8   Section        0  stm32f1xx_hal_msp.o(i.HAL_TIM_IC_MspInit)
    i.HAL_TIM_SlaveConfigSynchro             0x08001700   Section        0  stm32f1xx_hal_tim.o(i.HAL_TIM_SlaveConfigSynchro)
    i.HAL_UART_Init                          0x08001756   Section        0  stm32f1xx_hal_uart.o(i.HAL_UART_Init)
    i.HAL_UART_MspInit                       0x080017b8   Section        0  stm32f1xx_hal_msp.o(i.HAL_UART_MspInit)
    i.HardFault_Handler                      0x08001828   Section        0  stm32f1xx_it.o(i.HardFault_Handler)
    i.LCD_Bus                                0x0800182c   Section        0  ssd1963_hal.o(i.LCD_Bus)
    LCD_Bus                                  0x0800182d   Thumb Code   316  ssd1963_hal.o(i.LCD_Bus)
    i.LCD_Char                               0x08001974   Section        0  ssd1963_hal.o(i.LCD_Char)
    LCD_Char                                 0x08001975   Thumb Code   198  ssd1963_hal.o(i.LCD_Char)
    i.LCD_Circle                             0x08001a3a   Section        0  ssd1963_hal.o(i.LCD_Circle)
    i.LCD_Circle_Fill_Helper                 0x08001b68   Section        0  ssd1963_hal.o(i.LCD_Circle_Fill_Helper)
    i.LCD_Circle_Helper                      0x08001c4c   Section        0  ssd1963_hal.o(i.LCD_Circle_Helper)
    i.LCD_Ellipse                            0x08001d64   Section        0  ssd1963_hal.o(i.LCD_Ellipse)
    i.LCD_Font                               0x08001ffc   Section        0  ssd1963_hal.o(i.LCD_Font)
    i.LCD_Init                               0x0800208c   Section        0  ssd1963_hal.o(i.LCD_Init)
    i.LCD_Line                               0x080021ca   Section        0  ssd1963_hal.o(i.LCD_Line)
    i.LCD_Rect                               0x08002244   Section        0  ssd1963_hal.o(i.LCD_Rect)
    i.LCD_Rect_Fill                          0x08002296   Section        0  ssd1963_hal.o(i.LCD_Rect_Fill)
    i.LCD_Rect_Round                         0x080022d2   Section        0  ssd1963_hal.o(i.LCD_Rect_Round)
    i.LCD_Rect_Round_Fill                    0x080023be   Section        0  ssd1963_hal.o(i.LCD_Rect_Round_Fill)
    i.LCD_Send_Cmd                           0x08002424   Section        0  ssd1963_hal.o(i.LCD_Send_Cmd)
    LCD_Send_Cmd                             0x08002425   Thumb Code    80  ssd1963_hal.o(i.LCD_Send_Cmd)
    i.LCD_Send_Dat                           0x08002478   Section        0  ssd1963_hal.o(i.LCD_Send_Dat)
    LCD_Send_Dat                             0x08002479   Thumb Code    78  ssd1963_hal.o(i.LCD_Send_Dat)
    i.LCD_Triangle                           0x080024cc   Section        0  ssd1963_hal.o(i.LCD_Triangle)
    i.LCD_Triangle_Fill                      0x0800250c   Section        0  ssd1963_hal.o(i.LCD_Triangle_Fill)
    i.LCD_Window                             0x080025ce   Section        0  ssd1963_hal.o(i.LCD_Window)
    i.MX_GPIO_Init                           0x08002620   Section        0  main.o(i.MX_GPIO_Init)
    MX_GPIO_Init                             0x08002621   Thumb Code   208  main.o(i.MX_GPIO_Init)
    i.MX_SPI1_Init                           0x08002700   Section        0  main.o(i.MX_SPI1_Init)
    MX_SPI1_Init                             0x08002701   Thumb Code    56  main.o(i.MX_SPI1_Init)
    i.MX_TIM1_Init                           0x08002740   Section        0  main.o(i.MX_TIM1_Init)
    MX_TIM1_Init                             0x08002741   Thumb Code   148  main.o(i.MX_TIM1_Init)
    i.MemManage_Handler                      0x080027dc   Section        0  stm32f1xx_it.o(i.MemManage_Handler)
    i.NMI_Handler                            0x080027de   Section        0  stm32f1xx_it.o(i.NMI_Handler)
    i.PendSV_Handler                         0x080027e0   Section        0  stm32f1xx_it.o(i.PendSV_Handler)
    i.SPI_EndRxTxTransaction                 0x080027e2   Section        0  stm32f1xx_hal_spi.o(i.SPI_EndRxTxTransaction)
    SPI_EndRxTxTransaction                   0x080027e3   Thumb Code    32  stm32f1xx_hal_spi.o(i.SPI_EndRxTxTransaction)
    i.SPI_WaitFlagStateUntilTimeout          0x08002804   Section        0  stm32f1xx_hal_spi.o(i.SPI_WaitFlagStateUntilTimeout)
    SPI_WaitFlagStateUntilTimeout            0x08002805   Thumb Code   180  stm32f1xx_hal_spi.o(i.SPI_WaitFlagStateUntilTimeout)
    i.SVC_Handler                            0x080028bc   Section        0  stm32f1xx_it.o(i.SVC_Handler)
    i.SysTick_Handler                        0x080028be   Section        0  stm32f1xx_it.o(i.SysTick_Handler)
    i.SystemClock_Config                     0x080028c2   Section        0  main.o(i.SystemClock_Config)
    i.SystemInit                             0x08002934   Section        0  system_stm32f1xx.o(i.SystemInit)
    i.TIM_Base_SetConfig                     0x0800297c   Section        0  stm32f1xx_hal_tim.o(i.TIM_Base_SetConfig)
    i.TIM_ETR_SetConfig                      0x080029e8   Section        0  stm32f1xx_hal_tim.o(i.TIM_ETR_SetConfig)
    i.TIM_SlaveTimer_SetConfig               0x080029fc   Section        0  stm32f1xx_hal_tim.o(i.TIM_SlaveTimer_SetConfig)
    TIM_SlaveTimer_SetConfig                 0x080029fd   Thumb Code   134  stm32f1xx_hal_tim.o(i.TIM_SlaveTimer_SetConfig)
    i.TIM_TI1_ConfigInputStage               0x08002a82   Section        0  stm32f1xx_hal_tim.o(i.TIM_TI1_ConfigInputStage)
    TIM_TI1_ConfigInputStage                 0x08002a83   Thumb Code    34  stm32f1xx_hal_tim.o(i.TIM_TI1_ConfigInputStage)
    i.TIM_TI1_SetConfig                      0x08002aa4   Section        0  stm32f1xx_hal_tim.o(i.TIM_TI1_SetConfig)
    i.TIM_TI2_ConfigInputStage               0x08002afc   Section        0  stm32f1xx_hal_tim.o(i.TIM_TI2_ConfigInputStage)
    TIM_TI2_ConfigInputStage                 0x08002afd   Thumb Code    36  stm32f1xx_hal_tim.o(i.TIM_TI2_ConfigInputStage)
    i.TIM_TI2_SetConfig                      0x08002b20   Section        0  stm32f1xx_hal_tim.o(i.TIM_TI2_SetConfig)
    TIM_TI2_SetConfig                        0x08002b21   Thumb Code    54  stm32f1xx_hal_tim.o(i.TIM_TI2_SetConfig)
    i.UART_SetConfig                         0x08002b58   Section        0  stm32f1xx_hal_uart.o(i.UART_SetConfig)
    UART_SetConfig                           0x08002b59   Thumb Code   178  stm32f1xx_hal_uart.o(i.UART_SetConfig)
    i.USB_CoreInit                           0x08002c10   Section        0  stm32f1xx_ll_usb.o(i.USB_CoreInit)
    i.USB_DevDisconnect                      0x08002c14   Section        0  stm32f1xx_ll_usb.o(i.USB_DevDisconnect)
    i.USB_DevInit                            0x08002c18   Section        0  stm32f1xx_ll_usb.o(i.USB_DevInit)
    i.USB_DisableGlobalInt                   0x08002c2a   Section        0  stm32f1xx_ll_usb.o(i.USB_DisableGlobalInt)
    i.USB_SetCurrentMode                     0x08002c38   Section        0  stm32f1xx_ll_usb.o(i.USB_SetCurrentMode)
    i.UsageFault_Handler                     0x08002c3c   Section        0  stm32f1xx_it.o(i.UsageFault_Handler)
    i.X                                      0x08002c40   Section        0  xpt2046.o(i.X)
    X                                        0x08002c41   Thumb Code    52  xpt2046.o(i.X)
    i.XPT2046_Init                           0x08002c80   Section        0  xpt2046.o(i.XPT2046_Init)
    i.Y                                      0x08002cb4   Section        0  xpt2046.o(i.Y)
    Y                                        0x08002cb5   Thumb Code    44  xpt2046.o(i.Y)
    i.__NVIC_SetPriority                     0x08002cec   Section        0  stm32f1xx_hal_cortex.o(i.__NVIC_SetPriority)
    __NVIC_SetPriority                       0x08002ced   Thumb Code    32  stm32f1xx_hal_cortex.o(i.__NVIC_SetPriority)
    i.__scatterload_copy                     0x08002d0c   Section       14  handlers.o(i.__scatterload_copy)
    i.__scatterload_null                     0x08002d1a   Section        2  handlers.o(i.__scatterload_null)
    i.__scatterload_zeroinit                 0x08002d1c   Section       14  handlers.o(i.__scatterload_zeroinit)
    i.getRaw                                 0x08002d2c   Section        0  xpt2046.o(i.getRaw)
    i.getX                                   0x08002d84   Section        0  xpt2046.o(i.getX)
    i.getY                                   0x08002dac   Section        0  xpt2046.o(i.getY)
    i.main                                   0x08002dd4   Section        0  main.o(i.main)
    i.remap                                  0x08003148   Section        0  xpt2046.o(i.remap)
    remap                                    0x08003149   Thumb Code    60  xpt2046.o(i.remap)
    .constdata                               0x08003184   Section        8  xpt2046.o(.constdata)
    .constdata                               0x0800318c   Section      418  main.o(.constdata)
    .constdata                               0x0800332e   Section      760  main.o(.constdata)
    .constdata                               0x08003628   Section       60  main.o(.constdata)
    .constdata                               0x08003664   Section      271  main.o(.constdata)
    .constdata                               0x08003774   Section      760  main.o(.constdata)
    .constdata                               0x08003a6c   Section      414  main.o(.constdata)
    .constdata                               0x08003c0a   Section      760  main.o(.constdata)
    .constdata                               0x08003f02   Section     1162  main.o(.constdata)
    .constdata                               0x0800438c   Section      760  main.o(.constdata)
    .constdata                               0x08004684   Section     1395  main.o(.constdata)
    .constdata                               0x08004bf8   Section      104  main.o(.constdata)
    .constdata                               0x08004c60   Section       16  system_stm32f1xx.o(.constdata)
    .constdata                               0x08004c70   Section        8  system_stm32f1xx.o(.constdata)
    .data                                    0x20000000   Section        4  main.o(.data)
    .data                                    0x20000004   Section       12  stm32f1xx_hal.o(.data)
    .data                                    0x20000010   Section        4  system_stm32f1xx.o(.data)
    .bss                                     0x20000014   Section     1056  main.o(.bss)
    STACK                                    0x20000438   Section     1024  startup_stm32f103xb.o(STACK)

    Global Symbols

    Symbol Name                              Value     Ov Type        Size  Object(Section)

    BuildAttributes$$THM_ISAv4$P$D$K$B$S$PE$A:L22UL41UL21$X:L11$S22US41US21$IEEE1$IW$USESV6$~STKCKD$USESV7$~SHL$OTIME$ROPI$EBA8$MICROLIB$REQ8$PRES8$EABIv2 0x00000000   Number         0  anon$$obj.o ABSOLUTE
    __ARM_use_no_argv                        0x00000000   Number         0  main.o ABSOLUTE
    __arm_fini_                               - Undefined Weak Reference
    __cpp_initialize__aeabi_                  - Undefined Weak Reference
    __cxa_finalize                            - Undefined Weak Reference
    __decompress                              - Undefined Weak Reference
    _clock_init                               - Undefined Weak Reference
    _microlib_exit                            - Undefined Weak Reference
    __Vectors_Size                           0x000000ec   Number         0  startup_stm32f103xb.o ABSOLUTE
    __Vectors                                0x08000000   Data           4  startup_stm32f103xb.o(RESET)
    __Vectors_End                            0x080000ec   Data           0  startup_stm32f103xb.o(RESET)
    __main                                   0x080000ed   Thumb Code     0  entry.o(.ARM.Collect$$$$00000000)
    _main_stk                                0x080000ed   Thumb Code     0  entry2.o(.ARM.Collect$$$$00000001)
    _main_scatterload                        0x080000f1   Thumb Code     0  entry5.o(.ARM.Collect$$$$00000004)
    __main_after_scatterload                 0x080000f5   Thumb Code     0  entry5.o(.ARM.Collect$$$$00000004)
    _main_clock                              0x080000f5   Thumb Code     0  entry7b.o(.ARM.Collect$$$$00000008)
    _main_cpp_init                           0x080000f5   Thumb Code     0  entry8b.o(.ARM.Collect$$$$0000000A)
    _main_init                               0x080000f5   Thumb Code     0  entry9a.o(.ARM.Collect$$$$0000000B)
    __rt_lib_shutdown_fini                   0x080000fd   Thumb Code     0  entry12b.o(.ARM.Collect$$$$0000000E)
    __rt_final_cpp                           0x08000101   Thumb Code     0  entry10a.o(.ARM.Collect$$$$0000000F)
    __rt_final_exit                          0x08000101   Thumb Code     0  entry11a.o(.ARM.Collect$$$$00000011)
    Reset_Handler                            0x08000105   Thumb Code     8  startup_stm32f103xb.o(.text)
    ADC1_2_IRQHandler                        0x0800011f   Thumb Code     0  startup_stm32f103xb.o(.text)
    CAN1_RX1_IRQHandler                      0x0800011f   Thumb Code     0  startup_stm32f103xb.o(.text)
    CAN1_SCE_IRQHandler                      0x0800011f   Thumb Code     0  startup_stm32f103xb.o(.text)
    DMA1_Channel1_IRQHandler                 0x0800011f   Thumb Code     0  startup_stm32f103xb.o(.text)
    DMA1_Channel2_IRQHandler                 0x0800011f   Thumb Code     0  startup_stm32f103xb.o(.text)
    DMA1_Channel3_IRQHandler                 0x0800011f   Thumb Code     0  startup_stm32f103xb.o(.text)
    DMA1_Channel4_IRQHandler                 0x0800011f   Thumb Code     0  startup_stm32f103xb.o(.text)
    DMA1_Channel5_IRQHandler                 0x0800011f   Thumb Code     0  startup_stm32f103xb.o(.text)
    DMA1_Channel6_IRQHandler                 0x0800011f   Thumb Code     0  startup_stm32f103xb.o(.text)
    DMA1_Channel7_IRQHandler                 0x0800011f   Thumb Code     0  startup_stm32f103xb.o(.text)
    EXTI0_IRQHandler                         0x0800011f   Thumb Code     0  startup_stm32f103xb.o(.text)
    EXTI15_10_IRQHandler                     0x0800011f   Thumb Code     0  startup_stm32f103xb.o(.text)
    EXTI1_IRQHandler                         0x0800011f   Thumb Code     0  startup_stm32f103xb.o(.text)
    EXTI2_IRQHandler                         0x0800011f   Thumb Code     0  startup_stm32f103xb.o(.text)
    EXTI3_IRQHandler                         0x0800011f   Thumb Code     0  startup_stm32f103xb.o(.text)
    EXTI4_IRQHandler                         0x0800011f   Thumb Code     0  startup_stm32f103xb.o(.text)
    EXTI9_5_IRQHandler                       0x0800011f   Thumb Code     0  startup_stm32f103xb.o(.text)
    FLASH_IRQHandler                         0x0800011f   Thumb Code     0  startup_stm32f103xb.o(.text)
    I2C1_ER_IRQHandler                       0x0800011f   Thumb Code     0  startup_stm32f103xb.o(.text)
    I2C1_EV_IRQHandler                       0x0800011f   Thumb Code     0  startup_stm32f103xb.o(.text)
    I2C2_ER_IRQHandler                       0x0800011f   Thumb Code     0  startup_stm32f103xb.o(.text)
    I2C2_EV_IRQHandler                       0x0800011f   Thumb Code     0  startup_stm32f103xb.o(.text)
    PVD_IRQHandler                           0x0800011f   Thumb Code     0  startup_stm32f103xb.o(.text)
    RCC_IRQHandler                           0x0800011f   Thumb Code     0  startup_stm32f103xb.o(.text)
    RTC_Alarm_IRQHandler                     0x0800011f   Thumb Code     0  startup_stm32f103xb.o(.text)
    RTC_IRQHandler                           0x0800011f   Thumb Code     0  startup_stm32f103xb.o(.text)
    SPI1_IRQHandler                          0x0800011f   Thumb Code     0  startup_stm32f103xb.o(.text)
    SPI2_IRQHandler                          0x0800011f   Thumb Code     0  startup_stm32f103xb.o(.text)
    TAMPER_IRQHandler                        0x0800011f   Thumb Code     0  startup_stm32f103xb.o(.text)
    TIM1_BRK_IRQHandler                      0x0800011f   Thumb Code     0  startup_stm32f103xb.o(.text)
    TIM1_CC_IRQHandler                       0x0800011f   Thumb Code     0  startup_stm32f103xb.o(.text)
    TIM1_TRG_COM_IRQHandler                  0x0800011f   Thumb Code     0  startup_stm32f103xb.o(.text)
    TIM1_UP_IRQHandler                       0x0800011f   Thumb Code     0  startup_stm32f103xb.o(.text)
    TIM2_IRQHandler                          0x0800011f   Thumb Code     0  startup_stm32f103xb.o(.text)
    TIM3_IRQHandler                          0x0800011f   Thumb Code     0  startup_stm32f103xb.o(.text)
    TIM4_IRQHandler                          0x0800011f   Thumb Code     0  startup_stm32f103xb.o(.text)
    USART1_IRQHandler                        0x0800011f   Thumb Code     0  startup_stm32f103xb.o(.text)
    USART2_IRQHandler                        0x0800011f   Thumb Code     0  startup_stm32f103xb.o(.text)
    USART3_IRQHandler                        0x0800011f   Thumb Code     0  startup_stm32f103xb.o(.text)
    USBWakeUp_IRQHandler                     0x0800011f   Thumb Code     0  startup_stm32f103xb.o(.text)
    USB_HP_CAN1_TX_IRQHandler                0x0800011f   Thumb Code     0  startup_stm32f103xb.o(.text)
    USB_LP_CAN1_RX0_IRQHandler               0x0800011f   Thumb Code     0  startup_stm32f103xb.o(.text)
    WWDG_IRQHandler                          0x0800011f   Thumb Code     0  startup_stm32f103xb.o(.text)
    __aeabi_memcpy                           0x08000129   Thumb Code    36  memcpya.o(.text)
    __aeabi_memcpy4                          0x08000129   Thumb Code     0  memcpya.o(.text)
    __aeabi_memcpy8                          0x08000129   Thumb Code     0  memcpya.o(.text)
    __aeabi_memset                           0x0800014d   Thumb Code    14  memseta.o(.text)
    __aeabi_memset4                          0x0800014d   Thumb Code     0  memseta.o(.text)
    __aeabi_memset8                          0x0800014d   Thumb Code     0  memseta.o(.text)
    __aeabi_memclr                           0x0800015b   Thumb Code     4  memseta.o(.text)
    __aeabi_memclr4                          0x0800015b   Thumb Code     0  memseta.o(.text)
    __aeabi_memclr8                          0x0800015b   Thumb Code     0  memseta.o(.text)
    _memset$wrapper                          0x0800015f   Thumb Code    18  memseta.o(.text)
    strlen                                   0x08000171   Thumb Code    14  strlen.o(.text)
    __aeabi_fadd                             0x0800017f   Thumb Code   164  fadd.o(.text)
    __aeabi_fsub                             0x08000223   Thumb Code     6  fadd.o(.text)
    __aeabi_frsub                            0x08000229   Thumb Code     6  fadd.o(.text)
    __aeabi_fmul                             0x0800022f   Thumb Code   100  fmul.o(.text)
    __aeabi_fdiv                             0x08000293   Thumb Code   124  fdiv.o(.text)
    __aeabi_ui2f                             0x0800030f   Thumb Code    10  ffltui.o(.text)
    __aeabi_f2uiz                            0x08000319   Thumb Code    40  ffixui.o(.text)
    __I$use$fp                               0x08000341   Thumb Code     0  iusefp.o(.text)
    _float_round                             0x08000341   Thumb Code    18  fepilogue.o(.text)
    _float_epilogue                          0x08000353   Thumb Code    92  fepilogue.o(.text)
    __scatterload                            0x080003b1   Thumb Code    28  init.o(.text)
    __scatterload_rt2                        0x080003b1   Thumb Code     0  init.o(.text)
    BusFault_Handler                         0x080003d5   Thumb Code     2  stm32f1xx_it.o(i.BusFault_Handler)
    DebugMon_Handler                         0x080003d7   Thumb Code     2  stm32f1xx_it.o(i.DebugMon_Handler)
    HAL_Delay                                0x08000405   Thumb Code    32  stm32f1xx_hal.o(i.HAL_Delay)
    HAL_GPIO_Init                            0x08000429   Thumb Code   446  stm32f1xx_hal_gpio.o(i.HAL_GPIO_Init)
    HAL_GPIO_ReadPin                         0x08000609   Thumb Code    10  stm32f1xx_hal_gpio.o(i.HAL_GPIO_ReadPin)
    HAL_GPIO_WritePin                        0x08000613   Thumb Code    10  stm32f1xx_hal_gpio.o(i.HAL_GPIO_WritePin)
    HAL_GetTick                              0x0800061d   Thumb Code     6  stm32f1xx_hal.o(i.HAL_GetTick)
    HAL_I2C_Init                             0x08000629   Thumb Code   376  stm32f1xx_hal_i2c.o(i.HAL_I2C_Init)
    HAL_I2C_MspInit                          0x080007b1   Thumb Code    82  stm32f1xx_hal_msp.o(i.HAL_I2C_MspInit)
    HAL_IncTick                              0x08000811   Thumb Code    12  stm32f1xx_hal.o(i.HAL_IncTick)
    HAL_Init                                 0x08000821   Thumb Code    32  stm32f1xx_hal.o(i.HAL_Init)
    HAL_InitTick                             0x08000845   Thumb Code    54  stm32f1xx_hal.o(i.HAL_InitTick)
    HAL_MspInit                              0x08000885   Thumb Code    52  stm32f1xx_hal_msp.o(i.HAL_MspInit)
    HAL_NVIC_SetPriority                     0x080008c1   Thumb Code    60  stm32f1xx_hal_cortex.o(i.HAL_NVIC_SetPriority)
    HAL_NVIC_SetPriorityGrouping             0x08000901   Thumb Code    26  stm32f1xx_hal_cortex.o(i.HAL_NVIC_SetPriorityGrouping)
    HAL_PCD_Init                             0x08000925   Thumb Code   218  stm32f1xx_hal_pcd.o(i.HAL_PCD_Init)
    HAL_PCD_MspInit                          0x08000a01   Thumb Code    30  stm32f1xx_hal_msp.o(i.HAL_PCD_MspInit)
    HAL_RCCEx_PeriphCLKConfig                0x08000a29   Thumb Code   224  stm32f1xx_hal_rcc_ex.o(i.HAL_RCCEx_PeriphCLKConfig)
    HAL_RCC_ClockConfig                      0x08000b15   Thumb Code   280  stm32f1xx_hal_rcc.o(i.HAL_RCC_ClockConfig)
    HAL_RCC_GetPCLK1Freq                     0x08000c41   Thumb Code    20  stm32f1xx_hal_rcc.o(i.HAL_RCC_GetPCLK1Freq)
    HAL_RCC_GetPCLK2Freq                     0x08000c61   Thumb Code    20  stm32f1xx_hal_rcc.o(i.HAL_RCC_GetPCLK2Freq)
    HAL_RCC_GetSysClockFreq                  0x08000c81   Thumb Code    74  stm32f1xx_hal_rcc.o(i.HAL_RCC_GetSysClockFreq)
    HAL_RCC_OscConfig                        0x08000ced   Thumb Code   778  stm32f1xx_hal_rcc.o(i.HAL_RCC_OscConfig)
    HAL_SPI_Init                             0x0800100d   Thumb Code   178  stm32f1xx_hal_spi.o(i.HAL_SPI_Init)
    HAL_SPI_MspInit                          0x080010c1   Thumb Code   146  stm32f1xx_hal_msp.o(i.HAL_SPI_MspInit)
    HAL_SPI_Transmit                         0x08001169   Thumb Code   358  stm32f1xx_hal_spi.o(i.HAL_SPI_Transmit)
    HAL_SPI_TransmitReceive                  0x080012cf   Thumb Code   482  stm32f1xx_hal_spi.o(i.HAL_SPI_TransmitReceive)
    HAL_SYSTICK_Config                       0x080014b1   Thumb Code    40  stm32f1xx_hal_cortex.o(i.HAL_SYSTICK_Config)
    HAL_TIMEx_MasterConfigSynchronization    0x080014d9   Thumb Code    92  stm32f1xx_hal_tim_ex.o(i.HAL_TIMEx_MasterConfigSynchronization)
    HAL_TIM_IC_ConfigChannel                 0x08001541   Thumb Code   270  stm32f1xx_hal_tim.o(i.HAL_TIM_IC_ConfigChannel)
    HAL_TIM_IC_Init                          0x0800164f   Thumb Code    90  stm32f1xx_hal_tim.o(i.HAL_TIM_IC_Init)
    HAL_TIM_IC_MspInit                       0x080016a9   Thumb Code    74  stm32f1xx_hal_msp.o(i.HAL_TIM_IC_MspInit)
    HAL_TIM_SlaveConfigSynchro               0x08001701   Thumb Code    86  stm32f1xx_hal_tim.o(i.HAL_TIM_SlaveConfigSynchro)
    HAL_UART_Init                            0x08001757   Thumb Code    98  stm32f1xx_hal_uart.o(i.HAL_UART_Init)
    HAL_UART_MspInit                         0x080017b9   Thumb Code   100  stm32f1xx_hal_msp.o(i.HAL_UART_MspInit)
    HardFault_Handler                        0x08001829   Thumb Code     2  stm32f1xx_it.o(i.HardFault_Handler)
    LCD_Circle                               0x08001a3b   Thumb Code   302  ssd1963_hal.o(i.LCD_Circle)
    LCD_Circle_Fill_Helper                   0x08001b69   Thumb Code   228  ssd1963_hal.o(i.LCD_Circle_Fill_Helper)
    LCD_Circle_Helper                        0x08001c4d   Thumb Code   280  ssd1963_hal.o(i.LCD_Circle_Helper)
    LCD_Ellipse                              0x08001d65   Thumb Code   664  ssd1963_hal.o(i.LCD_Ellipse)
    LCD_Font                                 0x08001ffd   Thumb Code   144  ssd1963_hal.o(i.LCD_Font)
    LCD_Init                                 0x0800208d   Thumb Code   318  ssd1963_hal.o(i.LCD_Init)
    LCD_Line                                 0x080021cb   Thumb Code   122  ssd1963_hal.o(i.LCD_Line)
    LCD_Rect                                 0x08002245   Thumb Code    82  ssd1963_hal.o(i.LCD_Rect)
    LCD_Rect_Fill                            0x08002297   Thumb Code    60  ssd1963_hal.o(i.LCD_Rect_Fill)
    LCD_Rect_Round                           0x080022d3   Thumb Code   236  ssd1963_hal.o(i.LCD_Rect_Round)
    LCD_Rect_Round_Fill                      0x080023bf   Thumb Code   100  ssd1963_hal.o(i.LCD_Rect_Round_Fill)
    LCD_Triangle                             0x080024cd   Thumb Code    64  ssd1963_hal.o(i.LCD_Triangle)
    LCD_Triangle_Fill                        0x0800250d   Thumb Code   194  ssd1963_hal.o(i.LCD_Triangle_Fill)
    LCD_Window                               0x080025cf   Thumb Code    82  ssd1963_hal.o(i.LCD_Window)
    MemManage_Handler                        0x080027dd   Thumb Code     2  stm32f1xx_it.o(i.MemManage_Handler)
    NMI_Handler                              0x080027df   Thumb Code     2  stm32f1xx_it.o(i.NMI_Handler)
    PendSV_Handler                           0x080027e1   Thumb Code     2  stm32f1xx_it.o(i.PendSV_Handler)
    SVC_Handler                              0x080028bd   Thumb Code     2  stm32f1xx_it.o(i.SVC_Handler)
    SysTick_Handler                          0x080028bf   Thumb Code     4  stm32f1xx_it.o(i.SysTick_Handler)
    SystemClock_Config                       0x080028c3   Thumb Code   112  main.o(i.SystemClock_Config)
    SystemInit                               0x08002935   Thumb Code    56  system_stm32f1xx.o(i.SystemInit)
    TIM_Base_SetConfig                       0x0800297d   Thumb Code    94  stm32f1xx_hal_tim.o(i.TIM_Base_SetConfig)
    TIM_ETR_SetConfig                        0x080029e9   Thumb Code    20  stm32f1xx_hal_tim.o(i.TIM_ETR_SetConfig)
    TIM_TI1_SetConfig                        0x08002aa5   Thumb Code    76  stm32f1xx_hal_tim.o(i.TIM_TI1_SetConfig)
    USB_CoreInit                             0x08002c11   Thumb Code     4  stm32f1xx_ll_usb.o(i.USB_CoreInit)
    USB_DevDisconnect                        0x08002c15   Thumb Code     4  stm32f1xx_ll_usb.o(i.USB_DevDisconnect)
    USB_DevInit                              0x08002c19   Thumb Code    18  stm32f1xx_ll_usb.o(i.USB_DevInit)
    USB_DisableGlobalInt                     0x08002c2b   Thumb Code    14  stm32f1xx_ll_usb.o(i.USB_DisableGlobalInt)
    USB_SetCurrentMode                       0x08002c39   Thumb Code     4  stm32f1xx_ll_usb.o(i.USB_SetCurrentMode)
    UsageFault_Handler                       0x08002c3d   Thumb Code     2  stm32f1xx_it.o(i.UsageFault_Handler)
    XPT2046_Init                             0x08002c81   Thumb Code    46  xpt2046.o(i.XPT2046_Init)
    __scatterload_copy                       0x08002d0d   Thumb Code    14  handlers.o(i.__scatterload_copy)
    __scatterload_null                       0x08002d1b   Thumb Code     2  handlers.o(i.__scatterload_null)
    __scatterload_zeroinit                   0x08002d1d   Thumb Code    14  handlers.o(i.__scatterload_zeroinit)
    getRaw                                   0x08002d2d   Thumb Code    82  xpt2046.o(i.getRaw)
    getX                                     0x08002d85   Thumb Code    36  xpt2046.o(i.getX)
    getY                                     0x08002dad   Thumb Code    36  xpt2046.o(i.getY)
    main                                     0x08002dd5   Thumb Code   742  main.o(i.main)
    Font_3_TomThumb_ExtendedBitmaps          0x0800318c   Data         418  main.o(.constdata)
    Font_3_TomThumb_ExtendedGlyphs           0x0800332e   Data         760  main.o(.constdata)
    Font_3_TomThumb_Extended                 0x08003628   Data          12  main.o(.constdata)
    Font_5_Org                               0x08003634   Data          12  main.o(.constdata)
    Font_8_Default                           0x08003640   Data          12  main.o(.constdata)
    Font_9_Serif_Bold                        0x0800364c   Data          12  main.o(.constdata)
    Font_32_Segment_7_Num_Plus               0x08003658   Data          12  main.o(.constdata)
    Font_5_OrgBitmaps                        0x08003664   Data         271  main.o(.constdata)
    Font_5_OrgGlyphs                         0x08003774   Data         760  main.o(.constdata)
    Font_8_DefaultBitmaps                    0x08003a6c   Data         414  main.o(.constdata)
    Font_8_DefaultGlyphs                     0x08003c0a   Data         760  main.o(.constdata)
    Font_9_Serif_BoldBitmaps                 0x08003f02   Data        1162  main.o(.constdata)
    Font_9_Serif_BoldGlyphs                  0x0800438c   Data         760  main.o(.constdata)
    Font_32_Segment_7_Num_PlusBitmaps        0x08004684   Data        1395  main.o(.constdata)
    Font_32_Segment_7_Num_PlusGlyphs         0x08004bf8   Data         104  main.o(.constdata)
    AHBPrescTable                            0x08004c60   Data          16  system_stm32f1xx.o(.constdata)
    APBPrescTable                            0x08004c70   Data           8  system_stm32f1xx.o(.constdata)
    Region$$Table$$Base                      0x08004c78   Number         0  anon$$obj.o(Region$$Table)
    Region$$Table$$Limit                     0x08004c98   Number         0  anon$$obj.o(Region$$Table)
    touchX                                   0x20000000   Data           2  main.o(.data)
    touchY                                   0x20000002   Data           2  main.o(.data)
    uwTickFreq                               0x20000004   Data           1  stm32f1xx_hal.o(.data)
    uwTickPrio                               0x20000008   Data           4  stm32f1xx_hal.o(.data)
    uwTick                                   0x2000000c   Data           4  stm32f1xx_hal.o(.data)
    SystemCoreClock                          0x20000010   Data           4  system_stm32f1xx.o(.data)
    hi2c2                                    0x20000014   Data          84  main.o(.bss)
    hspi1                                    0x20000068   Data          88  main.o(.bss)
    htim1                                    0x200000c0   Data          72  main.o(.bss)
    huart1                                   0x20000108   Data          64  main.o(.bss)
    hpcd_USB_FS                              0x20000148   Data         748  main.o(.bss)
    __initial_sp                             0x20000838   Data           0  startup_stm32f103xb.o(STACK)



==============================================================================

Memory Map of the image

  Image Entry point : 0x080000ed

  Load Region LR_IROM1 (Base: 0x08000000, Size: 0x00004cac, Max: 0x00010000, ABSOLUTE)

    Execution Region ER_IROM1 (Exec base: 0x08000000, Load base: 0x08000000, Size: 0x00004c98, Max: 0x00010000, ABSOLUTE)

    Exec Addr    Load Addr    Size         Type   Attr      Idx    E Section Name        Object

    0x08000000   0x08000000   0x000000ec   Data   RO            3    RESET               startup_stm32f103xb.o
    0x080000ec   0x080000ec   0x00000000   Code   RO         4485  * .ARM.Collect$$$$00000000  mc_w.l(entry.o)
    0x080000ec   0x080000ec   0x00000004   Code   RO         4508    .ARM.Collect$$$$00000001  mc_w.l(entry2.o)
    0x080000f0   0x080000f0   0x00000004   Code   RO         4511    .ARM.Collect$$$$00000004  mc_w.l(entry5.o)
    0x080000f4   0x080000f4   0x00000000   Code   RO         4513    .ARM.Collect$$$$00000008  mc_w.l(entry7b.o)
    0x080000f4   0x080000f4   0x00000000   Code   RO         4515    .ARM.Collect$$$$0000000A  mc_w.l(entry8b.o)
    0x080000f4   0x080000f4   0x00000008   Code   RO         4516    .ARM.Collect$$$$0000000B  mc_w.l(entry9a.o)
    0x080000fc   0x080000fc   0x00000004   Code   RO         4523    .ARM.Collect$$$$0000000E  mc_w.l(entry12b.o)
    0x08000100   0x08000100   0x00000000   Code   RO         4518    .ARM.Collect$$$$0000000F  mc_w.l(entry10a.o)
    0x08000100   0x08000100   0x00000000   Code   RO         4520    .ARM.Collect$$$$00000011  mc_w.l(entry11a.o)
    0x08000100   0x08000100   0x00000004   Code   RO         4509    .ARM.Collect$$$$00002712  mc_w.l(entry2.o)
    0x08000104   0x08000104   0x00000024   Code   RO            4    .text               startup_stm32f103xb.o
    0x08000128   0x08000128   0x00000024   Code   RO         4490    .text               mc_w.l(memcpya.o)
    0x0800014c   0x0800014c   0x00000024   Code   RO         4492    .text               mc_w.l(memseta.o)
    0x08000170   0x08000170   0x0000000e   Code   RO         4494    .text               mc_w.l(strlen.o)
    0x0800017e   0x0800017e   0x000000b0   Code   RO         4498    .text               mf_w.l(fadd.o)
    0x0800022e   0x0800022e   0x00000064   Code   RO         4500    .text               mf_w.l(fmul.o)
    0x08000292   0x08000292   0x0000007c   Code   RO         4502    .text               mf_w.l(fdiv.o)
    0x0800030e   0x0800030e   0x0000000a   Code   RO         4504    .text               mf_w.l(ffltui.o)
    0x08000318   0x08000318   0x00000028   Code   RO         4506    .text               mf_w.l(ffixui.o)
    0x08000340   0x08000340   0x00000000   Code   RO         4524    .text               mc_w.l(iusefp.o)
    0x08000340   0x08000340   0x0000006e   Code   RO         4525    .text               mf_w.l(fepilogue.o)
    0x080003ae   0x080003ae   0x00000002   PAD
    0x080003b0   0x080003b0   0x00000024   Code   RO         4527    .text               mc_w.l(init.o)
    0x080003d4   0x080003d4   0x00000002   Code   RO          783    i.BusFault_Handler  stm32f1xx_it.o
    0x080003d6   0x080003d6   0x00000002   Code   RO          784    i.DebugMon_Handler  stm32f1xx_it.o
    0x080003d8   0x080003d8   0x0000002a   Code   RO          175    i.H24_RGB565        ssd1963_hal.o
    0x08000402   0x08000402   0x00000002   PAD
    0x08000404   0x08000404   0x00000024   Code   RO         1413    i.HAL_Delay         stm32f1xx_hal.o
    0x08000428   0x08000428   0x000001e0   Code   RO         1721    i.HAL_GPIO_Init     stm32f1xx_hal_gpio.o
    0x08000608   0x08000608   0x0000000a   Code   RO         1723    i.HAL_GPIO_ReadPin  stm32f1xx_hal_gpio.o
    0x08000612   0x08000612   0x0000000a   Code   RO         1725    i.HAL_GPIO_WritePin  stm32f1xx_hal_gpio.o
    0x0800061c   0x0800061c   0x0000000c   Code   RO         1417    i.HAL_GetTick       stm32f1xx_hal.o
    0x08000628   0x08000628   0x00000188   Code   RO          990    i.HAL_I2C_Init      stm32f1xx_hal_i2c.o
    0x080007b0   0x080007b0   0x00000060   Code   RO          860    i.HAL_I2C_MspInit   stm32f1xx_hal_msp.o
    0x08000810   0x08000810   0x00000010   Code   RO         1423    i.HAL_IncTick       stm32f1xx_hal.o
    0x08000820   0x08000820   0x00000024   Code   RO         1424    i.HAL_Init          stm32f1xx_hal.o
    0x08000844   0x08000844   0x00000040   Code   RO         1425    i.HAL_InitTick      stm32f1xx_hal.o
    0x08000884   0x08000884   0x0000003c   Code   RO          861    i.HAL_MspInit       stm32f1xx_hal_msp.o
    0x080008c0   0x080008c0   0x00000040   Code   RO         1887    i.HAL_NVIC_SetPriority  stm32f1xx_hal_cortex.o
    0x08000900   0x08000900   0x00000024   Code   RO         1888    i.HAL_NVIC_SetPriorityGrouping  stm32f1xx_hal_cortex.o
    0x08000924   0x08000924   0x000000da   Code   RO         4020    i.HAL_PCD_Init      stm32f1xx_hal_pcd.o
    0x080009fe   0x080009fe   0x00000002   PAD
    0x08000a00   0x08000a00   0x00000028   Code   RO          863    i.HAL_PCD_MspInit   stm32f1xx_hal_msp.o
    0x08000a28   0x08000a28   0x000000ec   Code   RO         1684    i.HAL_RCCEx_PeriphCLKConfig  stm32f1xx_hal_rcc_ex.o
    0x08000b14   0x08000b14   0x0000012c   Code   RO         1581    i.HAL_RCC_ClockConfig  stm32f1xx_hal_rcc.o
    0x08000c40   0x08000c40   0x00000020   Code   RO         1588    i.HAL_RCC_GetPCLK1Freq  stm32f1xx_hal_rcc.o
    0x08000c60   0x08000c60   0x00000020   Code   RO         1589    i.HAL_RCC_GetPCLK2Freq  stm32f1xx_hal_rcc.o
    0x08000c80   0x08000c80   0x0000006c   Code   RO         1590    i.HAL_RCC_GetSysClockFreq  stm32f1xx_hal_rcc.o
    0x08000cec   0x08000cec   0x00000320   Code   RO         1593    i.HAL_RCC_OscConfig  stm32f1xx_hal_rcc.o
    0x0800100c   0x0800100c   0x000000b2   Code   RO         2392    i.HAL_SPI_Init      stm32f1xx_hal_spi.o
    0x080010be   0x080010be   0x00000002   PAD
    0x080010c0   0x080010c0   0x000000a8   Code   RO          865    i.HAL_SPI_MspInit   stm32f1xx_hal_msp.o
    0x08001168   0x08001168   0x00000166   Code   RO         2400    i.HAL_SPI_Transmit  stm32f1xx_hal_spi.o
    0x080012ce   0x080012ce   0x000001e2   Code   RO         2401    i.HAL_SPI_TransmitReceive  stm32f1xx_hal_spi.o
    0x080014b0   0x080014b0   0x00000028   Code   RO         1892    i.HAL_SYSTICK_Config  stm32f1xx_hal_cortex.o
    0x080014d8   0x080014d8   0x00000068   Code   RO         3428    i.HAL_TIMEx_MasterConfigSynchronization  stm32f1xx_hal_tim_ex.o
    0x08001540   0x08001540   0x0000010e   Code   RO         2741    i.HAL_TIM_IC_ConfigChannel  stm32f1xx_hal_tim.o
    0x0800164e   0x0800164e   0x0000005a   Code   RO         2744    i.HAL_TIM_IC_Init   stm32f1xx_hal_tim.o
    0x080016a8   0x080016a8   0x00000058   Code   RO          867    i.HAL_TIM_IC_MspInit  stm32f1xx_hal_msp.o
    0x08001700   0x08001700   0x00000056   Code   RO         2794    i.HAL_TIM_SlaveConfigSynchro  stm32f1xx_hal_tim.o
    0x08001756   0x08001756   0x00000062   Code   RO         3701    i.HAL_UART_Init     stm32f1xx_hal_uart.o
    0x080017b8   0x080017b8   0x00000070   Code   RO          869    i.HAL_UART_MspInit  stm32f1xx_hal_msp.o
    0x08001828   0x08001828   0x00000002   Code   RO          785    i.HardFault_Handler  stm32f1xx_it.o
    0x0800182a   0x0800182a   0x00000002   PAD
    0x0800182c   0x0800182c   0x00000148   Code   RO          177    i.LCD_Bus           ssd1963_hal.o
    0x08001974   0x08001974   0x000000c6   Code   RO          178    i.LCD_Char          ssd1963_hal.o
    0x08001a3a   0x08001a3a   0x0000012e   Code   RO          179    i.LCD_Circle        ssd1963_hal.o
    0x08001b68   0x08001b68   0x000000e4   Code   RO          180    i.LCD_Circle_Fill_Helper  ssd1963_hal.o
    0x08001c4c   0x08001c4c   0x00000118   Code   RO          181    i.LCD_Circle_Helper  ssd1963_hal.o
    0x08001d64   0x08001d64   0x00000298   Code   RO          182    i.LCD_Ellipse       ssd1963_hal.o
    0x08001ffc   0x08001ffc   0x00000090   Code   RO          183    i.LCD_Font          ssd1963_hal.o
    0x0800208c   0x0800208c   0x0000013e   Code   RO          184    i.LCD_Init          ssd1963_hal.o
    0x080021ca   0x080021ca   0x0000007a   Code   RO          185    i.LCD_Line          ssd1963_hal.o
    0x08002244   0x08002244   0x00000052   Code   RO          187    i.LCD_Rect          ssd1963_hal.o
    0x08002296   0x08002296   0x0000003c   Code   RO          188    i.LCD_Rect_Fill     ssd1963_hal.o
    0x080022d2   0x080022d2   0x000000ec   Code   RO          189    i.LCD_Rect_Round    ssd1963_hal.o
    0x080023be   0x080023be   0x00000064   Code   RO          190    i.LCD_Rect_Round_Fill  ssd1963_hal.o
    0x08002422   0x08002422   0x00000002   PAD
    0x08002424   0x08002424   0x00000054   Code   RO          191    i.LCD_Send_Cmd      ssd1963_hal.o
    0x08002478   0x08002478   0x00000054   Code   RO          192    i.LCD_Send_Dat      ssd1963_hal.o
    0x080024cc   0x080024cc   0x00000040   Code   RO          193    i.LCD_Triangle      ssd1963_hal.o
    0x0800250c   0x0800250c   0x000000c2   Code   RO          194    i.LCD_Triangle_Fill  ssd1963_hal.o
    0x080025ce   0x080025ce   0x00000052   Code   RO          195    i.LCD_Window        ssd1963_hal.o
    0x08002620   0x08002620   0x000000e0   Code   RO          330    i.MX_GPIO_Init      main.o
    0x08002700   0x08002700   0x00000040   Code   RO          331    i.MX_SPI1_Init      main.o
    0x08002740   0x08002740   0x0000009c   Code   RO          332    i.MX_TIM1_Init      main.o
    0x080027dc   0x080027dc   0x00000002   Code   RO          786    i.MemManage_Handler  stm32f1xx_it.o
    0x080027de   0x080027de   0x00000002   Code   RO          787    i.NMI_Handler       stm32f1xx_it.o
    0x080027e0   0x080027e0   0x00000002   Code   RO          788    i.PendSV_Handler    stm32f1xx_it.o
    0x080027e2   0x080027e2   0x00000020   Code   RO         2430    i.SPI_EndRxTxTransaction  stm32f1xx_hal_spi.o
    0x08002802   0x08002802   0x00000002   PAD
    0x08002804   0x08002804   0x000000b8   Code   RO         2435    i.SPI_WaitFlagStateUntilTimeout  stm32f1xx_hal_spi.o
    0x080028bc   0x080028bc   0x00000002   Code   RO          789    i.SVC_Handler       stm32f1xx_it.o
    0x080028be   0x080028be   0x00000004   Code   RO          790    i.SysTick_Handler   stm32f1xx_it.o
    0x080028c2   0x080028c2   0x00000070   Code   RO          333    i.SystemClock_Config  main.o
    0x08002932   0x08002932   0x00000002   PAD
    0x08002934   0x08002934   0x00000048   Code   RO         4451    i.SystemInit        system_stm32f1xx.o
    0x0800297c   0x0800297c   0x0000006c   Code   RO         2798    i.TIM_Base_SetConfig  stm32f1xx_hal_tim.o
    0x080029e8   0x080029e8   0x00000014   Code   RO         2809    i.TIM_ETR_SetConfig  stm32f1xx_hal_tim.o
    0x080029fc   0x080029fc   0x00000086   Code   RO         2815    i.TIM_SlaveTimer_SetConfig  stm32f1xx_hal_tim.o
    0x08002a82   0x08002a82   0x00000022   Code   RO         2816    i.TIM_TI1_ConfigInputStage  stm32f1xx_hal_tim.o
    0x08002aa4   0x08002aa4   0x00000058   Code   RO         2817    i.TIM_TI1_SetConfig  stm32f1xx_hal_tim.o
    0x08002afc   0x08002afc   0x00000024   Code   RO         2818    i.TIM_TI2_ConfigInputStage  stm32f1xx_hal_tim.o
    0x08002b20   0x08002b20   0x00000036   Code   RO         2819    i.TIM_TI2_SetConfig  stm32f1xx_hal_tim.o
    0x08002b56   0x08002b56   0x00000002   PAD
    0x08002b58   0x08002b58   0x000000b8   Code   RO         3727    i.UART_SetConfig    stm32f1xx_hal_uart.o
    0x08002c10   0x08002c10   0x00000004   Code   RO         4273    i.USB_CoreInit      stm32f1xx_ll_usb.o
    0x08002c14   0x08002c14   0x00000004   Code   RO         4277    i.USB_DevDisconnect  stm32f1xx_ll_usb.o
    0x08002c18   0x08002c18   0x00000012   Code   RO         4278    i.USB_DevInit       stm32f1xx_ll_usb.o
    0x08002c2a   0x08002c2a   0x0000000e   Code   RO         4279    i.USB_DisableGlobalInt  stm32f1xx_ll_usb.o
    0x08002c38   0x08002c38   0x00000004   Code   RO         4293    i.USB_SetCurrentMode  stm32f1xx_ll_usb.o
    0x08002c3c   0x08002c3c   0x00000002   Code   RO          791    i.UsageFault_Handler  stm32f1xx_it.o
    0x08002c3e   0x08002c3e   0x00000002   PAD
    0x08002c40   0x08002c40   0x00000040   Code   RO           13    i.X                 xpt2046.o
    0x08002c80   0x08002c80   0x00000034   Code   RO           14    i.XPT2046_Init      xpt2046.o
    0x08002cb4   0x08002cb4   0x00000038   Code   RO           15    i.Y                 xpt2046.o
    0x08002cec   0x08002cec   0x00000020   Code   RO         1894    i.__NVIC_SetPriority  stm32f1xx_hal_cortex.o
    0x08002d0c   0x08002d0c   0x0000000e   Code   RO         4531    i.__scatterload_copy  mc_w.l(handlers.o)
    0x08002d1a   0x08002d1a   0x00000002   Code   RO         4532    i.__scatterload_null  mc_w.l(handlers.o)
    0x08002d1c   0x08002d1c   0x0000000e   Code   RO         4533    i.__scatterload_zeroinit  mc_w.l(handlers.o)
    0x08002d2a   0x08002d2a   0x00000002   PAD
    0x08002d2c   0x08002d2c   0x00000058   Code   RO           16    i.getRaw            xpt2046.o
    0x08002d84   0x08002d84   0x00000028   Code   RO           17    i.getX              xpt2046.o
    0x08002dac   0x08002dac   0x00000028   Code   RO           18    i.getY              xpt2046.o
    0x08002dd4   0x08002dd4   0x00000374   Code   RO          334    i.main              main.o
    0x08003148   0x08003148   0x0000003c   Code   RO           19    i.remap             xpt2046.o
    0x08003184   0x08003184   0x00000008   Data   RO           20    .constdata          xpt2046.o
    0x0800318c   0x0800318c   0x000001a2   Data   RO          342    .constdata          main.o
    0x0800332e   0x0800332e   0x000002f8   Data   RO          343    .constdata          main.o
    0x08003626   0x08003626   0x00000002   PAD
    0x08003628   0x08003628   0x0000003c   Data   RO          344    .constdata          main.o
    0x08003664   0x08003664   0x0000010f   Data   RO          345    .constdata          main.o
    0x08003773   0x08003773   0x00000001   PAD
    0x08003774   0x08003774   0x000002f8   Data   RO          346    .constdata          main.o
    0x08003a6c   0x08003a6c   0x0000019e   Data   RO          359    .constdata          main.o
    0x08003c0a   0x08003c0a   0x000002f8   Data   RO          360    .constdata          main.o
    0x08003f02   0x08003f02   0x0000048a   Data   RO          391    .constdata          main.o
    0x0800438c   0x0800438c   0x000002f8   Data   RO          392    .constdata          main.o
    0x08004684   0x08004684   0x00000573   Data   RO          603    .constdata          main.o
    0x08004bf7   0x08004bf7   0x00000001   PAD
    0x08004bf8   0x08004bf8   0x00000068   Data   RO          604    .constdata          main.o
    0x08004c60   0x08004c60   0x00000010   Data   RO         4452    .constdata          system_stm32f1xx.o
    0x08004c70   0x08004c70   0x00000008   Data   RO         4453    .constdata          system_stm32f1xx.o
    0x08004c78   0x08004c78   0x00000020   Data   RO         4529    Region$$Table       anon$$obj.o


    Execution Region RW_IRAM1 (Exec base: 0x20000000, Load base: 0x08004c98, Size: 0x00000838, Max: 0x00005000, ABSOLUTE)

    Exec Addr    Load Addr    Size         Type   Attr      Idx    E Section Name        Object

    0x20000000   0x08004c98   0x00000004   Data   RW          632    .data               main.o
    0x20000004   0x08004c9c   0x0000000c   Data   RW         1431    .data               stm32f1xx_hal.o
    0x20000010   0x08004ca8   0x00000004   Data   RW         4454    .data               system_stm32f1xx.o
    0x20000014        -       0x00000420   Zero   RW          335    .bss                main.o
    0x20000434   0x08004cac   0x00000004   PAD
    0x20000438        -       0x00000400   Zero   RW            1    STACK               startup_stm32f103xb.o


==============================================================================

Image component sizes


      Code (inc. data)   RO Data    RW Data    ZI Data      Debug   Object Name

      1440        174       6864          4       1056      48787   main.o
      3612         22          0          0          0      22003   ssd1963_hal.o
        36          8        236          0       1024        800   startup_stm32f103xb.o
       164         28          0         12          0       5861   stm32f1xx_hal.o
       172         14          0          0          0      28270   stm32f1xx_hal_cortex.o
       500         34          0          0          0       3503   stm32f1xx_hal_gpio.o
       392         16          0          0          0       3079   stm32f1xx_hal_i2c.o
       564         80          0          0          0       4144   stm32f1xx_hal_msp.o
       218          0          0          0          0       1488   stm32f1xx_hal_pcd.o
      1272        100          0          0          0       5164   stm32f1xx_hal_rcc.o
       236         12          0          0          0       1372   stm32f1xx_hal_rcc_ex.o
      1234          4          0          0          0       6164   stm32f1xx_hal_spi.o
       920         34          0          0          0       8641   stm32f1xx_hal_tim.o
       104         12          0          0          0       1316   stm32f1xx_hal_tim_ex.o
       282          6          0          0          0       1900   stm32f1xx_hal_uart.o
        20          0          0          0          0       3758   stm32f1xx_it.o
        44          0          0          0          0       3304   stm32f1xx_ll_usb.o
        72         16         24          4          0       1147   system_stm32f1xx.o
       400         44          8          0          0     454746   xpt2046.o

    ----------------------------------------------------------------------
     11700        604       7168         20       2084     605447   Object Totals
         0          0         32          0          0          0   (incl. Generated)
        18          0          4          0          4          0   (incl. Padding)

    ----------------------------------------------------------------------

      Code (inc. data)   RO Data    RW Data    ZI Data      Debug   Library Member Name

         0          0          0          0          0          0   entry.o
         0          0          0          0          0          0   entry10a.o
         0          0          0          0          0          0   entry11a.o
         4          0          0          0          0          0   entry12b.o
         8          4          0          0          0          0   entry2.o
         4          0          0          0          0          0   entry5.o
         0          0          0          0          0          0   entry7b.o
         0          0          0          0          0          0   entry8b.o
         8          4          0          0          0          0   entry9a.o
        30          0          0          0          0          0   handlers.o
        36          8          0          0          0         68   init.o
         0          0          0          0          0          0   iusefp.o
        36          0          0          0          0         68   memcpya.o
        36          0          0          0          0        108   memseta.o
        14          0          0          0          0         68   strlen.o
       176          0          0          0          0        140   fadd.o
       124          0          0          0          0         88   fdiv.o
       110          0          0          0          0        168   fepilogue.o
        40          0          0          0          0         68   ffixui.o
        10          0          0          0          0         68   ffltui.o
       100          0          0          0          0         76   fmul.o

    ----------------------------------------------------------------------
       740         16          0          0          0        920   Library Totals
         4          0          0          0          0          0   (incl. Padding)

    ----------------------------------------------------------------------

      Code (inc. data)   RO Data    RW Data    ZI Data      Debug   Library Name

       176         16          0          0          0        312   mc_w.l
       560          0          0          0          0        608   mf_w.l

    ----------------------------------------------------------------------
       740         16          0          0          0        920   Library Totals

    ----------------------------------------------------------------------

==============================================================================


      Code (inc. data)   RO Data    RW Data    ZI Data      Debug   

     12440        620       7168         20       2084     601683   Grand Totals
     12440        620       7168         20       2084     601683   ELF Image Totals
     12440        620       7168         20          0          0   ROM Totals

==============================================================================

    Total RO  Size (Code + RO Data)                19608 (  19.15kB)
    Total RW  Size (RW Data + ZI Data)              2104 (   2.05kB)
    Total ROM Size (Code + RO Data + RW Data)      19628 (  19.17kB)

==============================================================================

