Component: ARM Compiler 5.06 update 6 (build 750) Tool: armlink [4d35ed]

==============================================================================

Section Cross References

    startup_stm32f103xb.o(RESET) refers to startup_stm32f103xb.o(STACK) for __initial_sp
    startup_stm32f103xb.o(RESET) refers to startup_stm32f103xb.o(.text) for Reset_Handler
    startup_stm32f103xb.o(RESET) refers to stm32f1xx_it.o(i.NMI_Handler) for NMI_Handler
    startup_stm32f103xb.o(RESET) refers to stm32f1xx_it.o(i.HardFault_Handler) for HardFault_Handler
    startup_stm32f103xb.o(RESET) refers to stm32f1xx_it.o(i.MemManage_Handler) for MemManage_Handler
    startup_stm32f103xb.o(RESET) refers to stm32f1xx_it.o(i.BusFault_Handler) for BusFault_Handler
    startup_stm32f103xb.o(RESET) refers to stm32f1xx_it.o(i.UsageFault_Handler) for UsageFault_Handler
    startup_stm32f103xb.o(RESET) refers to stm32f1xx_it.o(i.SVC_Handler) for SVC_Handler
    startup_stm32f103xb.o(RESET) refers to stm32f1xx_it.o(i.DebugMon_Handler) for DebugMon_Handler
    startup_stm32f103xb.o(RESET) refers to stm32f1xx_it.o(i.PendSV_Handler) for PendSV_Handler
    startup_stm32f103xb.o(RESET) refers to stm32f1xx_it.o(i.SysTick_Handler) for SysTick_Handler
    startup_stm32f103xb.o(.text) refers to system_stm32f1xx.o(i.SystemInit) for SystemInit
    startup_stm32f103xb.o(.text) refers to entry.o(.ARM.Collect$$$$00000000) for __main
    system_stm32f1xx.o(i.SystemCoreClockUpdate) refers to system_stm32f1xx.o(.data) for .data
    system_stm32f1xx.o(i.SystemCoreClockUpdate) refers to system_stm32f1xx.o(.constdata) for .constdata
    stm32f1xx_hal.o(i.HAL_DeInit) refers to stm32f1xx_hal.o(i.HAL_MspDeInit) for HAL_MspDeInit
    stm32f1xx_hal.o(i.HAL_Delay) refers to stm32f1xx_hal.o(i.HAL_GetTick) for HAL_GetTick
    stm32f1xx_hal.o(i.HAL_Delay) refers to stm32f1xx_hal.o(.data) for .data
==============================================================================

Removing Unused input sections from the image.

    Removing system_stm32f1xx.o(.rev16_text), (4 bytes).
    Removing system_stm32f1xx.o(.revsh_text), (4 bytes).
    Removing system_stm32f1xx.o(.rrx_text), (6 bytes).
    Removing system_stm32f1xx.o(i.SystemCoreClockUpdate), (104 bytes).
    Removing stm32f1xx_hal_tim_ex.o(.rev16_text), (4 bytes).
    Removing stm32f1xx_hal_tim_ex.o(.revsh_text), (4 bytes).
    Removing stm32f1xx_hal_tim_ex.o(.rrx_text), (6 bytes).
    Removing stm32f1xx_hal.o(.rev16_text), (4 bytes).
    Removing stm32f1xx_hal.o(.revsh_text), (4 bytes).
    Removing stm32f1xx_hal.o(.rrx_text), (6 bytes).
    Removing stm32f1xx_hal.o(i.HAL_DBGMCU_DisableDBGSleepMode), (16 bytes).
    Removing stm32f1xx_hal.o(i.HAL_DBGMCU_DisableDBGStandbyMode), (16 bytes).
    Removing stm32f1xx_hal.o(i.HAL_DBGMCU_DisableDBGStopMode), (16 bytes).
    Removing stm32f1xx_hal.o(i.HAL_DBGMCU_EnableDBGSleepMode), (16 bytes).
    Removing stm32f1xx_hal.o(i.HAL_DBGMCU_EnableDBGStandbyMode), (16 bytes).
    Removing stm32f1xx_hal.o(i.HAL_DBGMCU_EnableDBGStopMode), (16 bytes).
    Removing stm32f1xx_hal.o(i.HAL_DeInit), (32 bytes).
    Removing stm32f1xx_hal.o(i.HAL_GetDEVID), (16 bytes).
==============================================================================

Image Symbol Table

    Local Symbols

    Symbol Name                              Value     Ov Type        Size  Object(Section)

    ..//Src/system_stm32f1xx.c               0x00000000   Number         0  system_stm32f1xx.o ABSOLUTE
    ../Drivers/STM32F1xx_HAL_Driver/Src/stm32f1xx_hal.c 0x00000000   Number         0  stm32f1xx_hal.o ABSOLUTE
    ../Drivers/STM32F1xx_HAL_Driver/Src/stm32f1xx_hal_cortex.c 0x00000000   Number         0  stm32f1xx_hal_cortex.o ABSOLUTE
    ../Drivers/STM32F1xx_HAL_Driver/Src/stm32f1xx_hal_dma.c 0x00000000   Number         0  stm32f1xx_hal_dma.o ABSOLUTE
    ../Drivers/STM32F1xx_HAL_Driver/Src/stm32f1xx_hal_flash.c 0x00000000   Number         0  stm32f1xx_hal_flash.o ABSOLUTE
    ../Drivers/STM32F1xx_HAL_Driver/Src/stm32f1xx_hal_flash_ex.c 0x00000000   Number         0  stm32f1xx_hal_flash_ex.o ABSOLUTE
    ../Drivers/STM32F1xx_HAL_Driver/Src/stm32f1xx_hal_gpio.c 0x00000000   Number         0  stm32f1xx_hal_gpio.o ABSOLUTE
    ../Drivers/STM32F1xx_HAL_Driver/Src/stm32f1xx_hal_gpio_ex.c 0x00000000   Number         0  stm32f1xx_hal_gpio_ex.o ABSOLUTE
    ../Drivers/STM32F1xx_HAL_Driver/Src/stm32f1xx_hal_i2c.c 0x00000000   Number         0  stm32f1xx_hal_i2c.o ABSOLUTE
    ../Drivers/STM32F1xx_HAL_Driver/Src/stm32f1xx_hal_pwr.c 0x00000000   Number         0  stm32f1xx_hal_pwr.o ABSOLUTE
    ../Drivers/STM32F1xx_HAL_Driver/Src/stm32f1xx_hal_rcc.c 0x00000000   Number         0  stm32f1xx_hal_rcc.o ABSOLUTE
    ../Drivers/STM32F1xx_HAL_Driver/Src/stm32f1xx_hal_rcc_ex.c 0x00000000   Number         0  stm32f1xx_hal_rcc_ex.o ABSOLUTE
    ../Drivers/STM32F1xx_HAL_Driver/Src/stm32f1xx_hal_tim.c 0x00000000   Number         0  stm32f1xx_hal_tim.o ABSOLUTE
    ../Drivers/STM32F1xx_HAL_Driver/Src/stm32f1xx_hal_tim_ex.c 0x00000000   Number         0  stm32f1xx_hal_tim_ex.o ABSOLUTE
    ../Src/main.c                            0x00000000   Number         0  main.o ABSOLUTE
    ../Src/stm32f1xx_hal_msp.c               0x00000000   Number         0  stm32f1xx_hal_msp.o ABSOLUTE
    ../Src/stm32f1xx_it.c                    0x00000000   Number         0  stm32f1xx_it.o ABSOLUTE
    ../clib/microlib/init/entry.s            0x00000000   Number         0  entry9a.o ABSOLUTE
    ../clib/microlib/init/entry.s            0x00000000   Number         0  entry.o ABSOLUTE
    ../clib/microlib/init/entry.s            0x00000000   Number         0  entry8b.o ABSOLUTE
    ../clib/microlib/init/entry.s            0x00000000   Number         0  entry7b.o ABSOLUTE
    ../clib/microlib/init/entry.s            0x00000000   Number         0  entry7a.o ABSOLUTE
    ../clib/microlib/init/entry.s            0x00000000   Number         0  entry5.o ABSOLUTE
    ../clib/microlib/init/entry.s            0x00000000   Number         0  entry2.o ABSOLUTE
    ../clib/microlib/init/entry.s            0x00000000   Number         0  entry8a.o ABSOLUTE
    ../clib/microlib/init/entry.s            0x00000000   Number         0  entry11a.o ABSOLUTE
    ../clib/microlib/init/entry.s            0x00000000   Number         0  entry11b.o ABSOLUTE
    ../clib/microlib/init/entry.s            0x00000000   Number         0  entry10b.o ABSOLUTE
    ../clib/microlib/init/entry.s            0x00000000   Number         0  entry10a.o ABSOLUTE
    ../clib/microlib/init/entry.s            0x00000000   Number         0  entry9b.o ABSOLUTE
    ../clib/microlib/longlong.c              0x00000000   Number         0  llushr.o ABSOLUTE
    ../clib/microlib/longlong.c              0x00000000   Number         0  llshl.o ABSOLUTE
    ../clib/microlib/longlong.c              0x00000000   Number         0  llsshr.o ABSOLUTE
    ../clib/microlib/malloc/malloc.c         0x00000000   Number         0  malloc.o ABSOLUTE
    ../clib/microlib/malloc/malloc.c         0x00000000   Number         0  malloca.o ABSOLUTE
    ../clib/microlib/malloc/malloc.c         0x00000000   Number         0  mallocra.o ABSOLUTE
    ../clib/microlib/malloc/malloc.c         0x00000000   Number         0  mallocr.o ABSOLUTE
    ../clib/microlib/malloc/mvars.c          0x00000000   Number         0  mvars.o ABSOLUTE
    ../clib/microlib/string/memcpy.c         0x00000000   Number         0  memcpyb.o ABSOLUTE
    ../clib/microlib/string/memcpy.c         0x00000000   Number         0  memcpya.o ABSOLUTE
    ../clib/microlib/string/memset.c         0x00000000   Number         0  memseta.o ABSOLUTE
    ../clib/microlib/string/strlen.c         0x00000000   Number         0  strlen.o ABSOLUTE
    ../clib/microlib/stubs.s                 0x00000000   Number         0  iusefp.o ABSOLUTE
    ../fplib/microlib/d2f.c                  0x00000000   Number         0  d2f.o ABSOLUTE
    ../fplib/microlib/f2d.c                  0x00000000   Number         0  f2d.o ABSOLUTE
    ../fplib/microlib/fpadd.c                0x00000000   Number         0  dadd.o ABSOLUTE
    ../fplib/microlib/fpepilogue.c           0x00000000   Number         0  depilogue.o ABSOLUTE
    ../fplib/microlib/fpepilogue.c           0x00000000   Number         0  fepilogue.o ABSOLUTE
    ..\Drivers\STM32F1xx_HAL_Driver\Src\stm32f1xx_hal.c 0x00000000   Number         0  stm32f1xx_hal.o ABSOLUTE
    ..\Drivers\STM32F1xx_HAL_Driver\Src\stm32f1xx_hal_cortex.c 0x00000000   Number         0  stm32f1xx_hal_cortex.o ABSOLUTE
    ..\Drivers\STM32F1xx_HAL_Driver\Src\stm32f1xx_hal_dma.c 0x00000000   Number         0  stm32f1xx_hal_dma.o ABSOLUTE
    ..\Drivers\STM32F1xx_HAL_Driver\Src\stm32f1xx_hal_flash.c 0x00000000   Number         0  stm32f1xx_hal_flash.o ABSOLUTE
    ..\Drivers\STM32F1xx_HAL_Driver\Src\stm32f1xx_hal_flash_ex.c 0x00000000   Number         0  stm32f1xx_hal_flash_ex.o ABSOLUTE
    ..\Drivers\STM32F1xx_HAL_Driver\Src\stm32f1xx_hal_gpio.c 0x00000000   Number         0  stm32f1xx_hal_gpio.o ABSOLUTE
    ..\Drivers\STM32F1xx_HAL_Driver\Src\stm32f1xx_hal_gpio_ex.c 0x00000000   Number         0  stm32f1xx_hal_gpio_ex.o ABSOLUTE
    ..\Drivers\STM32F1xx_HAL_Driver\Src\stm32f1xx_hal_i2c.c 0x00000000   Number         0  stm32f1xx_hal_i2c.o ABSOLUTE
    ..\Drivers\STM32F1xx_HAL_Driver\Src\stm32f1xx_hal_pwr.c 0x00000000   Number         0  stm32f1xx_hal_pwr.o ABSOLUTE
    ..\Drivers\STM32F1xx_HAL_Driver\Src\stm32f1xx_hal_rcc.c 0x00000000   Number         0  stm32f1xx_hal_rcc.o ABSOLUTE
    ..\Drivers\STM32F1xx_HAL_Driver\Src\stm32f1xx_hal_rcc_ex.c 0x00000000   Number         0  stm32f1xx_hal_rcc_ex.o ABSOLUTE
    ..\Drivers\STM32F1xx_HAL_Driver\Src\stm32f1xx_hal_tim.c 0x00000000   Number         0  stm32f1xx_hal_tim.o ABSOLUTE
    ..\Drivers\STM32F1xx_HAL_Driver\Src\stm32f1xx_hal_tim_ex.c 0x00000000   Number         0  stm32f1xx_hal_tim_ex.o ABSOLUTE
    ..\Src\main.c                            0x00000000   Number         0  main.o ABSOLUTE
    ..\Src\ssd1306.c                         0x00000000   Number         0  ssd1306.o ABSOLUTE
    ..\Src\stm32f1xx_hal_msp.c               0x00000000   Number         0  stm32f1xx_hal_msp.o ABSOLUTE
    ..\Src\stm32f1xx_it.c                    0x00000000   Number         0  stm32f1xx_it.o ABSOLUTE
    ..\\Src\\ssd1306.c                       0x00000000   Number         0  ssd1306.o ABSOLUTE
    ..\\Src\system_stm32f1xx.c               0x00000000   Number         0  system_stm32f1xx.o ABSOLUTE
    dc.s                                     0x00000000   Number         0  dc.o ABSOLUTE
    handlers.s                               0x00000000   Number         0  handlers.o ABSOLUTE
    init.s                                   0x00000000   Number         0  init.o ABSOLUTE
    startup_stm32f103xb.s                    0x00000000   Number         0  startup_stm32f103xb.o ABSOLUTE
    RESET                                    0x08000000   Section      236  startup_stm32f103xb.o(RESET)
    .ARM.Collect$$$$00000000                 0x080000ec   Section        0  entry.o(.ARM.Collect$$$$00000000)
    .ARM.Collect$$$$00000001                 0x080000ec   Section        4  entry2.o(.ARM.Collect$$$$00000001)
    .ARM.Collect$$$$00000004                 0x080000f0   Section        4  entry5.o(.ARM.Collect$$$$00000004)
    .ARM.Collect$$$$00000008                 0x080000f4   Section        0  entry7b.o(.ARM.Collect$$$$00000008)
    .ARM.Collect$$$$0000000A                 0x080000f4   Section        0  entry8b.o(.ARM.Collect$$$$0000000A)
    .ARM.Collect$$$$0000000B                 0x080000f4   Section        8  entry9a.o(.ARM.Collect$$$$0000000B)
    .ARM.Collect$$$$0000000D                 0x080000fc   Section        0  entry10a.o(.ARM.Collect$$$$0000000D)
    .ARM.Collect$$$$0000000F                 0x080000fc   Section        0  entry11a.o(.ARM.Collect$$$$0000000F)
    .ARM.Collect$$$$00002712                 0x080000fc   Section        4  entry2.o(.ARM.Collect$$$$00002712)
    __lit__00000000                          0x080000fc   Data           4  entry2.o(.ARM.Collect$$$$00002712)
    .text                                    0x08000100   Section       36  startup_stm32f103xb.o(.text)
    .text                                    0x08000124   Section        0  llushr.o(.text)
    .text                                    0x08000144   Section        0  memseta.o(.text)
    .text                                    0x08000168   Section        0  strlen.o(.text)
    .text                                    0x08000176   Section        0  dadd.o(.text)
    .text                                    0x080002c4   Section        0  f2d.o(.text)
    .text                                    0x080002ea   Section        0  d2f.o(.text)
    .text                                    0x08000322   Section        0  llshl.o(.text)
    .text                                    0x08000340   Section        0  llsshr.o(.text)
    .text                                    0x08000364   Section        0  iusefp.o(.text)
    .text                                    0x08000364   Section        0  fepilogue.o(.text)
    .text                                    0x080003d2   Section        0  depilogue.o(.text)
    .text                                    0x0800048c   Section       36  init.o(.text)
    i.BusFault_Handler                       0x080004b0   Section        0  stm32f1xx_it.o(i.BusFault_Handler)
    i.DebugMon_Handler                       0x080004b2   Section        0  stm32f1xx_it.o(i.DebugMon_Handler)
    i.HAL_Delay                              0x080004b4   Section        0  stm32f1xx_hal.o(i.HAL_Delay)
    i.HAL_GPIO_Init                          0x080004d8   Section        0  stm32f1xx_hal_gpio.o(i.HAL_GPIO_Init)
    i.HAL_GetTick                            0x08000694   Section        0  stm32f1xx_hal.o(i.HAL_GetTick)
    i.HAL_I2C_Init                           0x080006a0   Section        0  stm32f1xx_hal_i2c.o(i.HAL_I2C_Init)
    i.HAL_I2C_Master_Transmit                0x080007e0   Section        0  stm32f1xx_hal_i2c.o(i.HAL_I2C_Master_Transmit)
    i.HAL_I2C_MspInit                        0x08000918   Section        0  stm32f1xx_hal_msp.o(i.HAL_I2C_MspInit)
    i.HAL_IncTick                            0x0800095c   Section        0  stm32f1xx_hal.o(i.HAL_IncTick)
    i.HAL_Init                               0x0800096c   Section        0  stm32f1xx_hal.o(i.HAL_Init)
    i.HAL_InitTick                           0x08000990   Section        0  stm32f1xx_hal.o(i.HAL_InitTick)
    i.HAL_MspInit                            0x080009d0   Section        0  stm32f1xx_hal_msp.o(i.HAL_MspInit)
    i.HAL_NVIC_SetPriority                   0x08000a50   Section        0  stm32f1xx_hal_cortex.o(i.HAL_NVIC_SetPriority)
    i.HAL_NVIC_SetPriorityGrouping           0x08000a90   Section        0  stm32f1xx_hal_cortex.o(i.HAL_NVIC_SetPriorityGrouping)
    i.HAL_RCC_ClockConfig                    0x08000ab4   Section        0  stm32f1xx_hal_rcc.o(i.HAL_RCC_ClockConfig)
    i.HAL_RCC_GetHCLKFreq                    0x08000c08   Section        0  stm32f1xx_hal_rcc.o(i.HAL_RCC_GetHCLKFreq)
    i.HAL_RCC_GetPCLK1Freq                   0x08000c14   Section        0  stm32f1xx_hal_rcc.o(i.HAL_RCC_GetPCLK1Freq)
    i.HAL_RCC_GetSysClockFreq                0x08000c34   Section        0  stm32f1xx_hal_rcc.o(i.HAL_RCC_GetSysClockFreq)
    i.HAL_RCC_OscConfig                      0x08000ca0   Section        0  stm32f1xx_hal_rcc.o(i.HAL_RCC_OscConfig)
    i.HAL_SYSTICK_CLKSourceConfig            0x08000fa4   Section        0  stm32f1xx_hal_cortex.o(i.HAL_SYSTICK_CLKSourceConfig)
    i.HAL_SYSTICK_Callback                   0x08000fbc   Section        0  stm32f1xx_hal_cortex.o(i.HAL_SYSTICK_Callback)
    i.HAL_SYSTICK_Config                     0x08000fbe   Section        0  stm32f1xx_hal_cortex.o(i.HAL_SYSTICK_Config)
    i.HAL_SYSTICK_IRQHandler                 0x08000fe6   Section        0  stm32f1xx_hal_cortex.o(i.HAL_SYSTICK_IRQHandler)
    i.HardFault_Handler                      0x08000fee   Section        0  stm32f1xx_it.o(i.HardFault_Handler)
    i.I2C_IsAcknowledgeFailed                0x08000ff0   Section        0  stm32f1xx_hal_i2c.o(i.I2C_IsAcknowledgeFailed)
    I2C_IsAcknowledgeFailed                  0x08000ff1   Thumb Code    40  stm32f1xx_hal_i2c.o(i.I2C_IsAcknowledgeFailed)
    i.I2C_MasterRequestWrite                 0x08001018   Section        0  stm32f1xx_hal_i2c.o(i.I2C_MasterRequestWrite)
    I2C_MasterRequestWrite                   0x08001019   Thumb Code   142  stm32f1xx_hal_i2c.o(i.I2C_MasterRequestWrite)
    i.I2C_WaitOnBTFFlagUntilTimeout          0x080010ac   Section        0  stm32f1xx_hal_i2c.o(i.I2C_WaitOnBTFFlagUntilTimeout)
    I2C_WaitOnBTFFlagUntilTimeout            0x080010ad   Thumb Code    78  stm32f1xx_hal_i2c.o(i.I2C_WaitOnBTFFlagUntilTimeout)
    i.I2C_WaitOnFlagUntilTimeout             0x080010fa   Section        0  stm32f1xx_hal_i2c.o(i.I2C_WaitOnFlagUntilTimeout)
    I2C_WaitOnFlagUntilTimeout               0x080010fb   Thumb Code    96  stm32f1xx_hal_i2c.o(i.I2C_WaitOnFlagUntilTimeout)
    i.I2C_WaitOnMasterAddressFlagUntilTimeout 0x0800115c   Section        0  stm32f1xx_hal_i2c.o(i.I2C_WaitOnMasterAddressFlagUntilTimeout)
    I2C_WaitOnMasterAddressFlagUntilTimeout  0x0800115d   Thumb Code   136  stm32f1xx_hal_i2c.o(i.I2C_WaitOnMasterAddressFlagUntilTimeout)
    i.I2C_WaitOnTXEFlagUntilTimeout          0x080011e4   Section        0  stm32f1xx_hal_i2c.o(i.I2C_WaitOnTXEFlagUntilTimeout)
    I2C_WaitOnTXEFlagUntilTimeout            0x080011e5   Thumb Code    78  stm32f1xx_hal_i2c.o(i.I2C_WaitOnTXEFlagUntilTimeout)
    i.LCD_Battery                            0x08001232   Section        0  ssd1306.o(i.LCD_Battery)
    i.LCD_Char                               0x080012c0   Section        0  ssd1306.o(i.LCD_Char)
    LCD_Char                                 0x080012c1   Thumb Code   198  ssd1306.o(i.LCD_Char)
    i.LCD_Ellipse                            0x08001388   Section        0  ssd1306.o(i.LCD_Ellipse)
    i.LCD_Fill                               0x080015d8   Section        0  ssd1306.o(i.LCD_Fill)
    i.LCD_Font                               0x080015f0   Section        0  ssd1306.o(i.LCD_Font)
    i.LCD_Goto2X                             0x08001680   Section        0  ssd1306.o(i.LCD_Goto2X)
    LCD_Goto2X                               0x08001681   Thumb Code    50  ssd1306.o(i.LCD_Goto2X)
    i.LCD_Line                               0x080016b8   Section        0  ssd1306.o(i.LCD_Line)
    i.LCD_Pixel                              0x080017c0   Section        0  ssd1306.o(i.LCD_Pixel)
    i.LCD_Rect_Fill                          0x08001800   Section        0  ssd1306.o(i.LCD_Rect_Fill)
    i.LCD_UpdateScreen                       0x08001858   Section        0  ssd1306.o(i.LCD_UpdateScreen)
    i.MX_I2C1_Init                           0x080018dc   Section        0  main.o(i.MX_I2C1_Init)
    MX_I2C1_Init                             0x080018dd   Thumb Code    44  main.o(i.MX_I2C1_Init)
    i.MemManage_Handler                      0x08001914   Section        0  stm32f1xx_it.o(i.MemManage_Handler)
    i.NMI_Handler                            0x08001916   Section        0  stm32f1xx_it.o(i.NMI_Handler)
    i.NVIC_SetPriority                       0x08001918   Section        0  stm32f1xx_hal_cortex.o(i.NVIC_SetPriority)
    NVIC_SetPriority                         0x08001919   Thumb Code    32  stm32f1xx_hal_cortex.o(i.NVIC_SetPriority)
    i.PendSV_Handler                         0x08001938   Section        0  stm32f1xx_it.o(i.PendSV_Handler)
    i.SSD1306_Command                        0x0800193c   Section        0  ssd1306.o(i.SSD1306_Command)
    SSD1306_Command                          0x0800193d   Thumb Code    28  ssd1306.o(i.SSD1306_Command)
    i.SSD1306_Init                           0x0800195c   Section        0  ssd1306.o(i.SSD1306_Init)
    i.SVC_Handler                            0x08001a40   Section        0  stm32f1xx_it.o(i.SVC_Handler)
    i.SysTick_Handler                        0x08001a42   Section        0  stm32f1xx_it.o(i.SysTick_Handler)
    i.SystemClock_Config                     0x08001a50   Section        0  main.o(i.SystemClock_Config)
    i.SystemInit                             0x08001ab8   Section        0  system_stm32f1xx.o(i.SystemInit)
    i.UsageFault_Handler                     0x08001b00   Section        0  stm32f1xx_it.o(i.UsageFault_Handler)
    i.__scatterload_copy                     0x08001b02   Section       14  handlers.o(i.__scatterload_copy)
    i.__scatterload_null                     0x08001b10   Section        2  handlers.o(i.__scatterload_null)
    i.__scatterload_zeroinit                 0x08001b12   Section       14  handlers.o(i.__scatterload_zeroinit)
    i.free                                   0x08001b20   Section        0  malloc.o(i.free)
    i.main                                   0x08001b70   Section        0  main.o(i.main)
    i.malloc                                 0x08001c88   Section        0  malloc.o(i.malloc)
    .constdata                               0x08001cf4   Section       16  system_stm32f1xx.o(.constdata)
    .constdata                               0x08001d04   Section        8  system_stm32f1xx.o(.constdata)
    .constdata                               0x08001d0c   Section      801  main.o(.constdata)
    .constdata                               0x0800202e   Section      760  main.o(.constdata)
    .constdata                               0x08002328   Section       36  main.o(.constdata)
    .constdata                               0x0800234c   Section      844  main.o(.constdata)
    .constdata                               0x08002698   Section      760  main.o(.constdata)
    .constdata                               0x08002990   Section     1198  main.o(.constdata)
    .constdata                               0x08002e3e   Section      760  main.o(.constdata)
    .data                                    0x20000000   Section        4  system_stm32f1xx.o(.data)
    .data                                    0x20000004   Section       12  stm32f1xx_hal.o(.data)
    .data                                    0x20000010   Section        8  main.o(.data)
    .data                                    0x20000018   Section        8  ssd1306.o(.data)
    SSD1306                                  0x2000001a   Data           6  ssd1306.o(.data)
    .data                                    0x20000020   Section        4  mvars.o(.data)
    .data                                    0x20000024   Section        4  mvars.o(.data)
    .bss                                     0x20000028   Section       84  main.o(.bss)
    .bss                                     0x2000007c   Section     1032  ssd1306.o(.bss)
    SSD1306_Buffer                           0x2000007c   Data        1032  ssd1306.o(.bss)
    HEAP                                     0x20000488   Section      512  startup_stm32f103xb.o(HEAP)
    STACK                                    0x20000688   Section     1024  startup_stm32f103xb.o(STACK)

    Global Symbols

    Symbol Name                              Value     Ov Type        Size  Object(Section)

    BuildAttributes$$THM_ISAv4$P$D$K$B$S$PE$A:L22UL41UL21$X:L11$S22US41US21$IEEE1$IW$USESV6$~STKCKD$USESV7$~SHL$OTIME$ROPI$EBA8$MICROLIB$REQ8$PRES8$EABIv2 0x00000000   Number         0  anon$$obj.o ABSOLUTE
    __ARM_use_no_argv                        0x00000000   Number         0  main.o ABSOLUTE
    __cpp_initialize__aeabi_                  - Undefined Weak Reference
    __cxa_finalize                            - Undefined Weak Reference
    __decompress                              - Undefined Weak Reference
    _clock_init                               - Undefined Weak Reference
    _microlib_exit                            - Undefined Weak Reference
    __Vectors_Size                           0x000000ec   Number         0  startup_stm32f103xb.o ABSOLUTE
    __Vectors                                0x08000000   Data           4  startup_stm32f103xb.o(RESET)
    __Vectors_End                            0x080000ec   Data           0  startup_stm32f103xb.o(RESET)
    __main                                   0x080000ed   Thumb Code     0  entry.o(.ARM.Collect$$$$00000000)
    _main_stk                                0x080000ed   Thumb Code     0  entry2.o(.ARM.Collect$$$$00000001)
    _main_scatterload                        0x080000f1   Thumb Code     0  entry5.o(.ARM.Collect$$$$00000004)
    __main_after_scatterload                 0x080000f5   Thumb Code     0  entry5.o(.ARM.Collect$$$$00000004)
    _main_clock                              0x080000f5   Thumb Code     0  entry7b.o(.ARM.Collect$$$$00000008)
    _main_cpp_init                           0x080000f5   Thumb Code     0  entry8b.o(.ARM.Collect$$$$0000000A)
    _main_init                               0x080000f5   Thumb Code     0  entry9a.o(.ARM.Collect$$$$0000000B)
    __rt_final_cpp                           0x080000fd   Thumb Code     0  entry10a.o(.ARM.Collect$$$$0000000D)
    __rt_final_exit                          0x080000fd   Thumb Code     0  entry11a.o(.ARM.Collect$$$$0000000F)
    Reset_Handler                            0x08000101   Thumb Code     8  startup_stm32f103xb.o(.text)
    ADC1_2_IRQHandler                        0x0800011b   Thumb Code     0  startup_stm32f103xb.o(.text)
    CAN1_RX1_IRQHandler                      0x0800011b   Thumb Code     0  startup_stm32f103xb.o(.text)
    CAN1_SCE_IRQHandler                      0x0800011b   Thumb Code     0  startup_stm32f103xb.o(.text)
    DMA1_Channel1_IRQHandler                 0x0800011b   Thumb Code     0  startup_stm32f103xb.o(.text)
    DMA1_Channel2_IRQHandler                 0x0800011b   Thumb Code     0  startup_stm32f103xb.o(.text)
    DMA1_Channel3_IRQHandler                 0x0800011b   Thumb Code     0  startup_stm32f103xb.o(.text)
    DMA1_Channel4_IRQHandler                 0x0800011b   Thumb Code     0  startup_stm32f103xb.o(.text)
    DMA1_Channel5_IRQHandler                 0x0800011b   Thumb Code     0  startup_stm32f103xb.o(.text)
    DMA1_Channel6_IRQHandler                 0x0800011b   Thumb Code     0  startup_stm32f103xb.o(.text)
    DMA1_Channel7_IRQHandler                 0x0800011b   Thumb Code     0  startup_stm32f103xb.o(.text)
    EXTI0_IRQHandler                         0x0800011b   Thumb Code     0  startup_stm32f103xb.o(.text)
    EXTI15_10_IRQHandler                     0x0800011b   Thumb Code     0  startup_stm32f103xb.o(.text)
    EXTI1_IRQHandler                         0x0800011b   Thumb Code     0  startup_stm32f103xb.o(.text)
    EXTI2_IRQHandler                         0x0800011b   Thumb Code     0  startup_stm32f103xb.o(.text)
    EXTI3_IRQHandler                         0x0800011b   Thumb Code     0  startup_stm32f103xb.o(.text)
    EXTI4_IRQHandler                         0x0800011b   Thumb Code     0  startup_stm32f103xb.o(.text)
    EXTI9_5_IRQHandler                       0x0800011b   Thumb Code     0  startup_stm32f103xb.o(.text)
    FLASH_IRQHandler                         0x0800011b   Thumb Code     0  startup_stm32f103xb.o(.text)
    I2C1_ER_IRQHandler                       0x0800011b   Thumb Code     0  startup_stm32f103xb.o(.text)
    I2C1_EV_IRQHandler                       0x0800011b   Thumb Code     0  startup_stm32f103xb.o(.text)
    I2C2_ER_IRQHandler                       0x0800011b   Thumb Code     0  startup_stm32f103xb.o(.text)
    I2C2_EV_IRQHandler                       0x0800011b   Thumb Code     0  startup_stm32f103xb.o(.text)
    PVD_IRQHandler                           0x0800011b   Thumb Code     0  startup_stm32f103xb.o(.text)
    RCC_IRQHandler                           0x0800011b   Thumb Code     0  startup_stm32f103xb.o(.text)
    RTC_Alarm_IRQHandler                     0x0800011b   Thumb Code     0  startup_stm32f103xb.o(.text)
    RTC_IRQHandler                           0x0800011b   Thumb Code     0  startup_stm32f103xb.o(.text)
    SPI1_IRQHandler                          0x0800011b   Thumb Code     0  startup_stm32f103xb.o(.text)
    SPI2_IRQHandler                          0x0800011b   Thumb Code     0  startup_stm32f103xb.o(.text)
    TAMPER_IRQHandler                        0x0800011b   Thumb Code     0  startup_stm32f103xb.o(.text)
    TIM1_BRK_IRQHandler                      0x0800011b   Thumb Code     0  startup_stm32f103xb.o(.text)
    TIM1_CC_IRQHandler                       0x0800011b   Thumb Code     0  startup_stm32f103xb.o(.text)
    TIM1_TRG_COM_IRQHandler                  0x0800011b   Thumb Code     0  startup_stm32f103xb.o(.text)
    TIM1_UP_IRQHandler                       0x0800011b   Thumb Code     0  startup_stm32f103xb.o(.text)
    TIM2_IRQHandler                          0x0800011b   Thumb Code     0  startup_stm32f103xb.o(.text)
    TIM3_IRQHandler                          0x0800011b   Thumb Code     0  startup_stm32f103xb.o(.text)
    TIM4_IRQHandler                          0x0800011b   Thumb Code     0  startup_stm32f103xb.o(.text)
    USART1_IRQHandler                        0x0800011b   Thumb Code     0  startup_stm32f103xb.o(.text)
    USART2_IRQHandler                        0x0800011b   Thumb Code     0  startup_stm32f103xb.o(.text)
    USART3_IRQHandler                        0x0800011b   Thumb Code     0  startup_stm32f103xb.o(.text)
    USBWakeUp_IRQHandler                     0x0800011b   Thumb Code     0  startup_stm32f103xb.o(.text)
    USB_HP_CAN1_TX_IRQHandler                0x0800011b   Thumb Code     0  startup_stm32f103xb.o(.text)
    USB_LP_CAN1_RX0_IRQHandler               0x0800011b   Thumb Code     0  startup_stm32f103xb.o(.text)
    WWDG_IRQHandler                          0x0800011b   Thumb Code     0  startup_stm32f103xb.o(.text)
    __aeabi_llsr                             0x08000125   Thumb Code    32  llushr.o(.text)
    _ll_ushift_r                             0x08000125   Thumb Code     0  llushr.o(.text)
    __aeabi_memset                           0x08000145   Thumb Code    14  memseta.o(.text)
    __aeabi_memset4                          0x08000145   Thumb Code     0  memseta.o(.text)
    __aeabi_memset8                          0x08000145   Thumb Code     0  memseta.o(.text)
    __aeabi_memclr                           0x08000153   Thumb Code     4  memseta.o(.text)
    __aeabi_memclr4                          0x08000153   Thumb Code     0  memseta.o(.text)
    __aeabi_memclr8                          0x08000153   Thumb Code     0  memseta.o(.text)
    _memset$wrapper                          0x08000157   Thumb Code    18  memseta.o(.text)
    strlen                                   0x08000169   Thumb Code    14  strlen.o(.text)
    __aeabi_dadd                             0x08000177   Thumb Code   322  dadd.o(.text)
    __aeabi_dsub                             0x080002b9   Thumb Code     6  dadd.o(.text)
    __aeabi_drsub                            0x080002bf   Thumb Code     6  dadd.o(.text)
    __aeabi_f2d                              0x080002c5   Thumb Code    38  f2d.o(.text)
    __aeabi_d2f                              0x080002eb   Thumb Code    56  d2f.o(.text)
    __aeabi_llsl                             0x08000323   Thumb Code    30  llshl.o(.text)
    _ll_shift_l                              0x08000323   Thumb Code     0  llshl.o(.text)
    __aeabi_lasr                             0x08000341   Thumb Code    36  llsshr.o(.text)
    _ll_sshift_r                             0x08000341   Thumb Code     0  llsshr.o(.text)
    __I$use$fp                               0x08000365   Thumb Code     0  iusefp.o(.text)
    _float_round                             0x08000365   Thumb Code    18  fepilogue.o(.text)
    _float_epilogue                          0x08000377   Thumb Code    92  fepilogue.o(.text)
    _double_round                            0x080003d3   Thumb Code    30  depilogue.o(.text)
    _double_epilogue                         0x080003f1   Thumb Code   156  depilogue.o(.text)
    __scatterload                            0x0800048d   Thumb Code    28  init.o(.text)
    __scatterload_rt2                        0x0800048d   Thumb Code     0  init.o(.text)
    BusFault_Handler                         0x080004b1   Thumb Code     2  stm32f1xx_it.o(i.BusFault_Handler)
    DebugMon_Handler                         0x080004b3   Thumb Code     2  stm32f1xx_it.o(i.DebugMon_Handler)
    HAL_Delay                                0x080004b5   Thumb Code    32  stm32f1xx_hal.o(i.HAL_Delay)
    HAL_GPIO_Init                            0x080004d9   Thumb Code   408  stm32f1xx_hal_gpio.o(i.HAL_GPIO_Init)
    HAL_GetTick                              0x08000695   Thumb Code     6  stm32f1xx_hal.o(i.HAL_GetTick)
    HAL_I2C_Init                             0x080006a1   Thumb Code   302  stm32f1xx_hal_i2c.o(i.HAL_I2C_Init)
    HAL_I2C_Master_Transmit                  0x080007e1   Thumb Code   304  stm32f1xx_hal_i2c.o(i.HAL_I2C_Master_Transmit)
    HAL_I2C_MspInit                          0x08000919   Thumb Code    54  stm32f1xx_hal_msp.o(i.HAL_I2C_MspInit)
    HAL_IncTick                              0x0800095d   Thumb Code    12  stm32f1xx_hal.o(i.HAL_IncTick)
    HAL_Init                                 0x0800096d   Thumb Code    32  stm32f1xx_hal.o(i.HAL_Init)
    HAL_InitTick                             0x08000991   Thumb Code    54  stm32f1xx_hal.o(i.HAL_InitTick)
    HAL_MspInit                              0x080009d1   Thumb Code   118  stm32f1xx_hal_msp.o(i.HAL_MspInit)
    HAL_NVIC_SetPriority                     0x08000a51   Thumb Code    60  stm32f1xx_hal_cortex.o(i.HAL_NVIC_SetPriority)
    HAL_NVIC_SetPriorityGrouping             0x08000a91   Thumb Code    26  stm32f1xx_hal_cortex.o(i.HAL_NVIC_SetPriorityGrouping)
    HAL_RCC_ClockConfig                      0x08000ab5   Thumb Code   322  stm32f1xx_hal_rcc.o(i.HAL_RCC_ClockConfig)
    HAL_RCC_GetHCLKFreq                      0x08000c09   Thumb Code     6  stm32f1xx_hal_rcc.o(i.HAL_RCC_GetHCLKFreq)
    HAL_RCC_GetPCLK1Freq                     0x08000c15   Thumb Code    20  stm32f1xx_hal_rcc.o(i.HAL_RCC_GetPCLK1Freq)
    HAL_RCC_GetSysClockFreq                  0x08000c35   Thumb Code    74  stm32f1xx_hal_rcc.o(i.HAL_RCC_GetSysClockFreq)
    HAL_RCC_OscConfig                        0x08000ca1   Thumb Code   750  stm32f1xx_hal_rcc.o(i.HAL_RCC_OscConfig)
    HAL_SYSTICK_CLKSourceConfig              0x08000fa5   Thumb Code    24  stm32f1xx_hal_cortex.o(i.HAL_SYSTICK_CLKSourceConfig)
    HAL_SYSTICK_Callback                     0x08000fbd   Thumb Code     2  stm32f1xx_hal_cortex.o(i.HAL_SYSTICK_Callback)
    HAL_SYSTICK_Config                       0x08000fbf   Thumb Code    40  stm32f1xx_hal_cortex.o(i.HAL_SYSTICK_Config)
    HAL_SYSTICK_IRQHandler                   0x08000fe7   Thumb Code     8  stm32f1xx_hal_cortex.o(i.HAL_SYSTICK_IRQHandler)
    HardFault_Handler                        0x08000fef   Thumb Code     2  stm32f1xx_it.o(i.HardFault_Handler)
    LCD_Battery                              0x08001233   Thumb Code   142  ssd1306.o(i.LCD_Battery)
    LCD_Ellipse                              0x08001389   Thumb Code   592  ssd1306.o(i.LCD_Ellipse)
    LCD_Fill                                 0x080015d9   Thumb Code    18  ssd1306.o(i.LCD_Fill)
    LCD_Font                                 0x080015f1   Thumb Code   144  ssd1306.o(i.LCD_Font)
    LCD_Line                                 0x080016b9   Thumb Code   262  ssd1306.o(i.LCD_Line)
    LCD_Pixel                                0x080017c1   Thumb Code    56  ssd1306.o(i.LCD_Pixel)
    LCD_Rect_Fill                            0x08001801   Thumb Code    86  ssd1306.o(i.LCD_Rect_Fill)
    LCD_UpdateScreen                         0x08001859   Thumb Code   122  ssd1306.o(i.LCD_UpdateScreen)
    MemManage_Handler                        0x08001915   Thumb Code     2  stm32f1xx_it.o(i.MemManage_Handler)
    NMI_Handler                              0x08001917   Thumb Code     2  stm32f1xx_it.o(i.NMI_Handler)
    PendSV_Handler                           0x08001939   Thumb Code     2  stm32f1xx_it.o(i.PendSV_Handler)
    SSD1306_Init                             0x0800195d   Thumb Code   224  ssd1306.o(i.SSD1306_Init)
    SVC_Handler                              0x08001a41   Thumb Code     2  stm32f1xx_it.o(i.SVC_Handler)
    SysTick_Handler                          0x08001a43   Thumb Code    14  stm32f1xx_it.o(i.SysTick_Handler)
    SystemClock_Config                       0x08001a51   Thumb Code   104  main.o(i.SystemClock_Config)
    SystemInit                               0x08001ab9   Thumb Code    56  system_stm32f1xx.o(i.SystemInit)
    UsageFault_Handler                       0x08001b01   Thumb Code     2  stm32f1xx_it.o(i.UsageFault_Handler)
    __scatterload_copy                       0x08001b03   Thumb Code    14  handlers.o(i.__scatterload_copy)
    __scatterload_null                       0x08001b11   Thumb Code     2  handlers.o(i.__scatterload_null)
    __scatterload_zeroinit                   0x08001b13   Thumb Code    14  handlers.o(i.__scatterload_zeroinit)
    free                                     0x08001b21   Thumb Code    76  malloc.o(i.free)
    main                                     0x08001b71   Thumb Code   218  main.o(i.main)
    malloc                                   0x08001c89   Thumb Code    92  malloc.o(i.malloc)
    AHBPrescTable                            0x08001cf4   Data          16  system_stm32f1xx.o(.constdata)
    APBPrescTable                            0x08001d04   Data           8  system_stm32f1xx.o(.constdata)
    Font_8_RetroBitmaps                      0x08001d0c   Data         801  main.o(.constdata)
    Font_8_RetroGlyphs                       0x0800202e   Data         760  main.o(.constdata)
    Font_8_Retro                             0x08002328   Data          12  main.o(.constdata)
    Font_9_Mono                              0x08002334   Data          12  main.o(.constdata)
    Font_16_Default                          0x08002340   Data          12  main.o(.constdata)
    Font_9_MonoBitmaps                       0x0800234c   Data         844  main.o(.constdata)
    Font_9_MonoGlyphs                        0x08002698   Data         760  main.o(.constdata)
    Font_16_DefaultBitmaps                   0x08002990   Data        1198  main.o(.constdata)
    Font_16_DefaultGlyphs                    0x08002e3e   Data         760  main.o(.constdata)
    Region$$Table$$Base                      0x08003138   Number         0  anon$$obj.o(Region$$Table)
    Region$$Table$$Limit                     0x08003158   Number         0  anon$$obj.o(Region$$Table)
    SystemCoreClock                          0x20000000   Data           4  system_stm32f1xx.o(.data)
    uwTickFreq                               0x20000004   Data           1  stm32f1xx_hal.o(.data)
    uwTickPrio                               0x20000008   Data           4  stm32f1xx_hal.o(.data)
    uwTick                                   0x2000000c   Data           4  stm32f1xx_hal.o(.data)
    out                                      0x20000010   Data           4  main.o(.data)
    t                                        0x20000014   Data           4  main.o(.data)
    LCD_X                                    0x20000018   Data           1  ssd1306.o(.data)
    LCD_Y                                    0x20000019   Data           1  ssd1306.o(.data)
    __microlib_freelist                      0x20000020   Data           4  mvars.o(.data)
    __microlib_freelist_initialised          0x20000024   Data           4  mvars.o(.data)
    hi2c1                                    0x20000028   Data          84  main.o(.bss)
    __heap_base                              0x20000488   Data           0  startup_stm32f103xb.o(HEAP)
    __heap_limit                             0x20000688   Data           0  startup_stm32f103xb.o(HEAP)
    __initial_sp                             0x20000a88   Data           0  startup_stm32f103xb.o(STACK)



==============================================================================

Memory Map of the image

  Image Entry point : 0x080000ed

  Load Region LR_IROM1 (Base: 0x08000000, Size: 0x00003180, Max: 0x00010000, ABSOLUTE)

    Execution Region ER_IROM1 (Exec base: 0x08000000, Load base: 0x08000000, Size: 0x00003158, Max: 0x00010000, ABSOLUTE)

    Exec Addr    Load Addr    Size         Type   Attr      Idx    E Section Name        Object

    0x08000000   0x08000000   0x000000ec   Data   RO            3    RESET               startup_stm32f103xb.o
    0x080000ec   0x080000ec   0x00000000   Code   RO         2221  * .ARM.Collect$$$$00000000  mc_w.l(entry.o)
    0x080000ec   0x080000ec   0x00000004   Code   RO         2264    .ARM.Collect$$$$00000001  mc_w.l(entry2.o)
    0x080000f0   0x080000f0   0x00000004   Code   RO         2267    .ARM.Collect$$$$00000004  mc_w.l(entry5.o)
    0x080000f4   0x080000f4   0x00000000   Code   RO         2269    .ARM.Collect$$$$00000008  mc_w.l(entry7b.o)
    0x080000f4   0x080000f4   0x00000000   Code   RO         2271    .ARM.Collect$$$$0000000A  mc_w.l(entry8b.o)
    0x080000f4   0x080000f4   0x00000008   Code   RO         2272    .ARM.Collect$$$$0000000B  mc_w.l(entry9a.o)
    0x080000fc   0x080000fc   0x00000000   Code   RO         2274    .ARM.Collect$$$$0000000D  mc_w.l(entry10a.o)
    0x080000fc   0x080000fc   0x00000000   Code   RO         2276    .ARM.Collect$$$$0000000F  mc_w.l(entry11a.o)
    0x080000fc   0x080000fc   0x00000004   Code   RO         2265    .ARM.Collect$$$$00002712  mc_w.l(entry2.o)
    0x08000100   0x08000100   0x00000024   Code   RO            4    .text               startup_stm32f103xb.o
    0x08000124   0x08000124   0x00000020   Code   RO         2224    .text               mc_w.l(llushr.o)
    0x08000144   0x08000144   0x00000024   Code   RO         2226    .text               mc_w.l(memseta.o)
    0x08000168   0x08000168   0x0000000e   Code   RO         2228    .text               mc_w.l(strlen.o)
    0x08000176   0x08000176   0x0000014e   Code   RO         2258    .text               mf_w.l(dadd.o)
    0x080002c4   0x080002c4   0x00000026   Code   RO         2260    .text               mf_w.l(f2d.o)
    0x080002ea   0x080002ea   0x00000038   Code   RO         2262    .text               mf_w.l(d2f.o)
    0x08000322   0x08000322   0x0000001e   Code   RO         2278    .text               mc_w.l(llshl.o)
    0x08000340   0x08000340   0x00000024   Code   RO         2280    .text               mc_w.l(llsshr.o)
    0x08000364   0x08000364   0x00000000   Code   RO         2288    .text               mc_w.l(iusefp.o)
    0x08000364   0x08000364   0x0000006e   Code   RO         2289    .text               mf_w.l(fepilogue.o)
    0x080003d2   0x080003d2   0x000000ba   Code   RO         2291    .text               mf_w.l(depilogue.o)
    0x0800048c   0x0800048c   0x00000024   Code   RO         2293    .text               mc_w.l(init.o)
    0x080004b0   0x080004b0   0x00000002   Code   RO         1938    i.BusFault_Handler  stm32f1xx_it.o
    0x080004b2   0x080004b2   0x00000002   Code   RO         1939    i.DebugMon_Handler  stm32f1xx_it.o
    0x080004b4   0x080004b4   0x00000024   Code   RO          152    i.HAL_Delay         stm32f1xx_hal.o
    0x080004d8   0x080004d8   0x000001bc   Code   RO         1297    i.HAL_GPIO_Init     stm32f1xx_hal_gpio.o
    0x08000694   0x08000694   0x0000000c   Code   RO          156    i.HAL_GetTick       stm32f1xx_hal.o
    0x080006a0   0x080006a0   0x00000140   Code   RO          907    i.HAL_I2C_Init      stm32f1xx_hal_i2c.o
    0x080007e0   0x080007e0   0x00000138   Code   RO          918    i.HAL_I2C_Master_Transmit  stm32f1xx_hal_i2c.o
    0x08000918   0x08000918   0x00000044   Code   RO         2014    i.HAL_I2C_MspInit   stm32f1xx_hal_msp.o
    0x0800095c   0x0800095c   0x00000010   Code   RO          160    i.HAL_IncTick       stm32f1xx_hal.o
    0x0800096c   0x0800096c   0x00000024   Code   RO          161    i.HAL_Init          stm32f1xx_hal.o
    0x08000990   0x08000990   0x00000040   Code   RO          162    i.HAL_InitTick      stm32f1xx_hal.o
    0x080009d0   0x080009d0   0x00000080   Code   RO         2015    i.HAL_MspInit       stm32f1xx_hal_msp.o
    0x08000a50   0x08000a50   0x00000040   Code   RO          312    i.HAL_NVIC_SetPriority  stm32f1xx_hal_cortex.o
    0x08000a90   0x08000a90   0x00000024   Code   RO          313    i.HAL_NVIC_SetPriorityGrouping  stm32f1xx_hal_cortex.o
    0x08000ab4   0x08000ab4   0x00000154   Code   RO          422    i.HAL_RCC_ClockConfig  stm32f1xx_hal_rcc.o
    0x08000c08   0x08000c08   0x0000000c   Code   RO          427    i.HAL_RCC_GetHCLKFreq  stm32f1xx_hal_rcc.o
    0x08000c14   0x08000c14   0x00000020   Code   RO          429    i.HAL_RCC_GetPCLK1Freq  stm32f1xx_hal_rcc.o
    0x08000c34   0x08000c34   0x0000006c   Code   RO          431    i.HAL_RCC_GetSysClockFreq  stm32f1xx_hal_rcc.o
    0x08000ca0   0x08000ca0   0x00000304   Code   RO          434    i.HAL_RCC_OscConfig  stm32f1xx_hal_rcc.o
    0x08000fa4   0x08000fa4   0x00000018   Code   RO          315    i.HAL_SYSTICK_CLKSourceConfig  stm32f1xx_hal_cortex.o
    0x08000fbc   0x08000fbc   0x00000002   Code   RO          316    i.HAL_SYSTICK_Callback  stm32f1xx_hal_cortex.o
    0x08000fbe   0x08000fbe   0x00000028   Code   RO          317    i.HAL_SYSTICK_Config  stm32f1xx_hal_cortex.o
    0x08000fe6   0x08000fe6   0x00000008   Code   RO          318    i.HAL_SYSTICK_IRQHandler  stm32f1xx_hal_cortex.o
    0x08000fee   0x08000fee   0x00000002   Code   RO         1940    i.HardFault_Handler  stm32f1xx_it.o
    0x08000ff0   0x08000ff0   0x00000028   Code   RO          945    i.I2C_IsAcknowledgeFailed  stm32f1xx_hal_i2c.o
    0x08001018   0x08001018   0x00000094   Code   RO          949    i.I2C_MasterRequestWrite  stm32f1xx_hal_i2c.o
    0x080010ac   0x080010ac   0x0000004e   Code   RO          958    i.I2C_WaitOnBTFFlagUntilTimeout  stm32f1xx_hal_i2c.o
    0x080010fa   0x080010fa   0x00000060   Code   RO          959    i.I2C_WaitOnFlagUntilTimeout  stm32f1xx_hal_i2c.o
    0x0800115a   0x0800115a   0x00000002   PAD
    0x0800115c   0x0800115c   0x00000088   Code   RO          960    i.I2C_WaitOnMasterAddressFlagUntilTimeout  stm32f1xx_hal_i2c.o
    0x080011e4   0x080011e4   0x0000004e   Code   RO          962    i.I2C_WaitOnTXEFlagUntilTimeout  stm32f1xx_hal_i2c.o
    0x08001232   0x08001232   0x0000008e   Code   RO         2049    i.LCD_Battery       ssd1306.o
    0x080012c0   0x080012c0   0x000000c6   Code   RO         2050    i.LCD_Char          ssd1306.o
    0x08001386   0x08001386   0x00000002   PAD
    0x08001388   0x08001388   0x00000250   Code   RO         2055    i.LCD_Ellipse       ssd1306.o
    0x080015d8   0x080015d8   0x00000018   Code   RO         2056    i.LCD_Fill          ssd1306.o
    0x080015f0   0x080015f0   0x00000090   Code   RO         2057    i.LCD_Font          ssd1306.o
    0x08001680   0x08001680   0x00000038   Code   RO         2058    i.LCD_Goto2X        ssd1306.o
    0x080016b8   0x080016b8   0x00000106   Code   RO         2059    i.LCD_Line          ssd1306.o
    0x080017be   0x080017be   0x00000002   PAD
    0x080017c0   0x080017c0   0x00000040   Code   RO         2063    i.LCD_Pixel         ssd1306.o
    0x08001800   0x08001800   0x00000056   Code   RO         2065    i.LCD_Rect_Fill     ssd1306.o
    0x08001856   0x08001856   0x00000002   PAD
    0x08001858   0x08001858   0x00000084   Code   RO         2072    i.LCD_UpdateScreen  ssd1306.o
    0x080018dc   0x080018dc   0x00000038   Code   RO         1485    i.MX_I2C1_Init      main.o
    0x08001914   0x08001914   0x00000002   Code   RO         1941    i.MemManage_Handler  stm32f1xx_it.o
    0x08001916   0x08001916   0x00000002   Code   RO         1942    i.NMI_Handler       stm32f1xx_it.o
    0x08001918   0x08001918   0x00000020   Code   RO          319    i.NVIC_SetPriority  stm32f1xx_hal_cortex.o
    0x08001938   0x08001938   0x00000002   Code   RO         1943    i.PendSV_Handler    stm32f1xx_it.o
    0x0800193a   0x0800193a   0x00000002   PAD
    0x0800193c   0x0800193c   0x00000020   Code   RO         2073    i.SSD1306_Command   ssd1306.o
    0x0800195c   0x0800195c   0x000000e4   Code   RO         2074    i.SSD1306_Init      ssd1306.o
    0x08001a40   0x08001a40   0x00000002   Code   RO         1944    i.SVC_Handler       stm32f1xx_it.o
    0x08001a42   0x08001a42   0x0000000e   Code   RO         1945    i.SysTick_Handler   stm32f1xx_it.o
    0x08001a50   0x08001a50   0x00000068   Code   RO         1486    i.SystemClock_Config  main.o
    0x08001ab8   0x08001ab8   0x00000048   Code   RO           14    i.SystemInit        system_stm32f1xx.o
    0x08001b00   0x08001b00   0x00000002   Code   RO         1946    i.UsageFault_Handler  stm32f1xx_it.o
    0x08001b02   0x08001b02   0x0000000e   Code   RO         2297    i.__scatterload_copy  mc_w.l(handlers.o)
    0x08001b10   0x08001b10   0x00000002   Code   RO         2298    i.__scatterload_null  mc_w.l(handlers.o)
    0x08001b12   0x08001b12   0x0000000e   Code   RO         2299    i.__scatterload_zeroinit  mc_w.l(handlers.o)
    0x08001b20   0x08001b20   0x00000050   Code   RO         2230    i.free              mc_w.l(malloc.o)
    0x08001b70   0x08001b70   0x00000118   Code   RO         1488    i.main              main.o
    0x08001c88   0x08001c88   0x0000006c   Code   RO         2231    i.malloc            mc_w.l(malloc.o)
    0x08001cf4   0x08001cf4   0x00000010   Data   RO           15    .constdata          system_stm32f1xx.o
    0x08001d04   0x08001d04   0x00000008   Data   RO           16    .constdata          system_stm32f1xx.o
    0x08001d0c   0x08001d0c   0x00000321   Data   RO         1518    .constdata          main.o
    0x0800202d   0x0800202d   0x00000001   PAD
    0x0800202e   0x0800202e   0x000002f8   Data   RO         1519    .constdata          main.o
    0x08002326   0x08002326   0x00000002   PAD
    0x08002328   0x08002328   0x00000024   Data   RO         1520    .constdata          main.o
    0x0800234c   0x0800234c   0x0000034c   Data   RO         1521    .constdata          main.o
    0x08002698   0x08002698   0x000002f8   Data   RO         1522    .constdata          main.o
    0x08002990   0x08002990   0x000004ae   Data   RO         1601    .constdata          main.o
    0x08002e3e   0x08002e3e   0x000002f8   Data   RO         1602    .constdata          main.o
    0x08003136   0x08003136   0x00000002   PAD
    0x08003138   0x08003138   0x00000020   Data   RO         2295    Region$$Table       anon$$obj.o


    Execution Region RW_IRAM1 (Exec base: 0x20000000, Load base: 0x08003158, Size: 0x00000a88, Max: 0x00005000, ABSOLUTE)

    Exec Addr    Load Addr    Size         Type   Attr      Idx    E Section Name        Object

    0x20000000   0x08003158   0x00000004   Data   RW           17    .data               system_stm32f1xx.o
    0x20000004   0x0800315c   0x0000000c   Data   RW          168    .data               stm32f1xx_hal.o
    0x20000010   0x08003168   0x00000008   Data   RW         1789    .data               main.o
    0x20000018   0x08003170   0x00000008   Data   RW         2076    .data               ssd1306.o
    0x20000020   0x08003178   0x00000004   Data   RW         2286    .data               mc_w.l(mvars.o)
    0x20000024   0x0800317c   0x00000004   Data   RW         2287    .data               mc_w.l(mvars.o)
    0x20000028        -       0x00000054   Zero   RW         1489    .bss                main.o
    0x2000007c        -       0x00000408   Zero   RW         2075    .bss                ssd1306.o
    0x20000484   0x08003180   0x00000004   PAD
    0x20000488        -       0x00000200   Zero   RW            2    HEAP                startup_stm32f103xb.o
    0x20000688        -       0x00000400   Zero   RW            1    STACK               startup_stm32f103xb.o


==============================================================================

Image component sizes


      Code (inc. data)   RO Data    RW Data    ZI Data      Debug   Object Name

       440         74       5159          8         84      47441   main.o
      1960         38          0          8       1032      10175   ssd1306.o
        36          8        236          0       1536        780   startup_stm32f103xb.o
       164         28          0         12          0       3729   stm32f1xx_hal.o
       206         14          0          0          0      26620   stm32f1xx_hal_cortex.o
       444         36          0          0          0       2224   stm32f1xx_hal_gpio.o
      1208         32          0          0          0       8657   stm32f1xx_hal_i2c.o
       196         24          0          0          0       1448   stm32f1xx_hal_msp.o
      1264         92          0          0          0       4981   stm32f1xx_hal_rcc.o
        30          0          0          0          0       3686   stm32f1xx_it.o
        72         16         24          4          0     405323   system_stm32f1xx.o

    ----------------------------------------------------------------------
      6030        362       5456         32       2656     515064   Object Totals
         0          0         32          0          0          0   (incl. Generated)
        10          0          5          0          4          0   (incl. Padding)

    ----------------------------------------------------------------------

      Code (inc. data)   RO Data    RW Data    ZI Data      Debug   Library Member Name

         0          0          0          0          0          0   entry.o
         0          0          0          0          0          0   entry10a.o
         0          0          0          0          0          0   entry11a.o
         8          4          0          0          0          0   entry2.o
         4          0          0          0          0          0   entry5.o
         0          0          0          0          0          0   entry7b.o
         0          0          0          0          0          0   entry8b.o
         8          4          0          0          0          0   entry9a.o
        30          0          0          0          0          0   handlers.o
        36          8          0          0          0         68   init.o
         0          0          0          0          0          0   iusefp.o
        30          0          0          0          0         68   llshl.o
        36          0          0          0          0         68   llsshr.o
        32          0          0          0          0         68   llushr.o
       188         20          0          0          0        160   malloc.o
        36          0          0          0          0        108   memseta.o
         0          0          0          8          0          0   mvars.o
        14          0          0          0          0         68   strlen.o
        56          0          0          0          0         88   d2f.o
       334          0          0          0          0        148   dadd.o
       186          0          0          0          0        176   depilogue.o
        38          0          0          0          0         68   f2d.o
       110          0          0          0          0        168   fepilogue.o

    ----------------------------------------------------------------------
      1146         36          0          8          0       1256   Library Totals
         0          0          0          0          0          0   (incl. Padding)

    ----------------------------------------------------------------------

      Code (inc. data)   RO Data    RW Data    ZI Data      Debug   Library Name

       422         36          0          8          0        608   mc_w.l
       724          0          0          0          0        648   mf_w.l

    ----------------------------------------------------------------------
      1146         36          0          8          0       1256   Library Totals

    ----------------------------------------------------------------------

==============================================================================


      Code (inc. data)   RO Data    RW Data    ZI Data      Debug   

      7176        398       5456         40       2656     513300   Grand Totals
      7176        398       5456         40       2656     513300   ELF Image Totals
      7176        398       5456         40          0          0   ROM Totals

==============================================================================

    Total RO  Size (Code + RO Data)                12632 (  12.34kB)
    Total RW  Size (RW Data + ZI Data)              2696 (   2.63kB)
    Total ROM Size (Code + RO Data + RW Data)      12672 (  12.38kB)

==============================================================================

