:020000040800F2
:10000000B80500209D0100089F2200088B150008FC
:100010009D220008B90200087F28000800000000A7
:10002000000000000000000000000000FB220008AB
:10003000BB02000800000000C1220008FD220008E9
:10004000B7010008B7010008B7010008B7010008B0
:10005000B7010008B7010008B7010008B7010008A0
:10006000B7010008B7010008B7010008B701000890
:10007000B7010008B7010008B7010008B701000880
:10008000B7010008B7010008B7010008B701000870
:10009000B7010008B7010008B7010008B701000860
:1000A0000524000825240008B7010008B70100084E
:1000B000B7010008B7010008B7010008B701000840
:1000C000B7010008B7010008B7010008B701000830
:1000D000B7010008B7010008B7010008B701000820
:1000E000B7010008B7010008B7010008B701000810
:1000F000B7010008B7010008B7010008B701000800
:10010000B7010008B7010008B7010008B7010008EF
:10011000B7010008B7010008B7010008B7010008DF
:10012000B7010008B7010008B7010008B7010008CF
:10013000B7010008B7010008B7010008B7010008BF
:10014000B7010008B7010008B7010008B7010008AF
:10015000B7010008B7010008B7010008B70100089F
:10016000B7010008B7010008B7010008B70100088F
:10017000B7010008B7010008B7010008000000003F
:10018000B7010008B7010008DFF80CD000F082F8D2
:1001900000480047A1280008B8050020064880470D
:1001A00006480047FEE7FEE7FEE7FEE7FEE7FEE75C
:1001B000FEE7FEE7FEE7FEE7B1230008890100083D
:1001C0002DE9F05F0546002092469B46884606468C
:1001D000814640241BE0284641464746224600F01F
:1001E00048F853465A46C01A914110D31146184652
:1001F000224600F02FF82D1A67EB01084F462246E1
:100200000120002100F026F817EB00094E41201EC6
:10021000A4F10104DFDC484631462A464346BDE8E6
:10022000F09FD2B201E000F8012B491EFBD27047CB
:100230000022F6E710B513460A4604461946FFF7B2
:10024000F0FF204610BD421C10F8011B0029FBD115
:10025000801A7047202A04DB203A00FA02F10020BD
:1002600070479140C2F1200320FA03F319439040F4
:100270007047202A04DB203A21FA02F0002170475F
:1002800021FA02F3D040C2F12002914008431946FE
:1002900070470000064C074D06E0E06840F001039F
:1002A00094E8070098471034AC42F6D3FFF770FF8C
:1002B0000847000828470008FEE7704770B5B3F507
:1002C000804F05D06FF0704140F82210002070BDC3
:1002D00050F82230084C2340D1E9004544EA051487
:1002E0008D688E892D0245EA064589692C430C43A9
:1002F0001C4340F82240E9E70000F0CFF0B50C685D
:1003000050F82450114A1540D1E90123D1E903677F
:100310001A433E4332434E6932438E693243CE69BB
:1003200032430E6A32434E6A32438E6A3243CE6A99
:100330003243CE6B096B32430A432A43082B01D167
:1003400042F0400240F824200020F0BD8000F0FF81
:1003500030B500EB82004268D1E9003443EA04136F
:100360008C688D89240244EA054423430C8A084D95
:1003700002F0404205EB045423430C7D6D0105EB74
:100380000464896923430B4313434360002030BD59
:100390000000F0FFC1F30743CAB2C1F30721890887
:1003A00030B1D808C00240EA411040EAD20070479C
:1003B000D008C00240EA411040EAD3007047000074
:1003C00070B5044600F02AF90546601C02D00448C6
:1003D0000078044400F022F9401BA042FAD370BD1B
:1003E00010000020F0B5164887B00168002924D11C
:1003F0000121016013480025016841F001010160FD
:100400000068022600F0010005904FF68070CDE9EB
:10041000000603270C240295CDE9037469460A48B7
:1004200000F016F84CF6B370CDE900060295CDE960
:1004300003746946054800F00BF807B0F0BD0000F2
:10044000080000203838024000100240000C024032
:100450002DE9F84FDFF88C91002209F1040A0AF126
:10046000040B4FF00F080BF1040E01260B689640A9
:100470003340B34271D14C68022C01D0122C11D1FF
:10048000D40800EB84073D6A5407E40E08FA04FC24
:1004900025EA0C05D1F810C00CFA04FC4CEA050C56
:1004A000C7F820C007685400032591F804C0A54090
:1004B0000CF0030CAF430CFA04FC4CEA070CC0F838
:1004C00000C04F68012F05D0022F03D0112F01D09B
:1004D000122F11D18768D1F80CC0AF430CFA04FC7D
:1004E0004CEA070CC0F808C04768B7430E79C6F35A
:1004F000001696403E434660C668AE438D68A540F0
:100500003543C5604C68E40065D5374C256845F433
:1005100080452560246822F0030504F4804400949B
:10052000324C2E19D6F808789407250F08FA05F4EE
:10053000A7432F4CA04201D1002424E02D4CA0421F
:1005400001D101241FE02C4CA04201D102241AE069
:100550002A4CA04202D1032415E03CE0284CA042E2
:1005600001D104240FE0274CA04201D105240AE068
:10057000254CA04201D1062405E0244CA04201D123
:10058000072400E00824AC403C43C6F80848D9F8EA
:1005900000404D464E689C43F60300D51C432C603A
:1005A000DAF8004055464E689C43B60300D51C431C
:1005B0002C60DBF800405D464E689C43F60200D597
:1005C0001C432C60DEF8004075464E689C43B60222
:1005D00000D51C432C60521C102AFFF446AFBDE826
:1005E000F88F0000003C01404438024000300140D8
:1005F000000002400004024000080240000C0240DB
:10060000001002400014024000180240001C02408A
:100610000AB1816170470904FBE700000148806866
:10062000704700001000002070B5040004D094F85A
:100630003D00002510B106E0012070BD84F83C505B
:10064000204600F075F8242084F83D0020680168F9
:1006500021F00101016000F089FA33492268B0FB02
:10066000F1F15160314A6368934206D94FF49673B1
:1006700059434FF47A73B1FBF3F12368491C1962B3
:10068000616891420BD84900B0FBF1F2C2F30B0252
:10069000042A01D2042019E0B0FBF1F016E0A368AF
:1006A0009BB301EBC10202EB0112B0FBF2F242F488
:1006B0008042120530D04BB301EBC10202EB0111B5
:1006C000B0FBF1F040F4804040F400402168C86184
:1006D000D4E90701084321680860D4E903100843FE
:1006E00021688860D4E9050108432168C860206852
:1006F000016841F0010101602564202084F83D007B
:10070000256384F83E50002070BD00E006E001EB58
:100710004102B0FBF2F2CCE70120D7E701EB410147
:10072000B0FBF1F0D0E7000040420F00A0860100CE
:10073000F0B587B0044614216846FFF779FD2168BB
:10074000204CDFF87CC01F4A122301250326042712
:100750001D481034614515D1116841F00201116046
:10076000116801F002010591C0218DE8EA00694697
:10077000FFF76EFE206840F400102060206800F44F
:10078000001019E0DFF844C0614516D1116841F04E
:1007900002011160116801F0020105914FF44061FE
:1007A0008DE8EA006946FFF753FE206840F48000B8
:1007B0002060206800F48000059007B0F0BD0000C4
:1007C000005400403038024000040240005800400D
:1007D000024881680278114481607047100000204F
:1007E0000B4810B5016841F400710160016841F4E3
:1007F00080610160016841F480710160032000F0B4
:100800006DF8002000F006F800F024F8002010BD7C
:10081000003C024070B50D4D04464FF47A712878C3
:10082000B1FBF0F00A490968B1FBF0F000F021FCDF
:1008300048B9102C07D200222146501E00F02EF895
:1008400000206C6070BD012070BD00001000002011
:100850001C0000200A4808B5016841F4804101608D
:10086000006800F4804000900548001F016841F0D6
:1008700080510160006800F08050009008BD0000C9
:100880004438024000F01F020121914040098000DD
:1008900000F1E020C0F8001170470000F0B40E4BEA
:1008A0001B68C3F30223C3F10704042C00D90424FA
:1008B0001D1D072D01D2002300E0DB1E012606FAD4
:1008C00004F56D1E0D409D409E40761E164045EA83
:1008D0000601F0BC01F0E4BC0CED00E0064A00F0BB
:1008E000070110684FF6FF03184040EA0120034952
:1008F00008431060704700000CED00E00000FA05AE
:100900002DE9F843044600684FF00109C1074FF094
:10091000000501D1400726D5DFF80C81C8F86850E2
:10092000FFF77CFE0646414F04E0FFF777FE801B91
:10093000022857D838680001F7D46068217A80010E
:1009400040EA0170394984310860C8F86890FFF7BF
:1009500065FE064604E0FFF761FE801B022841D8D1
:1009600038680001F7D52078800752D52F484030ED
:10097000016841F08051016000682D4F00F0805007
:100980000090386840F480703860FFF747FE0646F4
:1009900004E0FFF743FE801B022823D83868C00517
:1009A000F7D5224E7036306810F4407020D0A189FF
:1009B00001F4407181421BD030681E4920F4407020
:1009C000C1F800900D6030603068C00710D0FFF7AC
:1009D00025FE054641F2883707E0FFF71FFE401B62
:1009E000B84202D90320BDE8F88330688007F4D507
:1009F000E0680E49C0F301220831032A0BD00868D1
:100A000020F4F81008603068A189C1F30B01084395
:100A100030600020E7E70A68074B22F4F81218401C
:100A200002430A60EFE7000000004742003802403E
:100A300000700040400E4742FFFCFF0F2DE9F047D9
:100A40000D46040065D0DFF81491D9F80000EFB22C
:100A500000F00F00A84207D289F80070D9F8000012
:100A600000F00F00A84254D120683D4E810712D5F6
:100A7000400703D5306840F4E0503060207800072C
:100A800003D5306840F4604030603068A16820F0E1
:100A9000F000084330602078C0072DD030496068EE
:100AA0000839012812D0022813D0032811D0096870
:100AB000890700292DDA316821F0030101433160F3
:100AC000FFF7ACFD804641F2883A0EE009688903E1
:100AD000EFE709688901ECE7FFF7A0FDA0EB08014B
:100AE000514502D90320BDE8F0873068616800F005
:100AF0000C00B0EB810FEFD1D9F80010484601F09F
:100B00000F01A94207D90770006800F00F00A84242
:100B100001D00120E7E72078400705D53068E1687B
:100B200020F4E050084330602078000706D5306894
:100B3000216920F4604040EAC100306000F036F8DE
:100B40003168084AC1F30311515CC8400649086086
:100B50000020FFF75FFE0020C5E70000003C0240D8
:100B600008380240F04600081C00002004480549EF
:100B700000680968044AC1F38221515CC84070478B
:100B80001C000020083802400047000804480549BE
:100B900000680968044AC1F34231515CC84070479B
:100BA0001C0000200838024000470008154810B516
:100BB000006810F00C01144813D0431004290FD022
:100BC00008290ED10F4C241F216801F03F02216833
:100BD000490207D52068C0F38810A0FB030106E096
:100BE000184610BD2168C1F38811A1FB0001002344
:100BF000FFF7E6FA2168C1F30141491C4900B0FB47
:100C0000F1F010BD083802400024F4002DE9F84F3F
:100C1000040073D02078BD4DC00748D0BB480830D1
:100C20000168C1F38101012908D00068C0F3810087
:100C300002280AD1281D0068400206D528688003D2
:100C400035D560680028E4D031E06068B0F5803FB9
:100C500010D0B0F5A02F286810D020F48030286084
:100C6000286820F4802028606068A0B1FFF7D6FCD7
:100C700006460CE0286840F48030F4E740F4802019
:100C80002860F7E7FFF7CAFC801B642872D8286841
:100C90008003F7D50BE0FFF7C1FC064604E0FFF741
:100CA000BDFC801B6428F1D828688003F7D4207825
:100CB000DFF85C9280074FF0000A3ED59348083079
:100CC000016811F00C0F09D00068C0F38100022800
:100CD0000BD18E48001D0068400206D428688007AA
:100CE00015D5E068012809D111E0E068B8B101200C
:100CF000C9F80000FFF792FC064605E003E1FFF7A4
:100D00008DFC801B0228C1D828688007F7D5286889
:100D1000216920F0F80040EAC10028600DE0C9F820
:100D200000A0FFF77BFC064604E0FFF777FC801B82
:100D300002281FD828688007F7D42078000722D51A
:100D4000724F74496069743770B101200860FFF711
:100D500065FC064604E0FFF761FC801B022809D809
:100D600038688007F7D50EE0C1F800A0FFF756FC01
:100D7000064605E081E0FFF751FC801B02287CD885
:100D800038688007F7D42078400769D5DFF87CB150
:100D90004FF000080BF1400BDBF80000C0000CD452
:100DA000DBF8001041F08051CBF80010DBF80000B8
:100DB0004FF0010800F080500090574F3868C00590
:100DC0000FD4386840F480703860FFF727FC06467F
:100DD00004E0FFF723FC801B02284ED83868C005CA
:100DE000F7D54A4FA068703701280FD0052838681A
:100DF00010D020F001003860386820F0040038601E
:100E0000A068B0B1FFF70AFC06460EE0386840F073
:100E10000100F4E740F004003860F7E7FFF7FEFB5D
:100E2000811B41F28830814265D838688007F5D54A
:100E30000DE0FFF7F3FB064606E0FFF7EFFB811B33
:100E400041F28830814256D838688007F5D4B8F12D
:100E5000000F05D0DBF8001021F08051CBF8001016
:100E6000A069C8B3294908310968C1F38101022981
:100E700049D00228504607D000E03CE0C9F86000A5
:100E8000FFF7CCFB044639E04F46C9F86000FFF796
:100E9000C5FB064604E0FFF7C1FB801B02282AD8E9
:100EA00028688001F7D4D4E907010843A16A1B4AE6
:100EB000490802EB0141626A41EA8211084394F851
:100EC0002C1040EA01611148001D016001203866C4
:100ED000FFF7A4FB044605E013E0FFF79FFB001BB0
:100EE000022808D828688001F7D50AE0FFF796FBAA
:100EF000001B022802D90320BDE8F88F2868800172
:100F0000F4D40020F8E70120F6E7000000380240A2
:100F100000004742800E4742007000400000FFFF83
:100F200070B5040002D0607F10B106E0012070BDF2
:100F300000202077204600F049F8022060772168E1
:100F4000CA204862216853204862204601F0B9F95E
:100F5000FF25042618BB206881681B4A1140816068
:100F60002068816862681143D4E904231A4311435D
:100F700081602168E068086120680169228941EA8E
:100F8000024101612068C16821F08001C1602068D0
:100F90008068800607D4204600F024F818B1206845
:100FA00045626677C2E72068016C21F48021016404
:100FB0002068016CA2691143016420684562012028
:100FC0006077002070BD0000BFFF8FFF00680349FD
:100FD000884202D102490120086070470028004081
:100FE0003C0E474270B505460068C16821F0A0017B
:100FF000C160FFF713FB04464FF47A7606E0FFF773
:101000000DFB001BB04201D9032070BD2868C068E9
:101010008006F4D5002070BD70B515460E4604005C
:1010200003D094F8490010B107E0012070BD002002
:1010300084F84800204600F01AF804F108012068FE
:10104000FFF75CF93146A2682068FFF781F9D4E91F
:1010500001022946236BFFF731F9A168206850F897
:10106000212042F0010240F82120002070BDFFF74E
:10107000B9B910B5401EB0F1807F01D3012010BD79
:101080004FF0E02460610F21601701F009F90020A2
:10109000A06107202061002010BD7047704730B567
:1010A00090F83820012A20D0012380F8383002221D
:1010B00080F839200268546824F070045460026893
:1010C00054680D682C4354600268946824F08004CE
:1010D00094600268946849680C43946080F83930E1
:1010E000002180F83810084630BD022030BD10B510
:1010F000040003D094F8390010B107E0012010BDBE
:10110000002084F83800204600F00CF8022084F813
:101110003900211D206801F095F9012084F839007B
:10112000002010BD08B500680F4988421AD10F4849
:10113000016841F0010101600068002200F0010037
:10114000009011461820FFF7A9FB1820FFF79AFB23
:10115000002211461920FFF7A1FBBDE80840192025
:10116000FFF790BB08BD000000000140443802407A
:10117000022180F8391001680A6842F001020A6011
:10118000012180F83910002070470168CA6842F0D8
:101190000102CA600068016841F00101016000209D
:1011A000704770B5044690F83800012817D0012523
:1011B00084F83850022084F839002068826822F0D0
:1011C000770222F47F4282600868502836D00DDC16
:1011D000202858D005DC80B3102840D150E00220F0
:1011E00070BD302852D0402839D13EE060282DD043
:1011F00070280BD0B0F5805F03D0B0F5005F2ED122
:1012000010E02068816821F0070109E0CB68D1E98E
:101210000121206801F076F92068816841F07701AA
:1012200081601CE0CB68D1E90121206801F06AF9F6
:101230002068816841F48041F2E71EE0CA6849688D
:10124000206801F071F95021206806E0CA684968F9
:10125000206801F07AF96021206801F05DF984F8D6
:101260003950002084F8380070BDCA684968206889
:1012700001F05AF940212068EFE700212068ECE7EF
:1012800010212068E9E720212068E6E73021206866
:10129000E3E7704770B50446006801694FF0000548
:1012A000C943890715D4C168C943890711D4E91E08
:1012B000016101202076206880698007204602D0E5
:1012C000FFF7E7FF04E000F098F8204600F096F8FA
:1012D000257620680169C943490717D4C168C94305
:1012E000490713D46FF004010161022020762068C1
:1012F000806910F4407F204602D0FFF7CAFF04E067
:1013000000F07BF8204600F079F825762068016926
:10131000C943090716D4C168C943090712D46FF03D
:1013200008010161042020762068C06980072046FA
:1013300002D0FFF7AEFF04E000F05FF8204600F0B7
:101340005DF8257620680169C943C90617D4C168CC
:10135000C943C90613D46FF010010161082020763B
:101360002068C06910F4407F204602D0FFF791FF4B
:1013700004E000F042F8204600F040F825762068AE
:101380000169C943C90708D1C168C943C90704D164
:10139000891E0161204600F032F820680169C943C6
:1013A000090609D4C168C943090605D46FF0800154
:1013B00001612046FFF771FE20680169C9434906B3
:1013C00009D4C168C943490605D46FF040010161E1
:1013D000204600F015F820680169C94389060BD43E
:1013E000C168C943890607D46FF020010161204616
:1013F000BDE87040FFF752BE70BD70477047704740
:10140000704770B5040004D094F83900002510B17D
:1014100006E0012070BD84F83850204600F022F824
:10142000242084F839002068C16821F40051C1608B
:10143000204601F09DF82068016921F49041016186
:101440002068416921F02A0141612068C16841F4A6
:101450000051C160E563202084F8390084F83A0027
:10146000002070BD10B586B0044614216846FEF712
:10147000DFFE14492068884221D11348016841F0F9
:1014800010010160006800F0100005900E4814384B
:10149000016841F0010101600068694600F0010047
:1014A00005904FF4C060009002200190012002904E
:1014B00003200390072004900448FEF7C9FF06B0FC
:1014C00010BD0000001001404438024000000240FE
:1014D0002DE9F843044690F839001E4617460D469C
:1014E000202850D1A5B19FB194F8380001284AD0E6
:1014F000012084F838004FF00008C4F83C80212017
:1015000084F83900FFF78AF8A7848146E78426E04B
:101510000120BDE8F883E08C401EE084A0684B46C3
:10152000B0F5805F4FF000024FF08001204600963A
:1015300003D001F073F9E8B90DE001F06FF9C8B913
:1015400028882168C0F308004860206908B16D1C34
:1015500005E0AD1C03E0216815F8010B4860E08C44
:101560000028D8D14B46002240212046009601F0A9
:1015700055F908B10320CCE7202084F8390084F81D
:1015800038800020C5E70220C3E7FEE72DE9FF4FC2
:1015900083B01868109F4FF0000A01908B46B2F894
:1015A00000901446564650465146E27888464245D9
:1015B0004AD9002529E03EB90199802611F809A0F1
:1015C00009F101011FFA81F91AEA060F02D0401C45
:1015D00080B217E0B0B11199009194F9063007FB81
:1015E00000F18AB2434403FB07B194F9053089B294
:1015F0002B441B1A039803FB070080B23B4600F004
:10160000FFFB002076086D1CEDB2A178A942D2D86C
:10161000B0B11199009194F9063007FB00F18AB23C
:10162000434403FB07B194F9053089B22B441B1ADC
:10163000039803FB070080B23B4600F0E1FB00206B
:1016400008F10101C9B2B0E707B0BDE8F08F2DE99C
:10165000FF4F85B00F46804600241546C2F10109B0
:10166000139E86E00898012860D004EB0800CDE9BD
:101670000060129B05EB070B1FFA8BF180B21A4634
:1016800000F0BEFB05EB0800129B04EB070A049078
:101690001FFA8AF1009680B21A4600F0B1FBA8EB5F
:1016A00004000390129B1FFA8BF1009680B21A4639
:1016B00000F0A6FBA8EB0500129B02901FFA8AF12E
:1016C000009680B21A4600F09BFB0498129BA7EB91
:1016D000040B1FFA8BF1009680B21A4600F090FBC3
:1016E0000198129BA7EB050A1FFA8AF1009680B2B7
:1016F0001A4600F085FB0398129B1FFA8AF10096A8
:1017000080B21A4600F07CFB0298129B1FFA8BF104
:10171000009680B21A4600F073FBB9F1000F21DA8F
:1017200009EB440000F10309641C22E0012101EBF4
:10173000450B01EB440A781B81B2A8EB04001FFAA9
:101740008BF31FFA8AF280B2009600F059FB381B27
:1017500081B2A8EB05001FFA8AF31FFA8BF280B260
:101760000096D8E7611B09EB4100641C00F10509F4
:101770006D1EAC427FF776AF09B0BDE8F08F2DE962
:10178000FF4F83B08046DDE910A9C2F1010006B227
:1017900001200290C2EBC23040000F460FFA80FBDE
:1017A0000025144660E0002E08DB0BF102000FFA62
:1017B00080FB641E06EB0B0024B206B202986D1C7F
:1017C000801C00B20290304406B206982DB2C007C9
:1017D00023D00121381BCDE9001900EB440202EBB4
:1017E0000A018BB208EB05011FFA80FC8AB288B2AD
:1017F000614600F087FA0121781BCDE9001900EB62
:10180000450202EB0A018BB208EB04011FFA80FCCF
:101810008AB288B2614600F075FA0698800723D52F
:101820000121381BCDE9001900EB440202EB0A014B
:101830008BB2A8EB05011FFA80FC8AB288B2614620
:1018400000F060FA0121781BCDE9001900EB450298
:1018500002EB0A018BB2A8EB04011FFA80FC8AB2EA
:1018600088B2614600F04EFAA5429CDB07B0BDE8A5
:10187000F08F2DE9FC5F0746C2F101000FFA80F9F5
:1018800001200190C2EBC23040009A460E46DDF8BE
:1018900034800FFA80FB0025144671E0B9F1000F87
:1018A00009DB0BF102000FFA80FB641E09EB0B0051
:1018B00024B20FFA80F96D1C01982DB2801C00B281
:1018C000019048440FFA80F95FEA4A7013D5301945
:1018D00081B20C9B781980B2CDF800801A4600F0D6
:1018E0008FFA701981B20C9B381980B2CDF8008044
:1018F0001A4600F085FA5FEA8A7013D5301B81B270
:101900000C9B781980B2CDF800801A4600F078FA66
:10191000701B81B20C9B381980B2CDF800801A463A
:1019200000F06EFA5FEA0A7013D5701981B20C9B51
:10193000381B80B2CDF800801A4600F061FA3019E9
:1019400081B20C9B781B80B2CDF800801A4600F063
:1019500057FA5FEACA7013D0701B81B20C9B381B18
:1019600080B2CDF800801A4600F04AFA301B81B2EE
:101970000C9B781B80B2CDF800801A4600F040FA2C
:10198000A5428BDBBDE8FC9F2DE9FF4F89B00F46D8
:101990008046DDE9161B0B9810FB00F613FB03F5E0
:1019A000B0000590A80003900B9801224042189CBB
:1019B00002EB40000490584202EB40000B9A12FBED
:1019C00002F2504313FB03F2002900EB42004FF0F8
:1019D00000018A469946029038D1CDE008EB0A0210
:1019E000A2EB0B00401C82B20790A8EB0A00069005
:1019F000A7EB0901CDE900B48BB289B280B200F047
:101A000081F9CDE900B4079807EB090182B2069885
:101A10008BB289B280B200F075F9029800280ADB17
:101A200005990298C9F1010201FB02000290A9F197
:101A300001000FFA80F90621029801EB8A0105FBEB
:101A4000010002900AF101000FFA80FA05FB0AF08A
:101A500006FB09F18842C1DD04984FF0000A684393
:101A600000EB4600DDF82C90029037E008EB09020D
:101A7000A2EB0B00401C059082B2A7EB0A01A8EB79
:101A80000900CDE900B48BB2049089B280B200F0B5
:101A900039F9CDE900B4059807EB0A0182B2049840
:101AA0008BB289B280B200F02DF9029800280ADBCF
:101AB000DDE90201C9F1010201FB02000290A9F176
:101AC00001000FFA80F90621029801EB8A0106FB5A
:101AD000010002900AF101000FFA80FA06FB0AF0F9
:101AE00005FB09F18842C1DD0DB0BDE8F08F07EBC1
:101AF0000900CDE9004081B208EB0A0006905B4680
:101B000080B21A4600F07CF901985B4681B2A8EBDE
:101B10000A000190009480B21A4600F071F9A7EB18
:101B2000090081B2079006985B46009480B21A467D
:101B300000F066F907985B4681B20198009480B284
:101B40001A4600F05DF9029800280ADB0599029810
:101B5000C9F1010201FB02000290A9F101000FFA94
:101B600080F90621029801EB8A0105FB0100029031
:101B70000AF101000FFA80FA05FB0AF006FB09F1F1
:101B80008842B4DD04984FF0000A684300EB460039
:101B9000DDF82C90029044E007EB0A00CDE900400C
:101BA00081B208EB090004905B4680B21A4600F04F
:101BB00027F901985B4681B2A8EB090001900094D7
:101BC00080B21A4600F01CF9A7EB0A00009481B21B
:101BD000059004985B4680B21A4600F011F9009413
:101BE00005985B4681B201981A4680B200F008F968
:101BF000029800280ADBDDE90201C9F1010201FBBC
:101C000002000290A9F101000FFA80F90621029862
:101C100001EB8A0106FB010002900AF101000FFAB4
:101C200080FA06FB0AF005FB09F18842B4DD5BE7A8
:101C30002DE9F04788B005B291460FB2DDE9106A90
:101C400093E807000DF1080CA8468CE80700002473
:101C500026E019F804000A282AD09DF810108142C5
:101C60001CD89DF81110814218D30D2816D09DF86C
:101C700010200399801A01EBC00002AB01680591A6
:101C800040680690CDE9006A05AA39462846FFF764
:101C90007DFC9DF8180000FB065005B2641CA4B240
:101CA0004846FEF7D0FAA042D3D808B0BDE8F08786
:101CB0009DF81200454600FB067007B2EEE70000F3
:101CC00038B54FF0C044112020807820FEF778FB13
:101CD0003A200B492080552008800520FEF770FB34
:101CE00029202080022000F04BF800204FF4A07340
:101CF0004FF4F0720146009000F082F838BD000009
:101D0000000002602DE9FE4F0646994692460D46B8
:101D1000971B00D57F42B9EB050000D540428046B5
:101D20004FF0FF30564501D2012100E001460291FB
:101D30004D4500D201208346C8F10000A7EB0804FE
:101D400001900D980C9B00901A462946304600F0F1
:101D500057F8564501D14D450FD001996000884292
:101D600004DD0299A4EB080431448EB2B842E8DAEB
:101D700005EB0B003C4485B2E3E7BDE8FE8F0000B5
:101D800036210A071180084940B1012808D00228ED
:101D900008D0032801D16820088070470820FBE79D
:101DA000A820F9E7C820F7E7000002602DE9FC470A
:101DB0001C46DDE90A67851889468046AAB20B46AB
:101DC000CDE90067FFF79EFF4C44A3B2AAB2A1B2CF
:101DD0004046CDE90067FFF795FF4246A3B249466A
:101DE0001046CDE90067FFF78DFFA3B2AAB2A8B2F3
:101DF0004946CDE90067FFF785FFBDE8FC87000095
:101E00002DE9F0410E46811802FB03F5F218491E38
:101E100089B20B46521E0146002492B23046069FFC
:101E200000F030F9054E05E039460120FEF7B2FA20
:101E30003080641CAC42F7D3BDE8F0810000026042
:101E40002DE9FE4F0746DDE90D450C9E8A4600EB65
:101E5000020909EB0400811B0094CDE90151984669
:101E60008AB207EB060B53461FFA8BF01946FFF7B1
:101E700049FFD0440299A8F101008AB283B281B22D
:101E8000CDE900451FFA8BF0FFF73CFFA8EB0400FB
:101E9000801B0094CDE9015083B2B2443A461FFA48
:101EA0008AF11046FFF72EFF0298CDE9004583B274
:101EB000A9F1010082B21FFA8AF180B2FFF722FF76
:101EC0000FFA8AF10094CDE901510FFA8BF032B28A
:101ED000824601231746FFF7CCFCA9EB0600401E03
:101EE00000B2CDE90045814602233A460299FFF748
:101EF000C0FCA8EB0600401E06B2484604233A4642
:101F00003146CDE90045FFF7B4FC31465046082381
:101F10003A46CDE90045FFF7ACFCBDE8FE8F2DE960
:101F2000FC5F8146DDE90C456642904602EB4600C7
:101F300082B209EB040A1F468B461FFA8AF000950D
:101F4000FFF75EFF07EB4600401E07B20BEB0400F5
:101F500006B209EB0800001BCDE90075401E22B255
:101F600000B2012314463146FFF709FCCDE90075A4
:101F700031460FFA8AF002232246FFF700FCBDE843
:101F8000FC9F2DE9FC5F9A46DDE90E54DDE90C76F5
:101F9000CDE90054934688468146FFF7B3FECDE96C
:101FA000005433463A4651465846FFF7ABFECDE95A
:101FB000005443464A4631463846FFF7A3FEBDE883
:101FC000FC9F2DE9F04F0027141A85B0002C00DC8F
:101FD000841A0FFA84F85C1A002C00DCCC1A0FFA71
:101FE00084FC06B20DB24FF0FF34824203D30120CD
:101FF0000390029001E0039402948B4203D34FF0CC
:10200000010BDA4601E0A346DA46E0454FF0000056
:1020100008DB8246039008EBD870C1464410CDF827
:1020200010C02AE00290E1460CEBDC70CDF8108085
:102030004FF0000B4410C8461FE010990120CDE975
:102040000001DDE90E23A9B2B0B2FFF75BFE0498F0
:10205000204404B24C4508DBA4EB090004B2039809
:10206000304406B205EB0B0005B202987F1C3044E9
:1020700006B205EB0A0005B23FB24745DDDD05B00B
:10208000BDE8F08F78B500240094040A8DF8004074
:102090008DF80100100A8DF802004FF0C0468DF84F
:1020A00003202A2030800F4D00206C46225C401C0B
:1020B000C0B22A800428F9D3080A8DF800008DF8F0
:1020C0000110180A8DF802008DF803302B203080A3
:1020D0000020215C401CC0B229800428F9D32C20A8
:1020E000308078BD0000026010B51A498EB04FF004
:1020F0002040086018484860002088601022C860AE
:10210000C1E904028861C86113020862C1E90903D8
:102110009302C1E90B0348638863486401210F24DB
:102120000991CDE907040DF1280C11238CE80D006D
:10213000CDE90004029103AC0D9084E80D000690F7
:102140006A4607A90348FEF767FF002800D0FEE7AC
:102150000EB010BD64010020040100A02DE9F04183
:1021600086B014216846FEF763F82F480024016802
:1021700041F010010160016801F010010591016852
:1021800041F080010160016801F080010591016862
:1021900041F001010160016801F001010591016850
:1021A00041F002010160016801F00201059101683E
:1021B00041F008010160016801F008010591016822
:1021C00041F0040101600068184F00F00400059020
:1021D0000022C0213846FEF71BFADFF854804FF486
:1021E0004076002231464046FEF712FA1820CDE92B
:1021F000000469460F480294FEF72AF9C0200090B7
:102200000125CDE90154694638460394FEF720F9CB
:102210000096CDE90154694640460394FEF718F94B
:1022200006B0BDE8F08100003038024000000240F6
:10223000000802400010024010B586B00024164885
:10224000009401940294039404941249059401604B
:102250000A21C0E9011444F2A011C0E90314446149
:10226000FEF745FF00B1FEE74FF48050009069464D
:102270000948FEF796FF00B1FEE72020CDE90404EF
:1022800004A90548FEF70BFF002800D0FEE706B0C2
:1022900010BD000000000140E8000020FEE770478C
:1022A0000907090E002806DA00F00F0000F1E0200F
:1022B00080F8141D704700F1E02080F8001470478A
:1022C000704770B505460068C168490613D44FF0E1
:1022D000FF31C160FEF7A2F904464FF47A7606E0BA
:1022E000FEF79CF9001BB04201D9032070BD28689D
:1022F000C0684006F4D5002070BD7047FEF768BA8C
:1023000030B597B030216846FDF792FF14210CA834
:10231000FDF78EFF00242448119412941394149412
:10232000016841F080510160006800F08050159014
:102330001E48016841F4804101600068022500F4F4
:1023400080401590092000904FF4803001900120CA
:10235000CDE905058005079008AA0420A82182E898
:1023600023000B906846FEF751FC00B1FEE70F20FA
:10237000CDE90C054FF4A050CDE90E404FF480504C
:10238000109005210CA8FEF759FB00B1FEE74FF4B1
:1023900000701490119511A8FEF7B2FA002800D031
:1023A000FEE717B030BD000040380240007000402A
:1023B0001048016841F4700101600F48016841F064
:1023C000010101600C4A00210832116002680B4BC8
:1023D0001A400260031D0A4A1A60026822F4802231
:1023E000026005480C3001600249580680390860D7
:1023F0007047000088ED00E000380240FFFFF6FE65
:10240000103000240548D0E90012491C42F10002B6
:10241000C0E900120248FEF73DBF000000000020A6
:10242000E80000200548D0E90012491C42F10002F2
:10243000C0E900120248FEF72DBF00000000002096
:10244000E8000020F0B50268234D244E244FDFF849
:1024500094C0254B4FF0804EA84209D0704507D05C
:10246000B04205D0B84203D0604501D0984203D1B4
:1024700022F070044A682243A8421BD0704519D04C
:10248000B04217D0B84215D0604513D0984211D051
:10249000164CA0420ED0164CA0420BD0154CA042B8
:1024A00008D0154CA04205D0144CA04202D0144CC8
:1024B000A04203D122F44074CA68224302608A68B1
:1024C000C2620A688262A84201D0984201D10969B9
:1024D000016301214161F0BD0000014000040040A2
:1024E00000080040000C0040000401400040014092
:1024F000004401400048014000180040001C00401A
:102500000020004010B5846842EA032224F47F448E
:102510000A432243826010BD826822F070020A439F
:1025200042F007018160704710B5046A036A23F026
:1025300001030362836923F0F00343EA021324F0EA
:102540000A020A438361026210BD10B5036A23F0D8
:10255000100303628469036A24F4704444EA02327B
:1025600023F0A00343EA01118261016210BD000063
:102570002DE9F04104460068016921F44052E16808
:10258000114301612068C16849F20C6291432369DB
:10259000A268E5691A4363692B431A430A43C26080
:1025A00020684169A26921F440710A434261E069EF
:1025B0006425B0F5004F974A974920684FF03208DC
:1025C0003FD0884201D090427CD1FEF7DFFA00EB89
:1025D000C00101EB001061688900B0FBF1F6FEF765
:1025E000D5FA00EBC00101EB001061688900B0FB77
:1025F000F1F0B0FBF5F06FF01801484306EB8001F5
:1026000008EB0110B0FBF5F000F0F006FEF7BEFAA3
:1026100000EBC00101EB001061688900B0FBF1F034
:10262000B0FBF5F006EB0016FEF7B0FA00EBC001C8
:1026300001EB001061688900B0FBF1F7FEF7A6FA24
:10264000D2E0884201D090423DD1FEF79FFA00EBE4
:10265000C00101EB001061684900B0FBF1F0B0FB74
:10266000F5F00601FEF792FA00EBC00101EB001055
:1026700061684900B0FBF1F7FEF788FA00EBC00192
:1026800001EB001061684900B0FBF1F0B0FBF5F020
:102690006FF01801484307EB800108EBC100B0FB65
:1026A000F5F000F0F80006EB4006FEF76FFA00EBDD
:1026B000C00101EB001061684900B0FBF1F7FEF7C3
:1026C00065FA3CE055E0FEF751FA00EBC00101EB82
:1026D000001061684900B0FBF1F0B0FBF5F00601B5
:1026E000FEF744FA00EBC00101EB001061684900FD
:1026F000B0FBF1F7FEF73AFA00EBC00101EB001076
:1027000061684900B0FBF1F0B0FBF5F06FF0180123
:10271000484307EB800108EBC100B0FBF5F000F087
:10272000F80006EB4006FEF721FA00EBC00101EBD2
:10273000001061684900B0FBF1F7FEF717FA00EBF3
:10274000C00101EB001061684900B0FBF1F0B0FB83
:10275000F5F06FF01801484307EB800108EBC1006A
:10276000B0FBF5F000F00700216830448860BDE858
:10277000F081FEF7FBF900EBC00101EB001061688E
:102780008900B0FBF1F6FEF7F1F900EBC00101EBB7
:10279000001061688900B0FBF1F0B0FBF5F06FF05C
:1027A0001801484306EB800108EB0110B0FBF5F07F
:1027B00000F0F006FEF7DAF900EBC00101EB0010C3
:1027C00061688900B0FBF1F0B0FBF5F006EB001694
:1027D000FEF7CCF900EBC00101EB00106168890045
:1027E000B0FBF1F7FEF7C2F900EBC00101EB0010FE
:1027F00061688900B0FBF1F0B0FBF5F06FF01801F3
:10280000484307EB800108EB0110B0FBF5F000F046
:102810000F00A9E700140140001001402DE9F0412C
:102820001E46174688460446069D1CE0681C1AD0C2
:1028300025B1FDF7F3FE801BA84214D92068C168BA
:1028400021F4D071C1602068416921F0010141612A
:10285000202084F8390084F83A00002084F83800F9
:102860000320BDE8F0812068016838EA010004D047
:102870000020B842DAD00020F3E70120F9E7FEE7B4
:1028800002E008C8121F08C1002AFAD17047704739
:10289000002001E001C1121F002AFBD17047000097
:1028A00088B0FDF79DFFFFF72BFDFFF757FCFFF703
:1028B0001BFCB748B5490024C0E900147F21FF255F
:1028C0008160C0E9035444618461FEF729FB00B1D3
:1028D000FEE7FFF7B1FCAE48AE495C3001604FF453
:1028E000E131C0E901140C21C460C0E904418461F4
:1028F000C461FEF786FD00B1FEE7A548A649A838E9
:10290000A64E0160C0E901640F14C0E903474461A9
:102910008461C4610462FDF787FE00B1FEE79C4854
:102920009F4954380160C0E90164C0E9034744612C
:102930008461C4610462FDF777FE00B1FEE794484C
:102940002030FEF715FC92482030FEF71EFCFFF702
:10295000B7F994A00DF1100C07C88CE807008C485B
:1029600064230A2204A95C30FEF7B2FDFF20002197
:1029700000904FF4A0734FF4F0720846FFF740FA4E
:102980000121A3464FF49F734FF4EF720846009461
:10299000FFF736FA00218023A02208460094FFF7B3
:1029A0002FFA082501244FF47F46CDE90046002187
:1029B00080232A460846FFF7A5F90835EDB2A02D79
:1029C000F3D90825B146CDE9004900212B46A022C4
:1029D0000846FFF797F90835EDB2802DF3D9FA20B4
:1029E000FDF7EEFC10261425DFF8C48100274FF018
:1029F000020A4020A0EB560081B25020CDE900A889
:102A0000A0EB550080B233462A46FFF7CFF91036C7
:102A100014357F1CFFB2F6B2EDB2082FE9D3FA20CD
:102A2000FDF7CEFCFF2500218023A022084600955B
:102A3000FFF7E6F901217E239E220846CDF800B07B
:102A4000FFF7DEF9CDE9004847465A4B5AA2282144
:102A50000520FFF7EDF84FF0FF16CDE900461423EF
:102A6000892219461720FFF74DF9152389221946A7
:102A70001720CDE90045FFF745F9152389221946AE
:102A80001720CDE90045FFF73DF94A4BCDE9004657
:102A90000C3352A20A212920FFF7CAF82E04454B15
:102AA000CDE90046243351A223212D20FFF7C0F8A1
:102AB000CDE9004600231E225A212820FEF7C7FD3B
:102AC000012314225A212D20CDE90045FEF7BFFD38
:102AD0004FF01908CDF800800522CDE901851423B7
:102AE00011461046FFF76DFA0522CDE90246CDF8F2
:102AF0000080142311461046CDF80480FFF741FAF8
:102B0000CDE900A9554614231E222D213C20FFF7B4
:102B10004DF94FF00A096FF07F480322CDF800907D
:102B2000CDE9012819233C2246215020FFF788F9DE
:102B3000CDE9009819233C2264215020FFF7EFF9DA
:102B4000CDF800B0CDE9015714231E2264213C20AA
:102B5000FEF71AFF0094CDE901470F2319223C210B
:102B60007D20FEF711FF134BCDE90046303322A242
:102B7000C8210020FFF75CF80E4BCDE90046183362
:102B800020A2DC210A20FFF753F8FEE700280040CE
:102B9000C80000200010014000540040A086010041
:102BA0000058004055415254204F4B0D0A00000080
:102BB00000FFFF00B8300008546869732069730A89
:102BC000206A757374206120546573740A20546FF1
:102BD0006D5468756D62204578740A0044495350FD
:102BE0004C415920445249564552000053455249E0
:102BF0004620424F4C4400003132333435363738AA
:102C000039300000313233343536373839302044EA
:102C1000656661756C7420466F6E740000808080FC
:102C20000080A0A0A0E0A0E0A060C060C040802024
:102C3000408020C0C0E0A0608080408080804080D4
:102C400040404080A040A040E0404080E080202004
:102C500040808060A0A0A0C040C0404040C0204054
:102C600080E0C0204020C0A0A0E02020E080C02064
:102C7000C06080E0A0E0E020408080E0A0E0A0E034
:102C8000E0A0E020C08000804000408020408040E4
:102C900020E000E08040204080E02040004040A054
:102CA000E0806040A0E0A0A0C0A0C0A0C060808084
:102CB0008060C0A0A0A0C0E080E080E0E080E08074
:102CC000806080E0A060A0A0E0A0A0E0404040E0E4
:102CD000202020A040A0A0C0A0A080808080E0A0F4
:102CE000E0E0A0A0A0E0E0E0A040A0A0A040C0A044
:102CF000C0808040A0A0E060C0A0E0C0A060804094
:102D000020C0E040404040A0A0A0A060A0A0A04003
:102D100040A0A0E0E0A0A0A040A0A0A0A040404013
:102D2000E0204080E0E0808080E0804020E02020C3
:102D300020E040A0E08040C060A0E080C0A0A0C033
:102D4000608080602060A0A06060A0C0602040E043
:102D5000404060A0E0204080C0A0A0A08000808013
:102D60008020002020A04080A0C0C0A0C0404040E3
:102D7000E0E0E0E0A0C0A0A0A040A0A040C0A0A0D3
:102D8000C08060A0A060206080808060C060C04083
:102D9000E0404060A0A0A060A0A0E040A0E0E0E093
:102DA000A04040A0A0A0602040E060C0E060408063
:102DB00040608080008080C0402040C060C0000033
:102DC00008010200FB00010008050200FB000600EC
:102DD00008020400FB00080008050400FB000D00C9
:102DE00008050400FB00120008050400FB001700A2
:102DF00008050400FB001C0008020200FB001E0086
:102E000008050300FB00230008050300FB00280061
:102E100008030400FB002B0008030400FC002E0044
:102E200008020300FE00300008010400FD0031002C
:102E300008010200FF00320008050400FB00370013
:102E400008050400FB003C0008050300FB004100EE
:102E500008050400FB00460008050400FB004B00C9
:102E600008050400FB00500008050400FB005500A5
:102E700008050400FB005A0008050400FB005F0081
:102E800008050400FB00640008050400FB0069005D
:102E900008030200FC006C0008040300FC00700042
:102EA00008050400FB00750008030400FC0078001E
:102EB00008050400FB007D0008050400FB008200FB
:102EC00008050400FB00870008050400FB008C00D7
:102ED00008050400FB00910008050400FB009600B3
:102EE00008050400FB009B0008050400FB00A0008F
:102EF00008050400FB00A50008050400FB00AA006B
:102F000008050400FB00AF0008050400FB00B40046
:102F100008050400FB00B90008050400FB00BE0022
:102F200008050400FB00C30008050400FB00C800FE
:102F300008050400FB00CD0008050400FB00D200DA
:102F400008050400FB00D70008050400FB00DC00B6
:102F500008050400FB00E10008050400FB00E60092
:102F600008050400FB00EB0008050400FB00F0006E
:102F700008050400FB00F50008050400FB00FA004A
:102F800008050400FB00FF0008050400FB00040125
:102F900008050400FB00090108050400FB000E0100
:102FA00008030400FC00110108050400FB001601E1
:102FB00008020400FB00180108010400FF001901C9
:102FC00008020300FB001B0108040400FC001F01B1
:102FD00008050400FB00240108040400FC0028018B
:102FE00008050400FB002D0108040400FC00310169
:102FF00008050400FB00360108050400FC003B0145
:1030000008050400FB00400108050200FB00450123
:1030100008060400FB004B0108050400FB005001FA
:1030200008050400FB00550108040400FC005901D8
:1030300008040400FC005D0108040400FC006101B8
:1030400008050400FC00660108050400FC006B0193
:1030500008040400FC006F0108040400FC00730174
:1030600008050400FB00780108040400FC007C0152
:1030700008040400FC00800108040400FC00840132
:1030800008040400FC00880108050400FC008D0110
:1030900008040400FC00910108050400FB009601EF
:1030A00008050200FB009B0108050400FB00A001CD
:1030B00008020400FB0000001C2C0008BE2D0008C4
:1030C000207E0600F430000804320008207E07004D
:1030D000FC3400089A360008207E0C009239000863
:1030E0001C3E0008207E1600144100088846000897
:1030F0002E3A3200E8A057D5F500FD3E5F80888863
:103100008880F4BF2E80806A409580AA805D00C0D0
:10311000F08008888800FC631F80F8F87F0F80F833
:103120007E1F808C7E1080FC3E1F80FC3F1F80F83D
:10313000421080FC7F1F80FC7E1F8090B02A22F00E
:10314000F088A8F84E0200FD6F0F80FC7F1880F415
:103150007D1F00FC210F80F4631F00FC3F0F80FCEB
:103160003F0800FC2F1F808C7F1880F9084F807863
:10317000852F808DB1688084210F80FD6B5A80FC83
:10318000631880FC631F80FC7F0800FC633F80FCA9
:103190007F2900FC3E1F80F90842008C631F808C51
:1031A00062A200AD6B5F808A88A8808C544200F8D0
:1031B0007F0F80EAC082082080D5C054F880F1FFDC
:1031C0008F99F0F88F1F99F0FF8F6BA4F99F108FE4
:1031D0009990F055C08AF990F8FD6310F999F99F1C
:1031E000F99F80F99F20F888471F27C84200999FC0
:1031F00099978C6BF09669999F102E8F2B22F889E6
:10320000A80FE0000000000006000100000001051A
:103210000200FC00010003010400FC00020005059F
:103220000600FC00060005050600FC000A00050576
:103230000600FC000E0005050600FC00120001015E
:103240000200FC00130002050300FC00150002054B
:103250000300FC00170003030400FD001900030332
:103260000400FD001B000102020000001C0004011C
:103270000500FE001D000101020000001E00050502
:103280000600FC00220005050600FC0026000105E2
:103290000200FC00270005050600FC002B000505C8
:1032A0000600FC002F0005050600FC0033000505A4
:1032B0000600FC00370005050600FC003B00050584
:1032C0000600FC003F0005050600FC004300050564
:1032D0000600FC00470001040200FD004800010454
:1032E0000200FD00490003050400FC004B0004033C
:1032F0000500FD004D0003050400FC004F0005051E
:103300000600FC00530005050600FC0057000505FB
:103310000600FC005B0005050600FC005F000505DB
:103320000600FC00630005050600FC0067000505BB
:103330000600FC006B0005050600FC006F0005059B
:103340000600FC00730005050600FC00770005057B
:103350000600FC007B0005050600FC007F0005055B
:103360000600FC00830005050600FC00870005053B
:103370000600FC008B0005050600FC008F0005051B
:103380000600FC00930005050600FC0097000505FB
:103390000600FC009B0005050600FC009F000505DB
:1033A0000600FC00A30005050600FC00A7000505BB
:1033B0000600FC00AB0005050600FC00AF0005059B
:1033C0000600FC00B30005050600FC00B70005057B
:1033D0000600FC00BB0005050600FC00BF0002055E
:1033E0000300FC00C10005050600FC00C500020545
:1033F0000300FC00C70003020400FC00C800050134
:1034000006000100C90001010200FC00CA0004041A
:103410000500FD00CC0004050500FC00CF000404FD
:103420000500FD00D10004050500FC00D4000404E3
:103430000500FD00D60003050400FC00D8000405CB
:103440000500FD00DB0004050500FC00DE000104B2
:103450000200FD00DF0002050300FD00E10004059D
:103460000500FC00E40001050200FC00E500050485
:103470000600FD00E80004040500FD00EA00040465
:103480000500FD00EC0004050500FD00EF0004054B
:103490000500FD00F20004040500FD00F400040432
:1034A0000500FD00F60005050600FC00FA00040416
:1034B0000500FD00FC0004040500FD00FE000504FD
:1034C0000600FD00010104040500FD0003010405E0
:1034D0000500FD00060104040500FD0008010305C8
:1034E0000400FC000A0101050200FC000B010305B9
:1034F0000400FC000D0105030600FD00FD5AA02894
:10350000AFCA53F51423EB4618B5F1004AAB1428A3
:10351000D55221451EAAA91B582A492444889249FC
:1035200050255CEA902109F2108058F88008842226
:1035300011084400746318C62E592497746222221D
:103540001F744260862E1194A93C43FC21E0862E14
:1035500074A1E8C62EFC844210847462E8C62E74FE
:103560006317852E848C088888208208F801F082F1
:103570000820888880746222100474675ADE0F2045
:10358000831451E4B3F252E4A53E7C6108422EF26A
:103590005294A53EFA54E5213FFA54E5211C3928FE
:1035A000209E248CCD249E4924B3F90842109F7C90
:1035B0004104104124E0ED25185144BBE1041041C1
:1035C000047FDEF7BAD6B5DD269A5964BA7463185B
:1035D000C62EF252E4211C746318F66E18F1249C76
:1035E0005124BB7C60C1063EFD4842108ECD249222
:1035F00049248CCD249450C208AD6AE5294ADA9456
:1036000042295BDA9442108EFC8442213FF2492425
:103610009C8884422210E492493C54FC80649D279B
:1036200080C210E4A52E7988703084E94A4F69F889
:10363000703A11E4211E7C990F45C0C1041C492435
:10364000BB406497100311111EC1041751C4BBE1A4
:103650000842109FF56B5A80F12492EC699960F250
:103660005297238074A52708E0DB108E00F861F0E4
:1036700044E44430D924923CED250C20AD5CA500F7
:10368000DA88AD80ED250C208C00F244F069289298
:103690004CFFF0C9229258429180000000000800BF
:1036A0000000000001080802F700010004030801FF
:1036B000F600030006080800F7000900050A0800E4
:1036C000F600100006080800F700160006080800BB
:1036D000F7001C0002030800F6001D00030A08039F
:1036E000F6002100030A0801F6002500050608007F
:1036F000F800290005070800F7002E000203080063
:10370000FE002F0005010800FA0030000101080149
:10371000FE003100050A0800F60038000508080020
:10372000F7003D0003080801F70040000508080005
:10373000F700450005080800F7004A0005080800E2
:10374000F7004F0005080800F700540005080800BE
:10375000F700590005080800F7005E00050808009A
:10376000F700630005080800F7006800010608027A
:10377000F900690001060802FA006A00050908015B
:10378000F600700005040800F9007300050908013F
:10379000F600790005080800F7007E00050808001B
:1037A000F700830006080800F700890005080800F4
:1037B000F7008E0005080800F700930005080800D0
:1037C000F700980005080800F7009D0005080800AC
:1037D000F700A20006080800F700A8000608080085
:1037E000F700AE0005080800F700B300060908005E
:1037F000F700BA0006080800F700C0000608080035
:10380000F700C60005080800F700CB00060808000E
:10381000F700D10005080800F700D60005080800E9
:10382000F700DB0005090800F700E10006080800C2
:10383000F700E70005080800F700EC00050808009D
:10384000F700F10006080800F700F7000608080076
:10385000F700FD0005080800F70002010508080050
:10386000F700070105080800F7000C01050808002B
:10387000F7001101030A0802F60015010409080106
:10388000F6001A01030A0801F6001E0103020801EE
:10389000F6001F01060108000000200101010802D6
:1038A000F600210105050801FA00250105080800B8
:1038B000F7002A0104050801FA002D010508080196
:1038C000F700320104050801FA0035010508080176
:1038D000F7003A0105070801FA003F010608080051
:1038E000F700450103080801F7004801040A080031
:1038F000F7004D0106080800F7005301050808000D
:10390000F700580105050800FA005C0106050800EB
:10391000FA00600104050801FA00630105070800C8
:10392000FA00680105070801FA006D0105050800A5
:10393000FA00710104050801FA0074010407080186
:10394000F800780106050800FA007C010605080069
:10395000FA00800105050800FA0084010505080049
:10396000FA00880106070800FA008E010405080124
:10397000FA009101030A0802F6009501010C080300
:10398000F5009701030A0801F6009B0106030800F1
:10399000F500FFF4921FF0CF3CE388130984C2477F
:1039A000F990C84CFF13090C86401038D692D2F01B
:1039B0007C3E179393D67C103C21CF0E2430A0C5BB
:1039C0000334E72640B904C423308C841C0F00CC98
:1039D00006603E00E78F189C8CE4E3C79E3C72FDB6
:1039E000E0FF803244CCCCCCC46210842233333329
:1039F000326480316BB18ED68C00080402010FF85E
:103A00004020100800DF9500FFFF800C218610C3C6
:103A100008618430C01C3398DC7E3F1F8FC7E3B140
:103A200098C38008E38E38E38E38E3BF3C3F23C061
:103A3000E07030381818185FDFE07C8E0E0E0C1E18
:103A400007030302E6F8060E0E3E2E4E8E8EFFFF93
:103A50000E0E3F7E4040F8FC1E060202E4F8071CF2
:103A60003070FCE6E7E7E767663C7F3FA0D0406048
:103A70003010180C040603003CC6C6C6FC7C3ECFC2
:103A8000C7C7C67C3E33B8DC7E3F1DCE7F07070F1D
:103A90001C00FF803FE0FF8037E540000070787831
:103AA000783803803C03C030FFC0000000FFC0C076
:103AB0003C03C01C01C1E1E1E0E000003D9F3E701D
:103AC000E104080070E1C00F818318C4899C4CE4B4
:103AD000672239224FE3000C101F0002003001C0A2
:103AE0000E00B805C04F02383FE107183DE3F0FF74
:103AF000871CE39C739C7F0E71C738E71CE77FC06F
:103B00001F261DC1B01E01C0380700E00E04E10FE2
:103B1000C0FF0E71C738770EE1DC3B8770CE39C627
:103B20007F80FFCE19C1388730FE1CC388702E0DF0
:103B3000C37FE0FFDC3705C4731FC731C4701C07A7
:103B400003E01F230E706E02E00E00E1FE0E60E740
:103B50000E38E0F8F9F70E70E70E70E7FE70E70E2A
:103B600070E70E70EF9FFB9CE739CE739DF01F0E40
:103B70000E0E0E0E0E0E0E0E0ECECC78F9F3821C2B
:103B800020E207203F01DC0E7073C38F1C3DF3F071
:103B9000F80E01C0380700E01C0380702E09C37FB7
:103BA000E0F80F3C1E3C1E2E2E2E2E264E274E27B2
:103BB0004E238E238E210E711FF0EE09E13E25E487
:103BC0009E91D21E43C8390370201F830C70EE07EC
:103BD000E07E07E07E07E0770E30C1F8FF1CE71DAE
:103BE000C771DCE7F1C0701C0703E00F839C70E62F
:103BF00006E07E07E07E07E0760630C1980F007889
:103C000003E0FF073871C71C71C7387E07707787DC
:103C10003C71EF8F3947C1C0F07C3E0F83C3C6BCF7
:103C2000FFFCE38E10E00E00E00E00E00E00E00E60
:103C300001F0F8EE09C1382704E09C1382704E08A9
:103C4000E20F80FC7BC10E087081C40E207A01D087
:103C50000E803801C004002000FDFBDC38438710D3
:103C6000E1C438F2072E81D3A034700E1C03870004
:103C700060801020FEF3C30F103900F003801E0196
:103C80007009C08F083DF3F0FC7BC18E083881E8D5
:103C900007401C00E007003801C01F00FFD8721E5B
:103CA0004380E01C0701C0382E0F837FE0FCCCCCA2
:103CB000CCCCCCCCF0C1061820C3041860830CF324
:103CC000333333333333F0181C34266243C1FF805F
:103CD000C6307C63B1C0E1F33B9DCEFF80F01C0792
:103CE00001DC7B9C771DC771DC77393C3CED9F0E76
:103CF0001C38393C0780E038EE77B8EE3B8EE3B8ED
:103D0000E778EF3C66E6FEE0E0E0723C3EEDC7C7D8
:103D10000E1C3870E1C7C031DFBF7EE79060FCFE4B
:103D20000C17C0F01C0701DC7B9CE739CE739CE7C5
:103D30003BFF739DE739CE739DF01C71CF1C71C79B
:103D40001C71C71C7DBEF01C0701CE711C8741F899
:103D5000771CE71BEFF39CE739CE739DF0F738F73C
:103D6000B9CE739CE739CE739CE739CEFFFEF71EC0
:103D7000E739CE739CE739CEFFC03E31B8FC7E3FB9
:103D80001F8EC63E00F71EE71DC771DC771DCE7F74
:103D90001C0701C0F8003C9CEE3B8EE3B8EE39CE28
:103DA0003F80E0380E07C0F77B707070707070F85D
:103DB0007E73C78E39B010CF9C71C71C71D380F74A
:103DC0009CE739CE739CE739CE3FC0FBB88C874364
:103DD000C0E070100800F7B63173A33A3DA3DC18B9
:103DE000C1881080FBB88E8381C0F098CEEF80F739
:103DF000627234343C1818101010E0E0FF1C70E3BD
:103E0000871C71FE198C6318CC618C6318C3FFF892
:103E1000C318C631863318C63198F08E00000000F2
:103E2000050001000000030C0601F5000500060571
:103E30000A02F5000900090D0900F4001800080E37
:103E40000901F40026000E0C1202F5003B000D0CD7
:103E50000F01F5004F0002050501F5005100040FA8
:103E60000601F5005900040F0601F500610007077F
:103E70000902F500680009090C01F8007300030647
:103E80000401FE00760004020601FC007700030333
:103E90000401FE007900060D0500F5008300090C01
:103EA0000900F5009100060C0901F5009A00090CC3
:103EB0000900F500A800080C0900F500B400080C82
:103EC0000901F500C000080C0901F500CC00080C40
:103ED0000901F500D800090C0900F500E600080CFE
:103EE0000901F500F200090C0900F50000010309C1
:103EF0000601F8000401030C0602F80009010A0A91
:103F00000C01F70016010A050C01FA001D010A0A4E
:103F10000C01F8002A01070C0901F50035010D0C10
:103F20001102F50049010D0C0D00F5005D010B0CAF
:103F30000C00F5006E010B0C0D01F5007F010B0C60
:103F40000D01F50090010B0C0C01F500A1010A0C0C
:103F50000B01F500B0010C0C0E01F500C2010C0CB8
:103F60000E01F500D401050C0701F500DC01080E77
:103F70000900F500EA010D0C0E01F500FE010B0C25
:103F80000C01F5000F02100C1100F50027020B0CBC
:103F90000D01F50038020C0C0E01F5004A020A0C66
:103FA0000B01F50059020C0F0E01F50070020C0C0C
:103FB0000D01F5008202080C0A01F5008E020C0CBE
:103FC0000C00F500A0020B0C0D01F500B1020D0D67
:103FD0000D00F500C702120C1200F500E2020D0CF4
:103FE0000D00F500F6020D0C0D00F5000A030B0C98
:103FF0000C01F5001B03040F0601F5002303060D59
:104000000500F5002D03040F0601F5003503080730
:104010000A01F5003C030901090003003E03040303
:104020000600F400400309090900F8004B030A0CDC
:104030000A00F5005A0307090800F80062030A0C99
:104040000A00F500710308090800F8007A03070C5C
:104050000700F5008503070D0901F80091030A0C1C
:104060000A00F500A003050C0500F500A8030610E2
:104070000700F500B4030A0C0A00F500C303050CA1
:104080000500F500CB030F090F00F800DC030A0957
:104090000A00F800E80309090900F800F3030A0D13
:1040A0000A00F80004040A0D0A00F80015040809C3
:1040B0000800F8001E0405090701F8002404060B97
:1040C0000600F6002D040A090A00F800390409095F
:1040D0000900F80044040C090D00F8005204090915
:1040E0000900F8005D04080D0900F8006A040709DA
:1040F0000801F800720405100700F4007C04010DAB
:104100000401F5007E0405100702F400880408028B
:104110000901FC0038FBFFFFEF8E0003FFF800FFF2
:10412000FF803FFFF803FFFEC33FFFBCF0000FFF1F
:104130000001FFE0003FFC0007FF8000FFF0001FD0
:10414000FE0003FFC0007FF8000FFF0001FFE0004A
:104150003FFC0007FF8000FFF0001FFC0000FE0096
:10416000000700000040000004000000E000007FA5
:1041700000003FF0001FFE0003FFC0007FF8000FAB
:10418000FF0001FFE0003FFC0007FF8000FFF000A0
:104190001FFE0003FFC0007FF8000FFF0001FFE0DB
:1041A000003F780003C67FFF301FFFF007FFFF00CE
:1041B0007FFFC007FFF00031EFFFFFFFFFFFFFFFB2
:1041C000FFFFFF3C30400033FFFFFFFFFFFFFFFF1B
:1041D000FFFFFDE30003FFF800FFFF803FFFF80350
:1041E000FFFEC03FFFBC00000FC00001F800003F11
:1041F000000007E00000FC00001F800003F000004A
:104200007E00000FC00001F800003F000007E00042
:1042100000FC00001F800000F07FFF861FFFFC4FA6
:10422000FFFFE4FFFFF8E7FFFC1F000003F00000C2
:104230007E00000FC00001F800003F000007E00012
:1042400000FC00001F800003F000007E00000FC093
:104250000001F800003F000007E0000078000006C1
:104260007FFF001FFFF007FFFF007FFFC007FFF089
:10427000000FFFE00FFFF80FFFFE03FFFEC0FFFE81
:10428000F00000FC00007E00003F00001F80000FD7
:10429000C00007E00003F00001F80000FC00007E11
:1042A00000003F00001F80000FC00007E00000F189
:1042B000FFFE19FFFFC7FFFFF8FFFFF81FFFF180A8
:1042C0000003C00007E00003F00001F80000FC005C
:1042D000007E00003F00001F80000FC00007E000CC
:1042E00003F00001F80000FC00007E00003F000029
:1042F0000F07FFF307FFFC07FFFF01FFFF007FFF32
:104300000000000186000079E0001FFE0003FFC0EE
:10431000007FF8000FFF0001FFE0003FFC0007FFF7
:104320008000FFF0001FFE0003FFC0007FF8000FB9
:10433000FF0001FFE0003FF80001FCFFFF0E3FFF20
:10434000F89FFFFFC1FFFFF00FFFF8C000007800EB
:10435000003F000007E00000FC00001F800003F0A9
:1043600000007E00000FC00001F800003F000007C1
:10437000E00000FC00001F800003F000007E000051
:10438000078000006003FFF800FFFF803FFFF80395
:10439000FFFE033FFF80F000003F000007E0000049
:1043A000FC00001F800003F000007E00000FC00032
:1043B00001F800003F000007E00000FC00001F8043
:1043C0000003F000007C00000E7FFF811FFFFC0F48
:1043D000FFFFE0FFFFF807FFFC6000003C00001F4C
:1043E000800003F000007E00000FC00001F8000014
:1043F0003F000007E00000FC00001F800003F00009
:10440000007E00000FC00001F800003F000003C064
:104410007FFF301FFFF007FFFF007FFFC007FFF0A7
:104420000003FFF800FFFF803FFFF803FFFE033F9C
:10443000FF80F000003F000007E00000FC00001FCC
:10444000800003F000007E00000FC00001F80000B3
:104450003F000007E00000FC00001F800003F000A8
:10446000007C00000E7FFF811FFFFC0FFFFFE4FFB9
:10447000FFF8E7FFFC7F00003FF0001FFE0003FF96
:10448000C0007FF8000FFF0001FFE0003FFC0007C5
:10449000FF8000FFF0001FFE0003FFC0007FF80058
:1044A0000FFF0001FFE0003F780003C67FFF301FD1
:1044B000FFF007FFFF007FFFC007FFF0003FFF8016
:1044C000FFFF83FFFF83FFFEC3FFFBC0000FC000A1
:1044D0001F80003F00007E0000FC0001F80003F098
:1044E0000007E0000FC0001F80003F00007E0000BA
:1044F000FC0001F80000F000006000004000000037
:10450000000000000600003C0001F80003F0000776
:10451000E0000FC0001F80003F00007E0000FC0094
:1045200001F80003F00007E0000FC0001F80003F0B
:1045300000003C00003003FFF800FFFF803FFFF861
:1045400003FFFEC33FFFBCF0000FFF0001FFE000D0
:104550003FFC0007FF8000FFF0001FFE0003FFC0CC
:10456000007FF8000FFF0001FFE0003FFC0007FFA5
:104570008000FFF0001FFC0000FE7FFF871FFFFC94
:104580004FFFFFE4FFFFF8E7FFFC7F00003FF00074
:104590001FFE0003FFC0007FF8000FFF0001FFE0D7
:1045A000003FFC0007FF8000FFF0001FFE0003FF3C
:1045B000C0007FF8000FFF0001FFE0003F7800031C
:1045C000C67FFF301FFFF007FFFF007FFFC007FF20
:1045D000F00003FFF800FFFF803FFFF803FFFEC37A
:1045E0003FFFBCF0000FFF0001FFE0003FFC0007B1
:1045F000FF8000FFF0001FFE0003FFC0007FF800F7
:104600000FFF0001FFE0003FFC0007FF8000FFF00C
:10461000001FFC0000FE7FFF871FFFFC4FFFFFE035
:10462000FFFFF807FFFC6000003C00001F80000354
:10463000F000007E00000FC00001F800003F000005
:1046400007E00000FC00001F800003F000007E0077
:10465000000FC00001F800003F000003C07FFF30E2
:104660001FFFF007FFFF007FFFC007FFF00038FBD0
:10467000FFFFEF8E000000000000000000000000BF
:10468000071F7FFFFDF1C00000000707200EF500A7
:10469000070000002000000007001B2E2002D100B0
:1046A000A30006272017D400C1001B2E2002D10032
:1046B0005D01192E2004D100ED011B272002D4003A
:1046C00071021B2E2002D1000D031B2E2002D100EF
:1046D000A903172A2006D10022041B2E2002D10094
:1046E000BE041B2E2002D1005A05071C200EDB0041
:1046F0000000000000000000010203040607080992
:104700000000000001020304284700080000002008
:1047100020000000802800084847000820000020F2
:10472000980500009028000800000000000000002C
:104730000000000000000000010000001000000068
:08474000000000000024F40059
:040000050800018965
:00000001FF
