Component: ARM Compiler 5.06 update 6 (build 750) Tool: armlink [4d35ed]

==============================================================================

Section Cross References

    startup_stm32f103xb.o(RESET) refers to startup_stm32f103xb.o(STACK) for __initial_sp
    startup_stm32f103xb.o(RESET) refers to startup_stm32f103xb.o(.text) for Reset_Handler
    startup_stm32f103xb.o(RESET) refers to stm32f1xx_it.o(i.NMI_Handler) for NMI_Handler
    startup_stm32f103xb.o(RESET) refers to stm32f1xx_it.o(i.HardFault_Handler) for HardFault_Handler
    startup_stm32f103xb.o(RESET) refers to stm32f1xx_it.o(i.MemManage_Handler) for MemManage_Handler
    startup_stm32f103xb.o(RESET) refers to stm32f1xx_it.o(i.BusFault_Handler) for BusFault_Handler
    startup_stm32f103xb.o(RESET) refers to stm32f1xx_it.o(i.UsageFault_Handler) for UsageFault_Handler
    startup_stm32f103xb.o(RESET) refers to stm32f1xx_it.o(i.SVC_Handler) for SVC_Handler
    startup_stm32f103xb.o(RESET) refers to stm32f1xx_it.o(i.DebugMon_Handler) for DebugMon_Handler
    startup_stm32f103xb.o(RESET) refers to stm32f1xx_it.o(i.PendSV_Handler) for PendSV_Handler
    startup_stm32f103xb.o(RESET) refers to stm32f1xx_it.o(i.SysTick_Handler) for SysTick_Handler
    startup_stm32f103xb.o(.text) refers to system_stm32f1xx.o(i.SystemInit) for SystemInit
    startup_stm32f103xb.o(.text) refers to entry.o(.ARM.Collect$$$$00000000) for __main
    stm32f1xx_it.o(i.SysTick_Handler) refers to stm32f1xx_hal.o(i.HAL_IncTick) for HAL_IncTick
    stm32f1xx_it.o(i.SysTick_Handler) refers to stm32f1xx_hal_cortex.o(i.HAL_SYSTICK_IRQHandler) for HAL_SYSTICK_IRQHandler
    stm32f1xx_hal_msp.o(i.HAL_MspInit) refers to stm32f1xx_hal_cortex.o(i.HAL_NVIC_SetPriorityGrouping) for HAL_NVIC_SetPriorityGrouping
    stm32f1xx_hal_msp.o(i.HAL_MspInit) refers to stm32f1xx_hal_cortex.o(i.HAL_NVIC_SetPriority) for HAL_NVIC_SetPriority
    stm32f1xx_hal_msp.o(i.HAL_SPI_MspDeInit) refers to stm32f1xx_hal_gpio.o(i.HAL_GPIO_DeInit) for HAL_GPIO_DeInit
==============================================================================

Removing Unused input sections from the image.

    Removing startup_stm32f103xb.o(HEAP), (512 bytes).
    Removing stm32f1xx_it.o(.rev16_text), (4 bytes).
    Removing stm32f1xx_it.o(.revsh_text), (4 bytes).
    Removing stm32f1xx_it.o(.rrx_text), (6 bytes).
    Removing stm32f1xx_hal_msp.o(.rev16_text), (4 bytes).
    Removing stm32f1xx_hal_msp.o(.revsh_text), (4 bytes).
    Removing stm32f1xx_hal_msp.o(.rrx_text), (6 bytes).
    Removing stm32f1xx_hal_msp.o(i.HAL_SPI_MspDeInit), (44 bytes).
    Removing main.o(.rev16_text), (4 bytes).
    Removing main.o(.revsh_text), (4 bytes).
    Removing main.o(.rrx_text), (6 bytes).
    Removing main.o(i._Error_Handler), (2 bytes).
    Removing main.o(.constdata), (142 bytes).
    Removing main.o(.constdata), (760 bytes).
    Removing main.o(.constdata), (12 bytes).
    Removing main.o(.constdata), (180 bytes).
    Removing main.o(.constdata), (760 bytes).
    Removing main.o(.constdata), (12 bytes).
==============================================================================

Image Symbol Table

    Local Symbols

    Symbol Name                              Value     Ov Type        Size  Object(Section)

    ..//Src/system_stm32f1xx.c               0x00000000   Number         0  system_stm32f1xx.o ABSOLUTE
    ../Drivers/STM32F1xx_HAL_Driver/Src/stm32f1xx_hal.c 0x00000000   Number         0  stm32f1xx_hal.o ABSOLUTE
    ../Drivers/STM32F1xx_HAL_Driver/Src/stm32f1xx_hal_cortex.c 0x00000000   Number         0  stm32f1xx_hal_cortex.o ABSOLUTE
    ../Drivers/STM32F1xx_HAL_Driver/Src/stm32f1xx_hal_dma.c 0x00000000   Number         0  stm32f1xx_hal_dma.o ABSOLUTE
    ../Drivers/STM32F1xx_HAL_Driver/Src/stm32f1xx_hal_flash.c 0x00000000   Number         0  stm32f1xx_hal_flash.o ABSOLUTE
    ../Drivers/STM32F1xx_HAL_Driver/Src/stm32f1xx_hal_flash_ex.c 0x00000000   Number         0  stm32f1xx_hal_flash_ex.o ABSOLUTE
    ../Drivers/STM32F1xx_HAL_Driver/Src/stm32f1xx_hal_gpio.c 0x00000000   Number         0  stm32f1xx_hal_gpio.o ABSOLUTE
    ../Drivers/STM32F1xx_HAL_Driver/Src/stm32f1xx_hal_gpio_ex.c 0x00000000   Number         0  stm32f1xx_hal_gpio_ex.o ABSOLUTE
    ../Drivers/STM32F1xx_HAL_Driver/Src/stm32f1xx_hal_pwr.c 0x00000000   Number         0  stm32f1xx_hal_pwr.o ABSOLUTE
    ../Drivers/STM32F1xx_HAL_Driver/Src/stm32f1xx_hal_rcc.c 0x00000000   Number         0  stm32f1xx_hal_rcc.o ABSOLUTE
    ../Drivers/STM32F1xx_HAL_Driver/Src/stm32f1xx_hal_rcc_ex.c 0x00000000   Number         0  stm32f1xx_hal_rcc_ex.o ABSOLUTE
    ../Drivers/STM32F1xx_HAL_Driver/Src/stm32f1xx_hal_spi.c 0x00000000   Number         0  stm32f1xx_hal_spi.o ABSOLUTE
    ../Drivers/STM32F1xx_HAL_Driver/Src/stm32f1xx_hal_spi_ex.c 0x00000000   Number         0  stm32f1xx_hal_spi_ex.o ABSOLUTE
    ../Drivers/STM32F1xx_HAL_Driver/Src/stm32f1xx_hal_tim.c 0x00000000   Number         0  stm32f1xx_hal_tim.o ABSOLUTE
    ../Drivers/STM32F1xx_HAL_Driver/Src/stm32f1xx_hal_tim_ex.c 0x00000000   Number         0  stm32f1xx_hal_tim_ex.o ABSOLUTE
    ../Src/main.c                            0x00000000   Number         0  main.o ABSOLUTE
    ../Src/stm32f1xx_hal_msp.c               0x00000000   Number         0  stm32f1xx_hal_msp.o ABSOLUTE
    ../Src/stm32f1xx_it.c                    0x00000000   Number         0  stm32f1xx_it.o ABSOLUTE
    ../clib/microlib/init/entry.s            0x00000000   Number         0  entry7b.o ABSOLUTE
    ../clib/microlib/init/entry.s            0x00000000   Number         0  entry7a.o ABSOLUTE
    ../clib/microlib/init/entry.s            0x00000000   Number         0  entry2.o ABSOLUTE
    ../clib/microlib/init/entry.s            0x00000000   Number         0  entry5.o ABSOLUTE
    ../clib/microlib/init/entry.s            0x00000000   Number         0  entry8b.o ABSOLUTE
    ../clib/microlib/init/entry.s            0x00000000   Number         0  entry9a.o ABSOLUTE
    ../clib/microlib/init/entry.s            0x00000000   Number         0  entry9b.o ABSOLUTE
    ../clib/microlib/init/entry.s            0x00000000   Number         0  entry8a.o ABSOLUTE
    ../clib/microlib/init/entry.s            0x00000000   Number         0  entry11b.o ABSOLUTE
    ../clib/microlib/init/entry.s            0x00000000   Number         0  entry11a.o ABSOLUTE
    ../clib/microlib/init/entry.s            0x00000000   Number         0  entry10b.o ABSOLUTE
    ../clib/microlib/init/entry.s            0x00000000   Number         0  entry10a.o ABSOLUTE
    ../clib/microlib/init/entry.s            0x00000000   Number         0  entry.o ABSOLUTE
    ../clib/microlib/longlong.c              0x00000000   Number         0  llushr.o ABSOLUTE
    ../clib/microlib/string/strlen.c         0x00000000   Number         0  strlen.o ABSOLUTE
    ..\Drivers\STM32F1xx_HAL_Driver\Src\stm32f1xx_hal.c 0x00000000   Number         0  stm32f1xx_hal.o ABSOLUTE
    ..\Drivers\STM32F1xx_HAL_Driver\Src\stm32f1xx_hal_cortex.c 0x00000000   Number         0  stm32f1xx_hal_cortex.o ABSOLUTE
    ..\Drivers\STM32F1xx_HAL_Driver\Src\stm32f1xx_hal_dma.c 0x00000000   Number         0  stm32f1xx_hal_dma.o ABSOLUTE
    ..\Drivers\STM32F1xx_HAL_Driver\Src\stm32f1xx_hal_flash.c 0x00000000   Number         0  stm32f1xx_hal_flash.o ABSOLUTE
    ..\Drivers\STM32F1xx_HAL_Driver\Src\stm32f1xx_hal_flash_ex.c 0x00000000   Number         0  stm32f1xx_hal_flash_ex.o ABSOLUTE
    ..\Drivers\STM32F1xx_HAL_Driver\Src\stm32f1xx_hal_gpio.c 0x00000000   Number         0  stm32f1xx_hal_gpio.o ABSOLUTE
    ..\Drivers\STM32F1xx_HAL_Driver\Src\stm32f1xx_hal_gpio_ex.c 0x00000000   Number         0  stm32f1xx_hal_gpio_ex.o ABSOLUTE
    ..\Drivers\STM32F1xx_HAL_Driver\Src\stm32f1xx_hal_pwr.c 0x00000000   Number         0  stm32f1xx_hal_pwr.o ABSOLUTE
    ..\Drivers\STM32F1xx_HAL_Driver\Src\stm32f1xx_hal_rcc.c 0x00000000   Number         0  stm32f1xx_hal_rcc.o ABSOLUTE
    ..\Drivers\STM32F1xx_HAL_Driver\Src\stm32f1xx_hal_rcc_ex.c 0x00000000   Number         0  stm32f1xx_hal_rcc_ex.o ABSOLUTE
    ..\Drivers\STM32F1xx_HAL_Driver\Src\stm32f1xx_hal_spi.c 0x00000000   Number         0  stm32f1xx_hal_spi.o ABSOLUTE
    ..\Drivers\STM32F1xx_HAL_Driver\Src\stm32f1xx_hal_spi_ex.c 0x00000000   Number         0  stm32f1xx_hal_spi_ex.o ABSOLUTE
    ..\Drivers\STM32F1xx_HAL_Driver\Src\stm32f1xx_hal_tim.c 0x00000000   Number         0  stm32f1xx_hal_tim.o ABSOLUTE
    ..\Drivers\STM32F1xx_HAL_Driver\Src\stm32f1xx_hal_tim_ex.c 0x00000000   Number         0  stm32f1xx_hal_tim_ex.o ABSOLUTE
    ..\Src\main.c                            0x00000000   Number         0  main.o ABSOLUTE
    ..\Src\st7735.c                          0x00000000   Number         0  st7735.o ABSOLUTE
    ..\Src\stm32f1xx_hal_msp.c               0x00000000   Number         0  stm32f1xx_hal_msp.o ABSOLUTE
    ..\Src\stm32f1xx_it.c                    0x00000000   Number         0  stm32f1xx_it.o ABSOLUTE
    ..\\Src\\st7735.c                        0x00000000   Number         0  st7735.o ABSOLUTE
    ..\\Src\system_stm32f1xx.c               0x00000000   Number         0  system_stm32f1xx.o ABSOLUTE
    dc.s                                     0x00000000   Number         0  dc.o ABSOLUTE
    handlers.s                               0x00000000   Number         0  handlers.o ABSOLUTE
    init.s                                   0x00000000   Number         0  init.o ABSOLUTE
    startup_stm32f103xb.s                    0x00000000   Number         0  startup_stm32f103xb.o ABSOLUTE
    RESET                                    0x08000000   Section      236  startup_stm32f103xb.o(RESET)
    .ARM.Collect$$$$00000000                 0x080000ec   Section        0  entry.o(.ARM.Collect$$$$00000000)
    .ARM.Collect$$$$00000001                 0x080000ec   Section        4  entry2.o(.ARM.Collect$$$$00000001)
    .ARM.Collect$$$$00000004                 0x080000f0   Section        4  entry5.o(.ARM.Collect$$$$00000004)
    .ARM.Collect$$$$00000008                 0x080000f4   Section        0  entry7b.o(.ARM.Collect$$$$00000008)
    .ARM.Collect$$$$0000000A                 0x080000f4   Section        0  entry8b.o(.ARM.Collect$$$$0000000A)
    .ARM.Collect$$$$0000000B                 0x080000f4   Section        8  entry9a.o(.ARM.Collect$$$$0000000B)
    .ARM.Collect$$$$0000000D                 0x080000fc   Section        0  entry10a.o(.ARM.Collect$$$$0000000D)
    .ARM.Collect$$$$0000000F                 0x080000fc   Section        0  entry11a.o(.ARM.Collect$$$$0000000F)
    .ARM.Collect$$$$00002712                 0x080000fc   Section        4  entry2.o(.ARM.Collect$$$$00002712)
    __lit__00000000                          0x080000fc   Data           4  entry2.o(.ARM.Collect$$$$00002712)
    .text                                    0x08000100   Section       36  startup_stm32f103xb.o(.text)
    .text                                    0x08000124   Section        0  strlen.o(.text)
    .text                                    0x08000134   Section       36  init.o(.text)
    i.BusFault_Handler                       0x08000158   Section        0  stm32f1xx_it.o(i.BusFault_Handler)
    i.DebugMon_Handler                       0x0800015a   Section        0  stm32f1xx_it.o(i.DebugMon_Handler)
    i.H24_RGB565                             0x0800015c   Section        0  st7735.o(i.H24_RGB565)
    H24_RGB565                               0x0800015d   Thumb Code    42  st7735.o(i.H24_RGB565)
    i.HAL_Delay                              0x08000188   Section        0  stm32f1xx_hal.o(i.HAL_Delay)
    i.HAL_GPIO_Init                          0x080001ac   Section        0  stm32f1xx_hal_gpio.o(i.HAL_GPIO_Init)
    i.HAL_GPIO_WritePin                      0x08000368   Section        0  stm32f1xx_hal_gpio.o(i.HAL_GPIO_WritePin)
    i.HAL_GetTick                            0x08000374   Section        0  stm32f1xx_hal.o(i.HAL_GetTick)
    i.HAL_IncTick                            0x08000380   Section        0  stm32f1xx_hal.o(i.HAL_IncTick)
    i.HAL_Init                               0x08000390   Section        0  stm32f1xx_hal.o(i.HAL_Init)
    i.HAL_InitTick                           0x080003b4   Section        0  stm32f1xx_hal.o(i.HAL_InitTick)
    i.HAL_MspInit                            0x080003f4   Section        0  stm32f1xx_hal_msp.o(i.HAL_MspInit)
    i.HAL_NVIC_SetPriority                   0x08000474   Section        0  stm32f1xx_hal_cortex.o(i.HAL_NVIC_SetPriority)
    i.HAL_NVIC_SetPriorityGrouping           0x080004b4   Section        0  stm32f1xx_hal_cortex.o(i.HAL_NVIC_SetPriorityGrouping)
    i.HAL_RCC_ClockConfig                    0x080004d8   Section        0  stm32f1xx_hal_rcc.o(i.HAL_RCC_ClockConfig)
    i.HAL_RCC_GetHCLKFreq                    0x0800062c   Section        0  stm32f1xx_hal_rcc.o(i.HAL_RCC_GetHCLKFreq)
    i.HAL_RCC_GetSysClockFreq                0x08000638   Section        0  stm32f1xx_hal_rcc.o(i.HAL_RCC_GetSysClockFreq)
    i.HAL_RCC_OscConfig                      0x080006a4   Section        0  stm32f1xx_hal_rcc.o(i.HAL_RCC_OscConfig)
    i.HAL_SPI_Init                           0x080009a8   Section        0  stm32f1xx_hal_spi_ex.o(i.HAL_SPI_Init)
    i.HAL_SPI_MspInit                        0x08000a2c   Section        0  stm32f1xx_hal_msp.o(i.HAL_SPI_MspInit)
    i.HAL_SPI_Transmit                       0x08000a88   Section        0  stm32f1xx_hal_spi.o(i.HAL_SPI_Transmit)
    i.HAL_SYSTICK_CLKSourceConfig            0x08000bf0   Section        0  stm32f1xx_hal_cortex.o(i.HAL_SYSTICK_CLKSourceConfig)
    i.HAL_SYSTICK_Callback                   0x08000c08   Section        0  stm32f1xx_hal_cortex.o(i.HAL_SYSTICK_Callback)
    i.HAL_SYSTICK_Config                     0x08000c0a   Section        0  stm32f1xx_hal_cortex.o(i.HAL_SYSTICK_Config)
    i.HAL_SYSTICK_IRQHandler                 0x08000c32   Section        0  stm32f1xx_hal_cortex.o(i.HAL_SYSTICK_IRQHandler)
    i.HardFault_Handler                      0x08000c3a   Section        0  stm32f1xx_it.o(i.HardFault_Handler)
    i.LCD_Char                               0x08000c3c   Section        0  st7735.o(i.LCD_Char)
    LCD_Char                                 0x08000c3d   Thumb Code   198  st7735.o(i.LCD_Char)
    i.LCD_Circle                             0x08000d02   Section        0  st7735.o(i.LCD_Circle)
    i.LCD_Circle_Fill_Helper                 0x08000e30   Section        0  st7735.o(i.LCD_Circle_Fill_Helper)
    i.LCD_Circle_Helper                      0x08000f14   Section        0  st7735.o(i.LCD_Circle_Helper)
    i.LCD_Command                            0x0800102c   Section        0  st7735.o(i.LCD_Command)
    LCD_Command                              0x0800102d   Thumb Code    26  st7735.o(i.LCD_Command)
    i.LCD_Command_List                       0x08001050   Section        0  st7735.o(i.LCD_Command_List)
    i.LCD_Data_16                            0x080010b8   Section        0  st7735.o(i.LCD_Data_16)
    LCD_Data_16                              0x080010b9   Thumb Code    30  st7735.o(i.LCD_Data_16)
    i.LCD_Data_8                             0x080010dc   Section        0  st7735.o(i.LCD_Data_8)
    LCD_Data_8                               0x080010dd   Thumb Code    26  st7735.o(i.LCD_Data_8)
    i.LCD_Ellipse                            0x08001100   Section        0  st7735.o(i.LCD_Ellipse)
    i.LCD_Font                               0x08001398   Section        0  st7735.o(i.LCD_Font)
    i.LCD_Init                               0x08001428   Section        0  st7735.o(i.LCD_Init)
    i.LCD_Line                               0x080014c0   Section        0  st7735.o(i.LCD_Line)
    i.LCD_Orientation                        0x0800153a   Section        0  st7735.o(i.LCD_Orientation)
    i.LCD_Rect                               0x0800158c   Section        0  st7735.o(i.LCD_Rect)
    i.LCD_Rect_Fill                          0x080015de   Section        0  st7735.o(i.LCD_Rect_Fill)
    i.LCD_Rect_Round                         0x0800161a   Section        0  st7735.o(i.LCD_Rect_Round)
    i.LCD_Rect_Round_Fill                    0x080016f8   Section        0  st7735.o(i.LCD_Rect_Round_Fill)
    i.LCD_Triangle                           0x0800175c   Section        0  st7735.o(i.LCD_Triangle)
    i.LCD_Triangle_Fill                      0x0800179c   Section        0  st7735.o(i.LCD_Triangle_Fill)
    i.LCD_Window                             0x0800185e   Section        0  st7735.o(i.LCD_Window)
    LCD_Window                               0x0800185f   Thumb Code    58  st7735.o(i.LCD_Window)
    i.MX_GPIO_Init                           0x08001898   Section        0  main.o(i.MX_GPIO_Init)
    MX_GPIO_Init                             0x08001899   Thumb Code    88  main.o(i.MX_GPIO_Init)
    i.MX_SPI2_Init                           0x080018f8   Section        0  main.o(i.MX_SPI2_Init)
    MX_SPI2_Init                             0x080018f9   Thumb Code    54  main.o(i.MX_SPI2_Init)
    i.MemManage_Handler                      0x08001938   Section        0  stm32f1xx_it.o(i.MemManage_Handler)
    i.NMI_Handler                            0x0800193a   Section        0  stm32f1xx_it.o(i.NMI_Handler)
    i.NVIC_SetPriority                       0x0800193c   Section        0  stm32f1xx_hal_cortex.o(i.NVIC_SetPriority)
    NVIC_SetPriority                         0x0800193d   Thumb Code    32  stm32f1xx_hal_cortex.o(i.NVIC_SetPriority)
    i.PendSV_Handler                         0x0800195c   Section        0  stm32f1xx_it.o(i.PendSV_Handler)
    i.SPI_CheckFlag_BSY                      0x0800195e   Section        0  stm32f1xx_hal_spi.o(i.SPI_CheckFlag_BSY)
    SPI_CheckFlag_BSY                        0x0800195f   Thumb Code    32  stm32f1xx_hal_spi.o(i.SPI_CheckFlag_BSY)
    i.SPI_WaitFlagStateUntilTimeout          0x0800197e   Section        0  stm32f1xx_hal_spi.o(i.SPI_WaitFlagStateUntilTimeout)
    SPI_WaitFlagStateUntilTimeout            0x0800197f   Thumb Code   150  stm32f1xx_hal_spi.o(i.SPI_WaitFlagStateUntilTimeout)
    i.SVC_Handler                            0x08001a14   Section        0  stm32f1xx_it.o(i.SVC_Handler)
    i.SysTick_Handler                        0x08001a16   Section        0  stm32f1xx_it.o(i.SysTick_Handler)
    i.SystemClock_Config                     0x08001a24   Section        0  main.o(i.SystemClock_Config)
    i.SystemInit                             0x08001a8c   Section        0  system_stm32f1xx.o(i.SystemInit)
    i.UsageFault_Handler                     0x08001ad4   Section        0  stm32f1xx_it.o(i.UsageFault_Handler)
    i.__scatterload_copy                     0x08001ad6   Section       14  handlers.o(i.__scatterload_copy)
    i.__scatterload_null                     0x08001ae4   Section        2  handlers.o(i.__scatterload_null)
    i.__scatterload_zeroinit                 0x08001ae6   Section       14  handlers.o(i.__scatterload_zeroinit)
    i.main                                   0x08001af4   Section        0  main.o(i.main)
    .constdata                               0x08001d44   Section      418  main.o(.constdata)
    .constdata                               0x08001ee6   Section      760  main.o(.constdata)
    .constdata                               0x080021e0   Section       36  main.o(.constdata)
    .constdata                               0x08002204   Section      271  main.o(.constdata)
    .constdata                               0x08002314   Section      760  main.o(.constdata)
    .constdata                               0x0800260c   Section     1162  main.o(.constdata)
    .constdata                               0x08002a96   Section      760  main.o(.constdata)
    .constdata                               0x08002d8e   Section      244  st7735.o(.constdata)
    .constdata                               0x08002e82   Section       16  system_stm32f1xx.o(.constdata)
    .data                                    0x20000000   Section       12  stm32f1xx_hal.o(.data)
    .data                                    0x2000000c   Section        4  system_stm32f1xx.o(.data)
    .bss                                     0x20000010   Section       88  main.o(.bss)
    STACK                                    0x20000068   Section     1024  startup_stm32f103xb.o(STACK)

    Global Symbols

    Symbol Name                              Value     Ov Type        Size  Object(Section)

    BuildAttributes$$THM_ISAv4$P$D$K$B$S$PE$A:L22UL41UL21$X:L11$S22US41US21$IEEE1$IW$USESV6$~STKCKD$USESV7$~SHL$OSPACE$EBA8$MICROLIB$REQ8$PRES8$EABIv2 0x00000000   Number         0  anon$$obj.o ABSOLUTE
    __ARM_use_no_argv                        0x00000000   Number         0  main.o ABSOLUTE
    __cpp_initialize__aeabi_                  - Undefined Weak Reference
    __cxa_finalize                            - Undefined Weak Reference
    __decompress                              - Undefined Weak Reference
    _clock_init                               - Undefined Weak Reference
    _microlib_exit                            - Undefined Weak Reference
    __Vectors_Size                           0x000000ec   Number         0  startup_stm32f103xb.o ABSOLUTE
    __Vectors                                0x08000000   Data           4  startup_stm32f103xb.o(RESET)
    __Vectors_End                            0x080000ec   Data           0  startup_stm32f103xb.o(RESET)
    __main                                   0x080000ed   Thumb Code     0  entry.o(.ARM.Collect$$$$00000000)
    _main_stk                                0x080000ed   Thumb Code     0  entry2.o(.ARM.Collect$$$$00000001)
    _main_scatterload                        0x080000f1   Thumb Code     0  entry5.o(.ARM.Collect$$$$00000004)
    __main_after_scatterload                 0x080000f5   Thumb Code     0  entry5.o(.ARM.Collect$$$$00000004)
    _main_clock                              0x080000f5   Thumb Code     0  entry7b.o(.ARM.Collect$$$$00000008)
    _main_cpp_init                           0x080000f5   Thumb Code     0  entry8b.o(.ARM.Collect$$$$0000000A)
    _main_init                               0x080000f5   Thumb Code     0  entry9a.o(.ARM.Collect$$$$0000000B)
    __rt_final_cpp                           0x080000fd   Thumb Code     0  entry10a.o(.ARM.Collect$$$$0000000D)
    __rt_final_exit                          0x080000fd   Thumb Code     0  entry11a.o(.ARM.Collect$$$$0000000F)
    Reset_Handler                            0x08000101   Thumb Code     8  startup_stm32f103xb.o(.text)
    ADC1_2_IRQHandler                        0x0800011b   Thumb Code     0  startup_stm32f103xb.o(.text)
    CAN1_RX1_IRQHandler                      0x0800011b   Thumb Code     0  startup_stm32f103xb.o(.text)
    CAN1_SCE_IRQHandler                      0x0800011b   Thumb Code     0  startup_stm32f103xb.o(.text)
    DMA1_Channel1_IRQHandler                 0x0800011b   Thumb Code     0  startup_stm32f103xb.o(.text)
    DMA1_Channel2_IRQHandler                 0x0800011b   Thumb Code     0  startup_stm32f103xb.o(.text)
    DMA1_Channel3_IRQHandler                 0x0800011b   Thumb Code     0  startup_stm32f103xb.o(.text)
    DMA1_Channel4_IRQHandler                 0x0800011b   Thumb Code     0  startup_stm32f103xb.o(.text)
    DMA1_Channel5_IRQHandler                 0x0800011b   Thumb Code     0  startup_stm32f103xb.o(.text)
    DMA1_Channel6_IRQHandler                 0x0800011b   Thumb Code     0  startup_stm32f103xb.o(.text)
    DMA1_Channel7_IRQHandler                 0x0800011b   Thumb Code     0  startup_stm32f103xb.o(.text)
    EXTI0_IRQHandler                         0x0800011b   Thumb Code     0  startup_stm32f103xb.o(.text)
    EXTI15_10_IRQHandler                     0x0800011b   Thumb Code     0  startup_stm32f103xb.o(.text)
    EXTI1_IRQHandler                         0x0800011b   Thumb Code     0  startup_stm32f103xb.o(.text)
    EXTI2_IRQHandler                         0x0800011b   Thumb Code     0  startup_stm32f103xb.o(.text)
    EXTI3_IRQHandler                         0x0800011b   Thumb Code     0  startup_stm32f103xb.o(.text)
    EXTI4_IRQHandler                         0x0800011b   Thumb Code     0  startup_stm32f103xb.o(.text)
    EXTI9_5_IRQHandler                       0x0800011b   Thumb Code     0  startup_stm32f103xb.o(.text)
    FLASH_IRQHandler                         0x0800011b   Thumb Code     0  startup_stm32f103xb.o(.text)
    I2C1_ER_IRQHandler                       0x0800011b   Thumb Code     0  startup_stm32f103xb.o(.text)
    I2C1_EV_IRQHandler                       0x0800011b   Thumb Code     0  startup_stm32f103xb.o(.text)
    I2C2_ER_IRQHandler                       0x0800011b   Thumb Code     0  startup_stm32f103xb.o(.text)
    I2C2_EV_IRQHandler                       0x0800011b   Thumb Code     0  startup_stm32f103xb.o(.text)
    PVD_IRQHandler                           0x0800011b   Thumb Code     0  startup_stm32f103xb.o(.text)
    RCC_IRQHandler                           0x0800011b   Thumb Code     0  startup_stm32f103xb.o(.text)
    RTC_Alarm_IRQHandler                     0x0800011b   Thumb Code     0  startup_stm32f103xb.o(.text)
    RTC_IRQHandler                           0x0800011b   Thumb Code     0  startup_stm32f103xb.o(.text)
    SPI1_IRQHandler                          0x0800011b   Thumb Code     0  startup_stm32f103xb.o(.text)
    SPI2_IRQHandler                          0x0800011b   Thumb Code     0  startup_stm32f103xb.o(.text)
    TAMPER_IRQHandler                        0x0800011b   Thumb Code     0  startup_stm32f103xb.o(.text)
    TIM1_BRK_IRQHandler                      0x0800011b   Thumb Code     0  startup_stm32f103xb.o(.text)
    TIM1_CC_IRQHandler                       0x0800011b   Thumb Code     0  startup_stm32f103xb.o(.text)
    TIM1_TRG_COM_IRQHandler                  0x0800011b   Thumb Code     0  startup_stm32f103xb.o(.text)
    TIM1_UP_IRQHandler                       0x0800011b   Thumb Code     0  startup_stm32f103xb.o(.text)
    TIM2_IRQHandler                          0x0800011b   Thumb Code     0  startup_stm32f103xb.o(.text)
    TIM3_IRQHandler                          0x0800011b   Thumb Code     0  startup_stm32f103xb.o(.text)
    TIM4_IRQHandler                          0x0800011b   Thumb Code     0  startup_stm32f103xb.o(.text)
    USART1_IRQHandler                        0x0800011b   Thumb Code     0  startup_stm32f103xb.o(.text)
    USART2_IRQHandler                        0x0800011b   Thumb Code     0  startup_stm32f103xb.o(.text)
    USART3_IRQHandler                        0x0800011b   Thumb Code     0  startup_stm32f103xb.o(.text)
    USBWakeUp_IRQHandler                     0x0800011b   Thumb Code     0  startup_stm32f103xb.o(.text)
    USB_HP_CAN1_TX_IRQHandler                0x0800011b   Thumb Code     0  startup_stm32f103xb.o(.text)
    USB_LP_CAN1_RX0_IRQHandler               0x0800011b   Thumb Code     0  startup_stm32f103xb.o(.text)
    WWDG_IRQHandler                          0x0800011b   Thumb Code     0  startup_stm32f103xb.o(.text)
    strlen                                   0x08000125   Thumb Code    14  strlen.o(.text)
    __scatterload                            0x08000135   Thumb Code    28  init.o(.text)
    __scatterload_rt2                        0x08000135   Thumb Code     0  init.o(.text)
    BusFault_Handler                         0x08000159   Thumb Code     2  stm32f1xx_it.o(i.BusFault_Handler)
    DebugMon_Handler                         0x0800015b   Thumb Code     2  stm32f1xx_it.o(i.DebugMon_Handler)
    HAL_Delay                                0x08000189   Thumb Code    32  stm32f1xx_hal.o(i.HAL_Delay)
    HAL_GPIO_Init                            0x080001ad   Thumb Code   408  stm32f1xx_hal_gpio.o(i.HAL_GPIO_Init)
    HAL_GPIO_WritePin                        0x08000369   Thumb Code    10  stm32f1xx_hal_gpio.o(i.HAL_GPIO_WritePin)
    HAL_GetTick                              0x08000375   Thumb Code     6  stm32f1xx_hal.o(i.HAL_GetTick)
    HAL_IncTick                              0x08000381   Thumb Code    12  stm32f1xx_hal.o(i.HAL_IncTick)
    HAL_Init                                 0x08000391   Thumb Code    32  stm32f1xx_hal.o(i.HAL_Init)
    HAL_InitTick                             0x080003b5   Thumb Code    54  stm32f1xx_hal.o(i.HAL_InitTick)
    HAL_MspInit                              0x080003f5   Thumb Code   118  stm32f1xx_hal_msp.o(i.HAL_MspInit)
    HAL_NVIC_SetPriority                     0x08000475   Thumb Code    60  stm32f1xx_hal_cortex.o(i.HAL_NVIC_SetPriority)
    HAL_NVIC_SetPriorityGrouping             0x080004b5   Thumb Code    26  stm32f1xx_hal_cortex.o(i.HAL_NVIC_SetPriorityGrouping)
    HAL_RCC_ClockConfig                      0x080004d9   Thumb Code   322  stm32f1xx_hal_rcc.o(i.HAL_RCC_ClockConfig)
    HAL_RCC_GetHCLKFreq                      0x0800062d   Thumb Code     6  stm32f1xx_hal_rcc.o(i.HAL_RCC_GetHCLKFreq)
    HAL_RCC_GetSysClockFreq                  0x08000639   Thumb Code    74  stm32f1xx_hal_rcc.o(i.HAL_RCC_GetSysClockFreq)
    HAL_RCC_OscConfig                        0x080006a5   Thumb Code   750  stm32f1xx_hal_rcc.o(i.HAL_RCC_OscConfig)
    HAL_SPI_Init                             0x080009a9   Thumb Code   130  stm32f1xx_hal_spi_ex.o(i.HAL_SPI_Init)
    HAL_SPI_MspInit                          0x08000a2d   Thumb Code    78  stm32f1xx_hal_msp.o(i.HAL_SPI_MspInit)
    HAL_SPI_Transmit                         0x08000a89   Thumb Code   360  stm32f1xx_hal_spi.o(i.HAL_SPI_Transmit)
    HAL_SYSTICK_CLKSourceConfig              0x08000bf1   Thumb Code    24  stm32f1xx_hal_cortex.o(i.HAL_SYSTICK_CLKSourceConfig)
    HAL_SYSTICK_Callback                     0x08000c09   Thumb Code     2  stm32f1xx_hal_cortex.o(i.HAL_SYSTICK_Callback)
    HAL_SYSTICK_Config                       0x08000c0b   Thumb Code    40  stm32f1xx_hal_cortex.o(i.HAL_SYSTICK_Config)
    HAL_SYSTICK_IRQHandler                   0x08000c33   Thumb Code     8  stm32f1xx_hal_cortex.o(i.HAL_SYSTICK_IRQHandler)
    HardFault_Handler                        0x08000c3b   Thumb Code     2  stm32f1xx_it.o(i.HardFault_Handler)
    LCD_Circle                               0x08000d03   Thumb Code   302  st7735.o(i.LCD_Circle)
    LCD_Circle_Fill_Helper                   0x08000e31   Thumb Code   228  st7735.o(i.LCD_Circle_Fill_Helper)
    LCD_Circle_Helper                        0x08000f15   Thumb Code   280  st7735.o(i.LCD_Circle_Helper)
    LCD_Command_List                         0x08001051   Thumb Code   104  st7735.o(i.LCD_Command_List)
    LCD_Ellipse                              0x08001101   Thumb Code   664  st7735.o(i.LCD_Ellipse)
    LCD_Font                                 0x08001399   Thumb Code   144  st7735.o(i.LCD_Font)
    LCD_Init                                 0x08001429   Thumb Code   148  st7735.o(i.LCD_Init)
    LCD_Line                                 0x080014c1   Thumb Code   122  st7735.o(i.LCD_Line)
    LCD_Orientation                          0x0800153b   Thumb Code    82  st7735.o(i.LCD_Orientation)
    LCD_Rect                                 0x0800158d   Thumb Code    82  st7735.o(i.LCD_Rect)
    LCD_Rect_Fill                            0x080015df   Thumb Code    60  st7735.o(i.LCD_Rect_Fill)
    LCD_Rect_Round                           0x0800161b   Thumb Code   222  st7735.o(i.LCD_Rect_Round)
    LCD_Rect_Round_Fill                      0x080016f9   Thumb Code   100  st7735.o(i.LCD_Rect_Round_Fill)
    LCD_Triangle                             0x0800175d   Thumb Code    64  st7735.o(i.LCD_Triangle)
    LCD_Triangle_Fill                        0x0800179d   Thumb Code   194  st7735.o(i.LCD_Triangle_Fill)
    MemManage_Handler                        0x08001939   Thumb Code     2  stm32f1xx_it.o(i.MemManage_Handler)
    NMI_Handler                              0x0800193b   Thumb Code     2  stm32f1xx_it.o(i.NMI_Handler)
    PendSV_Handler                           0x0800195d   Thumb Code     2  stm32f1xx_it.o(i.PendSV_Handler)
    SVC_Handler                              0x08001a15   Thumb Code     2  stm32f1xx_it.o(i.SVC_Handler)
    SysTick_Handler                          0x08001a17   Thumb Code    14  stm32f1xx_it.o(i.SysTick_Handler)
    SystemClock_Config                       0x08001a25   Thumb Code   104  main.o(i.SystemClock_Config)
    SystemInit                               0x08001a8d   Thumb Code    56  system_stm32f1xx.o(i.SystemInit)
    UsageFault_Handler                       0x08001ad5   Thumb Code     2  stm32f1xx_it.o(i.UsageFault_Handler)
    __scatterload_copy                       0x08001ad7   Thumb Code    14  handlers.o(i.__scatterload_copy)
    __scatterload_null                       0x08001ae5   Thumb Code     2  handlers.o(i.__scatterload_null)
    __scatterload_zeroinit                   0x08001ae7   Thumb Code    14  handlers.o(i.__scatterload_zeroinit)
    main                                     0x08001af5   Thumb Code   520  main.o(i.main)
    Font_3_TomThumb_ExtendedBitmaps          0x08001d44   Data         418  main.o(.constdata)
    Font_3_TomThumb_ExtendedGlyphs           0x08001ee6   Data         760  main.o(.constdata)
    Font_3_TomThumb_Extended                 0x080021e0   Data          12  main.o(.constdata)
    Font_5_Org                               0x080021ec   Data          12  main.o(.constdata)
    Font_9_Serif_Bold                        0x080021f8   Data          12  main.o(.constdata)
    Font_5_OrgBitmaps                        0x08002204   Data         271  main.o(.constdata)
    Font_5_OrgGlyphs                         0x08002314   Data         760  main.o(.constdata)
    Font_9_Serif_BoldBitmaps                 0x0800260c   Data        1162  main.o(.constdata)
    Font_9_Serif_BoldGlyphs                  0x08002a96   Data         760  main.o(.constdata)
    LCD_Blue_Init                            0x08002d8e   Data         103  st7735.o(.constdata)
    LCD_Red_Init_1                           0x08002df5   Data          59  st7735.o(.constdata)
    LCD_Red_Init_Green_2                     0x08002e30   Data          13  st7735.o(.constdata)
    LCD_Red_Init_Red_2                       0x08002e3d   Data          13  st7735.o(.constdata)
    LCD_Red_Init_Green_144_2                 0x08002e4a   Data          13  st7735.o(.constdata)
    LCD_Red_Init_3                           0x08002e57   Data          43  st7735.o(.constdata)
    AHBPrescTable                            0x08002e82   Data          16  system_stm32f1xx.o(.constdata)
    Region$$Table$$Base                      0x08002e94   Number         0  anon$$obj.o(Region$$Table)
    Region$$Table$$Limit                     0x08002eb4   Number         0  anon$$obj.o(Region$$Table)
    uwTickFreq                               0x20000000   Data           1  stm32f1xx_hal.o(.data)
    uwTickPrio                               0x20000004   Data           4  stm32f1xx_hal.o(.data)
    uwTick                                   0x20000008   Data           4  stm32f1xx_hal.o(.data)
    SystemCoreClock                          0x2000000c   Data           4  system_stm32f1xx.o(.data)
    hspi2                                    0x20000010   Data          88  main.o(.bss)
    __initial_sp                             0x20000468   Data           0  startup_stm32f103xb.o(STACK)



==============================================================================

Memory Map of the image

  Image Entry point : 0x080000ed

  Load Region LR_IROM1 (Base: 0x08000000, Size: 0x00002ec4, Max: 0x00010000, ABSOLUTE)

    Execution Region ER_IROM1 (Exec base: 0x08000000, Load base: 0x08000000, Size: 0x00002eb4, Max: 0x00010000, ABSOLUTE)

    Exec Addr    Load Addr    Size         Type   Attr      Idx    E Section Name        Object

    0x08000000   0x08000000   0x000000ec   Data   RO            3    RESET               startup_stm32f103xb.o
    0x080000ec   0x080000ec   0x00000000   Code   RO         2169  * .ARM.Collect$$$$00000000  mc_w.l(entry.o)
    0x080000ec   0x080000ec   0x00000004   Code   RO         2176    .ARM.Collect$$$$00000001  mc_w.l(entry2.o)
    0x080000f0   0x080000f0   0x00000004   Code   RO         2179    .ARM.Collect$$$$00000004  mc_w.l(entry5.o)
    0x080000f4   0x080000f4   0x00000000   Code   RO         2181    .ARM.Collect$$$$00000008  mc_w.l(entry7b.o)
    0x080000f4   0x080000f4   0x00000000   Code   RO         2183    .ARM.Collect$$$$0000000A  mc_w.l(entry8b.o)
    0x080000f4   0x080000f4   0x00000008   Code   RO         2184    .ARM.Collect$$$$0000000B  mc_w.l(entry9a.o)
    0x080000fc   0x080000fc   0x00000000   Code   RO         2186    .ARM.Collect$$$$0000000D  mc_w.l(entry10a.o)
    0x080000fc   0x080000fc   0x00000000   Code   RO         2188    .ARM.Collect$$$$0000000F  mc_w.l(entry11a.o)
    0x080000fc   0x080000fc   0x00000004   Code   RO         2177    .ARM.Collect$$$$00002712  mc_w.l(entry2.o)
    0x08000100   0x08000100   0x00000024   Code   RO            4    .text               startup_stm32f103xb.o
    0x08000124   0x08000124   0x0000000e   Code   RO         2174    .text               mc_w.l(strlen.o)
    0x08000132   0x08000132   0x00000002   PAD
    0x08000134   0x08000134   0x00000024   Code   RO         2190    .text               mc_w.l(init.o)
    0x08000158   0x08000158   0x00000002   Code   RO           13    i.BusFault_Handler  stm32f1xx_it.o
    0x0800015a   0x0800015a   0x00000002   Code   RO           14    i.DebugMon_Handler  stm32f1xx_it.o
    0x0800015c   0x0800015c   0x0000002a   Code   RO          656    i.H24_RGB565        st7735.o
    0x08000186   0x08000186   0x00000002   PAD
    0x08000188   0x08000188   0x00000024   Code   RO         1366    i.HAL_Delay         stm32f1xx_hal.o
    0x080001ac   0x080001ac   0x000001bc   Code   RO          830    i.HAL_GPIO_Init     stm32f1xx_hal_gpio.o
    0x08000368   0x08000368   0x0000000a   Code   RO          834    i.HAL_GPIO_WritePin  stm32f1xx_hal_gpio.o
    0x08000372   0x08000372   0x00000002   PAD
    0x08000374   0x08000374   0x0000000c   Code   RO         1370    i.HAL_GetTick       stm32f1xx_hal.o
    0x08000380   0x08000380   0x00000010   Code   RO         1374    i.HAL_IncTick       stm32f1xx_hal.o
    0x08000390   0x08000390   0x00000024   Code   RO         1375    i.HAL_Init          stm32f1xx_hal.o
    0x080003b4   0x080003b4   0x00000040   Code   RO         1376    i.HAL_InitTick      stm32f1xx_hal.o
    0x080003f4   0x080003f4   0x00000080   Code   RO          164    i.HAL_MspInit       stm32f1xx_hal_msp.o
    0x08000474   0x08000474   0x00000040   Code   RO         2025    i.HAL_NVIC_SetPriority  stm32f1xx_hal_cortex.o
    0x080004b4   0x080004b4   0x00000024   Code   RO         2026    i.HAL_NVIC_SetPriorityGrouping  stm32f1xx_hal_cortex.o
    0x080004d8   0x080004d8   0x00000154   Code   RO         1880    i.HAL_RCC_ClockConfig  stm32f1xx_hal_rcc.o
    0x0800062c   0x0800062c   0x0000000c   Code   RO         1885    i.HAL_RCC_GetHCLKFreq  stm32f1xx_hal_rcc.o
    0x08000638   0x08000638   0x0000006c   Code   RO         1889    i.HAL_RCC_GetSysClockFreq  stm32f1xx_hal_rcc.o
    0x080006a4   0x080006a4   0x00000304   Code   RO         1892    i.HAL_RCC_OscConfig  stm32f1xx_hal_rcc.o
    0x080009a8   0x080009a8   0x00000082   Code   RO         1752    i.HAL_SPI_Init      stm32f1xx_hal_spi_ex.o
    0x08000a2a   0x08000a2a   0x00000002   PAD
    0x08000a2c   0x08000a2c   0x0000005c   Code   RO          166    i.HAL_SPI_MspInit   stm32f1xx_hal_msp.o
    0x08000a88   0x08000a88   0x00000168   Code   RO         1037    i.HAL_SPI_Transmit  stm32f1xx_hal_spi.o
    0x08000bf0   0x08000bf0   0x00000018   Code   RO         2028    i.HAL_SYSTICK_CLKSourceConfig  stm32f1xx_hal_cortex.o
    0x08000c08   0x08000c08   0x00000002   Code   RO         2029    i.HAL_SYSTICK_Callback  stm32f1xx_hal_cortex.o
    0x08000c0a   0x08000c0a   0x00000028   Code   RO         2030    i.HAL_SYSTICK_Config  stm32f1xx_hal_cortex.o
    0x08000c32   0x08000c32   0x00000008   Code   RO         2031    i.HAL_SYSTICK_IRQHandler  stm32f1xx_hal_cortex.o
    0x08000c3a   0x08000c3a   0x00000002   Code   RO           15    i.HardFault_Handler  stm32f1xx_it.o
    0x08000c3c   0x08000c3c   0x000000c6   Code   RO          659    i.LCD_Char          st7735.o
    0x08000d02   0x08000d02   0x0000012e   Code   RO          660    i.LCD_Circle        st7735.o
    0x08000e30   0x08000e30   0x000000e4   Code   RO          661    i.LCD_Circle_Fill_Helper  st7735.o
    0x08000f14   0x08000f14   0x00000118   Code   RO          662    i.LCD_Circle_Helper  st7735.o
    0x0800102c   0x0800102c   0x00000024   Code   RO          663    i.LCD_Command       st7735.o
    0x08001050   0x08001050   0x00000068   Code   RO          664    i.LCD_Command_List  st7735.o
    0x080010b8   0x080010b8   0x00000024   Code   RO          665    i.LCD_Data_16       st7735.o
    0x080010dc   0x080010dc   0x00000024   Code   RO          666    i.LCD_Data_8        st7735.o
    0x08001100   0x08001100   0x00000298   Code   RO          667    i.LCD_Ellipse       st7735.o
    0x08001398   0x08001398   0x00000090   Code   RO          668    i.LCD_Font          st7735.o
    0x08001428   0x08001428   0x00000098   Code   RO          669    i.LCD_Init          st7735.o
    0x080014c0   0x080014c0   0x0000007a   Code   RO          670    i.LCD_Line          st7735.o
    0x0800153a   0x0800153a   0x00000052   Code   RO          671    i.LCD_Orientation   st7735.o
    0x0800158c   0x0800158c   0x00000052   Code   RO          673    i.LCD_Rect          st7735.o
    0x080015de   0x080015de   0x0000003c   Code   RO          674    i.LCD_Rect_Fill     st7735.o
    0x0800161a   0x0800161a   0x000000de   Code   RO          675    i.LCD_Rect_Round    st7735.o
    0x080016f8   0x080016f8   0x00000064   Code   RO          676    i.LCD_Rect_Round_Fill  st7735.o
    0x0800175c   0x0800175c   0x00000040   Code   RO          678    i.LCD_Triangle      st7735.o
    0x0800179c   0x0800179c   0x000000c2   Code   RO          679    i.LCD_Triangle_Fill  st7735.o
    0x0800185e   0x0800185e   0x0000003a   Code   RO          680    i.LCD_Window        st7735.o
    0x08001898   0x08001898   0x00000060   Code   RO          200    i.MX_GPIO_Init      main.o
    0x080018f8   0x080018f8   0x00000040   Code   RO          201    i.MX_SPI2_Init      main.o
    0x08001938   0x08001938   0x00000002   Code   RO           16    i.MemManage_Handler  stm32f1xx_it.o
    0x0800193a   0x0800193a   0x00000002   Code   RO           17    i.NMI_Handler       stm32f1xx_it.o
    0x0800193c   0x0800193c   0x00000020   Code   RO         2032    i.NVIC_SetPriority  stm32f1xx_hal_cortex.o
    0x0800195c   0x0800195c   0x00000002   Code   RO           18    i.PendSV_Handler    stm32f1xx_it.o
    0x0800195e   0x0800195e   0x00000020   Code   RO         1053    i.SPI_CheckFlag_BSY  stm32f1xx_hal_spi.o
    0x0800197e   0x0800197e   0x00000096   Code   RO         1072    i.SPI_WaitFlagStateUntilTimeout  stm32f1xx_hal_spi.o
    0x08001a14   0x08001a14   0x00000002   Code   RO           19    i.SVC_Handler       stm32f1xx_it.o
    0x08001a16   0x08001a16   0x0000000e   Code   RO           20    i.SysTick_Handler   stm32f1xx_it.o
    0x08001a24   0x08001a24   0x00000068   Code   RO          202    i.SystemClock_Config  main.o
    0x08001a8c   0x08001a8c   0x00000048   Code   RO         2135    i.SystemInit        system_stm32f1xx.o
    0x08001ad4   0x08001ad4   0x00000002   Code   RO           21    i.UsageFault_Handler  stm32f1xx_it.o
    0x08001ad6   0x08001ad6   0x0000000e   Code   RO         2194    i.__scatterload_copy  mc_w.l(handlers.o)
    0x08001ae4   0x08001ae4   0x00000002   Code   RO         2195    i.__scatterload_null  mc_w.l(handlers.o)
    0x08001ae6   0x08001ae6   0x0000000e   Code   RO         2196    i.__scatterload_zeroinit  mc_w.l(handlers.o)
    0x08001af4   0x08001af4   0x00000250   Code   RO          204    i.main              main.o
    0x08001d44   0x08001d44   0x000001a2   Data   RO          212    .constdata          main.o
    0x08001ee6   0x08001ee6   0x000002f8   Data   RO          213    .constdata          main.o
    0x080021de   0x080021de   0x00000002   PAD
    0x080021e0   0x080021e0   0x00000024   Data   RO          214    .constdata          main.o
    0x08002204   0x08002204   0x0000010f   Data   RO          215    .constdata          main.o
    0x08002313   0x08002313   0x00000001   PAD
    0x08002314   0x08002314   0x000002f8   Data   RO          216    .constdata          main.o
    0x0800260c   0x0800260c   0x0000048a   Data   RO          262    .constdata          main.o
    0x08002a96   0x08002a96   0x000002f8   Data   RO          263    .constdata          main.o
    0x08002d8e   0x08002d8e   0x000000f4   Data   RO          682    .constdata          st7735.o
    0x08002e82   0x08002e82   0x00000010   Data   RO         2136    .constdata          system_stm32f1xx.o
    0x08002e92   0x08002e92   0x00000002   PAD
    0x08002e94   0x08002e94   0x00000020   Data   RO         2192    Region$$Table       anon$$obj.o


    Execution Region RW_IRAM1 (Exec base: 0x20000000, Load base: 0x08002eb4, Size: 0x00000468, Max: 0x00005000, ABSOLUTE)

    Exec Addr    Load Addr    Size         Type   Attr      Idx    E Section Name        Object

    0x20000000   0x08002eb4   0x0000000c   Data   RW         1382    .data               stm32f1xx_hal.o
    0x2000000c   0x08002ec0   0x00000004   Data   RW         2138    .data               system_stm32f1xx.o
    0x20000010        -       0x00000058   Zero   RW          205    .bss                main.o
    0x20000068        -       0x00000400   Zero   RW            1    STACK               startup_stm32f103xb.o


==============================================================================

Image component sizes


      Code (inc. data)   RO Data    RW Data    ZI Data      Debug   Object Name

       856         90       4167          0         88      48338   main.o
      3206         36        244          0          0      17316   st7735.o
        36          8        236          0       1024        784   startup_stm32f103xb.o
       164         28          0         12          0       3721   stm32f1xx_hal.o
       206         14          0          0          0      26620   stm32f1xx_hal_cortex.o
       454         36          0          0          0       2828   stm32f1xx_hal_gpio.o
       220         24          0          0          0       1472   stm32f1xx_hal_msp.o
      1232         80          0          0          0       4434   stm32f1xx_hal_rcc.o
       542          0          0          0          0       3231   stm32f1xx_hal_spi.o
       130          0          0          0          0       1031   stm32f1xx_hal_spi_ex.o
        30          0          0          0          0     406354   stm32f1xx_it.o
        72         16         16          4          0       1111   system_stm32f1xx.o

    ----------------------------------------------------------------------
      7154        332       4700         16       1112     517240   Object Totals
         0          0         32          0          0          0   (incl. Generated)
         6          0          5          0          0          0   (incl. Padding)

    ----------------------------------------------------------------------

      Code (inc. data)   RO Data    RW Data    ZI Data      Debug   Library Member Name

         0          0          0          0          0          0   entry.o
         0          0          0          0          0          0   entry10a.o
         0          0          0          0          0          0   entry11a.o
         8          4          0          0          0          0   entry2.o
         4          0          0          0          0          0   entry5.o
         0          0          0          0          0          0   entry7b.o
         0          0          0          0          0          0   entry8b.o
         8          4          0          0          0          0   entry9a.o
        30          0          0          0          0          0   handlers.o
        36          8          0          0          0         68   init.o
        14          0          0          0          0         68   strlen.o

    ----------------------------------------------------------------------
       102         16          0          0          0        136   Library Totals
         2          0          0          0          0          0   (incl. Padding)

    ----------------------------------------------------------------------

      Code (inc. data)   RO Data    RW Data    ZI Data      Debug   Library Name

       100         16          0          0          0        136   mc_w.l

    ----------------------------------------------------------------------
       102         16          0          0          0        136   Library Totals

    ----------------------------------------------------------------------

==============================================================================


      Code (inc. data)   RO Data    RW Data    ZI Data      Debug   

      7256        348       4700         16       1112     514720   Grand Totals
      7256        348       4700         16       1112     514720   ELF Image Totals
      7256        348       4700         16          0          0   ROM Totals

==============================================================================

    Total RO  Size (Code + RO Data)                11956 (  11.68kB)
    Total RW  Size (RW Data + ZI Data)              1128 (   1.10kB)
    Total ROM Size (Code + RO Data + RW Data)      11972 (  11.69kB)

==============================================================================

