Component: ARM Compiler 5.06 update 6 (build 750) Tool: armlink [4d35ed]

==============================================================================

Section Cross References

    startup_stm32f103xb.o(RESET) refers to startup_stm32f103xb.o(STACK) for __initial_sp
    startup_stm32f103xb.o(RESET) refers to startup_stm32f103xb.o(.text) for Reset_Handler
    startup_stm32f103xb.o(RESET) refers to stm32f1xx_it.o(i.NMI_Handler) for NMI_Handler
    startup_stm32f103xb.o(RESET) refers to stm32f1xx_it.o(i.HardFault_Handler) for HardFault_Handler
    startup_stm32f103xb.o(RESET) refers to stm32f1xx_it.o(i.MemManage_Handler) for MemManage_Handler
    startup_stm32f103xb.o(RESET) refers to stm32f1xx_it.o(i.BusFault_Handler) for BusFault_Handler
    startup_stm32f103xb.o(RESET) refers to stm32f1xx_it.o(i.UsageFault_Handler) for UsageFault_Handler
    startup_stm32f103xb.o(RESET) refers to stm32f1xx_it.o(i.SVC_Handler) for SVC_Handler
    startup_stm32f103xb.o(RESET) refers to stm32f1xx_it.o(i.DebugMon_Handler) for DebugMon_Handler
    startup_stm32f103xb.o(RESET) refers to stm32f1xx_it.o(i.PendSV_Handler) for PendSV_Handler
    startup_stm32f103xb.o(RESET) refers to stm32f1xx_it.o(i.SysTick_Handler) for SysTick_Handler
    startup_stm32f103xb.o(RESET) refers to stm32f1xx_it.o(i.TIM1_BRK_IRQHandler) for TIM1_BRK_IRQHandler
    startup_stm32f103xb.o(RESET) refers to stm32f1xx_it.o(i.TIM1_UP_IRQHandler) for TIM1_UP_IRQHandler
    startup_stm32f103xb.o(RESET) refers to stm32f1xx_it.o(i.TIM1_TRG_COM_IRQHandler) for TIM1_TRG_COM_IRQHandler
    startup_stm32f103xb.o(RESET) refers to stm32f1xx_it.o(i.TIM1_CC_IRQHandler) for TIM1_CC_IRQHandler
    startup_stm32f103xb.o(.text) refers to system_stm32f1xx.o(i.SystemInit) for SystemInit
    startup_stm32f103xb.o(.text) refers to entry.o(.ARM.Collect$$$$00000000) for __main
    system_stm32f1xx.o(i.SystemCoreClockUpdate) refers to system_stm32f1xx.o(.data) for .data
==============================================================================

Removing Unused input sections from the image.

    Removing startup_stm32f103xb.o(HEAP), (512 bytes).
    Removing system_stm32f1xx.o(.rev16_text), (4 bytes).
    Removing system_stm32f1xx.o(.revsh_text), (4 bytes).
    Removing system_stm32f1xx.o(.rrx_text), (6 bytes).
    Removing system_stm32f1xx.o(i.SystemCoreClockUpdate), (104 bytes).
    Removing system_stm32f1xx.o(.constdata), (8 bytes).
    Removing stm32f1xx_hal_msp.o(.rev16_text), (4 bytes).
    Removing stm32f1xx_hal_msp.o(.revsh_text), (4 bytes).
    Removing stm32f1xx_hal_msp.o(.rrx_text), (6 bytes).
    Removing stm32f1xx_hal_msp.o(i.HAL_SPI_MspDeInit), (72 bytes).
    Removing stm32f1xx_hal_msp.o(i.HAL_TIM_Base_MspDeInit), (60 bytes).
    Removing main.o(.rev16_text), (4 bytes).
    Removing main.o(.revsh_text), (4 bytes).
    Removing main.o(.rrx_text), (6 bytes).
    Removing main.o(i._Error_Handler), (2 bytes).
    Removing main.o(.constdata), (142 bytes).
    Removing main.o(.constdata), (760 bytes).
    Removing main.o(.constdata), (12 bytes).
==============================================================================

Image Symbol Table

    Local Symbols

    Symbol Name                              Value     Ov Type        Size  Object(Section)

    ..//Src/system_stm32f1xx.c               0x00000000   Number         0  system_stm32f1xx.o ABSOLUTE
    ../Drivers/STM32F1xx_HAL_Driver/Src/stm32f1xx_hal.c 0x00000000   Number         0  stm32f1xx_hal.o ABSOLUTE
    ../Drivers/STM32F1xx_HAL_Driver/Src/stm32f1xx_hal_cortex.c 0x00000000   Number         0  stm32f1xx_hal_cortex.o ABSOLUTE
    ../Drivers/STM32F1xx_HAL_Driver/Src/stm32f1xx_hal_dma.c 0x00000000   Number         0  stm32f1xx_hal_dma.o ABSOLUTE
    ../Drivers/STM32F1xx_HAL_Driver/Src/stm32f1xx_hal_flash.c 0x00000000   Number         0  stm32f1xx_hal_flash.o ABSOLUTE
    ../Drivers/STM32F1xx_HAL_Driver/Src/stm32f1xx_hal_flash_ex.c 0x00000000   Number         0  stm32f1xx_hal_flash_ex.o ABSOLUTE
    ../Drivers/STM32F1xx_HAL_Driver/Src/stm32f1xx_hal_gpio.c 0x00000000   Number         0  stm32f1xx_hal_gpio.o ABSOLUTE
    ../Drivers/STM32F1xx_HAL_Driver/Src/stm32f1xx_hal_gpio_ex.c 0x00000000   Number         0  stm32f1xx_hal_gpio_ex.o ABSOLUTE
    ../Drivers/STM32F1xx_HAL_Driver/Src/stm32f1xx_hal_pwr.c 0x00000000   Number         0  stm32f1xx_hal_pwr.o ABSOLUTE
    ../Drivers/STM32F1xx_HAL_Driver/Src/stm32f1xx_hal_rcc.c 0x00000000   Number         0  stm32f1xx_hal_rcc.o ABSOLUTE
    ../Drivers/STM32F1xx_HAL_Driver/Src/stm32f1xx_hal_rcc_ex.c 0x00000000   Number         0  stm32f1xx_hal_rcc_ex.o ABSOLUTE
    ../Drivers/STM32F1xx_HAL_Driver/Src/stm32f1xx_hal_spi.c 0x00000000   Number         0  stm32f1xx_hal_spi.o ABSOLUTE
    ../Drivers/STM32F1xx_HAL_Driver/Src/stm32f1xx_hal_spi_ex.c 0x00000000   Number         0  stm32f1xx_hal_spi_ex.o ABSOLUTE
    ../Drivers/STM32F1xx_HAL_Driver/Src/stm32f1xx_hal_tim.c 0x00000000   Number         0  stm32f1xx_hal_tim.o ABSOLUTE
    ../Drivers/STM32F1xx_HAL_Driver/Src/stm32f1xx_hal_tim_ex.c 0x00000000   Number         0  stm32f1xx_hal_tim_ex.o ABSOLUTE
    ../Src/main.c                            0x00000000   Number         0  main.o ABSOLUTE
    ../Src/stm32f1xx_hal_msp.c               0x00000000   Number         0  stm32f1xx_hal_msp.o ABSOLUTE
    ../Src/stm32f1xx_it.c                    0x00000000   Number         0  stm32f1xx_it.o ABSOLUTE
    ../clib/microlib/init/entry.s            0x00000000   Number         0  entry.o ABSOLUTE
    ../clib/microlib/init/entry.s            0x00000000   Number         0  entry5.o ABSOLUTE
    ../clib/microlib/init/entry.s            0x00000000   Number         0  entry7a.o ABSOLUTE
    ../clib/microlib/init/entry.s            0x00000000   Number         0  entry2.o ABSOLUTE
    ../clib/microlib/init/entry.s            0x00000000   Number         0  entry11b.o ABSOLUTE
    ../clib/microlib/init/entry.s            0x00000000   Number         0  entry11a.o ABSOLUTE
    ../clib/microlib/init/entry.s            0x00000000   Number         0  entry10b.o ABSOLUTE
    ../clib/microlib/init/entry.s            0x00000000   Number         0  entry10a.o ABSOLUTE
    ../clib/microlib/init/entry.s            0x00000000   Number         0  entry9b.o ABSOLUTE
    ../clib/microlib/init/entry.s            0x00000000   Number         0  entry9a.o ABSOLUTE
    ../clib/microlib/init/entry.s            0x00000000   Number         0  entry8b.o ABSOLUTE
    ../clib/microlib/init/entry.s            0x00000000   Number         0  entry8a.o ABSOLUTE
    ../clib/microlib/init/entry.s            0x00000000   Number         0  entry7b.o ABSOLUTE
    ../clib/microlib/longlong.c              0x00000000   Number         0  llushr.o ABSOLUTE
    ../clib/microlib/string/strlen.c         0x00000000   Number         0  strlen.o ABSOLUTE
    ../clib/microlib/stubs.s                 0x00000000   Number         0  iusefp.o ABSOLUTE
    ../fplib/microlib/fpadd.c                0x00000000   Number         0  fadd.o ABSOLUTE
    ../fplib/microlib/fpdiv.c                0x00000000   Number         0  fdiv.o ABSOLUTE
    ../fplib/microlib/fpepilogue.c           0x00000000   Number         0  fepilogue.o ABSOLUTE
    ../fplib/microlib/fpfix.c                0x00000000   Number         0  ffixui.o ABSOLUTE
    ../fplib/microlib/fpflt.c                0x00000000   Number         0  ffltui.o ABSOLUTE
    ../fplib/microlib/fpmul.c                0x00000000   Number         0  fmul.o ABSOLUTE
    ..\Drivers\STM32F1xx_HAL_Driver\Src\stm32f1xx_hal.c 0x00000000   Number         0  stm32f1xx_hal.o ABSOLUTE
    ..\Drivers\STM32F1xx_HAL_Driver\Src\stm32f1xx_hal_cortex.c 0x00000000   Number         0  stm32f1xx_hal_cortex.o ABSOLUTE
    ..\Drivers\STM32F1xx_HAL_Driver\Src\stm32f1xx_hal_dma.c 0x00000000   Number         0  stm32f1xx_hal_dma.o ABSOLUTE
    ..\Drivers\STM32F1xx_HAL_Driver\Src\stm32f1xx_hal_flash.c 0x00000000   Number         0  stm32f1xx_hal_flash.o ABSOLUTE
    ..\Drivers\STM32F1xx_HAL_Driver\Src\stm32f1xx_hal_flash_ex.c 0x00000000   Number         0  stm32f1xx_hal_flash_ex.o ABSOLUTE
    ..\Drivers\STM32F1xx_HAL_Driver\Src\stm32f1xx_hal_gpio.c 0x00000000   Number         0  stm32f1xx_hal_gpio.o ABSOLUTE
    ..\Drivers\STM32F1xx_HAL_Driver\Src\stm32f1xx_hal_gpio_ex.c 0x00000000   Number         0  stm32f1xx_hal_gpio_ex.o ABSOLUTE
    ..\Drivers\STM32F1xx_HAL_Driver\Src\stm32f1xx_hal_pwr.c 0x00000000   Number         0  stm32f1xx_hal_pwr.o ABSOLUTE
    ..\Drivers\STM32F1xx_HAL_Driver\Src\stm32f1xx_hal_rcc.c 0x00000000   Number         0  stm32f1xx_hal_rcc.o ABSOLUTE
    ..\Drivers\STM32F1xx_HAL_Driver\Src\stm32f1xx_hal_rcc_ex.c 0x00000000   Number         0  stm32f1xx_hal_rcc_ex.o ABSOLUTE
    ..\Drivers\STM32F1xx_HAL_Driver\Src\stm32f1xx_hal_spi.c 0x00000000   Number         0  stm32f1xx_hal_spi.o ABSOLUTE
    ..\Drivers\STM32F1xx_HAL_Driver\Src\stm32f1xx_hal_spi_ex.c 0x00000000   Number         0  stm32f1xx_hal_spi_ex.o ABSOLUTE
    ..\Drivers\STM32F1xx_HAL_Driver\Src\stm32f1xx_hal_tim.c 0x00000000   Number         0  stm32f1xx_hal_tim.o ABSOLUTE
    ..\Drivers\STM32F1xx_HAL_Driver\Src\stm32f1xx_hal_tim_ex.c 0x00000000   Number         0  stm32f1xx_hal_tim_ex.o ABSOLUTE
    ..\Src\ili9341.c                         0x00000000   Number         0  ili9341.o ABSOLUTE
    ..\Src\main.c                            0x00000000   Number         0  main.o ABSOLUTE
    ..\Src\stm32f1xx_hal_msp.c               0x00000000   Number         0  stm32f1xx_hal_msp.o ABSOLUTE
    ..\Src\stm32f1xx_it.c                    0x00000000   Number         0  stm32f1xx_it.o ABSOLUTE
    ..\Src\xpt2046.c                         0x00000000   Number         0  xpt2046.o ABSOLUTE
    ..\\Src\\ili9341.c                       0x00000000   Number         0  ili9341.o ABSOLUTE
    ..\\Src\\xpt2046.c                       0x00000000   Number         0  xpt2046.o ABSOLUTE
    ..\\Src\system_stm32f1xx.c               0x00000000   Number         0  system_stm32f1xx.o ABSOLUTE
    dc.s                                     0x00000000   Number         0  dc.o ABSOLUTE
    handlers.s                               0x00000000   Number         0  handlers.o ABSOLUTE
    init.s                                   0x00000000   Number         0  init.o ABSOLUTE
    startup_stm32f103xb.s                    0x00000000   Number         0  startup_stm32f103xb.o ABSOLUTE
    RESET                                    0x08000000   Section      236  startup_stm32f103xb.o(RESET)
    .ARM.Collect$$$$00000000                 0x080000ec   Section        0  entry.o(.ARM.Collect$$$$00000000)
    .ARM.Collect$$$$00000001                 0x080000ec   Section        4  entry2.o(.ARM.Collect$$$$00000001)
    .ARM.Collect$$$$00000004                 0x080000f0   Section        4  entry5.o(.ARM.Collect$$$$00000004)
    .ARM.Collect$$$$00000008                 0x080000f4   Section        0  entry7b.o(.ARM.Collect$$$$00000008)
    .ARM.Collect$$$$0000000A                 0x080000f4   Section        0  entry8b.o(.ARM.Collect$$$$0000000A)
    .ARM.Collect$$$$0000000B                 0x080000f4   Section        8  entry9a.o(.ARM.Collect$$$$0000000B)
    .ARM.Collect$$$$0000000D                 0x080000fc   Section        0  entry10a.o(.ARM.Collect$$$$0000000D)
    .ARM.Collect$$$$0000000F                 0x080000fc   Section        0  entry11a.o(.ARM.Collect$$$$0000000F)
    .ARM.Collect$$$$00002712                 0x080000fc   Section        4  entry2.o(.ARM.Collect$$$$00002712)
    __lit__00000000                          0x080000fc   Data           4  entry2.o(.ARM.Collect$$$$00002712)
    .text                                    0x08000100   Section       36  startup_stm32f103xb.o(.text)
    .text                                    0x08000124   Section        0  strlen.o(.text)
    .text                                    0x08000132   Section        0  fadd.o(.text)
    .text                                    0x080001e2   Section        0  fmul.o(.text)
    .text                                    0x08000246   Section        0  fdiv.o(.text)
    .text                                    0x080002c2   Section        0  ffltui.o(.text)
    .text                                    0x080002cc   Section        0  ffixui.o(.text)
    .text                                    0x080002f4   Section        0  iusefp.o(.text)
    .text                                    0x080002f4   Section        0  fepilogue.o(.text)
    .text                                    0x08000364   Section       36  init.o(.text)
    i.BusFault_Handler                       0x08000388   Section        0  stm32f1xx_it.o(i.BusFault_Handler)
    i.DebugMon_Handler                       0x0800038a   Section        0  stm32f1xx_it.o(i.DebugMon_Handler)
    i.H24_RGB565                             0x0800038c   Section        0  ili9341.o(i.H24_RGB565)
    H24_RGB565                               0x0800038d   Thumb Code    42  ili9341.o(i.H24_RGB565)
    i.HAL_Delay                              0x080003b8   Section        0  stm32f1xx_hal.o(i.HAL_Delay)
    i.HAL_GPIO_Init                          0x080003dc   Section        0  stm32f1xx_hal_gpio.o(i.HAL_GPIO_Init)
    i.HAL_GPIO_ReadPin                       0x08000598   Section        0  stm32f1xx_hal_gpio.o(i.HAL_GPIO_ReadPin)
    i.HAL_GPIO_WritePin                      0x080005a2   Section        0  stm32f1xx_hal_gpio.o(i.HAL_GPIO_WritePin)
    i.HAL_GetTick                            0x080005ac   Section        0  stm32f1xx_hal.o(i.HAL_GetTick)
    i.HAL_IncTick                            0x080005b8   Section        0  stm32f1xx_hal.o(i.HAL_IncTick)
    i.HAL_Init                               0x080005c8   Section        0  stm32f1xx_hal.o(i.HAL_Init)
    i.HAL_InitTick                           0x080005ec   Section        0  stm32f1xx_hal.o(i.HAL_InitTick)
    i.HAL_MspInit                            0x0800062c   Section        0  stm32f1xx_hal_msp.o(i.HAL_MspInit)
    i.HAL_NVIC_EnableIRQ                     0x080006ac   Section        0  stm32f1xx_hal_cortex.o(i.HAL_NVIC_EnableIRQ)
    i.HAL_NVIC_SetPriority                   0x080006c4   Section        0  stm32f1xx_hal_cortex.o(i.HAL_NVIC_SetPriority)
    i.HAL_NVIC_SetPriorityGrouping           0x08000704   Section        0  stm32f1xx_hal_cortex.o(i.HAL_NVIC_SetPriorityGrouping)
    i.HAL_RCC_ClockConfig                    0x08000728   Section        0  stm32f1xx_hal_rcc.o(i.HAL_RCC_ClockConfig)
    i.HAL_RCC_GetHCLKFreq                    0x0800087c   Section        0  stm32f1xx_hal_rcc.o(i.HAL_RCC_GetHCLKFreq)
    i.HAL_RCC_GetSysClockFreq                0x08000888   Section        0  stm32f1xx_hal_rcc.o(i.HAL_RCC_GetSysClockFreq)
    i.HAL_RCC_OscConfig                      0x080008f4   Section        0  stm32f1xx_hal_rcc.o(i.HAL_RCC_OscConfig)
    i.HAL_SPI_Init                           0x08000bf8   Section        0  stm32f1xx_hal_spi_ex.o(i.HAL_SPI_Init)
    i.HAL_SPI_MspInit                        0x08000c7c   Section        0  stm32f1xx_hal_msp.o(i.HAL_SPI_MspInit)
    i.HAL_SPI_Transmit                       0x08000d0c   Section        0  stm32f1xx_hal_spi.o(i.HAL_SPI_Transmit)
    i.HAL_SPI_TransmitReceive                0x08000e74   Section        0  stm32f1xx_hal_spi.o(i.HAL_SPI_TransmitReceive)
    i.HAL_SYSTICK_CLKSourceConfig            0x0800104c   Section        0  stm32f1xx_hal_cortex.o(i.HAL_SYSTICK_CLKSourceConfig)
    i.HAL_SYSTICK_Callback                   0x08001064   Section        0  stm32f1xx_hal_cortex.o(i.HAL_SYSTICK_Callback)
    i.HAL_SYSTICK_Config                     0x08001066   Section        0  stm32f1xx_hal_cortex.o(i.HAL_SYSTICK_Config)
    i.HAL_SYSTICK_IRQHandler                 0x0800108e   Section        0  stm32f1xx_hal_cortex.o(i.HAL_SYSTICK_IRQHandler)
    i.HAL_TIMEx_BreakCallback                0x08001096   Section        0  stm32f1xx_hal_tim_ex.o(i.HAL_TIMEx_BreakCallback)
    i.HAL_TIMEx_CommutationCallback          0x08001098   Section        0  stm32f1xx_hal_tim_ex.o(i.HAL_TIMEx_CommutationCallback)
    i.HAL_TIMEx_MasterConfigSynchronization  0x0800109a   Section        0  stm32f1xx_hal_tim_ex.o(i.HAL_TIMEx_MasterConfigSynchronization)
    i.HAL_TIM_Base_Init                      0x080010ea   Section        0  stm32f1xx_hal_tim.o(i.HAL_TIM_Base_Init)
    i.HAL_TIM_Base_MspInit                   0x08001120   Section        0  stm32f1xx_hal_msp.o(i.HAL_TIM_Base_MspInit)
    i.HAL_TIM_Base_Start                     0x0800118c   Section        0  stm32f1xx_hal_tim.o(i.HAL_TIM_Base_Start)
    i.HAL_TIM_Base_Start_IT                  0x080011a6   Section        0  stm32f1xx_hal_tim.o(i.HAL_TIM_Base_Start_IT)
    i.HAL_TIM_ConfigClockSource              0x080011be   Section        0  stm32f1xx_hal_tim.o(i.HAL_TIM_ConfigClockSource)
    i.HAL_TIM_IC_CaptureCallback             0x080012b0   Section        0  stm32f1xx_hal_tim.o(i.HAL_TIM_IC_CaptureCallback)
    i.HAL_TIM_IRQHandler                     0x080012b2   Section        0  stm32f1xx_hal_tim.o(i.HAL_TIM_IRQHandler)
    i.HAL_TIM_OC_DelayElapsedCallback        0x08001418   Section        0  stm32f1xx_hal_tim.o(i.HAL_TIM_OC_DelayElapsedCallback)
    i.HAL_TIM_PWM_PulseFinishedCallback      0x0800141a   Section        0  stm32f1xx_hal_tim.o(i.HAL_TIM_PWM_PulseFinishedCallback)
    i.HAL_TIM_PeriodElapsedCallback          0x0800141c   Section        0  stm32f1xx_hal_tim.o(i.HAL_TIM_PeriodElapsedCallback)
    i.HAL_TIM_TriggerCallback                0x0800141e   Section        0  stm32f1xx_hal_tim.o(i.HAL_TIM_TriggerCallback)
    i.HardFault_Handler                      0x08001420   Section        0  stm32f1xx_it.o(i.HardFault_Handler)
    i.LCD_Char                               0x08001422   Section        0  ili9341.o(i.LCD_Char)
    LCD_Char                                 0x08001423   Thumb Code   198  ili9341.o(i.LCD_Char)
    i.LCD_Circle                             0x080014e8   Section        0  ili9341.o(i.LCD_Circle)
    i.LCD_Circle_Fill_Helper                 0x08001616   Section        0  ili9341.o(i.LCD_Circle_Fill_Helper)
    i.LCD_Circle_Helper                      0x080016fc   Section        0  ili9341.o(i.LCD_Circle_Helper)
    i.LCD_Command                            0x08001814   Section        0  ili9341.o(i.LCD_Command)
    LCD_Command                              0x08001815   Thumb Code    26  ili9341.o(i.LCD_Command)
    i.LCD_Data_16                            0x08001838   Section        0  ili9341.o(i.LCD_Data_16)
    LCD_Data_16                              0x08001839   Thumb Code    30  ili9341.o(i.LCD_Data_16)
    i.LCD_Data_8                             0x0800185c   Section        0  ili9341.o(i.LCD_Data_8)
    LCD_Data_8                               0x0800185d   Thumb Code    26  ili9341.o(i.LCD_Data_8)
    i.LCD_Ellipse                            0x08001880   Section        0  ili9341.o(i.LCD_Ellipse)
    i.LCD_Font                               0x08001b18   Section        0  ili9341.o(i.LCD_Font)
    i.LCD_Init                               0x08001ba8   Section        0  ili9341.o(i.LCD_Init)
    i.LCD_Line                               0x08001c52   Section        0  ili9341.o(i.LCD_Line)
    i.LCD_Orientation                        0x08001ccc   Section        0  ili9341.o(i.LCD_Orientation)
    i.LCD_Rect                               0x08001d14   Section        0  ili9341.o(i.LCD_Rect)
    i.LCD_Rect_Fill                          0x08001d66   Section        0  ili9341.o(i.LCD_Rect_Fill)
    i.LCD_Rect_Round                         0x08001da2   Section        0  ili9341.o(i.LCD_Rect_Round)
    i.LCD_Rect_Round_Fill                    0x08001e80   Section        0  ili9341.o(i.LCD_Rect_Round_Fill)
    i.LCD_Reset                              0x08001ee4   Section        0  ili9341.o(i.LCD_Reset)
    i.LCD_Triangle                           0x08001f28   Section        0  ili9341.o(i.LCD_Triangle)
    i.LCD_Triangle_Fill                      0x08001f68   Section        0  ili9341.o(i.LCD_Triangle_Fill)
    i.LCD_Window                             0x0800202a   Section        0  ili9341.o(i.LCD_Window)
    LCD_Window                               0x0800202b   Thumb Code    58  ili9341.o(i.LCD_Window)
    i.MX_GPIO_Init                           0x08002064   Section        0  main.o(i.MX_GPIO_Init)
    MX_GPIO_Init                             0x08002065   Thumb Code   106  main.o(i.MX_GPIO_Init)
    i.MX_SPI1_Init                           0x080020dc   Section        0  main.o(i.MX_SPI1_Init)
    MX_SPI1_Init                             0x080020dd   Thumb Code    56  main.o(i.MX_SPI1_Init)
    i.MX_SPI2_Init                           0x0800211c   Section        0  main.o(i.MX_SPI2_Init)
    MX_SPI2_Init                             0x0800211d   Thumb Code    54  main.o(i.MX_SPI2_Init)
    i.MX_TIM1_Init                           0x0800215c   Section        0  main.o(i.MX_TIM1_Init)
    MX_TIM1_Init                             0x0800215d   Thumb Code    80  main.o(i.MX_TIM1_Init)
    i.MemManage_Handler                      0x080021b4   Section        0  stm32f1xx_it.o(i.MemManage_Handler)
    i.NMI_Handler                            0x080021b6   Section        0  stm32f1xx_it.o(i.NMI_Handler)
    i.NVIC_SetPriority                       0x080021b8   Section        0  stm32f1xx_hal_cortex.o(i.NVIC_SetPriority)
    NVIC_SetPriority                         0x080021b9   Thumb Code    32  stm32f1xx_hal_cortex.o(i.NVIC_SetPriority)
    i.PendSV_Handler                         0x080021d8   Section        0  stm32f1xx_it.o(i.PendSV_Handler)
    i.SPI_CheckFlag_BSY                      0x080021da   Section        0  stm32f1xx_hal_spi.o(i.SPI_CheckFlag_BSY)
    SPI_CheckFlag_BSY                        0x080021db   Thumb Code    32  stm32f1xx_hal_spi.o(i.SPI_CheckFlag_BSY)
    i.SPI_WaitFlagStateUntilTimeout          0x080021fa   Section        0  stm32f1xx_hal_spi.o(i.SPI_WaitFlagStateUntilTimeout)
    SPI_WaitFlagStateUntilTimeout            0x080021fb   Thumb Code   150  stm32f1xx_hal_spi.o(i.SPI_WaitFlagStateUntilTimeout)
    i.SVC_Handler                            0x08002290   Section        0  stm32f1xx_it.o(i.SVC_Handler)
    i.SysTick_Handler                        0x08002292   Section        0  stm32f1xx_it.o(i.SysTick_Handler)
    i.SystemClock_Config                     0x080022a0   Section        0  main.o(i.SystemClock_Config)
    i.SystemInit                             0x08002308   Section        0  system_stm32f1xx.o(i.SystemInit)
    i.TIM1_BRK_IRQHandler                    0x08002350   Section        0  stm32f1xx_it.o(i.TIM1_BRK_IRQHandler)
    i.TIM1_CC_IRQHandler                     0x0800235c   Section        0  stm32f1xx_it.o(i.TIM1_CC_IRQHandler)
    i.TIM1_TRG_COM_IRQHandler                0x08002368   Section        0  stm32f1xx_it.o(i.TIM1_TRG_COM_IRQHandler)
    i.TIM1_UP_IRQHandler                     0x08002374   Section        0  stm32f1xx_it.o(i.TIM1_UP_IRQHandler)
    i.TIM_Base_SetConfig                     0x08002394   Section        0  stm32f1xx_hal_tim.o(i.TIM_Base_SetConfig)
    i.TIM_ETR_SetConfig                      0x08002400   Section        0  stm32f1xx_hal_tim.o(i.TIM_ETR_SetConfig)
    TIM_ETR_SetConfig                        0x08002401   Thumb Code    20  stm32f1xx_hal_tim.o(i.TIM_ETR_SetConfig)
    i.TIM_ITRx_SetConfig                     0x08002414   Section        0  stm32f1xx_hal_tim.o(i.TIM_ITRx_SetConfig)
    TIM_ITRx_SetConfig                       0x08002415   Thumb Code    16  stm32f1xx_hal_tim.o(i.TIM_ITRx_SetConfig)
    i.TIM_TI1_ConfigInputStage               0x08002424   Section        0  stm32f1xx_hal_tim.o(i.TIM_TI1_ConfigInputStage)
    TIM_TI1_ConfigInputStage                 0x08002425   Thumb Code    34  stm32f1xx_hal_tim.o(i.TIM_TI1_ConfigInputStage)
    i.TIM_TI2_ConfigInputStage               0x08002446   Section        0  stm32f1xx_hal_tim.o(i.TIM_TI2_ConfigInputStage)
    TIM_TI2_ConfigInputStage                 0x08002447   Thumb Code    36  stm32f1xx_hal_tim.o(i.TIM_TI2_ConfigInputStage)
    i.UsageFault_Handler                     0x0800246a   Section        0  stm32f1xx_it.o(i.UsageFault_Handler)
    i.X                                      0x0800246c   Section        0  xpt2046.o(i.X)
    X                                        0x0800246d   Thumb Code    48  xpt2046.o(i.X)
    i.XPT2046_Init                           0x080024a8   Section        0  xpt2046.o(i.XPT2046_Init)
    i.Y                                      0x080024dc   Section        0  xpt2046.o(i.Y)
    Y                                        0x080024dd   Thumb Code    50  xpt2046.o(i.Y)
    i.__scatterload_copy                     0x0800251c   Section       14  handlers.o(i.__scatterload_copy)
    i.__scatterload_null                     0x0800252a   Section        2  handlers.o(i.__scatterload_null)
    i.__scatterload_zeroinit                 0x0800252c   Section       14  handlers.o(i.__scatterload_zeroinit)
    i.getRaw                                 0x0800253c   Section        0  xpt2046.o(i.getRaw)
    i.getX                                   0x08002594   Section        0  xpt2046.o(i.getX)
    i.getY                                   0x080025bc   Section        0  xpt2046.o(i.getY)
    i.main                                   0x080025e4   Section        0  main.o(i.main)
    i.remap                                  0x080028fc   Section        0  xpt2046.o(i.remap)
    remap                                    0x080028fd   Thumb Code    60  xpt2046.o(i.remap)
    .constdata                               0x08002938   Section       16  system_stm32f1xx.o(.constdata)
    .constdata                               0x08002948   Section      418  main.o(.constdata)
    .constdata                               0x08002aea   Section      760  main.o(.constdata)
    .constdata                               0x08002de4   Section       60  main.o(.constdata)
    .constdata                               0x08002e20   Section      271  main.o(.constdata)
    .constdata                               0x08002f30   Section      760  main.o(.constdata)
    .constdata                               0x08003228   Section      414  main.o(.constdata)
    .constdata                               0x080033c6   Section      760  main.o(.constdata)
    .constdata                               0x080036be   Section     1162  main.o(.constdata)
    .constdata                               0x08003b48   Section      760  main.o(.constdata)
    .constdata                               0x08003e40   Section     1395  main.o(.constdata)
    .constdata                               0x080043b4   Section      104  main.o(.constdata)
    .constdata                               0x0800441c   Section        8  xpt2046.o(.constdata)
    .data                                    0x20000000   Section        4  system_stm32f1xx.o(.data)
    .data                                    0x20000004   Section        6  main.o(.data)
    .data                                    0x20000010   Section        8  main.o(.data)
    .data                                    0x20000018   Section        6  ili9341.o(.data)
    .data                                    0x20000020   Section       12  stm32f1xx_hal.o(.data)
    .bss                                     0x2000002c   Section      240  main.o(.bss)
    STACK                                    0x20000120   Section     1024  startup_stm32f103xb.o(STACK)

    Global Symbols

    Symbol Name                              Value     Ov Type        Size  Object(Section)

    BuildAttributes$$THM_ISAv4$P$D$K$B$S$PE$A:L22UL41UL21$X:L11$S22US41US21$IEEE1$IW$USESV6$~STKCKD$USESV7$~SHL$OTIME$ROPI$EBA8$MICROLIB$REQ8$PRES8$EABIv2 0x00000000   Number         0  anon$$obj.o ABSOLUTE
    __ARM_use_no_argv                        0x00000000   Number         0  main.o ABSOLUTE
    __cpp_initialize__aeabi_                  - Undefined Weak Reference
    __cxa_finalize                            - Undefined Weak Reference
    __decompress                              - Undefined Weak Reference
    _clock_init                               - Undefined Weak Reference
    _microlib_exit                            - Undefined Weak Reference
    __Vectors_Size                           0x000000ec   Number         0  startup_stm32f103xb.o ABSOLUTE
    __Vectors                                0x08000000   Data           4  startup_stm32f103xb.o(RESET)
    __Vectors_End                            0x080000ec   Data           0  startup_stm32f103xb.o(RESET)
    __main                                   0x080000ed   Thumb Code     0  entry.o(.ARM.Collect$$$$00000000)
    _main_stk                                0x080000ed   Thumb Code     0  entry2.o(.ARM.Collect$$$$00000001)
    _main_scatterload                        0x080000f1   Thumb Code     0  entry5.o(.ARM.Collect$$$$00000004)
    __main_after_scatterload                 0x080000f5   Thumb Code     0  entry5.o(.ARM.Collect$$$$00000004)
    _main_clock                              0x080000f5   Thumb Code     0  entry7b.o(.ARM.Collect$$$$00000008)
    _main_cpp_init                           0x080000f5   Thumb Code     0  entry8b.o(.ARM.Collect$$$$0000000A)
    _main_init                               0x080000f5   Thumb Code     0  entry9a.o(.ARM.Collect$$$$0000000B)
    __rt_final_cpp                           0x080000fd   Thumb Code     0  entry10a.o(.ARM.Collect$$$$0000000D)
    __rt_final_exit                          0x080000fd   Thumb Code     0  entry11a.o(.ARM.Collect$$$$0000000F)
    Reset_Handler                            0x08000101   Thumb Code     8  startup_stm32f103xb.o(.text)
    ADC1_2_IRQHandler                        0x0800011b   Thumb Code     0  startup_stm32f103xb.o(.text)
    CAN1_RX1_IRQHandler                      0x0800011b   Thumb Code     0  startup_stm32f103xb.o(.text)
    CAN1_SCE_IRQHandler                      0x0800011b   Thumb Code     0  startup_stm32f103xb.o(.text)
    DMA1_Channel1_IRQHandler                 0x0800011b   Thumb Code     0  startup_stm32f103xb.o(.text)
    DMA1_Channel2_IRQHandler                 0x0800011b   Thumb Code     0  startup_stm32f103xb.o(.text)
    DMA1_Channel3_IRQHandler                 0x0800011b   Thumb Code     0  startup_stm32f103xb.o(.text)
    DMA1_Channel4_IRQHandler                 0x0800011b   Thumb Code     0  startup_stm32f103xb.o(.text)
    DMA1_Channel5_IRQHandler                 0x0800011b   Thumb Code     0  startup_stm32f103xb.o(.text)
    DMA1_Channel6_IRQHandler                 0x0800011b   Thumb Code     0  startup_stm32f103xb.o(.text)
    DMA1_Channel7_IRQHandler                 0x0800011b   Thumb Code     0  startup_stm32f103xb.o(.text)
    EXTI0_IRQHandler                         0x0800011b   Thumb Code     0  startup_stm32f103xb.o(.text)
    EXTI15_10_IRQHandler                     0x0800011b   Thumb Code     0  startup_stm32f103xb.o(.text)
    EXTI1_IRQHandler                         0x0800011b   Thumb Code     0  startup_stm32f103xb.o(.text)
    EXTI2_IRQHandler                         0x0800011b   Thumb Code     0  startup_stm32f103xb.o(.text)
    EXTI3_IRQHandler                         0x0800011b   Thumb Code     0  startup_stm32f103xb.o(.text)
    EXTI4_IRQHandler                         0x0800011b   Thumb Code     0  startup_stm32f103xb.o(.text)
    EXTI9_5_IRQHandler                       0x0800011b   Thumb Code     0  startup_stm32f103xb.o(.text)
    FLASH_IRQHandler                         0x0800011b   Thumb Code     0  startup_stm32f103xb.o(.text)
    I2C1_ER_IRQHandler                       0x0800011b   Thumb Code     0  startup_stm32f103xb.o(.text)
    I2C1_EV_IRQHandler                       0x0800011b   Thumb Code     0  startup_stm32f103xb.o(.text)
    I2C2_ER_IRQHandler                       0x0800011b   Thumb Code     0  startup_stm32f103xb.o(.text)
    I2C2_EV_IRQHandler                       0x0800011b   Thumb Code     0  startup_stm32f103xb.o(.text)
    PVD_IRQHandler                           0x0800011b   Thumb Code     0  startup_stm32f103xb.o(.text)
    RCC_IRQHandler                           0x0800011b   Thumb Code     0  startup_stm32f103xb.o(.text)
    RTC_Alarm_IRQHandler                     0x0800011b   Thumb Code     0  startup_stm32f103xb.o(.text)
    RTC_IRQHandler                           0x0800011b   Thumb Code     0  startup_stm32f103xb.o(.text)
    SPI1_IRQHandler                          0x0800011b   Thumb Code     0  startup_stm32f103xb.o(.text)
    SPI2_IRQHandler                          0x0800011b   Thumb Code     0  startup_stm32f103xb.o(.text)
    TAMPER_IRQHandler                        0x0800011b   Thumb Code     0  startup_stm32f103xb.o(.text)
    TIM2_IRQHandler                          0x0800011b   Thumb Code     0  startup_stm32f103xb.o(.text)
    TIM3_IRQHandler                          0x0800011b   Thumb Code     0  startup_stm32f103xb.o(.text)
    TIM4_IRQHandler                          0x0800011b   Thumb Code     0  startup_stm32f103xb.o(.text)
    USART1_IRQHandler                        0x0800011b   Thumb Code     0  startup_stm32f103xb.o(.text)
    USART2_IRQHandler                        0x0800011b   Thumb Code     0  startup_stm32f103xb.o(.text)
    USART3_IRQHandler                        0x0800011b   Thumb Code     0  startup_stm32f103xb.o(.text)
    USBWakeUp_IRQHandler                     0x0800011b   Thumb Code     0  startup_stm32f103xb.o(.text)
    USB_HP_CAN1_TX_IRQHandler                0x0800011b   Thumb Code     0  startup_stm32f103xb.o(.text)
    USB_LP_CAN1_RX0_IRQHandler               0x0800011b   Thumb Code     0  startup_stm32f103xb.o(.text)
    WWDG_IRQHandler                          0x0800011b   Thumb Code     0  startup_stm32f103xb.o(.text)
    strlen                                   0x08000125   Thumb Code    14  strlen.o(.text)
    __aeabi_fadd                             0x08000133   Thumb Code   164  fadd.o(.text)
    __aeabi_fsub                             0x080001d7   Thumb Code     6  fadd.o(.text)
    __aeabi_frsub                            0x080001dd   Thumb Code     6  fadd.o(.text)
    __aeabi_fmul                             0x080001e3   Thumb Code   100  fmul.o(.text)
    __aeabi_fdiv                             0x08000247   Thumb Code   124  fdiv.o(.text)
    __aeabi_ui2f                             0x080002c3   Thumb Code    10  ffltui.o(.text)
    __aeabi_f2uiz                            0x080002cd   Thumb Code    40  ffixui.o(.text)
    __I$use$fp                               0x080002f5   Thumb Code     0  iusefp.o(.text)
    _float_round                             0x080002f5   Thumb Code    18  fepilogue.o(.text)
    _float_epilogue                          0x08000307   Thumb Code    92  fepilogue.o(.text)
    __scatterload                            0x08000365   Thumb Code    28  init.o(.text)
    __scatterload_rt2                        0x08000365   Thumb Code     0  init.o(.text)
    BusFault_Handler                         0x08000389   Thumb Code     2  stm32f1xx_it.o(i.BusFault_Handler)
    DebugMon_Handler                         0x0800038b   Thumb Code     2  stm32f1xx_it.o(i.DebugMon_Handler)
    HAL_Delay                                0x080003b9   Thumb Code    32  stm32f1xx_hal.o(i.HAL_Delay)
    HAL_GPIO_Init                            0x080003dd   Thumb Code   408  stm32f1xx_hal_gpio.o(i.HAL_GPIO_Init)
    HAL_GPIO_ReadPin                         0x08000599   Thumb Code    10  stm32f1xx_hal_gpio.o(i.HAL_GPIO_ReadPin)
    HAL_GPIO_WritePin                        0x080005a3   Thumb Code    10  stm32f1xx_hal_gpio.o(i.HAL_GPIO_WritePin)
    HAL_GetTick                              0x080005ad   Thumb Code     6  stm32f1xx_hal.o(i.HAL_GetTick)
    HAL_IncTick                              0x080005b9   Thumb Code    12  stm32f1xx_hal.o(i.HAL_IncTick)
    HAL_Init                                 0x080005c9   Thumb Code    32  stm32f1xx_hal.o(i.HAL_Init)
    HAL_InitTick                             0x080005ed   Thumb Code    54  stm32f1xx_hal.o(i.HAL_InitTick)
    HAL_MspInit                              0x0800062d   Thumb Code   118  stm32f1xx_hal_msp.o(i.HAL_MspInit)
    HAL_NVIC_EnableIRQ                       0x080006ad   Thumb Code    22  stm32f1xx_hal_cortex.o(i.HAL_NVIC_EnableIRQ)
    HAL_NVIC_SetPriority                     0x080006c5   Thumb Code    60  stm32f1xx_hal_cortex.o(i.HAL_NVIC_SetPriority)
    HAL_NVIC_SetPriorityGrouping             0x08000705   Thumb Code    26  stm32f1xx_hal_cortex.o(i.HAL_NVIC_SetPriorityGrouping)
    HAL_RCC_ClockConfig                      0x08000729   Thumb Code   322  stm32f1xx_hal_rcc.o(i.HAL_RCC_ClockConfig)
    HAL_RCC_GetHCLKFreq                      0x0800087d   Thumb Code     6  stm32f1xx_hal_rcc.o(i.HAL_RCC_GetHCLKFreq)
    HAL_RCC_GetSysClockFreq                  0x08000889   Thumb Code    74  stm32f1xx_hal_rcc.o(i.HAL_RCC_GetSysClockFreq)
    HAL_RCC_OscConfig                        0x080008f5   Thumb Code   750  stm32f1xx_hal_rcc.o(i.HAL_RCC_OscConfig)
    HAL_SPI_Init                             0x08000bf9   Thumb Code   130  stm32f1xx_hal_spi_ex.o(i.HAL_SPI_Init)
    HAL_SPI_MspInit                          0x08000c7d   Thumb Code   122  stm32f1xx_hal_msp.o(i.HAL_SPI_MspInit)
    HAL_SPI_Transmit                         0x08000d0d   Thumb Code   360  stm32f1xx_hal_spi.o(i.HAL_SPI_Transmit)
    HAL_SPI_TransmitReceive                  0x08000e75   Thumb Code   472  stm32f1xx_hal_spi.o(i.HAL_SPI_TransmitReceive)
    HAL_SYSTICK_CLKSourceConfig              0x0800104d   Thumb Code    24  stm32f1xx_hal_cortex.o(i.HAL_SYSTICK_CLKSourceConfig)
    HAL_SYSTICK_Callback                     0x08001065   Thumb Code     2  stm32f1xx_hal_cortex.o(i.HAL_SYSTICK_Callback)
    HAL_SYSTICK_Config                       0x08001067   Thumb Code    40  stm32f1xx_hal_cortex.o(i.HAL_SYSTICK_Config)
    HAL_SYSTICK_IRQHandler                   0x0800108f   Thumb Code     8  stm32f1xx_hal_cortex.o(i.HAL_SYSTICK_IRQHandler)
    HAL_TIMEx_BreakCallback                  0x08001097   Thumb Code     2  stm32f1xx_hal_tim_ex.o(i.HAL_TIMEx_BreakCallback)
    HAL_TIMEx_CommutationCallback            0x08001099   Thumb Code     2  stm32f1xx_hal_tim_ex.o(i.HAL_TIMEx_CommutationCallback)
    HAL_TIMEx_MasterConfigSynchronization    0x0800109b   Thumb Code    80  stm32f1xx_hal_tim_ex.o(i.HAL_TIMEx_MasterConfigSynchronization)
    HAL_TIM_Base_Init                        0x080010eb   Thumb Code    54  stm32f1xx_hal_tim.o(i.HAL_TIM_Base_Init)
    HAL_TIM_Base_MspInit                     0x08001121   Thumb Code    98  stm32f1xx_hal_msp.o(i.HAL_TIM_Base_MspInit)
    HAL_TIM_Base_Start                       0x0800118d   Thumb Code    26  stm32f1xx_hal_tim.o(i.HAL_TIM_Base_Start)
    HAL_TIM_Base_Start_IT                    0x080011a7   Thumb Code    24  stm32f1xx_hal_tim.o(i.HAL_TIM_Base_Start_IT)
    HAL_TIM_ConfigClockSource                0x080011bf   Thumb Code   242  stm32f1xx_hal_tim.o(i.HAL_TIM_ConfigClockSource)
    HAL_TIM_IC_CaptureCallback               0x080012b1   Thumb Code     2  stm32f1xx_hal_tim.o(i.HAL_TIM_IC_CaptureCallback)
    HAL_TIM_IRQHandler                       0x080012b3   Thumb Code   358  stm32f1xx_hal_tim.o(i.HAL_TIM_IRQHandler)
    HAL_TIM_OC_DelayElapsedCallback          0x08001419   Thumb Code     2  stm32f1xx_hal_tim.o(i.HAL_TIM_OC_DelayElapsedCallback)
    HAL_TIM_PWM_PulseFinishedCallback        0x0800141b   Thumb Code     2  stm32f1xx_hal_tim.o(i.HAL_TIM_PWM_PulseFinishedCallback)
    HAL_TIM_PeriodElapsedCallback            0x0800141d   Thumb Code     2  stm32f1xx_hal_tim.o(i.HAL_TIM_PeriodElapsedCallback)
    HAL_TIM_TriggerCallback                  0x0800141f   Thumb Code     2  stm32f1xx_hal_tim.o(i.HAL_TIM_TriggerCallback)
    HardFault_Handler                        0x08001421   Thumb Code     2  stm32f1xx_it.o(i.HardFault_Handler)
    LCD_Circle                               0x080014e9   Thumb Code   302  ili9341.o(i.LCD_Circle)
    LCD_Circle_Fill_Helper                   0x08001617   Thumb Code   228  ili9341.o(i.LCD_Circle_Fill_Helper)
    LCD_Circle_Helper                        0x080016fd   Thumb Code   280  ili9341.o(i.LCD_Circle_Helper)
    LCD_Ellipse                              0x08001881   Thumb Code   664  ili9341.o(i.LCD_Ellipse)
    LCD_Font                                 0x08001b19   Thumb Code   144  ili9341.o(i.LCD_Font)
    LCD_Init                                 0x08001ba9   Thumb Code   170  ili9341.o(i.LCD_Init)
    LCD_Line                                 0x08001c53   Thumb Code   122  ili9341.o(i.LCD_Line)
    LCD_Orientation                          0x08001ccd   Thumb Code    68  ili9341.o(i.LCD_Orientation)
    LCD_Rect                                 0x08001d15   Thumb Code    82  ili9341.o(i.LCD_Rect)
    LCD_Rect_Fill                            0x08001d67   Thumb Code    60  ili9341.o(i.LCD_Rect_Fill)
    LCD_Rect_Round                           0x08001da3   Thumb Code   222  ili9341.o(i.LCD_Rect_Round)
    LCD_Rect_Round_Fill                      0x08001e81   Thumb Code   100  ili9341.o(i.LCD_Rect_Round_Fill)
    LCD_Reset                                0x08001ee5   Thumb Code    62  ili9341.o(i.LCD_Reset)
    LCD_Triangle                             0x08001f29   Thumb Code    64  ili9341.o(i.LCD_Triangle)
    LCD_Triangle_Fill                        0x08001f69   Thumb Code   194  ili9341.o(i.LCD_Triangle_Fill)
    MemManage_Handler                        0x080021b5   Thumb Code     2  stm32f1xx_it.o(i.MemManage_Handler)
    NMI_Handler                              0x080021b7   Thumb Code     2  stm32f1xx_it.o(i.NMI_Handler)
    PendSV_Handler                           0x080021d9   Thumb Code     2  stm32f1xx_it.o(i.PendSV_Handler)
    SVC_Handler                              0x08002291   Thumb Code     2  stm32f1xx_it.o(i.SVC_Handler)
    SysTick_Handler                          0x08002293   Thumb Code    14  stm32f1xx_it.o(i.SysTick_Handler)
    SystemClock_Config                       0x080022a1   Thumb Code   104  main.o(i.SystemClock_Config)
    SystemInit                               0x08002309   Thumb Code    56  system_stm32f1xx.o(i.SystemInit)
    TIM1_BRK_IRQHandler                      0x08002351   Thumb Code     6  stm32f1xx_it.o(i.TIM1_BRK_IRQHandler)
    TIM1_CC_IRQHandler                       0x0800235d   Thumb Code     6  stm32f1xx_it.o(i.TIM1_CC_IRQHandler)
    TIM1_TRG_COM_IRQHandler                  0x08002369   Thumb Code     6  stm32f1xx_it.o(i.TIM1_TRG_COM_IRQHandler)
    TIM1_UP_IRQHandler                       0x08002375   Thumb Code    22  stm32f1xx_it.o(i.TIM1_UP_IRQHandler)
    TIM_Base_SetConfig                       0x08002395   Thumb Code    94  stm32f1xx_hal_tim.o(i.TIM_Base_SetConfig)
    UsageFault_Handler                       0x0800246b   Thumb Code     2  stm32f1xx_it.o(i.UsageFault_Handler)
    XPT2046_Init                             0x080024a9   Thumb Code    46  xpt2046.o(i.XPT2046_Init)
    __scatterload_copy                       0x0800251d   Thumb Code    14  handlers.o(i.__scatterload_copy)
    __scatterload_null                       0x0800252b   Thumb Code     2  handlers.o(i.__scatterload_null)
    __scatterload_zeroinit                   0x0800252d   Thumb Code    14  handlers.o(i.__scatterload_zeroinit)
    getRaw                                   0x0800253d   Thumb Code    82  xpt2046.o(i.getRaw)
    getX                                     0x08002595   Thumb Code    36  xpt2046.o(i.getX)
    getY                                     0x080025bd   Thumb Code    36  xpt2046.o(i.getY)
    main                                     0x080025e5   Thumb Code   672  main.o(i.main)
    AHBPrescTable                            0x08002938   Data          16  system_stm32f1xx.o(.constdata)
    Font_3_TomThumb_ExtendedBitmaps          0x08002948   Data         418  main.o(.constdata)
    Font_3_TomThumb_ExtendedGlyphs           0x08002aea   Data         760  main.o(.constdata)
    Font_3_TomThumb_Extended                 0x08002de4   Data          12  main.o(.constdata)
    Font_5_Org                               0x08002df0   Data          12  main.o(.constdata)
    Font_8_Default                           0x08002dfc   Data          12  main.o(.constdata)
    Font_9_Serif_Bold                        0x08002e08   Data          12  main.o(.constdata)
    Font_32_Segment_7_Num_Plus               0x08002e14   Data          12  main.o(.constdata)
    Font_5_OrgBitmaps                        0x08002e20   Data         271  main.o(.constdata)
    Font_5_OrgGlyphs                         0x08002f30   Data         760  main.o(.constdata)
    Font_8_DefaultBitmaps                    0x08003228   Data         414  main.o(.constdata)
    Font_8_DefaultGlyphs                     0x080033c6   Data         760  main.o(.constdata)
    Font_9_Serif_BoldBitmaps                 0x080036be   Data        1162  main.o(.constdata)
    Font_9_Serif_BoldGlyphs                  0x08003b48   Data         760  main.o(.constdata)
    Font_32_Segment_7_Num_PlusBitmaps        0x08003e40   Data        1395  main.o(.constdata)
    Font_32_Segment_7_Num_PlusGlyphs         0x080043b4   Data         104  main.o(.constdata)
    Region$$Table$$Base                      0x08004424   Number         0  anon$$obj.o(Region$$Table)
    Region$$Table$$Limit                     0x08004444   Number         0  anon$$obj.o(Region$$Table)
    SystemCoreClock                          0x20000000   Data           4  system_stm32f1xx.o(.data)
    touchIRQ                                 0x20000004   Data           1  main.o(.data)
    touchX                                   0x20000006   Data           2  main.o(.data)
    touchY                                   0x20000008   Data           2  main.o(.data)
    millis                                   0x20000010   Data           8  main.o(.data)
    LCD_Width                                0x20000018   Data           2  ili9341.o(.data)
    LCD_Height                               0x2000001a   Data           2  ili9341.o(.data)
    yStart                                   0x2000001c   Data           2  ili9341.o(.data)
    uwTickFreq                               0x20000020   Data           1  stm32f1xx_hal.o(.data)
    uwTickPrio                               0x20000024   Data           4  stm32f1xx_hal.o(.data)
    uwTick                                   0x20000028   Data           4  stm32f1xx_hal.o(.data)
    hspi1                                    0x2000002c   Data          88  main.o(.bss)
    hspi2                                    0x20000084   Data          88  main.o(.bss)
    htim1                                    0x200000dc   Data          64  main.o(.bss)
    __initial_sp                             0x20000520   Data           0  startup_stm32f103xb.o(STACK)



==============================================================================

Memory Map of the image

  Image Entry point : 0x080000ed

  Load Region LR_IROM1 (Base: 0x08000000, Size: 0x00004470, Max: 0x00010000, ABSOLUTE)

    Execution Region ER_IROM1 (Exec base: 0x08000000, Load base: 0x08000000, Size: 0x00004444, Max: 0x00010000, ABSOLUTE)

    Exec Addr    Load Addr    Size         Type   Attr      Idx    E Section Name        Object

    0x08000000   0x08000000   0x000000ec   Data   RO            3    RESET               startup_stm32f103xb.o
    0x080000ec   0x080000ec   0x00000000   Code   RO         3127  * .ARM.Collect$$$$00000000  mc_w.l(entry.o)
    0x080000ec   0x080000ec   0x00000004   Code   RO         3144    .ARM.Collect$$$$00000001  mc_w.l(entry2.o)
    0x080000f0   0x080000f0   0x00000004   Code   RO         3147    .ARM.Collect$$$$00000004  mc_w.l(entry5.o)
    0x080000f4   0x080000f4   0x00000000   Code   RO         3149    .ARM.Collect$$$$00000008  mc_w.l(entry7b.o)
    0x080000f4   0x080000f4   0x00000000   Code   RO         3151    .ARM.Collect$$$$0000000A  mc_w.l(entry8b.o)
    0x080000f4   0x080000f4   0x00000008   Code   RO         3152    .ARM.Collect$$$$0000000B  mc_w.l(entry9a.o)
    0x080000fc   0x080000fc   0x00000000   Code   RO         3154    .ARM.Collect$$$$0000000D  mc_w.l(entry10a.o)
    0x080000fc   0x080000fc   0x00000000   Code   RO         3156    .ARM.Collect$$$$0000000F  mc_w.l(entry11a.o)
    0x080000fc   0x080000fc   0x00000004   Code   RO         3145    .ARM.Collect$$$$00002712  mc_w.l(entry2.o)
    0x08000100   0x08000100   0x00000024   Code   RO            4    .text               startup_stm32f103xb.o
    0x08000124   0x08000124   0x0000000e   Code   RO         3132    .text               mc_w.l(strlen.o)
    0x08000132   0x08000132   0x000000b0   Code   RO         3134    .text               mf_w.l(fadd.o)
    0x080001e2   0x080001e2   0x00000064   Code   RO         3136    .text               mf_w.l(fmul.o)
    0x08000246   0x08000246   0x0000007c   Code   RO         3138    .text               mf_w.l(fdiv.o)
    0x080002c2   0x080002c2   0x0000000a   Code   RO         3140    .text               mf_w.l(ffltui.o)
    0x080002cc   0x080002cc   0x00000028   Code   RO         3142    .text               mf_w.l(ffixui.o)
    0x080002f4   0x080002f4   0x00000000   Code   RO         3158    .text               mc_w.l(iusefp.o)
    0x080002f4   0x080002f4   0x0000006e   Code   RO         3159    .text               mf_w.l(fepilogue.o)
    0x08000362   0x08000362   0x00000002   PAD
    0x08000364   0x08000364   0x00000024   Code   RO         3161    .text               mc_w.l(init.o)
    0x08000388   0x08000388   0x00000002   Code   RO          650    i.BusFault_Handler  stm32f1xx_it.o
    0x0800038a   0x0800038a   0x00000002   Code   RO          651    i.DebugMon_Handler  stm32f1xx_it.o
    0x0800038c   0x0800038c   0x0000002a   Code   RO          750    i.H24_RGB565        ili9341.o
    0x080003b6   0x080003b6   0x00000002   PAD
    0x080003b8   0x080003b8   0x00000024   Code   RO         2978    i.HAL_Delay         stm32f1xx_hal.o
    0x080003dc   0x080003dc   0x000001bc   Code   RO         1659    i.HAL_GPIO_Init     stm32f1xx_hal_gpio.o
    0x08000598   0x08000598   0x0000000a   Code   RO         1661    i.HAL_GPIO_ReadPin  stm32f1xx_hal_gpio.o
    0x080005a2   0x080005a2   0x0000000a   Code   RO         1663    i.HAL_GPIO_WritePin  stm32f1xx_hal_gpio.o
    0x080005ac   0x080005ac   0x0000000c   Code   RO         2982    i.HAL_GetTick       stm32f1xx_hal.o
    0x080005b8   0x080005b8   0x00000010   Code   RO         2986    i.HAL_IncTick       stm32f1xx_hal.o
    0x080005c8   0x080005c8   0x00000024   Code   RO         2987    i.HAL_Init          stm32f1xx_hal.o
    0x080005ec   0x080005ec   0x00000040   Code   RO         2988    i.HAL_InitTick      stm32f1xx_hal.o
    0x0800062c   0x0800062c   0x00000080   Code   RO          129    i.HAL_MspInit       stm32f1xx_hal_msp.o
    0x080006ac   0x080006ac   0x00000016   Code   RO         1505    i.HAL_NVIC_EnableIRQ  stm32f1xx_hal_cortex.o
    0x080006c2   0x080006c2   0x00000002   PAD
    0x080006c4   0x080006c4   0x00000040   Code   RO         1511    i.HAL_NVIC_SetPriority  stm32f1xx_hal_cortex.o
    0x08000704   0x08000704   0x00000024   Code   RO         1512    i.HAL_NVIC_SetPriorityGrouping  stm32f1xx_hal_cortex.o
    0x08000728   0x08000728   0x00000154   Code   RO         1911    i.HAL_RCC_ClockConfig  stm32f1xx_hal_rcc.o
    0x0800087c   0x0800087c   0x0000000c   Code   RO         1916    i.HAL_RCC_GetHCLKFreq  stm32f1xx_hal_rcc.o
    0x08000888   0x08000888   0x0000006c   Code   RO         1920    i.HAL_RCC_GetSysClockFreq  stm32f1xx_hal_rcc.o
    0x080008f4   0x080008f4   0x00000304   Code   RO         1923    i.HAL_RCC_OscConfig  stm32f1xx_hal_rcc.o
    0x08000bf8   0x08000bf8   0x00000082   Code   RO         1479    i.HAL_SPI_Init      stm32f1xx_hal_spi_ex.o
    0x08000c7a   0x08000c7a   0x00000002   PAD
    0x08000c7c   0x08000c7c   0x00000090   Code   RO          131    i.HAL_SPI_MspInit   stm32f1xx_hal_msp.o
    0x08000d0c   0x08000d0c   0x00000168   Code   RO         1175    i.HAL_SPI_Transmit  stm32f1xx_hal_spi.o
    0x08000e74   0x08000e74   0x000001d8   Code   RO         1176    i.HAL_SPI_TransmitReceive  stm32f1xx_hal_spi.o
    0x0800104c   0x0800104c   0x00000018   Code   RO         1514    i.HAL_SYSTICK_CLKSourceConfig  stm32f1xx_hal_cortex.o
    0x08001064   0x08001064   0x00000002   Code   RO         1515    i.HAL_SYSTICK_Callback  stm32f1xx_hal_cortex.o
    0x08001066   0x08001066   0x00000028   Code   RO         1516    i.HAL_SYSTICK_Config  stm32f1xx_hal_cortex.o
    0x0800108e   0x0800108e   0x00000008   Code   RO         1517    i.HAL_SYSTICK_IRQHandler  stm32f1xx_hal_cortex.o
    0x08001096   0x08001096   0x00000002   Code   RO         2738    i.HAL_TIMEx_BreakCallback  stm32f1xx_hal_tim_ex.o
    0x08001098   0x08001098   0x00000002   Code   RO         2739    i.HAL_TIMEx_CommutationCallback  stm32f1xx_hal_tim_ex.o
    0x0800109a   0x0800109a   0x00000050   Code   RO         2755    i.HAL_TIMEx_MasterConfigSynchronization  stm32f1xx_hal_tim_ex.o
    0x080010ea   0x080010ea   0x00000036   Code   RO         2014    i.HAL_TIM_Base_Init  stm32f1xx_hal_tim.o
    0x08001120   0x08001120   0x0000006c   Code   RO          133    i.HAL_TIM_Base_MspInit  stm32f1xx_hal_msp.o
    0x0800118c   0x0800118c   0x0000001a   Code   RO         2017    i.HAL_TIM_Base_Start  stm32f1xx_hal_tim.o
    0x080011a6   0x080011a6   0x00000018   Code   RO         2019    i.HAL_TIM_Base_Start_IT  stm32f1xx_hal_tim.o
    0x080011be   0x080011be   0x000000f2   Code   RO         2023    i.HAL_TIM_ConfigClockSource  stm32f1xx_hal_tim.o
    0x080012b0   0x080012b0   0x00000002   Code   RO         2043    i.HAL_TIM_IC_CaptureCallback  stm32f1xx_hal_tim.o
    0x080012b2   0x080012b2   0x00000166   Code   RO         2056    i.HAL_TIM_IRQHandler  stm32f1xx_hal_tim.o
    0x08001418   0x08001418   0x00000002   Code   RO         2059    i.HAL_TIM_OC_DelayElapsedCallback  stm32f1xx_hal_tim.o
    0x0800141a   0x0800141a   0x00000002   Code   RO         2086    i.HAL_TIM_PWM_PulseFinishedCallback  stm32f1xx_hal_tim.o
    0x0800141c   0x0800141c   0x00000002   Code   RO         2093    i.HAL_TIM_PeriodElapsedCallback  stm32f1xx_hal_tim.o
    0x0800141e   0x0800141e   0x00000002   Code   RO         2097    i.HAL_TIM_TriggerCallback  stm32f1xx_hal_tim.o
    0x08001420   0x08001420   0x00000002   Code   RO          652    i.HardFault_Handler  stm32f1xx_it.o
    0x08001422   0x08001422   0x000000c6   Code   RO          753    i.LCD_Char          ili9341.o
    0x080014e8   0x080014e8   0x0000012e   Code   RO          754    i.LCD_Circle        ili9341.o
    0x08001616   0x08001616   0x000000e4   Code   RO          755    i.LCD_Circle_Fill_Helper  ili9341.o
    0x080016fa   0x080016fa   0x00000002   PAD
    0x080016fc   0x080016fc   0x00000118   Code   RO          756    i.LCD_Circle_Helper  ili9341.o
    0x08001814   0x08001814   0x00000024   Code   RO          757    i.LCD_Command       ili9341.o
    0x08001838   0x08001838   0x00000024   Code   RO          758    i.LCD_Data_16       ili9341.o
    0x0800185c   0x0800185c   0x00000024   Code   RO          759    i.LCD_Data_8        ili9341.o
    0x08001880   0x08001880   0x00000298   Code   RO          760    i.LCD_Ellipse       ili9341.o
    0x08001b18   0x08001b18   0x00000090   Code   RO          761    i.LCD_Font          ili9341.o
    0x08001ba8   0x08001ba8   0x000000aa   Code   RO          762    i.LCD_Init          ili9341.o
    0x08001c52   0x08001c52   0x0000007a   Code   RO          763    i.LCD_Line          ili9341.o
    0x08001ccc   0x08001ccc   0x00000048   Code   RO          764    i.LCD_Orientation   ili9341.o
    0x08001d14   0x08001d14   0x00000052   Code   RO          766    i.LCD_Rect          ili9341.o
    0x08001d66   0x08001d66   0x0000003c   Code   RO          767    i.LCD_Rect_Fill     ili9341.o
    0x08001da2   0x08001da2   0x000000de   Code   RO          768    i.LCD_Rect_Round    ili9341.o
    0x08001e80   0x08001e80   0x00000064   Code   RO          769    i.LCD_Rect_Round_Fill  ili9341.o
    0x08001ee4   0x08001ee4   0x00000044   Code   RO          770    i.LCD_Reset         ili9341.o
    0x08001f28   0x08001f28   0x00000040   Code   RO          771    i.LCD_Triangle      ili9341.o
    0x08001f68   0x08001f68   0x000000c2   Code   RO          772    i.LCD_Triangle_Fill  ili9341.o
    0x0800202a   0x0800202a   0x0000003a   Code   RO          773    i.LCD_Window        ili9341.o
    0x08002064   0x08002064   0x00000078   Code   RO          181    i.MX_GPIO_Init      main.o
    0x080020dc   0x080020dc   0x00000040   Code   RO          182    i.MX_SPI1_Init      main.o
    0x0800211c   0x0800211c   0x00000040   Code   RO          183    i.MX_SPI2_Init      main.o
    0x0800215c   0x0800215c   0x00000058   Code   RO          184    i.MX_TIM1_Init      main.o
    0x080021b4   0x080021b4   0x00000002   Code   RO          653    i.MemManage_Handler  stm32f1xx_it.o
    0x080021b6   0x080021b6   0x00000002   Code   RO          654    i.NMI_Handler       stm32f1xx_it.o
    0x080021b8   0x080021b8   0x00000020   Code   RO         1518    i.NVIC_SetPriority  stm32f1xx_hal_cortex.o
    0x080021d8   0x080021d8   0x00000002   Code   RO          655    i.PendSV_Handler    stm32f1xx_it.o
    0x080021da   0x080021da   0x00000020   Code   RO         1191    i.SPI_CheckFlag_BSY  stm32f1xx_hal_spi.o
    0x080021fa   0x080021fa   0x00000096   Code   RO         1210    i.SPI_WaitFlagStateUntilTimeout  stm32f1xx_hal_spi.o
    0x08002290   0x08002290   0x00000002   Code   RO          656    i.SVC_Handler       stm32f1xx_it.o
    0x08002292   0x08002292   0x0000000e   Code   RO          657    i.SysTick_Handler   stm32f1xx_it.o
    0x080022a0   0x080022a0   0x00000068   Code   RO          185    i.SystemClock_Config  main.o
    0x08002308   0x08002308   0x00000048   Code   RO           14    i.SystemInit        system_stm32f1xx.o
    0x08002350   0x08002350   0x0000000c   Code   RO          658    i.TIM1_BRK_IRQHandler  stm32f1xx_it.o
    0x0800235c   0x0800235c   0x0000000c   Code   RO          659    i.TIM1_CC_IRQHandler  stm32f1xx_it.o
    0x08002368   0x08002368   0x0000000c   Code   RO          660    i.TIM1_TRG_COM_IRQHandler  stm32f1xx_it.o
    0x08002374   0x08002374   0x00000020   Code   RO          661    i.TIM1_UP_IRQHandler  stm32f1xx_it.o
    0x08002394   0x08002394   0x0000006c   Code   RO         2098    i.TIM_Base_SetConfig  stm32f1xx_hal_tim.o
    0x08002400   0x08002400   0x00000014   Code   RO         2105    i.TIM_ETR_SetConfig  stm32f1xx_hal_tim.o
    0x08002414   0x08002414   0x00000010   Code   RO         2106    i.TIM_ITRx_SetConfig  stm32f1xx_hal_tim.o
    0x08002424   0x08002424   0x00000022   Code   RO         2112    i.TIM_TI1_ConfigInputStage  stm32f1xx_hal_tim.o
    0x08002446   0x08002446   0x00000024   Code   RO         2114    i.TIM_TI2_ConfigInputStage  stm32f1xx_hal_tim.o
    0x0800246a   0x0800246a   0x00000002   Code   RO          662    i.UsageFault_Handler  stm32f1xx_it.o
    0x0800246c   0x0800246c   0x0000003c   Code   RO          936    i.X                 xpt2046.o
    0x080024a8   0x080024a8   0x00000034   Code   RO          937    i.XPT2046_Init      xpt2046.o
    0x080024dc   0x080024dc   0x00000040   Code   RO          938    i.Y                 xpt2046.o
    0x0800251c   0x0800251c   0x0000000e   Code   RO         3165    i.__scatterload_copy  mc_w.l(handlers.o)
    0x0800252a   0x0800252a   0x00000002   Code   RO         3166    i.__scatterload_null  mc_w.l(handlers.o)
    0x0800252c   0x0800252c   0x0000000e   Code   RO         3167    i.__scatterload_zeroinit  mc_w.l(handlers.o)
    0x0800253a   0x0800253a   0x00000002   PAD
    0x0800253c   0x0800253c   0x00000058   Code   RO          939    i.getRaw            xpt2046.o
    0x08002594   0x08002594   0x00000028   Code   RO          940    i.getX              xpt2046.o
    0x080025bc   0x080025bc   0x00000028   Code   RO          941    i.getY              xpt2046.o
    0x080025e4   0x080025e4   0x00000318   Code   RO          187    i.main              main.o
    0x080028fc   0x080028fc   0x0000003c   Code   RO          942    i.remap             xpt2046.o
    0x08002938   0x08002938   0x00000010   Data   RO           15    .constdata          system_stm32f1xx.o
    0x08002948   0x08002948   0x000001a2   Data   RO          195    .constdata          main.o
    0x08002aea   0x08002aea   0x000002f8   Data   RO          196    .constdata          main.o
    0x08002de2   0x08002de2   0x00000002   PAD
    0x08002de4   0x08002de4   0x0000003c   Data   RO          197    .constdata          main.o
    0x08002e20   0x08002e20   0x0000010f   Data   RO          198    .constdata          main.o
    0x08002f2f   0x08002f2f   0x00000001   PAD
    0x08002f30   0x08002f30   0x000002f8   Data   RO          199    .constdata          main.o
    0x08003228   0x08003228   0x0000019e   Data   RO          212    .constdata          main.o
    0x080033c6   0x080033c6   0x000002f8   Data   RO          213    .constdata          main.o
    0x080036be   0x080036be   0x0000048a   Data   RO          244    .constdata          main.o
    0x08003b48   0x08003b48   0x000002f8   Data   RO          245    .constdata          main.o
    0x08003e40   0x08003e40   0x00000573   Data   RO          456    .constdata          main.o
    0x080043b3   0x080043b3   0x00000001   PAD
    0x080043b4   0x080043b4   0x00000068   Data   RO          457    .constdata          main.o
    0x0800441c   0x0800441c   0x00000008   Data   RO          943    .constdata          xpt2046.o
    0x08004424   0x08004424   0x00000020   Data   RO         3163    Region$$Table       anon$$obj.o


    Execution Region RW_IRAM1 (Exec base: 0x20000000, Load base: 0x08004444, Size: 0x00000520, Max: 0x00005000, ABSOLUTE)

    Exec Addr    Load Addr    Size         Type   Attr      Idx    E Section Name        Object

    0x20000000   0x08004444   0x00000004   Data   RW           17    .data               system_stm32f1xx.o
    0x20000004   0x08004448   0x00000006   Data   RW          485    .data               main.o
    0x2000000a   0x0800444e   0x00000006   PAD
    0x20000010   0x08004454   0x00000008   Data   RW          486    .data               main.o
    0x20000018   0x0800445c   0x00000006   Data   RW          778    .data               ili9341.o
    0x2000001e   0x08004462   0x00000002   PAD
    0x20000020   0x08004464   0x0000000c   Data   RW         2994    .data               stm32f1xx_hal.o
    0x2000002c        -       0x000000f0   Zero   RW          188    .bss                main.o
    0x2000011c   0x08004470   0x00000004   PAD
    0x20000120        -       0x00000400   Zero   RW            1    STACK               startup_stm32f103xb.o


==============================================================================

Image component sizes


      Code (inc. data)   RO Data    RW Data    ZI Data      Debug   Object Name

      3178         36          0          6          0      16681   ili9341.o
      1232        160       6864         14        240      51716   main.o
        36          8        236          0       1024        788   startup_stm32f103xb.o
       164         28          0         12          0       3729   stm32f1xx_hal.o
       228         14          0          0          0      27241   stm32f1xx_hal_cortex.o
       464         36          0          0          0       3447   stm32f1xx_hal_gpio.o
       380         42          0          0          0       2155   stm32f1xx_hal_msp.o
      1232         80          0          0          0       4434   stm32f1xx_hal_rcc.o
      1014          0          0          0          0       4789   stm32f1xx_hal_spi.o
       130          0          0          0          0       1031   stm32f1xx_hal_spi_ex.o
       928         14          0          0          0      10280   stm32f1xx_hal_tim.o
        84          0          0          0          0       2266   stm32f1xx_hal_tim_ex.o
        98         28          0          0          0       5356   stm32f1xx_it.o
        72         16         16          4          0     430331   system_stm32f1xx.o
       404         46          8          0          0       3418   xpt2046.o

    ----------------------------------------------------------------------
      9652        508       7160         44       1268     567662   Object Totals
         0          0         32          0          0          0   (incl. Generated)
         8          0          4          8          4          0   (incl. Padding)

    ----------------------------------------------------------------------

      Code (inc. data)   RO Data    RW Data    ZI Data      Debug   Library Member Name

         0          0          0          0          0          0   entry.o
         0          0          0          0          0          0   entry10a.o
         0          0          0          0          0          0   entry11a.o
         8          4          0          0          0          0   entry2.o
         4          0          0          0          0          0   entry5.o
         0          0          0          0          0          0   entry7b.o
         0          0          0          0          0          0   entry8b.o
         8          4          0          0          0          0   entry9a.o
        30          0          0          0          0          0   handlers.o
        36          8          0          0          0         68   init.o
         0          0          0          0          0          0   iusefp.o
        14          0          0          0          0         68   strlen.o
       176          0          0          0          0        140   fadd.o
       124          0          0          0          0         88   fdiv.o
       110          0          0          0          0        168   fepilogue.o
        40          0          0          0          0         68   ffixui.o
        10          0          0          0          0         68   ffltui.o
       100          0          0          0          0         76   fmul.o

    ----------------------------------------------------------------------
       664         16          0          0          0        744   Library Totals
         4          0          0          0          0          0   (incl. Padding)

    ----------------------------------------------------------------------

      Code (inc. data)   RO Data    RW Data    ZI Data      Debug   Library Name

       100         16          0          0          0        136   mc_w.l
       560          0          0          0          0        608   mf_w.l

    ----------------------------------------------------------------------
       664         16          0          0          0        744   Library Totals

    ----------------------------------------------------------------------

==============================================================================


      Code (inc. data)   RO Data    RW Data    ZI Data      Debug   

     10316        524       7160         44       1268     563566   Grand Totals
     10316        524       7160         44       1268     563566   ELF Image Totals
     10316        524       7160         44          0          0   ROM Totals

==============================================================================

    Total RO  Size (Code + RO Data)                17476 (  17.07kB)
    Total RW  Size (RW Data + ZI Data)              1312 (   1.28kB)
    Total ROM Size (Code + RO Data + RW Data)      17520 (  17.11kB)

==============================================================================

