Component: ARM Compiler 5.06 update 6 (build 750) Tool: armlink [4d35ed]

==============================================================================

Section Cross References

    startup_stm32f407xx.o(RESET) refers to startup_stm32f407xx.o(STACK) for __initial_sp
    startup_stm32f407xx.o(RESET) refers to startup_stm32f407xx.o(.text) for Reset_Handler
    startup_stm32f407xx.o(RESET) refers to stm32f4xx_it.o(i.NMI_Handler) for NMI_Handler
    startup_stm32f407xx.o(RESET) refers to stm32f4xx_it.o(i.HardFault_Handler) for HardFault_Handler
    startup_stm32f407xx.o(RESET) refers to stm32f4xx_it.o(i.MemManage_Handler) for MemManage_Handler
    startup_stm32f407xx.o(RESET) refers to stm32f4xx_it.o(i.BusFault_Handler) for BusFault_Handler
    startup_stm32f407xx.o(RESET) refers to stm32f4xx_it.o(i.UsageFault_Handler) for UsageFault_Handler
    startup_stm32f407xx.o(RESET) refers to stm32f4xx_it.o(i.SVC_Handler) for SVC_Handler
    startup_stm32f407xx.o(RESET) refers to stm32f4xx_it.o(i.DebugMon_Handler) for DebugMon_Handler
    startup_stm32f407xx.o(RESET) refers to stm32f4xx_it.o(i.PendSV_Handler) for PendSV_Handler
    startup_stm32f407xx.o(RESET) refers to stm32f4xx_it.o(i.SysTick_Handler) for SysTick_Handler
    startup_stm32f407xx.o(RESET) refers to stm32f4xx_it.o(i.EXTI3_IRQHandler) for EXTI3_IRQHandler
    startup_stm32f407xx.o(RESET) refers to stm32f4xx_it.o(i.TIM1_BRK_TIM9_IRQHandler) for TIM1_BRK_TIM9_IRQHandler
    startup_stm32f407xx.o(RESET) refers to stm32f4xx_it.o(i.TIM1_UP_TIM10_IRQHandler) for TIM1_UP_TIM10_IRQHandler
    startup_stm32f407xx.o(RESET) refers to stm32f4xx_it.o(i.SPI3_IRQHandler) for SPI3_IRQHandler
    startup_stm32f407xx.o(.text) refers to system_stm32f4xx.o(i.SystemInit) for SystemInit
    startup_stm32f407xx.o(.text) refers to entry.o(.ARM.Collect$$$$00000000) for __main
    ssd1963_fsmc.o(i.LCD_Bright) refers to ssd1963_fsmc.o(i.LCD_Send_Dat) for LCD_Send_Dat
==============================================================================

Removing Unused input sections from the image.

    Removing startup_stm32f407xx.o(HEAP), (512 bytes).
    Removing ssd1963_fsmc.o(.rev16_text), (4 bytes).
    Removing ssd1963_fsmc.o(.revsh_text), (4 bytes).
    Removing ssd1963_fsmc.o(.rrx_text), (6 bytes).
    Removing ssd1963_fsmc.o(i.LCD_Bright), (34 bytes).
    Removing ssd1963_fsmc.o(i.LCD_Pixel), (28 bytes).
    Removing ssd1963_fsmc.o(i.LCD_Send_Cmd), (8 bytes).
    Removing xpt2046.o(.rev16_text), (4 bytes).
    Removing xpt2046.o(.revsh_text), (4 bytes).
    Removing xpt2046.o(.rrx_text), (6 bytes).
    Removing main.o(.rev16_text), (4 bytes).
    Removing main.o(.revsh_text), (4 bytes).
    Removing main.o(.rrx_text), (6 bytes).
    Removing main.o(i.Error_Handler), (2 bytes).
    Removing main.o(.constdata), (142 bytes).
    Removing main.o(.constdata), (760 bytes).
    Removing main.o(.constdata), (12 bytes).
    Removing main.o(.constdata), (180 bytes).
==============================================================================

Image Symbol Table

    Local Symbols

    Symbol Name                              Value     Ov Type        Size  Object(Section)

    ../Drivers/STM32F4xx_HAL_Driver/Src/stm32f4xx_hal.c 0x00000000   Number         0  stm32f4xx_hal.o ABSOLUTE
    ../Drivers/STM32F4xx_HAL_Driver/Src/stm32f4xx_hal_cortex.c 0x00000000   Number         0  stm32f4xx_hal_cortex.o ABSOLUTE
    ../Drivers/STM32F4xx_HAL_Driver/Src/stm32f4xx_hal_dma.c 0x00000000   Number         0  stm32f4xx_hal_dma.o ABSOLUTE
    ../Drivers/STM32F4xx_HAL_Driver/Src/stm32f4xx_hal_dma_ex.c 0x00000000   Number         0  stm32f4xx_hal_dma_ex.o ABSOLUTE
    ../Drivers/STM32F4xx_HAL_Driver/Src/stm32f4xx_hal_flash.c 0x00000000   Number         0  stm32f4xx_hal_flash.o ABSOLUTE
    ../Drivers/STM32F4xx_HAL_Driver/Src/stm32f4xx_hal_flash_ex.c 0x00000000   Number         0  stm32f4xx_hal_flash_ex.o ABSOLUTE
    ../Drivers/STM32F4xx_HAL_Driver/Src/stm32f4xx_hal_flash_ramfunc.c 0x00000000   Number         0  stm32f4xx_hal_flash_ramfunc.o ABSOLUTE
    ../Drivers/STM32F4xx_HAL_Driver/Src/stm32f4xx_hal_gpio.c 0x00000000   Number         0  stm32f4xx_hal_gpio.o ABSOLUTE
    ../Drivers/STM32F4xx_HAL_Driver/Src/stm32f4xx_hal_i2c.c 0x00000000   Number         0  stm32f4xx_hal_i2c.o ABSOLUTE
    ../Drivers/STM32F4xx_HAL_Driver/Src/stm32f4xx_hal_i2c_ex.c 0x00000000   Number         0  stm32f4xx_hal_i2c_ex.o ABSOLUTE
    ../Drivers/STM32F4xx_HAL_Driver/Src/stm32f4xx_hal_pwr.c 0x00000000   Number         0  stm32f4xx_hal_pwr.o ABSOLUTE
    ../Drivers/STM32F4xx_HAL_Driver/Src/stm32f4xx_hal_pwr_ex.c 0x00000000   Number         0  stm32f4xx_hal_pwr_ex.o ABSOLUTE
    ../Drivers/STM32F4xx_HAL_Driver/Src/stm32f4xx_hal_rcc.c 0x00000000   Number         0  stm32f4xx_hal_rcc.o ABSOLUTE
    ../Drivers/STM32F4xx_HAL_Driver/Src/stm32f4xx_hal_rcc_ex.c 0x00000000   Number         0  stm32f4xx_hal_rcc_ex.o ABSOLUTE
    ../Drivers/STM32F4xx_HAL_Driver/Src/stm32f4xx_hal_spi.c 0x00000000   Number         0  stm32f4xx_hal_spi.o ABSOLUTE
    ../Drivers/STM32F4xx_HAL_Driver/Src/stm32f4xx_hal_sram.c 0x00000000   Number         0  stm32f4xx_hal_sram.o ABSOLUTE
    ../Drivers/STM32F4xx_HAL_Driver/Src/stm32f4xx_hal_tim.c 0x00000000   Number         0  stm32f4xx_hal_tim.o ABSOLUTE
    ../Drivers/STM32F4xx_HAL_Driver/Src/stm32f4xx_hal_tim_ex.c 0x00000000   Number         0  stm32f4xx_hal_tim_ex.o ABSOLUTE
    ../Drivers/STM32F4xx_HAL_Driver/Src/stm32f4xx_hal_uart.c 0x00000000   Number         0  stm32f4xx_hal_uart.o ABSOLUTE
    ../Drivers/STM32F4xx_HAL_Driver/Src/stm32f4xx_ll_fsmc.c 0x00000000   Number         0  stm32f4xx_ll_fsmc.o ABSOLUTE
    ../Src/main.c                            0x00000000   Number         0  main.o ABSOLUTE
    ../Src/stm32f4xx_hal_msp.c               0x00000000   Number         0  stm32f4xx_hal_msp.o ABSOLUTE
    ../Src/stm32f4xx_it.c                    0x00000000   Number         0  stm32f4xx_it.o ABSOLUTE
    ../Src/system_stm32f4xx.c                0x00000000   Number         0  system_stm32f4xx.o ABSOLUTE
    ../clib/microlib/division.c              0x00000000   Number         0  uldiv.o ABSOLUTE
    ../clib/microlib/init/entry.s            0x00000000   Number         0  entry10b.o ABSOLUTE
    ../clib/microlib/init/entry.s            0x00000000   Number         0  entry10a.o ABSOLUTE
    ../clib/microlib/init/entry.s            0x00000000   Number         0  entry9b.o ABSOLUTE
    ../clib/microlib/init/entry.s            0x00000000   Number         0  entry5.o ABSOLUTE
    ../clib/microlib/init/entry.s            0x00000000   Number         0  entry9a.o ABSOLUTE
    ../clib/microlib/init/entry.s            0x00000000   Number         0  entry8b.o ABSOLUTE
    ../clib/microlib/init/entry.s            0x00000000   Number         0  entry8a.o ABSOLUTE
    ../clib/microlib/init/entry.s            0x00000000   Number         0  entry7b.o ABSOLUTE
    ../clib/microlib/init/entry.s            0x00000000   Number         0  entry7a.o ABSOLUTE
    ../clib/microlib/init/entry.s            0x00000000   Number         0  entry.o ABSOLUTE
    ../clib/microlib/init/entry.s            0x00000000   Number         0  entry11b.o ABSOLUTE
    ../clib/microlib/init/entry.s            0x00000000   Number         0  entry2.o ABSOLUTE
    ../clib/microlib/init/entry.s            0x00000000   Number         0  entry11a.o ABSOLUTE
    ../clib/microlib/longlong.c              0x00000000   Number         0  llushr.o ABSOLUTE
    ../clib/microlib/longlong.c              0x00000000   Number         0  llshl.o ABSOLUTE
    ../clib/microlib/string/memset.c         0x00000000   Number         0  memseta.o ABSOLUTE
    ../clib/microlib/string/strlen.c         0x00000000   Number         0  strlen.o ABSOLUTE
    ..\Drivers\STM32F4xx_HAL_Driver\Src\stm32f4xx_hal.c 0x00000000   Number         0  stm32f4xx_hal.o ABSOLUTE
    ..\Drivers\STM32F4xx_HAL_Driver\Src\stm32f4xx_hal_cortex.c 0x00000000   Number         0  stm32f4xx_hal_cortex.o ABSOLUTE
    ..\Drivers\STM32F4xx_HAL_Driver\Src\stm32f4xx_hal_dma.c 0x00000000   Number         0  stm32f4xx_hal_dma.o ABSOLUTE
    ..\Drivers\STM32F4xx_HAL_Driver\Src\stm32f4xx_hal_dma_ex.c 0x00000000   Number         0  stm32f4xx_hal_dma_ex.o ABSOLUTE
    ..\Drivers\STM32F4xx_HAL_Driver\Src\stm32f4xx_hal_flash.c 0x00000000   Number         0  stm32f4xx_hal_flash.o ABSOLUTE
    ..\Drivers\STM32F4xx_HAL_Driver\Src\stm32f4xx_hal_flash_ex.c 0x00000000   Number         0  stm32f4xx_hal_flash_ex.o ABSOLUTE
    ..\Drivers\STM32F4xx_HAL_Driver\Src\stm32f4xx_hal_flash_ramfunc.c 0x00000000   Number         0  stm32f4xx_hal_flash_ramfunc.o ABSOLUTE
    ..\Drivers\STM32F4xx_HAL_Driver\Src\stm32f4xx_hal_gpio.c 0x00000000   Number         0  stm32f4xx_hal_gpio.o ABSOLUTE
    ..\Drivers\STM32F4xx_HAL_Driver\Src\stm32f4xx_hal_i2c.c 0x00000000   Number         0  stm32f4xx_hal_i2c.o ABSOLUTE
    ..\Drivers\STM32F4xx_HAL_Driver\Src\stm32f4xx_hal_i2c_ex.c 0x00000000   Number         0  stm32f4xx_hal_i2c_ex.o ABSOLUTE
    ..\Drivers\STM32F4xx_HAL_Driver\Src\stm32f4xx_hal_pwr.c 0x00000000   Number         0  stm32f4xx_hal_pwr.o ABSOLUTE
    ..\Drivers\STM32F4xx_HAL_Driver\Src\stm32f4xx_hal_pwr_ex.c 0x00000000   Number         0  stm32f4xx_hal_pwr_ex.o ABSOLUTE
    ..\Drivers\STM32F4xx_HAL_Driver\Src\stm32f4xx_hal_rcc.c 0x00000000   Number         0  stm32f4xx_hal_rcc.o ABSOLUTE
    ..\Drivers\STM32F4xx_HAL_Driver\Src\stm32f4xx_hal_rcc_ex.c 0x00000000   Number         0  stm32f4xx_hal_rcc_ex.o ABSOLUTE
    ..\Drivers\STM32F4xx_HAL_Driver\Src\stm32f4xx_hal_spi.c 0x00000000   Number         0  stm32f4xx_hal_spi.o ABSOLUTE
    ..\Drivers\STM32F4xx_HAL_Driver\Src\stm32f4xx_hal_sram.c 0x00000000   Number         0  stm32f4xx_hal_sram.o ABSOLUTE
    ..\Drivers\STM32F4xx_HAL_Driver\Src\stm32f4xx_hal_tim.c 0x00000000   Number         0  stm32f4xx_hal_tim.o ABSOLUTE
    ..\Drivers\STM32F4xx_HAL_Driver\Src\stm32f4xx_hal_tim_ex.c 0x00000000   Number         0  stm32f4xx_hal_tim_ex.o ABSOLUTE
    ..\Drivers\STM32F4xx_HAL_Driver\Src\stm32f4xx_hal_uart.c 0x00000000   Number         0  stm32f4xx_hal_uart.o ABSOLUTE
    ..\Drivers\STM32F4xx_HAL_Driver\Src\stm32f4xx_ll_fsmc.c 0x00000000   Number         0  stm32f4xx_ll_fsmc.o ABSOLUTE
    ..\Src\main.c                            0x00000000   Number         0  main.o ABSOLUTE
    ..\Src\ssd1963_fsmc.c                    0x00000000   Number         0  ssd1963_fsmc.o ABSOLUTE
    ..\Src\stm32f4xx_hal_msp.c               0x00000000   Number         0  stm32f4xx_hal_msp.o ABSOLUTE
    ..\Src\stm32f4xx_it.c                    0x00000000   Number         0  stm32f4xx_it.o ABSOLUTE
    ..\Src\system_stm32f4xx.c                0x00000000   Number         0  system_stm32f4xx.o ABSOLUTE
    ..\Src\xpt2046.c                         0x00000000   Number         0  xpt2046.o ABSOLUTE
    ..\\Src\\ssd1963_fsmc.c                  0x00000000   Number         0  ssd1963_fsmc.o ABSOLUTE
    ..\\Src\\xpt2046.c                       0x00000000   Number         0  xpt2046.o ABSOLUTE
    dc.s                                     0x00000000   Number         0  dc.o ABSOLUTE
    handlers.s                               0x00000000   Number         0  handlers.o ABSOLUTE
    init.s                                   0x00000000   Number         0  init.o ABSOLUTE
    startup_stm32f407xx.s                    0x00000000   Number         0  startup_stm32f407xx.o ABSOLUTE
    RESET                                    0x08000000   Section      392  startup_stm32f407xx.o(RESET)
    .ARM.Collect$$$$00000000                 0x08000188   Section        0  entry.o(.ARM.Collect$$$$00000000)
    .ARM.Collect$$$$00000001                 0x08000188   Section        4  entry2.o(.ARM.Collect$$$$00000001)
    .ARM.Collect$$$$00000004                 0x0800018c   Section        4  entry5.o(.ARM.Collect$$$$00000004)
    .ARM.Collect$$$$00000008                 0x08000190   Section        0  entry7b.o(.ARM.Collect$$$$00000008)
    .ARM.Collect$$$$0000000A                 0x08000190   Section        0  entry8b.o(.ARM.Collect$$$$0000000A)
    .ARM.Collect$$$$0000000B                 0x08000190   Section        8  entry9a.o(.ARM.Collect$$$$0000000B)
    .ARM.Collect$$$$0000000D                 0x08000198   Section        0  entry10a.o(.ARM.Collect$$$$0000000D)
    .ARM.Collect$$$$0000000F                 0x08000198   Section        0  entry11a.o(.ARM.Collect$$$$0000000F)
    .ARM.Collect$$$$00002712                 0x08000198   Section        4  entry2.o(.ARM.Collect$$$$00002712)
    __lit__00000000                          0x08000198   Data           4  entry2.o(.ARM.Collect$$$$00002712)
    .text                                    0x0800019c   Section       36  startup_stm32f407xx.o(.text)
    $v0                                      0x0800019c   Number         0  startup_stm32f407xx.o(.text)
    .text                                    0x080001c0   Section        0  uldiv.o(.text)
    .text                                    0x08000222   Section        0  memseta.o(.text)
    .text                                    0x08000246   Section        0  strlen.o(.text)
    .text                                    0x08000254   Section        0  llshl.o(.text)
    .text                                    0x08000272   Section        0  llushr.o(.text)
    .text                                    0x08000294   Section       36  init.o(.text)
    i.BusFault_Handler                       0x080002b8   Section        0  stm32f4xx_it.o(i.BusFault_Handler)
    i.DebugMon_Handler                       0x080002ba   Section        0  stm32f4xx_it.o(i.DebugMon_Handler)
    i.EXTI3_IRQHandler                       0x080002bc   Section        0  stm32f4xx_it.o(i.EXTI3_IRQHandler)
    i.FSMC_NORSRAM_Extended_Timing_Init      0x080002c4   Section        0  stm32f4xx_ll_fsmc.o(i.FSMC_NORSRAM_Extended_Timing_Init)
    i.FSMC_NORSRAM_Init                      0x08000304   Section        0  stm32f4xx_ll_fsmc.o(i.FSMC_NORSRAM_Init)
    i.FSMC_NORSRAM_Timing_Init               0x08000358   Section        0  stm32f4xx_ll_fsmc.o(i.FSMC_NORSRAM_Timing_Init)
    i.H24_RGB565                             0x0800039c   Section        0  ssd1963_fsmc.o(i.H24_RGB565)
    i.HAL_DMA_Abort_IT                       0x080003c6   Section        0  stm32f4xx_hal_dma.o(i.HAL_DMA_Abort_IT)
    i.HAL_Delay                              0x080003ec   Section        0  stm32f4xx_hal.o(i.HAL_Delay)
    i.HAL_FSMC_MspInit                       0x08000410   Section        0  stm32f4xx_hal_msp.o(i.HAL_FSMC_MspInit)
    HAL_FSMC_MspInit                         0x08000411   Thumb Code    90  stm32f4xx_hal_msp.o(i.HAL_FSMC_MspInit)
    i.HAL_GPIO_EXTI_Callback                 0x0800047c   Section        0  main.o(i.HAL_GPIO_EXTI_Callback)
    i.HAL_GPIO_EXTI_IRQHandler               0x08000490   Section        0  stm32f4xx_hal_gpio.o(i.HAL_GPIO_EXTI_IRQHandler)
    i.HAL_GPIO_Init                          0x080004a8   Section        0  stm32f4xx_hal_gpio.o(i.HAL_GPIO_Init)
    i.HAL_GPIO_WritePin                      0x08000668   Section        0  stm32f4xx_hal_gpio.o(i.HAL_GPIO_WritePin)
    i.HAL_GetTick                            0x08000674   Section        0  stm32f4xx_hal.o(i.HAL_GetTick)
    i.HAL_I2C_Init                           0x08000680   Section        0  stm32f4xx_hal_i2c.o(i.HAL_I2C_Init)
    i.HAL_I2C_MspInit                        0x08000788   Section        0  stm32f4xx_hal_msp.o(i.HAL_I2C_MspInit)
    i.HAL_IncTick                            0x08000828   Section        0  stm32f4xx_hal.o(i.HAL_IncTick)
    i.HAL_Init                               0x08000838   Section        0  stm32f4xx_hal.o(i.HAL_Init)
    i.HAL_InitTick                           0x0800086c   Section        0  stm32f4xx_hal.o(i.HAL_InitTick)
    i.HAL_MspInit                            0x080008ac   Section        0  stm32f4xx_hal_msp.o(i.HAL_MspInit)
    i.HAL_NVIC_EnableIRQ                     0x080008dc   Section        0  stm32f4xx_hal_cortex.o(i.HAL_NVIC_EnableIRQ)
    i.HAL_NVIC_SetPriority                   0x080008f4   Section        0  stm32f4xx_hal_cortex.o(i.HAL_NVIC_SetPriority)
    i.HAL_NVIC_SetPriorityGrouping           0x08000934   Section        0  stm32f4xx_hal_cortex.o(i.HAL_NVIC_SetPriorityGrouping)
    i.HAL_RCC_ClockConfig                    0x08000958   Section        0  stm32f4xx_hal_rcc.o(i.HAL_RCC_ClockConfig)
    i.HAL_RCC_GetPCLK1Freq                   0x08000a88   Section        0  stm32f4xx_hal_rcc.o(i.HAL_RCC_GetPCLK1Freq)
    i.HAL_RCC_GetPCLK2Freq                   0x08000aa8   Section        0  stm32f4xx_hal_rcc.o(i.HAL_RCC_GetPCLK2Freq)
    i.HAL_RCC_GetSysClockFreq                0x08000ac8   Section        0  stm32f4xx_hal_rcc.o(i.HAL_RCC_GetSysClockFreq)
    i.HAL_RCC_OscConfig                      0x08000b28   Section        0  stm32f4xx_hal_rcc.o(i.HAL_RCC_OscConfig)
    i.HAL_SPI_ErrorCallback                  0x08000e3c   Section        0  stm32f4xx_hal_spi.o(i.HAL_SPI_ErrorCallback)
    i.HAL_SPI_IRQHandler                     0x08000e40   Section        0  stm32f4xx_hal_spi.o(i.HAL_SPI_IRQHandler)
    i.HAL_SPI_Init                           0x08000f14   Section        0  stm32f4xx_hal_spi.o(i.HAL_SPI_Init)
    i.HAL_SPI_MspInit                        0x08000f94   Section        0  stm32f4xx_hal_msp.o(i.HAL_SPI_MspInit)
    i.HAL_SPI_Transmit                       0x08001038   Section        0  stm32f4xx_hal_spi.o(i.HAL_SPI_Transmit)
    i.HAL_SPI_TransmitReceive                0x0800119c   Section        0  stm32f4xx_hal_spi.o(i.HAL_SPI_TransmitReceive)
    i.HAL_SRAM_Init                          0x08001366   Section        0  stm32f4xx_hal_sram.o(i.HAL_SRAM_Init)
    i.HAL_SRAM_MspInit                       0x080013bc   Section        0  stm32f4xx_hal_msp.o(i.HAL_SRAM_MspInit)
    i.HAL_SYSTICK_Config                     0x080013c0   Section        0  stm32f4xx_hal_cortex.o(i.HAL_SYSTICK_Config)
    i.HAL_TIMEx_BreakCallback                0x080013e8   Section        0  stm32f4xx_hal_tim_ex.o(i.HAL_TIMEx_BreakCallback)
    i.HAL_TIMEx_CommutationCallback          0x080013ea   Section        0  stm32f4xx_hal_tim_ex.o(i.HAL_TIMEx_CommutationCallback)
    i.HAL_TIMEx_MasterConfigSynchronization  0x080013ec   Section        0  stm32f4xx_hal_tim_ex.o(i.HAL_TIMEx_MasterConfigSynchronization)
    i.HAL_TIM_Base_Init                      0x0800143c   Section        0  stm32f4xx_hal_tim.o(i.HAL_TIM_Base_Init)
    i.HAL_TIM_Base_MspInit                   0x08001474   Section        0  stm32f4xx_hal_msp.o(i.HAL_TIM_Base_MspInit)
    i.HAL_TIM_Base_Start                     0x080014c0   Section        0  stm32f4xx_hal_tim.o(i.HAL_TIM_Base_Start)
    i.HAL_TIM_Base_Start_IT                  0x080014da   Section        0  stm32f4xx_hal_tim.o(i.HAL_TIM_Base_Start_IT)
    i.HAL_TIM_ConfigClockSource              0x080014f2   Section        0  stm32f4xx_hal_tim.o(i.HAL_TIM_ConfigClockSource)
    i.HAL_TIM_IC_CaptureCallback             0x080015e2   Section        0  stm32f4xx_hal_tim.o(i.HAL_TIM_IC_CaptureCallback)
    i.HAL_TIM_IRQHandler                     0x080015e4   Section        0  stm32f4xx_hal_tim.o(i.HAL_TIM_IRQHandler)
    i.HAL_TIM_OC_DelayElapsedCallback        0x0800174a   Section        0  stm32f4xx_hal_tim.o(i.HAL_TIM_OC_DelayElapsedCallback)
    i.HAL_TIM_PWM_PulseFinishedCallback      0x0800174c   Section        0  stm32f4xx_hal_tim.o(i.HAL_TIM_PWM_PulseFinishedCallback)
    i.HAL_TIM_PeriodElapsedCallback          0x0800174e   Section        0  stm32f4xx_hal_tim.o(i.HAL_TIM_PeriodElapsedCallback)
    i.HAL_TIM_TriggerCallback                0x08001750   Section        0  stm32f4xx_hal_tim.o(i.HAL_TIM_TriggerCallback)
    i.HAL_UART_Init                          0x08001752   Section        0  stm32f4xx_hal_uart.o(i.HAL_UART_Init)
    i.HAL_UART_MspInit                       0x080017b4   Section        0  stm32f4xx_hal_msp.o(i.HAL_UART_MspInit)
    i.HAL_UART_Transmit                      0x08001848   Section        0  stm32f4xx_hal_uart.o(i.HAL_UART_Transmit)
    i.HardFault_Handler                      0x08001902   Section        0  stm32f4xx_it.o(i.HardFault_Handler)
    i.LCD_Char                               0x08001904   Section        0  ssd1963_fsmc.o(i.LCD_Char)
    LCD_Char                                 0x08001905   Thumb Code   194  ssd1963_fsmc.o(i.LCD_Char)
    i.LCD_Circle                             0x080019c6   Section        0  ssd1963_fsmc.o(i.LCD_Circle)
    i.LCD_Circle_Fill_Helper                 0x08001af6   Section        0  ssd1963_fsmc.o(i.LCD_Circle_Fill_Helper)
    i.LCD_Circle_Helper                      0x08001bea   Section        0  ssd1963_fsmc.o(i.LCD_Circle_Helper)
    i.LCD_Ellipse                            0x08001d00   Section        0  ssd1963_fsmc.o(i.LCD_Ellipse)
    i.LCD_Font                               0x08001fa8   Section        0  ssd1963_fsmc.o(i.LCD_Font)
    i.LCD_Init                               0x08002036   Section        0  ssd1963_fsmc.o(i.LCD_Init)
    i.LCD_Line                               0x0800214e   Section        0  ssd1963_fsmc.o(i.LCD_Line)
    i.LCD_Rect                               0x080021c8   Section        0  ssd1963_fsmc.o(i.LCD_Rect)
    i.LCD_Rect_Fill                          0x0800221a   Section        0  ssd1963_fsmc.o(i.LCD_Rect_Fill)
    i.LCD_Rect_Round                         0x08002252   Section        0  ssd1963_fsmc.o(i.LCD_Rect_Round)
    i.LCD_Rect_Round_Fill                    0x08002330   Section        0  ssd1963_fsmc.o(i.LCD_Rect_Round_Fill)
    i.LCD_Send_Dat                           0x08002394   Section        0  ssd1963_fsmc.o(i.LCD_Send_Dat)
    i.LCD_Triangle                           0x080023a8   Section        0  ssd1963_fsmc.o(i.LCD_Triangle)
    i.LCD_Triangle_Fill                      0x080023e8   Section        0  ssd1963_fsmc.o(i.LCD_Triangle_Fill)
    i.LCD_Window                             0x080024aa   Section        0  ssd1963_fsmc.o(i.LCD_Window)
    i.MX_FSMC_Init                           0x080024f4   Section        0  main.o(i.MX_FSMC_Init)
    MX_FSMC_Init                             0x080024f5   Thumb Code    90  main.o(i.MX_FSMC_Init)
    i.MX_GPIO_Init                           0x08002558   Section        0  main.o(i.MX_GPIO_Init)
    MX_GPIO_Init                             0x08002559   Thumb Code   292  main.o(i.MX_GPIO_Init)
    i.MX_SPI3_Init                           0x08002698   Section        0  main.o(i.MX_SPI3_Init)
    MX_SPI3_Init                             0x08002699   Thumb Code    56  main.o(i.MX_SPI3_Init)
    i.MX_TIM1_Init                           0x080026d8   Section        0  main.o(i.MX_TIM1_Init)
    MX_TIM1_Init                             0x080026d9   Thumb Code    90  main.o(i.MX_TIM1_Init)
    i.MemManage_Handler                      0x0800273c   Section        0  stm32f4xx_it.o(i.MemManage_Handler)
    i.NMI_Handler                            0x0800273e   Section        0  stm32f4xx_it.o(i.NMI_Handler)
    i.NVIC_SetPriority                       0x08002740   Section        0  stm32f4xx_hal_cortex.o(i.NVIC_SetPriority)
    NVIC_SetPriority                         0x08002741   Thumb Code    32  stm32f4xx_hal_cortex.o(i.NVIC_SetPriority)
    i.PendSV_Handler                         0x08002760   Section        0  stm32f4xx_it.o(i.PendSV_Handler)
    i.SPI3_IRQHandler                        0x08002764   Section        0  stm32f4xx_it.o(i.SPI3_IRQHandler)
    i.SPI_CheckFlag_BSY                      0x08002770   Section        0  stm32f4xx_hal_spi.o(i.SPI_CheckFlag_BSY)
    SPI_CheckFlag_BSY                        0x08002771   Thumb Code    32  stm32f4xx_hal_spi.o(i.SPI_CheckFlag_BSY)
    i.SPI_DMAAbortOnError                    0x08002790   Section        0  stm32f4xx_hal_spi.o(i.SPI_DMAAbortOnError)
    SPI_DMAAbortOnError                      0x08002791   Thumb Code    16  stm32f4xx_hal_spi.o(i.SPI_DMAAbortOnError)
    i.SPI_WaitFlagStateUntilTimeout          0x080027a0   Section        0  stm32f4xx_hal_spi.o(i.SPI_WaitFlagStateUntilTimeout)
    SPI_WaitFlagStateUntilTimeout            0x080027a1   Thumb Code   150  stm32f4xx_hal_spi.o(i.SPI_WaitFlagStateUntilTimeout)
    i.SVC_Handler                            0x08002836   Section        0  stm32f4xx_it.o(i.SVC_Handler)
    i.SysTick_Handler                        0x08002838   Section        0  stm32f4xx_it.o(i.SysTick_Handler)
    i.SystemClock_Config                     0x08002850   Section        0  main.o(i.SystemClock_Config)
    i.SystemInit                             0x080028e0   Section        0  system_stm32f4xx.o(i.SystemInit)
    i.TIM1_BRK_TIM9_IRQHandler               0x08002934   Section        0  stm32f4xx_it.o(i.TIM1_BRK_TIM9_IRQHandler)
    i.TIM1_UP_TIM10_IRQHandler               0x08002954   Section        0  stm32f4xx_it.o(i.TIM1_UP_TIM10_IRQHandler)
    i.TIM_Base_SetConfig                     0x08002974   Section        0  stm32f4xx_hal_tim.o(i.TIM_Base_SetConfig)
    i.TIM_ETR_SetConfig                      0x08002a34   Section        0  stm32f4xx_hal_tim.o(i.TIM_ETR_SetConfig)
    TIM_ETR_SetConfig                        0x08002a35   Thumb Code    20  stm32f4xx_hal_tim.o(i.TIM_ETR_SetConfig)
    i.TIM_ITRx_SetConfig                     0x08002a48   Section        0  stm32f4xx_hal_tim.o(i.TIM_ITRx_SetConfig)
    TIM_ITRx_SetConfig                       0x08002a49   Thumb Code    16  stm32f4xx_hal_tim.o(i.TIM_ITRx_SetConfig)
    i.TIM_TI1_ConfigInputStage               0x08002a58   Section        0  stm32f4xx_hal_tim.o(i.TIM_TI1_ConfigInputStage)
    TIM_TI1_ConfigInputStage                 0x08002a59   Thumb Code    34  stm32f4xx_hal_tim.o(i.TIM_TI1_ConfigInputStage)
    i.TIM_TI2_ConfigInputStage               0x08002a7a   Section        0  stm32f4xx_hal_tim.o(i.TIM_TI2_ConfigInputStage)
    TIM_TI2_ConfigInputStage                 0x08002a7b   Thumb Code    36  stm32f4xx_hal_tim.o(i.TIM_TI2_ConfigInputStage)
    i.UART_SetConfig                         0x08002aa0   Section        0  stm32f4xx_hal_uart.o(i.UART_SetConfig)
    UART_SetConfig                           0x08002aa1   Thumb Code   676  stm32f4xx_hal_uart.o(i.UART_SetConfig)
    i.UART_WaitOnFlagUntilTimeout            0x08002d4c   Section        0  stm32f4xx_hal_uart.o(i.UART_WaitOnFlagUntilTimeout)
    UART_WaitOnFlagUntilTimeout              0x08002d4d   Thumb Code    98  stm32f4xx_hal_uart.o(i.UART_WaitOnFlagUntilTimeout)
    i.UsageFault_Handler                     0x08002dae   Section        0  stm32f4xx_it.o(i.UsageFault_Handler)
    i.X                                      0x08002db0   Section        0  xpt2046.o(i.X)
    X                                        0x08002db1   Thumb Code    60  xpt2046.o(i.X)
    i.XPT2046_Init                           0x08002dfc   Section        0  xpt2046.o(i.XPT2046_Init)
    i.Y                                      0x08002e30   Section        0  xpt2046.o(i.Y)
    Y                                        0x08002e31   Thumb Code    64  xpt2046.o(i.Y)
    i.__scatterload_copy                     0x08002e80   Section       14  handlers.o(i.__scatterload_copy)
    i.__scatterload_null                     0x08002e8e   Section        2  handlers.o(i.__scatterload_null)
    i.__scatterload_zeroinit                 0x08002e90   Section       14  handlers.o(i.__scatterload_zeroinit)
    i.getRaw                                 0x08002ea0   Section        0  xpt2046.o(i.getRaw)
    i.getX                                   0x08002ef8   Section        0  xpt2046.o(i.getX)
    i.getY                                   0x08002f20   Section        0  xpt2046.o(i.getY)
    i.main                                   0x08002f48   Section        0  main.o(i.main)
    i.remap                                  0x08003338   Section        0  xpt2046.o(i.remap)
    remap                                    0x08003339   Thumb Code    26  xpt2046.o(i.remap)
    .constdata                               0x08003354   Section        8  xpt2046.o(.constdata)
    .constdata                               0x0800335c   Section      418  main.o(.constdata)
    .constdata                               0x080034fe   Section      760  main.o(.constdata)
    .constdata                               0x080037f8   Section       60  main.o(.constdata)
    .constdata                               0x08003834   Section      271  main.o(.constdata)
    .constdata                               0x08003944   Section      760  main.o(.constdata)
    .constdata                               0x08003c3c   Section      414  main.o(.constdata)
    .constdata                               0x08003dda   Section      760  main.o(.constdata)
    .constdata                               0x080040d2   Section     1162  main.o(.constdata)
    .constdata                               0x0800455c   Section      760  main.o(.constdata)
    .constdata                               0x08004854   Section     1395  main.o(.constdata)
    .constdata                               0x08004dc8   Section      104  main.o(.constdata)
    .constdata                               0x08004e30   Section       16  system_stm32f4xx.o(.constdata)
    .constdata                               0x08004e40   Section        8  system_stm32f4xx.o(.constdata)
    .data                                    0x20000000   Section       16  main.o(.data)
    .data                                    0x20000010   Section        8  main.o(.data)
    .data                                    0x20000018   Section        8  stm32f4xx_hal_msp.o(.data)
    FSMC_Initialized                         0x20000018   Data           4  stm32f4xx_hal_msp.o(.data)
    FSMC_DeInitialized                       0x2000001c   Data           4  stm32f4xx_hal_msp.o(.data)
    .data                                    0x20000020   Section       12  stm32f4xx_hal.o(.data)
    .data                                    0x2000002c   Section        4  system_stm32f4xx.o(.data)
    .bss                                     0x20000030   Section      524  main.o(.bss)
    STACK                                    0x20000240   Section     1024  startup_stm32f407xx.o(STACK)

    Global Symbols

    Symbol Name                              Value     Ov Type        Size  Object(Section)

    BuildAttributes$$THM_ISAv4$E$P$D$K$B$S$7EM$VFPi3$EXTD16$VFPS$VFMA$PE$A:L22UL41UL21$X:L11$S22US41US21$IEEE1$IW$USESV6$~STKCKD$USESV7$~SHL$OSPACE$EBA8$MICROLIB$REQ8$PRES8$EABIv2 0x00000000   Number         0  anon$$obj.o ABSOLUTE
    __ARM_use_no_argv                        0x00000000   Number         0  main.o ABSOLUTE
    __cpp_initialize__aeabi_                  - Undefined Weak Reference
    __cxa_finalize                            - Undefined Weak Reference
    __decompress                              - Undefined Weak Reference
    _clock_init                               - Undefined Weak Reference
    _microlib_exit                            - Undefined Weak Reference
    __Vectors_Size                           0x00000188   Number         0  startup_stm32f407xx.o ABSOLUTE
    __Vectors                                0x08000000   Data           4  startup_stm32f407xx.o(RESET)
    __Vectors_End                            0x08000188   Data           0  startup_stm32f407xx.o(RESET)
    __main                                   0x08000189   Thumb Code     0  entry.o(.ARM.Collect$$$$00000000)
    _main_stk                                0x08000189   Thumb Code     0  entry2.o(.ARM.Collect$$$$00000001)
    _main_scatterload                        0x0800018d   Thumb Code     0  entry5.o(.ARM.Collect$$$$00000004)
    __main_after_scatterload                 0x08000191   Thumb Code     0  entry5.o(.ARM.Collect$$$$00000004)
    _main_clock                              0x08000191   Thumb Code     0  entry7b.o(.ARM.Collect$$$$00000008)
    _main_cpp_init                           0x08000191   Thumb Code     0  entry8b.o(.ARM.Collect$$$$0000000A)
    _main_init                               0x08000191   Thumb Code     0  entry9a.o(.ARM.Collect$$$$0000000B)
    __rt_final_cpp                           0x08000199   Thumb Code     0  entry10a.o(.ARM.Collect$$$$0000000D)
    __rt_final_exit                          0x08000199   Thumb Code     0  entry11a.o(.ARM.Collect$$$$0000000F)
    Reset_Handler                            0x0800019d   Thumb Code     8  startup_stm32f407xx.o(.text)
    ADC_IRQHandler                           0x080001b7   Thumb Code     0  startup_stm32f407xx.o(.text)
    CAN1_RX0_IRQHandler                      0x080001b7   Thumb Code     0  startup_stm32f407xx.o(.text)
    CAN1_RX1_IRQHandler                      0x080001b7   Thumb Code     0  startup_stm32f407xx.o(.text)
    CAN1_SCE_IRQHandler                      0x080001b7   Thumb Code     0  startup_stm32f407xx.o(.text)
    CAN1_TX_IRQHandler                       0x080001b7   Thumb Code     0  startup_stm32f407xx.o(.text)
    CAN2_RX0_IRQHandler                      0x080001b7   Thumb Code     0  startup_stm32f407xx.o(.text)
    CAN2_RX1_IRQHandler                      0x080001b7   Thumb Code     0  startup_stm32f407xx.o(.text)
    CAN2_SCE_IRQHandler                      0x080001b7   Thumb Code     0  startup_stm32f407xx.o(.text)
    CAN2_TX_IRQHandler                       0x080001b7   Thumb Code     0  startup_stm32f407xx.o(.text)
    DCMI_IRQHandler                          0x080001b7   Thumb Code     0  startup_stm32f407xx.o(.text)
    DMA1_Stream0_IRQHandler                  0x080001b7   Thumb Code     0  startup_stm32f407xx.o(.text)
    DMA1_Stream1_IRQHandler                  0x080001b7   Thumb Code     0  startup_stm32f407xx.o(.text)
    DMA1_Stream2_IRQHandler                  0x080001b7   Thumb Code     0  startup_stm32f407xx.o(.text)
    DMA1_Stream3_IRQHandler                  0x080001b7   Thumb Code     0  startup_stm32f407xx.o(.text)
    DMA1_Stream4_IRQHandler                  0x080001b7   Thumb Code     0  startup_stm32f407xx.o(.text)
    DMA1_Stream5_IRQHandler                  0x080001b7   Thumb Code     0  startup_stm32f407xx.o(.text)
    DMA1_Stream6_IRQHandler                  0x080001b7   Thumb Code     0  startup_stm32f407xx.o(.text)
    DMA1_Stream7_IRQHandler                  0x080001b7   Thumb Code     0  startup_stm32f407xx.o(.text)
    DMA2_Stream0_IRQHandler                  0x080001b7   Thumb Code     0  startup_stm32f407xx.o(.text)
    DMA2_Stream1_IRQHandler                  0x080001b7   Thumb Code     0  startup_stm32f407xx.o(.text)
    DMA2_Stream2_IRQHandler                  0x080001b7   Thumb Code     0  startup_stm32f407xx.o(.text)
    DMA2_Stream3_IRQHandler                  0x080001b7   Thumb Code     0  startup_stm32f407xx.o(.text)
    DMA2_Stream4_IRQHandler                  0x080001b7   Thumb Code     0  startup_stm32f407xx.o(.text)
    DMA2_Stream5_IRQHandler                  0x080001b7   Thumb Code     0  startup_stm32f407xx.o(.text)
    DMA2_Stream6_IRQHandler                  0x080001b7   Thumb Code     0  startup_stm32f407xx.o(.text)
    DMA2_Stream7_IRQHandler                  0x080001b7   Thumb Code     0  startup_stm32f407xx.o(.text)
    ETH_IRQHandler                           0x080001b7   Thumb Code     0  startup_stm32f407xx.o(.text)
    ETH_WKUP_IRQHandler                      0x080001b7   Thumb Code     0  startup_stm32f407xx.o(.text)
    EXTI0_IRQHandler                         0x080001b7   Thumb Code     0  startup_stm32f407xx.o(.text)
    EXTI15_10_IRQHandler                     0x080001b7   Thumb Code     0  startup_stm32f407xx.o(.text)
    EXTI1_IRQHandler                         0x080001b7   Thumb Code     0  startup_stm32f407xx.o(.text)
    EXTI2_IRQHandler                         0x080001b7   Thumb Code     0  startup_stm32f407xx.o(.text)
    EXTI4_IRQHandler                         0x080001b7   Thumb Code     0  startup_stm32f407xx.o(.text)
    EXTI9_5_IRQHandler                       0x080001b7   Thumb Code     0  startup_stm32f407xx.o(.text)
    FLASH_IRQHandler                         0x080001b7   Thumb Code     0  startup_stm32f407xx.o(.text)
    FMC_IRQHandler                           0x080001b7   Thumb Code     0  startup_stm32f407xx.o(.text)
    FPU_IRQHandler                           0x080001b7   Thumb Code     0  startup_stm32f407xx.o(.text)
    HASH_RNG_IRQHandler                      0x080001b7   Thumb Code     0  startup_stm32f407xx.o(.text)
    I2C1_ER_IRQHandler                       0x080001b7   Thumb Code     0  startup_stm32f407xx.o(.text)
    I2C1_EV_IRQHandler                       0x080001b7   Thumb Code     0  startup_stm32f407xx.o(.text)
    I2C2_ER_IRQHandler                       0x080001b7   Thumb Code     0  startup_stm32f407xx.o(.text)
    I2C2_EV_IRQHandler                       0x080001b7   Thumb Code     0  startup_stm32f407xx.o(.text)
    I2C3_ER_IRQHandler                       0x080001b7   Thumb Code     0  startup_stm32f407xx.o(.text)
    I2C3_EV_IRQHandler                       0x080001b7   Thumb Code     0  startup_stm32f407xx.o(.text)
    OTG_FS_IRQHandler                        0x080001b7   Thumb Code     0  startup_stm32f407xx.o(.text)
    OTG_FS_WKUP_IRQHandler                   0x080001b7   Thumb Code     0  startup_stm32f407xx.o(.text)
    OTG_HS_EP1_IN_IRQHandler                 0x080001b7   Thumb Code     0  startup_stm32f407xx.o(.text)
    OTG_HS_EP1_OUT_IRQHandler                0x080001b7   Thumb Code     0  startup_stm32f407xx.o(.text)
    OTG_HS_IRQHandler                        0x080001b7   Thumb Code     0  startup_stm32f407xx.o(.text)
    OTG_HS_WKUP_IRQHandler                   0x080001b7   Thumb Code     0  startup_stm32f407xx.o(.text)
    PVD_IRQHandler                           0x080001b7   Thumb Code     0  startup_stm32f407xx.o(.text)
    RCC_IRQHandler                           0x080001b7   Thumb Code     0  startup_stm32f407xx.o(.text)
    RTC_Alarm_IRQHandler                     0x080001b7   Thumb Code     0  startup_stm32f407xx.o(.text)
    RTC_WKUP_IRQHandler                      0x080001b7   Thumb Code     0  startup_stm32f407xx.o(.text)
    SDIO_IRQHandler                          0x080001b7   Thumb Code     0  startup_stm32f407xx.o(.text)
    SPI1_IRQHandler                          0x080001b7   Thumb Code     0  startup_stm32f407xx.o(.text)
    SPI2_IRQHandler                          0x080001b7   Thumb Code     0  startup_stm32f407xx.o(.text)
    TAMP_STAMP_IRQHandler                    0x080001b7   Thumb Code     0  startup_stm32f407xx.o(.text)
    TIM1_CC_IRQHandler                       0x080001b7   Thumb Code     0  startup_stm32f407xx.o(.text)
    TIM1_TRG_COM_TIM11_IRQHandler            0x080001b7   Thumb Code     0  startup_stm32f407xx.o(.text)
    TIM2_IRQHandler                          0x080001b7   Thumb Code     0  startup_stm32f407xx.o(.text)
    TIM3_IRQHandler                          0x080001b7   Thumb Code     0  startup_stm32f407xx.o(.text)
    TIM4_IRQHandler                          0x080001b7   Thumb Code     0  startup_stm32f407xx.o(.text)
    TIM5_IRQHandler                          0x080001b7   Thumb Code     0  startup_stm32f407xx.o(.text)
    TIM6_DAC_IRQHandler                      0x080001b7   Thumb Code     0  startup_stm32f407xx.o(.text)
    TIM7_IRQHandler                          0x080001b7   Thumb Code     0  startup_stm32f407xx.o(.text)
    TIM8_BRK_TIM12_IRQHandler                0x080001b7   Thumb Code     0  startup_stm32f407xx.o(.text)
    TIM8_CC_IRQHandler                       0x080001b7   Thumb Code     0  startup_stm32f407xx.o(.text)
    TIM8_TRG_COM_TIM14_IRQHandler            0x080001b7   Thumb Code     0  startup_stm32f407xx.o(.text)
    TIM8_UP_TIM13_IRQHandler                 0x080001b7   Thumb Code     0  startup_stm32f407xx.o(.text)
    UART4_IRQHandler                         0x080001b7   Thumb Code     0  startup_stm32f407xx.o(.text)
    UART5_IRQHandler                         0x080001b7   Thumb Code     0  startup_stm32f407xx.o(.text)
    USART1_IRQHandler                        0x080001b7   Thumb Code     0  startup_stm32f407xx.o(.text)
    USART2_IRQHandler                        0x080001b7   Thumb Code     0  startup_stm32f407xx.o(.text)
    USART3_IRQHandler                        0x080001b7   Thumb Code     0  startup_stm32f407xx.o(.text)
    USART6_IRQHandler                        0x080001b7   Thumb Code     0  startup_stm32f407xx.o(.text)
    WWDG_IRQHandler                          0x080001b7   Thumb Code     0  startup_stm32f407xx.o(.text)
    __aeabi_uldivmod                         0x080001c1   Thumb Code    98  uldiv.o(.text)
    __aeabi_memset                           0x08000223   Thumb Code    14  memseta.o(.text)
    __aeabi_memset4                          0x08000223   Thumb Code     0  memseta.o(.text)
    __aeabi_memset8                          0x08000223   Thumb Code     0  memseta.o(.text)
    __aeabi_memclr                           0x08000231   Thumb Code     4  memseta.o(.text)
    __aeabi_memclr4                          0x08000231   Thumb Code     0  memseta.o(.text)
    __aeabi_memclr8                          0x08000231   Thumb Code     0  memseta.o(.text)
    _memset$wrapper                          0x08000235   Thumb Code    18  memseta.o(.text)
    strlen                                   0x08000247   Thumb Code    14  strlen.o(.text)
    __aeabi_llsl                             0x08000255   Thumb Code    30  llshl.o(.text)
    _ll_shift_l                              0x08000255   Thumb Code     0  llshl.o(.text)
    __aeabi_llsr                             0x08000273   Thumb Code    32  llushr.o(.text)
    _ll_ushift_r                             0x08000273   Thumb Code     0  llushr.o(.text)
    __scatterload                            0x08000295   Thumb Code    28  init.o(.text)
    __scatterload_rt2                        0x08000295   Thumb Code     0  init.o(.text)
    BusFault_Handler                         0x080002b9   Thumb Code     2  stm32f4xx_it.o(i.BusFault_Handler)
    DebugMon_Handler                         0x080002bb   Thumb Code     2  stm32f4xx_it.o(i.DebugMon_Handler)
    EXTI3_IRQHandler                         0x080002bd   Thumb Code     6  stm32f4xx_it.o(i.EXTI3_IRQHandler)
    FSMC_NORSRAM_Extended_Timing_Init        0x080002c5   Thumb Code    60  stm32f4xx_ll_fsmc.o(i.FSMC_NORSRAM_Extended_Timing_Init)
    FSMC_NORSRAM_Init                        0x08000305   Thumb Code    80  stm32f4xx_ll_fsmc.o(i.FSMC_NORSRAM_Init)
    FSMC_NORSRAM_Timing_Init                 0x08000359   Thumb Code    64  stm32f4xx_ll_fsmc.o(i.FSMC_NORSRAM_Timing_Init)
    H24_RGB565                               0x0800039d   Thumb Code    42  ssd1963_fsmc.o(i.H24_RGB565)
    HAL_DMA_Abort_IT                         0x080003c7   Thumb Code    36  stm32f4xx_hal_dma.o(i.HAL_DMA_Abort_IT)
    HAL_Delay                                0x080003ed   Thumb Code    32  stm32f4xx_hal.o(i.HAL_Delay)
    HAL_GPIO_EXTI_Callback                   0x0800047d   Thumb Code    16  main.o(i.HAL_GPIO_EXTI_Callback)
    HAL_GPIO_EXTI_IRQHandler                 0x08000491   Thumb Code    18  stm32f4xx_hal_gpio.o(i.HAL_GPIO_EXTI_IRQHandler)
    HAL_GPIO_Init                            0x080004a9   Thumb Code   402  stm32f4xx_hal_gpio.o(i.HAL_GPIO_Init)
    HAL_GPIO_WritePin                        0x08000669   Thumb Code    10  stm32f4xx_hal_gpio.o(i.HAL_GPIO_WritePin)
    HAL_GetTick                              0x08000675   Thumb Code     6  stm32f4xx_hal.o(i.HAL_GetTick)
    HAL_I2C_Init                             0x08000681   Thumb Code   254  stm32f4xx_hal_i2c.o(i.HAL_I2C_Init)
    HAL_I2C_MspInit                          0x08000789   Thumb Code   142  stm32f4xx_hal_msp.o(i.HAL_I2C_MspInit)
    HAL_IncTick                              0x08000829   Thumb Code    12  stm32f4xx_hal.o(i.HAL_IncTick)
    HAL_Init                                 0x08000839   Thumb Code    48  stm32f4xx_hal.o(i.HAL_Init)
    HAL_InitTick                             0x0800086d   Thumb Code    54  stm32f4xx_hal.o(i.HAL_InitTick)
    HAL_MspInit                              0x080008ad   Thumb Code    42  stm32f4xx_hal_msp.o(i.HAL_MspInit)
    HAL_NVIC_EnableIRQ                       0x080008dd   Thumb Code    22  stm32f4xx_hal_cortex.o(i.HAL_NVIC_EnableIRQ)
    HAL_NVIC_SetPriority                     0x080008f5   Thumb Code    60  stm32f4xx_hal_cortex.o(i.HAL_NVIC_SetPriority)
    HAL_NVIC_SetPriorityGrouping             0x08000935   Thumb Code    26  stm32f4xx_hal_cortex.o(i.HAL_NVIC_SetPriorityGrouping)
    HAL_RCC_ClockConfig                      0x08000959   Thumb Code   286  stm32f4xx_hal_rcc.o(i.HAL_RCC_ClockConfig)
    HAL_RCC_GetPCLK1Freq                     0x08000a89   Thumb Code    20  stm32f4xx_hal_rcc.o(i.HAL_RCC_GetPCLK1Freq)
    HAL_RCC_GetPCLK2Freq                     0x08000aa9   Thumb Code    20  stm32f4xx_hal_rcc.o(i.HAL_RCC_GetPCLK2Freq)
    HAL_RCC_GetSysClockFreq                  0x08000ac9   Thumb Code    88  stm32f4xx_hal_rcc.o(i.HAL_RCC_GetSysClockFreq)
    HAL_RCC_OscConfig                        0x08000b29   Thumb Code   766  stm32f4xx_hal_rcc.o(i.HAL_RCC_OscConfig)
    HAL_SPI_ErrorCallback                    0x08000e3d   Thumb Code     2  stm32f4xx_hal_spi.o(i.HAL_SPI_ErrorCallback)
    HAL_SPI_IRQHandler                       0x08000e41   Thumb Code   208  stm32f4xx_hal_spi.o(i.HAL_SPI_IRQHandler)
    HAL_SPI_Init                             0x08000f15   Thumb Code   128  stm32f4xx_hal_spi.o(i.HAL_SPI_Init)
    HAL_SPI_MspInit                          0x08000f95   Thumb Code   148  stm32f4xx_hal_msp.o(i.HAL_SPI_MspInit)
    HAL_SPI_Transmit                         0x08001039   Thumb Code   356  stm32f4xx_hal_spi.o(i.HAL_SPI_Transmit)
    HAL_SPI_TransmitReceive                  0x0800119d   Thumb Code   458  stm32f4xx_hal_spi.o(i.HAL_SPI_TransmitReceive)
    HAL_SRAM_Init                            0x08001367   Thumb Code    86  stm32f4xx_hal_sram.o(i.HAL_SRAM_Init)
    HAL_SRAM_MspInit                         0x080013bd   Thumb Code     4  stm32f4xx_hal_msp.o(i.HAL_SRAM_MspInit)
    HAL_SYSTICK_Config                       0x080013c1   Thumb Code    40  stm32f4xx_hal_cortex.o(i.HAL_SYSTICK_Config)
    HAL_TIMEx_BreakCallback                  0x080013e9   Thumb Code     2  stm32f4xx_hal_tim_ex.o(i.HAL_TIMEx_BreakCallback)
    HAL_TIMEx_CommutationCallback            0x080013eb   Thumb Code     2  stm32f4xx_hal_tim_ex.o(i.HAL_TIMEx_CommutationCallback)
    HAL_TIMEx_MasterConfigSynchronization    0x080013ed   Thumb Code    80  stm32f4xx_hal_tim_ex.o(i.HAL_TIMEx_MasterConfigSynchronization)
    HAL_TIM_Base_Init                        0x0800143d   Thumb Code    54  stm32f4xx_hal_tim.o(i.HAL_TIM_Base_Init)
    HAL_TIM_Base_MspInit                     0x08001475   Thumb Code    66  stm32f4xx_hal_msp.o(i.HAL_TIM_Base_MspInit)
    HAL_TIM_Base_Start                       0x080014c1   Thumb Code    26  stm32f4xx_hal_tim.o(i.HAL_TIM_Base_Start)
    HAL_TIM_Base_Start_IT                    0x080014db   Thumb Code    24  stm32f4xx_hal_tim.o(i.HAL_TIM_Base_Start_IT)
    HAL_TIM_ConfigClockSource                0x080014f3   Thumb Code   240  stm32f4xx_hal_tim.o(i.HAL_TIM_ConfigClockSource)
    HAL_TIM_IC_CaptureCallback               0x080015e3   Thumb Code     2  stm32f4xx_hal_tim.o(i.HAL_TIM_IC_CaptureCallback)
    HAL_TIM_IRQHandler                       0x080015e5   Thumb Code   358  stm32f4xx_hal_tim.o(i.HAL_TIM_IRQHandler)
    HAL_TIM_OC_DelayElapsedCallback          0x0800174b   Thumb Code     2  stm32f4xx_hal_tim.o(i.HAL_TIM_OC_DelayElapsedCallback)
    HAL_TIM_PWM_PulseFinishedCallback        0x0800174d   Thumb Code     2  stm32f4xx_hal_tim.o(i.HAL_TIM_PWM_PulseFinishedCallback)
    HAL_TIM_PeriodElapsedCallback            0x0800174f   Thumb Code     2  stm32f4xx_hal_tim.o(i.HAL_TIM_PeriodElapsedCallback)
    HAL_TIM_TriggerCallback                  0x08001751   Thumb Code     2  stm32f4xx_hal_tim.o(i.HAL_TIM_TriggerCallback)
    HAL_UART_Init                            0x08001753   Thumb Code    98  stm32f4xx_hal_uart.o(i.HAL_UART_Init)
    HAL_UART_MspInit                         0x080017b5   Thumb Code   132  stm32f4xx_hal_msp.o(i.HAL_UART_MspInit)
    HAL_UART_Transmit                        0x08001849   Thumb Code   186  stm32f4xx_hal_uart.o(i.HAL_UART_Transmit)
    HardFault_Handler                        0x08001903   Thumb Code     2  stm32f4xx_it.o(i.HardFault_Handler)
    LCD_Circle                               0x080019c7   Thumb Code   304  ssd1963_fsmc.o(i.LCD_Circle)
    LCD_Circle_Fill_Helper                   0x08001af7   Thumb Code   244  ssd1963_fsmc.o(i.LCD_Circle_Fill_Helper)
    LCD_Circle_Helper                        0x08001beb   Thumb Code   278  ssd1963_fsmc.o(i.LCD_Circle_Helper)
    LCD_Ellipse                              0x08001d01   Thumb Code   680  ssd1963_fsmc.o(i.LCD_Ellipse)
    LCD_Font                                 0x08001fa9   Thumb Code   142  ssd1963_fsmc.o(i.LCD_Font)
    LCD_Init                                 0x08002037   Thumb Code   280  ssd1963_fsmc.o(i.LCD_Init)
    LCD_Line                                 0x0800214f   Thumb Code   122  ssd1963_fsmc.o(i.LCD_Line)
    LCD_Rect                                 0x080021c9   Thumb Code    82  ssd1963_fsmc.o(i.LCD_Rect)
    LCD_Rect_Fill                            0x0800221b   Thumb Code    56  ssd1963_fsmc.o(i.LCD_Rect_Fill)
    LCD_Rect_Round                           0x08002253   Thumb Code   222  ssd1963_fsmc.o(i.LCD_Rect_Round)
    LCD_Rect_Round_Fill                      0x08002331   Thumb Code   100  ssd1963_fsmc.o(i.LCD_Rect_Round_Fill)
    LCD_Send_Dat                             0x08002395   Thumb Code    16  ssd1963_fsmc.o(i.LCD_Send_Dat)
    LCD_Triangle                             0x080023a9   Thumb Code    64  ssd1963_fsmc.o(i.LCD_Triangle)
    LCD_Triangle_Fill                        0x080023e9   Thumb Code   194  ssd1963_fsmc.o(i.LCD_Triangle_Fill)
    LCD_Window                               0x080024ab   Thumb Code    74  ssd1963_fsmc.o(i.LCD_Window)
    MemManage_Handler                        0x0800273d   Thumb Code     2  stm32f4xx_it.o(i.MemManage_Handler)
    NMI_Handler                              0x0800273f   Thumb Code     2  stm32f4xx_it.o(i.NMI_Handler)
    PendSV_Handler                           0x08002761   Thumb Code     2  stm32f4xx_it.o(i.PendSV_Handler)
    SPI3_IRQHandler                          0x08002765   Thumb Code     6  stm32f4xx_it.o(i.SPI3_IRQHandler)
    SVC_Handler                              0x08002837   Thumb Code     2  stm32f4xx_it.o(i.SVC_Handler)
    SysTick_Handler                          0x08002839   Thumb Code    20  stm32f4xx_it.o(i.SysTick_Handler)
    SystemClock_Config                       0x08002851   Thumb Code   136  main.o(i.SystemClock_Config)
    SystemInit                               0x080028e1   Thumb Code    66  system_stm32f4xx.o(i.SystemInit)
    TIM1_BRK_TIM9_IRQHandler                 0x08002935   Thumb Code    22  stm32f4xx_it.o(i.TIM1_BRK_TIM9_IRQHandler)
    TIM1_UP_TIM10_IRQHandler                 0x08002955   Thumb Code    22  stm32f4xx_it.o(i.TIM1_UP_TIM10_IRQHandler)
    TIM_Base_SetConfig                       0x08002975   Thumb Code   148  stm32f4xx_hal_tim.o(i.TIM_Base_SetConfig)
    UsageFault_Handler                       0x08002daf   Thumb Code     2  stm32f4xx_it.o(i.UsageFault_Handler)
    XPT2046_Init                             0x08002dfd   Thumb Code    46  xpt2046.o(i.XPT2046_Init)
    __scatterload_copy                       0x08002e81   Thumb Code    14  handlers.o(i.__scatterload_copy)
    __scatterload_null                       0x08002e8f   Thumb Code     2  handlers.o(i.__scatterload_null)
    __scatterload_zeroinit                   0x08002e91   Thumb Code    14  handlers.o(i.__scatterload_zeroinit)
    getRaw                                   0x08002ea1   Thumb Code    82  xpt2046.o(i.getRaw)
    getX                                     0x08002ef9   Thumb Code    36  xpt2046.o(i.getX)
    getY                                     0x08002f21   Thumb Code    36  xpt2046.o(i.getY)
    main                                     0x08002f49   Thumb Code   850  main.o(i.main)
    Font_3_TomThumb_ExtendedBitmaps          0x0800335c   Data         418  main.o(.constdata)
    Font_3_TomThumb_ExtendedGlyphs           0x080034fe   Data         760  main.o(.constdata)
    Font_3_TomThumb_Extended                 0x080037f8   Data          12  main.o(.constdata)
    Font_5_Org                               0x08003804   Data          12  main.o(.constdata)
    Font_8_Default                           0x08003810   Data          12  main.o(.constdata)
    Font_9_Serif_Bold                        0x0800381c   Data          12  main.o(.constdata)
    Font_32_Segment_7_Num_Plus               0x08003828   Data          12  main.o(.constdata)
    Font_5_OrgBitmaps                        0x08003834   Data         271  main.o(.constdata)
    Font_5_OrgGlyphs                         0x08003944   Data         760  main.o(.constdata)
    Font_8_DefaultBitmaps                    0x08003c3c   Data         414  main.o(.constdata)
    Font_8_DefaultGlyphs                     0x08003dda   Data         760  main.o(.constdata)
    Font_9_Serif_BoldBitmaps                 0x080040d2   Data        1162  main.o(.constdata)
    Font_9_Serif_BoldGlyphs                  0x0800455c   Data         760  main.o(.constdata)
    Font_32_Segment_7_Num_PlusBitmaps        0x08004854   Data        1395  main.o(.constdata)
    Font_32_Segment_7_Num_PlusGlyphs         0x08004dc8   Data         104  main.o(.constdata)
    AHBPrescTable                            0x08004e30   Data          16  system_stm32f4xx.o(.constdata)
    APBPrescTable                            0x08004e40   Data           8  system_stm32f4xx.o(.constdata)
    Region$$Table$$Base                      0x08004e48   Number         0  anon$$obj.o(Region$$Table)
    Region$$Table$$Limit                     0x08004e68   Number         0  anon$$obj.o(Region$$Table)
    touchIRQ                                 0x20000000   Data           1  main.o(.data)
    touchX                                   0x20000002   Data           2  main.o(.data)
    touchY                                   0x20000004   Data           2  main.o(.data)
    millis                                   0x20000008   Data           8  main.o(.data)
    micros                                   0x20000010   Data           8  main.o(.data)
    uwTickFreq                               0x20000020   Data           1  stm32f4xx_hal.o(.data)
    uwTickPrio                               0x20000024   Data           4  stm32f4xx_hal.o(.data)
    uwTick                                   0x20000028   Data           4  stm32f4xx_hal.o(.data)
    SystemCoreClock                          0x2000002c   Data           4  system_stm32f4xx.o(.data)
    hi2c1                                    0x20000030   Data          84  main.o(.bss)
    hi2c2                                    0x20000084   Data          84  main.o(.bss)
    hspi3                                    0x200000d8   Data          88  main.o(.bss)
    htim1                                    0x20000130   Data          60  main.o(.bss)
    huart1                                   0x2000016c   Data          64  main.o(.bss)
    huart2                                   0x200001ac   Data          64  main.o(.bss)
    hsram1                                   0x200001ec   Data          80  main.o(.bss)
    __initial_sp                             0x20000640   Data           0  startup_stm32f407xx.o(STACK)



==============================================================================

Memory Map of the image

  Image Entry point : 0x08000189

  Load Region LR_IROM1 (Base: 0x08000000, Size: 0x00004e98, Max: 0x00080000, ABSOLUTE)

    Execution Region ER_IROM1 (Exec base: 0x08000000, Load base: 0x08000000, Size: 0x00004e68, Max: 0x00080000, ABSOLUTE)

    Exec Addr    Load Addr    Size         Type   Attr      Idx    E Section Name        Object

    0x08000000   0x08000000   0x00000188   Data   RO            3    RESET               startup_stm32f407xx.o
    0x08000188   0x08000188   0x00000000   Code   RO         4244  * .ARM.Collect$$$$00000000  mc_w.l(entry.o)
    0x08000188   0x08000188   0x00000004   Code   RO         4253    .ARM.Collect$$$$00000001  mc_w.l(entry2.o)
    0x0800018c   0x0800018c   0x00000004   Code   RO         4256    .ARM.Collect$$$$00000004  mc_w.l(entry5.o)
    0x08000190   0x08000190   0x00000000   Code   RO         4258    .ARM.Collect$$$$00000008  mc_w.l(entry7b.o)
    0x08000190   0x08000190   0x00000000   Code   RO         4260    .ARM.Collect$$$$0000000A  mc_w.l(entry8b.o)
    0x08000190   0x08000190   0x00000008   Code   RO         4261    .ARM.Collect$$$$0000000B  mc_w.l(entry9a.o)
    0x08000198   0x08000198   0x00000000   Code   RO         4263    .ARM.Collect$$$$0000000D  mc_w.l(entry10a.o)
    0x08000198   0x08000198   0x00000000   Code   RO         4265    .ARM.Collect$$$$0000000F  mc_w.l(entry11a.o)
    0x08000198   0x08000198   0x00000004   Code   RO         4254    .ARM.Collect$$$$00002712  mc_w.l(entry2.o)
    0x0800019c   0x0800019c   0x00000024   Code   RO            4    .text               startup_stm32f407xx.o
    0x080001c0   0x080001c0   0x00000062   Code   RO         4247    .text               mc_w.l(uldiv.o)
    0x08000222   0x08000222   0x00000024   Code   RO         4249    .text               mc_w.l(memseta.o)
    0x08000246   0x08000246   0x0000000e   Code   RO         4251    .text               mc_w.l(strlen.o)
    0x08000254   0x08000254   0x0000001e   Code   RO         4267    .text               mc_w.l(llshl.o)
    0x08000272   0x08000272   0x00000020   Code   RO         4269    .text               mc_w.l(llushr.o)
    0x08000292   0x08000292   0x00000002   PAD
    0x08000294   0x08000294   0x00000024   Code   RO         4271    .text               mc_w.l(init.o)
    0x080002b8   0x080002b8   0x00000002   Code   RO          798    i.BusFault_Handler  stm32f4xx_it.o
    0x080002ba   0x080002ba   0x00000002   Code   RO          799    i.DebugMon_Handler  stm32f4xx_it.o
    0x080002bc   0x080002bc   0x00000006   Code   RO          800    i.EXTI3_IRQHandler  stm32f4xx_it.o
    0x080002c2   0x080002c2   0x00000002   PAD
    0x080002c4   0x080002c4   0x00000040   Code   RO          997    i.FSMC_NORSRAM_Extended_Timing_Init  stm32f4xx_ll_fsmc.o
    0x08000304   0x08000304   0x00000054   Code   RO          998    i.FSMC_NORSRAM_Init  stm32f4xx_ll_fsmc.o
    0x08000358   0x08000358   0x00000044   Code   RO          999    i.FSMC_NORSRAM_Timing_Init  stm32f4xx_ll_fsmc.o
    0x0800039c   0x0800039c   0x0000002a   Code   RO           13    i.H24_RGB565        ssd1963_fsmc.o
    0x080003c6   0x080003c6   0x00000024   Code   RO         3627    i.HAL_DMA_Abort_IT  stm32f4xx_hal_dma.o
    0x080003ea   0x080003ea   0x00000002   PAD
    0x080003ec   0x080003ec   0x00000024   Code   RO         4045    i.HAL_Delay         stm32f4xx_hal.o
    0x08000410   0x08000410   0x0000006c   Code   RO          898    i.HAL_FSMC_MspInit  stm32f4xx_hal_msp.o
    0x0800047c   0x0800047c   0x00000014   Code   RO          333    i.HAL_GPIO_EXTI_Callback  main.o
    0x08000490   0x08000490   0x00000018   Code   RO         3518    i.HAL_GPIO_EXTI_IRQHandler  stm32f4xx_hal_gpio.o
    0x080004a8   0x080004a8   0x000001c0   Code   RO         3519    i.HAL_GPIO_Init     stm32f4xx_hal_gpio.o
    0x08000668   0x08000668   0x0000000a   Code   RO         3523    i.HAL_GPIO_WritePin  stm32f4xx_hal_gpio.o
    0x08000672   0x08000672   0x00000002   PAD
    0x08000674   0x08000674   0x0000000c   Code   RO         4051    i.HAL_GetTick       stm32f4xx_hal.o
    0x08000680   0x08000680   0x00000108   Code   RO         1246    i.HAL_I2C_Init      stm32f4xx_hal_i2c.o
    0x08000788   0x08000788   0x000000a0   Code   RO          900    i.HAL_I2C_MspInit   stm32f4xx_hal_msp.o
    0x08000828   0x08000828   0x00000010   Code   RO         4055    i.HAL_IncTick       stm32f4xx_hal.o
    0x08000838   0x08000838   0x00000034   Code   RO         4056    i.HAL_Init          stm32f4xx_hal.o
    0x0800086c   0x0800086c   0x00000040   Code   RO         4057    i.HAL_InitTick      stm32f4xx_hal.o
    0x080008ac   0x080008ac   0x00000030   Code   RO          901    i.HAL_MspInit       stm32f4xx_hal_msp.o
    0x080008dc   0x080008dc   0x00000016   Code   RO         3908    i.HAL_NVIC_EnableIRQ  stm32f4xx_hal_cortex.o
    0x080008f2   0x080008f2   0x00000002   PAD
    0x080008f4   0x080008f4   0x00000040   Code   RO         3914    i.HAL_NVIC_SetPriority  stm32f4xx_hal_cortex.o
    0x08000934   0x08000934   0x00000024   Code   RO         3915    i.HAL_NVIC_SetPriorityGrouping  stm32f4xx_hal_cortex.o
    0x08000958   0x08000958   0x00000130   Code   RO         3165    i.HAL_RCC_ClockConfig  stm32f4xx_hal_rcc.o
    0x08000a88   0x08000a88   0x00000020   Code   RO         3172    i.HAL_RCC_GetPCLK1Freq  stm32f4xx_hal_rcc.o
    0x08000aa8   0x08000aa8   0x00000020   Code   RO         3173    i.HAL_RCC_GetPCLK2Freq  stm32f4xx_hal_rcc.o
    0x08000ac8   0x08000ac8   0x00000060   Code   RO         3174    i.HAL_RCC_GetSysClockFreq  stm32f4xx_hal_rcc.o
    0x08000b28   0x08000b28   0x00000314   Code   RO         3177    i.HAL_RCC_OscConfig  stm32f4xx_hal_rcc.o
    0x08000e3c   0x08000e3c   0x00000002   Code   RO         1658    i.HAL_SPI_ErrorCallback  stm32f4xx_hal_spi.o
    0x08000e3e   0x08000e3e   0x00000002   PAD
    0x08000e40   0x08000e40   0x000000d4   Code   RO         1661    i.HAL_SPI_IRQHandler  stm32f4xx_hal_spi.o
    0x08000f14   0x08000f14   0x00000080   Code   RO         1662    i.HAL_SPI_Init      stm32f4xx_hal_spi.o
    0x08000f94   0x08000f94   0x000000a4   Code   RO          903    i.HAL_SPI_MspInit   stm32f4xx_hal_msp.o
    0x08001038   0x08001038   0x00000164   Code   RO         1670    i.HAL_SPI_Transmit  stm32f4xx_hal_spi.o
    0x0800119c   0x0800119c   0x000001ca   Code   RO         1671    i.HAL_SPI_TransmitReceive  stm32f4xx_hal_spi.o
    0x08001366   0x08001366   0x00000056   Code   RO         1119    i.HAL_SRAM_Init     stm32f4xx_hal_sram.o
    0x080013bc   0x080013bc   0x00000004   Code   RO          905    i.HAL_SRAM_MspInit  stm32f4xx_hal_msp.o
    0x080013c0   0x080013c0   0x00000028   Code   RO         3919    i.HAL_SYSTICK_Config  stm32f4xx_hal_cortex.o
    0x080013e8   0x080013e8   0x00000002   Code   RO         2599    i.HAL_TIMEx_BreakCallback  stm32f4xx_hal_tim_ex.o
    0x080013ea   0x080013ea   0x00000002   Code   RO         2600    i.HAL_TIMEx_CommutationCallback  stm32f4xx_hal_tim_ex.o
    0x080013ec   0x080013ec   0x00000050   Code   RO         2616    i.HAL_TIMEx_MasterConfigSynchronization  stm32f4xx_hal_tim_ex.o
    0x0800143c   0x0800143c   0x00000036   Code   RO         1970    i.HAL_TIM_Base_Init  stm32f4xx_hal_tim.o
    0x08001472   0x08001472   0x00000002   PAD
    0x08001474   0x08001474   0x0000004c   Code   RO          907    i.HAL_TIM_Base_MspInit  stm32f4xx_hal_msp.o
    0x080014c0   0x080014c0   0x0000001a   Code   RO         1973    i.HAL_TIM_Base_Start  stm32f4xx_hal_tim.o
    0x080014da   0x080014da   0x00000018   Code   RO         1975    i.HAL_TIM_Base_Start_IT  stm32f4xx_hal_tim.o
    0x080014f2   0x080014f2   0x000000f0   Code   RO         1979    i.HAL_TIM_ConfigClockSource  stm32f4xx_hal_tim.o
    0x080015e2   0x080015e2   0x00000002   Code   RO         1999    i.HAL_TIM_IC_CaptureCallback  stm32f4xx_hal_tim.o
    0x080015e4   0x080015e4   0x00000166   Code   RO         2012    i.HAL_TIM_IRQHandler  stm32f4xx_hal_tim.o
    0x0800174a   0x0800174a   0x00000002   Code   RO         2015    i.HAL_TIM_OC_DelayElapsedCallback  stm32f4xx_hal_tim.o
    0x0800174c   0x0800174c   0x00000002   Code   RO         2042    i.HAL_TIM_PWM_PulseFinishedCallback  stm32f4xx_hal_tim.o
    0x0800174e   0x0800174e   0x00000002   Code   RO         2049    i.HAL_TIM_PeriodElapsedCallback  stm32f4xx_hal_tim.o
    0x08001750   0x08001750   0x00000002   Code   RO         2053    i.HAL_TIM_TriggerCallback  stm32f4xx_hal_tim.o
    0x08001752   0x08001752   0x00000062   Code   RO         2863    i.HAL_UART_Init     stm32f4xx_hal_uart.o
    0x080017b4   0x080017b4   0x00000094   Code   RO          909    i.HAL_UART_MspInit  stm32f4xx_hal_msp.o
    0x08001848   0x08001848   0x000000ba   Code   RO         2871    i.HAL_UART_Transmit  stm32f4xx_hal_uart.o
    0x08001902   0x08001902   0x00000002   Code   RO          801    i.HardFault_Handler  stm32f4xx_it.o
    0x08001904   0x08001904   0x000000c2   Code   RO           15    i.LCD_Char          ssd1963_fsmc.o
    0x080019c6   0x080019c6   0x00000130   Code   RO           16    i.LCD_Circle        ssd1963_fsmc.o
    0x08001af6   0x08001af6   0x000000f4   Code   RO           17    i.LCD_Circle_Fill_Helper  ssd1963_fsmc.o
    0x08001bea   0x08001bea   0x00000116   Code   RO           18    i.LCD_Circle_Helper  ssd1963_fsmc.o
    0x08001d00   0x08001d00   0x000002a8   Code   RO           19    i.LCD_Ellipse       ssd1963_fsmc.o
    0x08001fa8   0x08001fa8   0x0000008e   Code   RO           20    i.LCD_Font          ssd1963_fsmc.o
    0x08002036   0x08002036   0x00000118   Code   RO           21    i.LCD_Init          ssd1963_fsmc.o
    0x0800214e   0x0800214e   0x0000007a   Code   RO           22    i.LCD_Line          ssd1963_fsmc.o
    0x080021c8   0x080021c8   0x00000052   Code   RO           24    i.LCD_Rect          ssd1963_fsmc.o
    0x0800221a   0x0800221a   0x00000038   Code   RO           25    i.LCD_Rect_Fill     ssd1963_fsmc.o
    0x08002252   0x08002252   0x000000de   Code   RO           26    i.LCD_Rect_Round    ssd1963_fsmc.o
    0x08002330   0x08002330   0x00000064   Code   RO           27    i.LCD_Rect_Round_Fill  ssd1963_fsmc.o
    0x08002394   0x08002394   0x00000014   Code   RO           29    i.LCD_Send_Dat      ssd1963_fsmc.o
    0x080023a8   0x080023a8   0x00000040   Code   RO           30    i.LCD_Triangle      ssd1963_fsmc.o
    0x080023e8   0x080023e8   0x000000c2   Code   RO           31    i.LCD_Triangle_Fill  ssd1963_fsmc.o
    0x080024aa   0x080024aa   0x0000004a   Code   RO           32    i.LCD_Window        ssd1963_fsmc.o
    0x080024f4   0x080024f4   0x00000064   Code   RO          334    i.MX_FSMC_Init      main.o
    0x08002558   0x08002558   0x00000140   Code   RO          335    i.MX_GPIO_Init      main.o
    0x08002698   0x08002698   0x00000040   Code   RO          336    i.MX_SPI3_Init      main.o
    0x080026d8   0x080026d8   0x00000064   Code   RO          337    i.MX_TIM1_Init      main.o
    0x0800273c   0x0800273c   0x00000002   Code   RO          802    i.MemManage_Handler  stm32f4xx_it.o
    0x0800273e   0x0800273e   0x00000002   Code   RO          803    i.NMI_Handler       stm32f4xx_it.o
    0x08002740   0x08002740   0x00000020   Code   RO         3921    i.NVIC_SetPriority  stm32f4xx_hal_cortex.o
    0x08002760   0x08002760   0x00000002   Code   RO          804    i.PendSV_Handler    stm32f4xx_it.o
    0x08002762   0x08002762   0x00000002   PAD
    0x08002764   0x08002764   0x0000000c   Code   RO          805    i.SPI3_IRQHandler   stm32f4xx_it.o
    0x08002770   0x08002770   0x00000020   Code   RO         1686    i.SPI_CheckFlag_BSY  stm32f4xx_hal_spi.o
    0x08002790   0x08002790   0x00000010   Code   RO         1690    i.SPI_DMAAbortOnError  stm32f4xx_hal_spi.o
    0x080027a0   0x080027a0   0x00000096   Code   RO         1704    i.SPI_WaitFlagStateUntilTimeout  stm32f4xx_hal_spi.o
    0x08002836   0x08002836   0x00000002   Code   RO          806    i.SVC_Handler       stm32f4xx_it.o
    0x08002838   0x08002838   0x00000018   Code   RO          807    i.SysTick_Handler   stm32f4xx_it.o
    0x08002850   0x08002850   0x00000090   Code   RO          338    i.SystemClock_Config  main.o
    0x080028e0   0x080028e0   0x00000054   Code   RO         4210    i.SystemInit        system_stm32f4xx.o
    0x08002934   0x08002934   0x00000020   Code   RO          808    i.TIM1_BRK_TIM9_IRQHandler  stm32f4xx_it.o
    0x08002954   0x08002954   0x00000020   Code   RO          809    i.TIM1_UP_TIM10_IRQHandler  stm32f4xx_it.o
    0x08002974   0x08002974   0x000000c0   Code   RO         2054    i.TIM_Base_SetConfig  stm32f4xx_hal_tim.o
    0x08002a34   0x08002a34   0x00000014   Code   RO         2061    i.TIM_ETR_SetConfig  stm32f4xx_hal_tim.o
    0x08002a48   0x08002a48   0x00000010   Code   RO         2062    i.TIM_ITRx_SetConfig  stm32f4xx_hal_tim.o
    0x08002a58   0x08002a58   0x00000022   Code   RO         2068    i.TIM_TI1_ConfigInputStage  stm32f4xx_hal_tim.o
    0x08002a7a   0x08002a7a   0x00000024   Code   RO         2070    i.TIM_TI2_ConfigInputStage  stm32f4xx_hal_tim.o
    0x08002a9e   0x08002a9e   0x00000002   PAD
    0x08002aa0   0x08002aa0   0x000002ac   Code   RO         2889    i.UART_SetConfig    stm32f4xx_hal_uart.o
    0x08002d4c   0x08002d4c   0x00000062   Code   RO         2891    i.UART_WaitOnFlagUntilTimeout  stm32f4xx_hal_uart.o
    0x08002dae   0x08002dae   0x00000002   Code   RO          810    i.UsageFault_Handler  stm32f4xx_it.o
    0x08002db0   0x08002db0   0x0000004c   Code   RO          270    i.X                 xpt2046.o
    0x08002dfc   0x08002dfc   0x00000034   Code   RO          271    i.XPT2046_Init      xpt2046.o
    0x08002e30   0x08002e30   0x00000050   Code   RO          272    i.Y                 xpt2046.o
    0x08002e80   0x08002e80   0x0000000e   Code   RO         4275    i.__scatterload_copy  mc_w.l(handlers.o)
    0x08002e8e   0x08002e8e   0x00000002   Code   RO         4276    i.__scatterload_null  mc_w.l(handlers.o)
    0x08002e90   0x08002e90   0x0000000e   Code   RO         4277    i.__scatterload_zeroinit  mc_w.l(handlers.o)
    0x08002e9e   0x08002e9e   0x00000002   PAD
    0x08002ea0   0x08002ea0   0x00000058   Code   RO          273    i.getRaw            xpt2046.o
    0x08002ef8   0x08002ef8   0x00000028   Code   RO          274    i.getX              xpt2046.o
    0x08002f20   0x08002f20   0x00000028   Code   RO          275    i.getY              xpt2046.o
    0x08002f48   0x08002f48   0x000003f0   Code   RO          339    i.main              main.o
    0x08003338   0x08003338   0x0000001a   Code   RO          276    i.remap             xpt2046.o
    0x08003352   0x08003352   0x00000002   PAD
    0x08003354   0x08003354   0x00000008   Data   RO          277    .constdata          xpt2046.o
    0x0800335c   0x0800335c   0x000001a2   Data   RO          347    .constdata          main.o
    0x080034fe   0x080034fe   0x000002f8   Data   RO          348    .constdata          main.o
    0x080037f6   0x080037f6   0x00000002   PAD
    0x080037f8   0x080037f8   0x0000003c   Data   RO          349    .constdata          main.o
    0x08003834   0x08003834   0x0000010f   Data   RO          350    .constdata          main.o
    0x08003943   0x08003943   0x00000001   PAD
    0x08003944   0x08003944   0x000002f8   Data   RO          351    .constdata          main.o
    0x08003c3c   0x08003c3c   0x0000019e   Data   RO          364    .constdata          main.o
    0x08003dda   0x08003dda   0x000002f8   Data   RO          365    .constdata          main.o
    0x080040d2   0x080040d2   0x0000048a   Data   RO          396    .constdata          main.o
    0x0800455c   0x0800455c   0x000002f8   Data   RO          397    .constdata          main.o
    0x08004854   0x08004854   0x00000573   Data   RO          608    .constdata          main.o
    0x08004dc7   0x08004dc7   0x00000001   PAD
    0x08004dc8   0x08004dc8   0x00000068   Data   RO          609    .constdata          main.o
    0x08004e30   0x08004e30   0x00000010   Data   RO         4211    .constdata          system_stm32f4xx.o
    0x08004e40   0x08004e40   0x00000008   Data   RO         4212    .constdata          system_stm32f4xx.o
    0x08004e48   0x08004e48   0x00000020   Data   RO         4273    Region$$Table       anon$$obj.o


    Execution Region RW_IRAM1 (Exec base: 0x20000000, Load base: 0x08004e68, Size: 0x00000640, Max: 0x00020000, ABSOLUTE)

    Exec Addr    Load Addr    Size         Type   Attr      Idx    E Section Name        Object

    0x20000000   0x08004e68   0x00000010   Data   RW          637    .data               main.o
    0x20000010   0x08004e78   0x00000008   Data   RW          638    .data               main.o
    0x20000018   0x08004e80   0x00000008   Data   RW          910    .data               stm32f4xx_hal_msp.o
    0x20000020   0x08004e88   0x0000000c   Data   RW         4063    .data               stm32f4xx_hal.o
    0x2000002c   0x08004e94   0x00000004   Data   RW         4213    .data               system_stm32f4xx.o
    0x20000030        -       0x0000020c   Zero   RW          340    .bss                main.o
    0x2000023c   0x08004e98   0x00000004   PAD
    0x20000240        -       0x00000400   Zero   RW            1    STACK               startup_stm32f407xx.o


==============================================================================

Image component sizes


      Code (inc. data)   RO Data    RW Data    ZI Data      Debug   Object Name

      1756        226       6864         24        524      49366   main.o
      3098          4          0          0          0     723692   ssd1963_fsmc.o
        36          8        392          0       1024        836   startup_stm32f407xx.o
       180         28          0         12          0       4589   stm32f4xx_hal.o
       194         14          0          0          0      30379   stm32f4xx_hal_cortex.o
        36          0          0          0          0       1219   stm32f4xx_hal_dma.o
       482         52          0          0          0       3171   stm32f4xx_hal_gpio.o
       264         10          0          0          0       2987   stm32f4xx_hal_i2c.o
       708         84          0          8          0       5303   stm32f4xx_hal_msp.o
      1252         72          0          0          0       5284   stm32f4xx_hal_rcc.o
      1354          4          0          0          0       7973   stm32f4xx_hal_spi.o
        86          0          0          0          0       1212   stm32f4xx_hal_sram.o
      1010         44          0          0          0      11348   stm32f4xx_hal_tim.o
        84          0          0          0          0       2470   stm32f4xx_hal_tim_ex.o
      1066          8          0          0          0       4136   stm32f4xx_hal_uart.o
       122         30          0          0          0       5997   stm32f4xx_it.o
       216         12          0          0          0       2703   stm32f4xx_ll_fsmc.o
        84         18         24          4          0       1159   system_stm32f4xx.o
       402         52          8          0          0       3818   xpt2046.o

    ----------------------------------------------------------------------
     12448        666       7324         48       1552     867642   Object Totals
         0          0         32          0          0          0   (incl. Generated)
        18          0          4          0          4          0   (incl. Padding)

    ----------------------------------------------------------------------

      Code (inc. data)   RO Data    RW Data    ZI Data      Debug   Library Member Name

         0          0          0          0          0          0   entry.o
         0          0          0          0          0          0   entry10a.o
         0          0          0          0          0          0   entry11a.o
         8          4          0          0          0          0   entry2.o
         4          0          0          0          0          0   entry5.o
         0          0          0          0          0          0   entry7b.o
         0          0          0          0          0          0   entry8b.o
         8          4          0          0          0          0   entry9a.o
        30          0          0          0          0          0   handlers.o
        36          8          0          0          0         68   init.o
        30          0          0          0          0         68   llshl.o
        32          0          0          0          0         68   llushr.o
        36          0          0          0          0        108   memseta.o
        14          0          0          0          0         68   strlen.o
        98          0          0          0          0         92   uldiv.o

    ----------------------------------------------------------------------
       300         16          0          0          0        472   Library Totals
         4          0          0          0          0          0   (incl. Padding)

    ----------------------------------------------------------------------

      Code (inc. data)   RO Data    RW Data    ZI Data      Debug   Library Name

       296         16          0          0          0        472   mc_w.l

    ----------------------------------------------------------------------
       300         16          0          0          0        472   Library Totals

    ----------------------------------------------------------------------

==============================================================================


      Code (inc. data)   RO Data    RW Data    ZI Data      Debug   

     12748        682       7324         48       1552     858314   Grand Totals
     12748        682       7324         48       1552     858314   ELF Image Totals
     12748        682       7324         48          0          0   ROM Totals

==============================================================================

    Total RO  Size (Code + RO Data)                20072 (  19.60kB)
    Total RW  Size (RW Data + ZI Data)              1600 (   1.56kB)
    Total ROM Size (Code + RO Data + RW Data)      20120 (  19.65kB)

==============================================================================

