:020000040800F2
:10000000400600209D0100083F2700080319000852
:100010003D270008B9020008AF2D000800000000CD
:100020000000000000000000000000003728000869
:10003000BB02000800000000612700083928000802
:10004000B7010008B7010008B7010008B7010008B0
:10005000B7010008B7010008B7010008B7010008A0
:10006000B7010008BD020008B7010008B701000889
:10007000B7010008B7010008B7010008B701000880
:10008000B7010008B7010008B7010008B701000870
:10009000B7010008B7010008B7010008B701000860
:1000A0003529000855290008B7010008B7010008E4
:1000B000B7010008B7010008B7010008B701000840
:1000C000B7010008B7010008B7010008B701000830
:1000D000B7010008B7010008B7010008B701000820
:1000E000B7010008B7010008B7010008B701000810
:1000F000B7010008B7010008B7010008B701000800
:10010000B7010008B7010008B7010008652700081B
:10011000B7010008B7010008B7010008B7010008DF
:10012000B7010008B7010008B7010008B7010008CF
:10013000B7010008B7010008B7010008B7010008BF
:10014000B7010008B7010008B7010008B7010008AF
:10015000B7010008B7010008B7010008B70100089F
:10016000B7010008B7010008B7010008B70100088F
:10017000B7010008B7010008B7010008000000003F
:10018000B7010008B7010008DFF80CD000F082F8D2
:1001900000480047492F00084006002006488047D5
:1001A00006480047FEE7FEE7FEE7FEE7FEE7FEE75C
:1001B000FEE7FEE7FEE7FEE7E12800088901000808
:1001C0002DE9F05F0546002092469B46884606468C
:1001D000814640241BE0284641464746224600F01F
:1001E00048F853465A46C01A914110D31146184652
:1001F000224600F02FF82D1A67EB01084F462246E1
:100200000120002100F026F817EB00094E41201EC6
:10021000A4F10104DFDC484631462A464346BDE8E6
:10022000F09FD2B201E000F8012B491EFBD27047CB
:100230000022F6E710B513460A4604461946FFF7B2
:10024000F0FF204610BD421C10F8011B0029FBD115
:10025000801A7047202A04DB203A00FA02F10020BD
:1002600070479140C2F1200320FA03F319439040F4
:100270007047202A04DB203A21FA02F0002170475F
:1002800021FA02F3D040C2F12002914008431946FE
:1002900070470000064C074D06E0E06840F001039F
:1002A00094E8070098471034AC42F6D3FFF770FF8C
:1002B000484E0008684E0008FEE77047082000F02E
:1002C000E7B8000070B5B3F5804F05D06FF070410E
:1002D00040F82210002070BD50F82230084C234016
:1002E000D1E9004544EA05148D688E892D0245EA5E
:1002F000064589692C430C431C4340F82240E9E73A
:100300000000F0CFF0B50C6850F82450114A1540A9
:10031000D1E90123D1E903671A433E4332434E69D1
:1003200032438E693243CE6932430E6A32434E6A9B
:1003300032438E6A3243CE6A3243CE6B096B32430C
:100340000A432A43082B01D142F0400240F82420FE
:100350000020F0BD8000F0FF30B500EB8200426865
:10036000D1E9003443EA04138C688D89240244EAFD
:10037000054423430C8A084D02F0404205EB045427
:1003800023430C7D6D0105EB0464896923430B4312
:1003900013434360002030BD0000F0FFC1F307436A
:1003A000CAB2C1F30721890830B1D808C00240EAB7
:1003B000411040EAD2007047D008C00240EA411024
:1003C00040EAD300704790F83510022903D080210D
:1003D000416501207047052180F8351000680168EB
:1003E00021F00101016000207047000070B5044653
:1003F00000F040F90546601C02D00448007804442F
:1004000000F038F9401BA042FAD370BD2000002054
:10041000F0B5164887B00168002924D10121016098
:1004200013480025016841F00101016000680226BF
:1004300000F0010005904FF68070CDE9000603271B
:100440000C240295CDE9037469460A4800F02CF8A3
:100450004CF6B370CDE900060295CDE90374694608
:10046000054800F021F807B0F0BD0000180000209A
:100470003838024000100240000C0240082801D029
:1004800000BF70470149012008707047000000203C
:10049000044910B50A68024202D00860FFF7EEFF77
:1004A00010BD0000143C01402DE9F84FDFF88C919D
:1004B000002209F1040A0AF1040B4FF00F080BF1B6
:1004C000040E01260B6896403340B34271D14C684C
:1004D000022C01D0122C11D1D40800EB84073D6A04
:1004E0005407E40E08FA04FC25EA0C05D1F810C004
:1004F0000CFA04FC4CEA050CC7F820C0076854004D
:10050000032591F804C0A5400CF0030CAF430CFA8E
:1005100004FC4CEA070CC0F800C04F68012F05D05E
:10052000022F03D0112F01D0122F11D18768D1F8DB
:100530000CC0AF430CFA04FC4CEA070CC0F808C02E
:100540004768B7430E79C6F3001696403E434660AF
:10055000C668AE438D68A5403543C5604C68E4006D
:1005600065D5374C256845F480452560246822F020
:10057000030504F480440094324C2E19D6F8087810
:100580009407250F08FA05F4A7432F4CA04201D188
:10059000002424E02D4CA04201D101241FE02C4C6A
:1005A000A04201D102241AE02A4CA04202D1032425
:1005B00015E03CE0284CA04201D104240FE0274C78
:1005C000A04201D105240AE0254CA04201D1062415
:1005D00005E0244CA04201D1072400E00824AC40EF
:1005E0003C43C6F80848D9F800404D464E689C4345
:1005F000F60300D51C432C60DAF8004055464E68DF
:100600009C43B60300D51C432C60DBF800405D46DC
:100610004E689C43F60200D51C432C60DEF8004077
:1006200075464E689C43B60200D51C432C60521C94
:10063000102AFFF446AFBDE8F88F0000003C0140EF
:1006400044380240003001400000024000040240F3
:1006500000080240000C024000100240001402405A
:1006600000180240001C02400AB181617047090471
:10067000FBE7000001488068704700002000002070
:1006800070B5040004D094F83D00002510B106E0D8
:10069000012070BD84F83C50204600F075F82420FD
:1006A00084F83D002068016821F00101016000F03C
:1006B000EBF933492268B0FBF1F15160314A6368CC
:1006C000934206D94FF4967359434FF47A73B1FBB2
:1006D000F3F12368491C1962616891420BD8490003
:1006E000B0FBF1F2C2F30B02042A01D2042019E09C
:1006F000B0FBF1F016E0A3689BB301EBC10202EB83
:100700000112B0FBF2F242F48042120530D04BB33A
:1007100001EBC10202EB0111B0FBF1F040F48040AB
:1007200040F400402168C861D4E90701084321680A
:100730000860D4E90310084321688860D4E9050102
:1007400008432168C8602068016841F00101016028
:100750002564202084F83D00256384F83E50002065
:1007600070BD00E006E001EB4102B0FBF2F2CCE725
:100770000120D7E701EB4101B0FBF1F0D0E7000029
:1007800040420F00A0860100F0B587B00446142156
:100790006846FFF74DFD2168204CDFF87CC01F4AFA
:1007A00012230125032604271D481034614515D165
:1007B000116841F002011160116801F00201059118
:1007C000C0218DE8EA006946FFF76EFE206840F41C
:1007D00000102060206800F4001019E0DFF844C029
:1007E000614516D1116841F002011160116801F0F4
:1007F000020105914FF440618DE8EA006946FFF778
:1008000053FE206840F480002060206800F48000DF
:10081000059007B0F0BD00000054004030380240A1
:1008200000040240005800400248816802781144E8
:1008300081607047200000200B4810B5016841F42A
:1008400000710160016841F480610160016841F458
:1008500080710160032000F06DF8002000F006F8C0
:1008600000F024F8002010BD003C024070B50D4D92
:1008700004464FF47A712878B1FBF0F00A49096810
:10088000B1FBF0F000F09CFD48B9102C07D200221B
:100890002146501E00F02EF800206C6070BD012033
:1008A00070BD0000200000202C0000200A4808B580
:1008B000016841F480410160006800F480400090CC
:1008C0000548001F016841F080510160006800F098
:1008D0008050009008BD00004438024000F01F0224
:1008E000012191404009800000F1E020C0F8001192
:1008F00070470000F0B40E4B1B68C3F30223C3F132
:100900000704042C00D904241D1D072D01D2002347
:1009100000E0DB1E012606FA04F56D1E0D409D4029
:100920009E40761E164045EA0601F0BC01F008BF65
:100930000CED00E0064A00F0070110684FF6FF03D7
:10094000184040EA01200349084310607047000046
:100950000CED00E00000FA052DE9F0470D4604001B
:1009600065D0DFF81491D9F80000EFB200F00F0065
:10097000A84207D289F80070D9F8000000F00F00F3
:10098000A84254D120683D4E810712D5400703D5B7
:10099000306840F4E05030602078000703D53068BC
:1009A00040F4604030603068A16820F0F0000843F7
:1009B00030602078C0072DD03049606808390128A0
:1009C00012D0022813D0032811D009688907002902
:1009D0002DDA316821F0030101433160FFF74AFE4F
:1009E000804641F2883A0EE009688903EFE709681A
:1009F0008901ECE7FFF73EFEA0EB0801514502D963
:100A00000320BDE8F0873068616800F00C00B0EBAF
:100A1000810FEFD1D9F80010484601F00F01A9422B
:100A200007D90770006800F00F00A84201D001202C
:100A3000E7E72078400705D53068E16820F4E0500A
:100A4000084330602078000706D53068216920F41B
:100A5000604040EAC100306000F036F83168084A72
:100A6000C1F30311515CC840064908600020FFF73C
:100A7000FDFE0020C5E70000003C024008380240AF
:100A8000304E00082C000020044805490068096821
:100A9000044AC1F38221515CC84070472C000020F9
:100AA00008380240404E00080448054900680968BB
:100AB000044AC1F34231515CC84070472C00002009
:100AC00008380240404E0008154810B5006810F084
:100AD0000C01144813D0431004290FD008290ED15B
:100AE0000F4C241F216801F03F022168490207D5FD
:100AF0002068C0F38810A0FB030106E0184610BD73
:100B00002168C1F38811A1FB00010023FFF758FB06
:100B10002168C1F30141491C4900B0FBF1F010BD4F
:100B2000083802400024F4002DE9F84F040073D087
:100B30002078BD4DC00748D0BB4808300168C1F3DC
:100B40008101012908D00068C0F3810002280AD180
:100B5000281D0068400206D52868800335D56068E6
:100B60000028E4D031E06068B0F5803F10D0B0F5E7
:100B7000A02F286810D020F480302860286820F446
:100B8000802028606068A0B1FFF774FD06460CE085
:100B9000286840F48030F4E740F480202860F7E7CC
:100BA000FFF768FD801B642872D828688003F7D59A
:100BB0000BE0FFF75FFD064604E0FFF75BFD801BDF
:100BC0006428F1D828688003F7D42078DFF85C9295
:100BD00080074FF0000A3ED593480830016811F0B5
:100BE0000C0F09D00068C0F3810002280BD18E4899
:100BF000001D0068400206D42868800715D5E0680B
:100C0000012809D111E0E068B8B10120C9F800005D
:100C1000FFF730FD064605E003E1FFF72BFD801BE3
:100C20000228C1D828688007F7D52868216920F0F4
:100C3000F80040EAC10028600DE0C9F800A0FFF705
:100C400019FD064604E0FFF715FD801B02281FD89A
:100C500028688007F7D42078000722D5724F74499E
:100C60006069743770B101200860FFF703FD064624
:100C700004E0FFF7FFFC801B022809D838688007D2
:100C8000F7D50EE0C1F800A0FFF7F4FC064605E03A
:100C900081E0FFF7EFFC801B02287CD838688007D2
:100CA000F7D42078400769D5DFF87CB14FF0000811
:100CB0000BF1400BDBF80000C0000CD4DBF8001097
:100CC00041F08051CBF80010DBF800004FF0010834
:100CD00000F080500090574F3868C0050FD4386836
:100CE00040F480703860FFF7C5FC064604E0FFF76B
:100CF000C1FC801B02284ED83868C005F7D54A4F82
:100D0000A068703701280FD00528386810D020F06F
:100D100001003860386820F004003860A068B0B185
:100D2000FFF7A8FC06460EE0386840F00100F4E743
:100D300040F004003860F7E7FFF79CFC811B41F2AC
:100D40008830814265D838688007F5D50DE0FFF717
:100D500091FC064606E0FFF78DFC811B41F28830CE
:100D6000814256D838688007F5D4B8F1000F05D015
:100D7000DBF8001021F08051CBF80010A069C8B357
:100D8000294908310968C1F38101022949D00228A3
:100D9000504607D000E03CE0C9F86000FFF76AFC6D
:100DA000044639E04F46C9F86000FFF763FC064689
:100DB00004E0FFF75FFC801B02282AD82868800126
:100DC000F7D4D4E907010843A16A1B4A490802EB9A
:100DD0000141626A41EA8211084394F82C1040EA0A
:100DE00001611148001D016001203866FFF742FCD7
:100DF000044605E013E0FFF73DFC001B022808D87D
:100E000028688001F7D50AE0FFF734FC001B0228B0
:100E100002D90320BDE8F88F28688001F4D40020AF
:100E2000F8E70120F6E700000038024000004742E2
:100E3000800E4742007000400000FFFF7047000036
:100E400038B504460068426881684B0605D4CB0774
:100E500003D0530601D5216C04E08B0707D5130698
:100E600005D5616C01B02046BDE83040084711F45B
:100E7000B07F48D0930646D54B060AD594F851303A
:100E8000032B3DD0636D43F004036365C36883683F
:100E900000938B0609D5636D43F001036365836896
:100EA0000093036823F040030360C80506D5606D16
:100EB00040F008006065206880680090606D002840
:100EC00021D02068416821F0E0014160012084F8D0
:100ED0005100900718D02068416821F0030141605B
:100EE0000B4DE06C18B10565E06CFFF76CFAA06C77
:100EF000002808D00565A06CBDE83840FFF763BA4C
:100F0000C1688068009038BD2046FFF797FF38BD64
:100F10009127000870B5040005D00025A56294F85B
:100F2000510010B106E0012070BD84F850502046F9
:100F300000F030F8022084F851002068016821F0A8
:100F400040010160D4E901010843D4E903121143CF
:100F5000084361690843218B01F400710843E1698A
:100F60000843216A0843A16A084321680860A06910
:100F7000042101EA1040616A084321684860206842
:100F8000C16921F40061C1616565012084F85100E7
:100F9000002070BDF0B587B0044614216846FFF705
:100FA00047F92149206888423CD120480025016842
:100FB00041F400410160006800F4004005901B48C6
:100FC0001038016841F001010160016801F0010180
:100FD0000591016841F0040101600068022600F0FB
:100FE000040005904FF40040CDE9000603270624D5
:100FF0000295CDE9037469460D48FFF755FA4FF4A1
:10100000E050CDE900060295CDE903746946094830
:10101000FFF74AFA002211463320FFF76BFC33201A
:10102000FFF75CFC07B0F0BD003C004040380240D8
:1010300000000240000802402DE9F84F044690F8F5
:10104000500000271E4691460D4601280DD04FF056
:10105000010B84F850B0FFF70DFB804694F8510067
:10106000BA46012804D0022792E00220BDE8F88F9A
:10107000002D79D0B9F1000F76D0032084F851000B
:10108000C4F854A02563A4F83490A4F83690C4F8AA
:1010900038A0A4F83CA0A4F83EA0C4F844A0C4F82A
:1010A00040A0A068B0F5004F04D12068016841F469
:1010B0008041016020680168490603D4016841F05D
:1010C00040010160E068B0F5006F606804D020B3B3
:1010D000E08E012821D039E010B1E08E012818D12E
:1010E000216835F8020BC86006E02068816889072E
:1010F00006D535F8021BC160E08E401EE08608E090
:1011000086B3701C05D0FFF7B5FAA0EB0800B0421B
:1011100028D2E08E0028E8D11BE0216815F8010BE9
:10112000087306E020688168890706D515F8011B59
:101130000173E08E401EE08608E09EB1701C05D071
:10114000FFF798FAA0EB0800B0420BD2E08E00281F
:10115000E8D13346012202212046CDF8008001F07B
:101160001FFB10B1032713E011E042463146204631
:1011700001F0FEFA18B101272020606508E0A068A0
:1011800018B92068C16880680090606D00B10127BF
:1011900084F851B084F850A0384667E72DE9F84F3D
:1011A000044690F850000127DDF828809B4616463B
:1011B0000D464FF0000901280ED0012084F85000A0
:1011C000FFF758FA824694F85100616801280CD064
:1011D000B1F5827F07D102E00220BDE8F88FA16857
:1011E00009B9042801D00220A2E045B13EB1BBF10B
:1011F000000F04D094F85100012802D004E001202F
:1012000096E0052084F8510000206065A663A4F8EC
:101210003EB0A4F83CB02563A4F836B0A4F834B0CE
:101220002064606420680168490603D4016841F0C5
:1012300040010160E068B0F5006F606804D0D0B391
:10124000E08E012838D063E010B1E08E01282BD168
:10125000216835F8020BC860E08E401EE08623E06E
:1012600067B1E08E50B120688168890706D535F8EE
:10127000021BC160E08E401EE0860027E08F50B167
:1012800020688168C90706D0C06826F8020BE08F85
:10129000401EE0870127B8F1FF3F05D0FFF7EAF9CC
:1012A000A0EB0A01414542D2E08E0028D8D1E08F60
:1012B0000028D5D132E0FFE7216815F8010B08734B
:1012C000E08E401EE08623E067B1E08E50B12068DA
:1012D0008168890706D515F8011B0173E08E401E51
:1012E000E0860027E08F50B120688168C90706D0EA
:1012F000C06806F8010BE08F401EE0870127B8F1B7
:10130000FF3F05D0FFF7B6F9A0EB0A0141450ED229
:10131000E08E0028D8D1E08F0028D5D143460122A5
:1013200002212046CDF800A001F03AFA10B10320C6
:10133000814610E052464146204601F019FA20B19C
:1013400020204FF00109606505E0A06818B9206809
:10135000C16880680090012084F85100002084F862
:101360005000484639E770B515460E46040003D0D4
:1013700094F8490010B107E0012070BD002084F806
:101380004800204600F01AF804F108012068FEF732
:10139000B9FF3146A2682068FEF7DEFFD4E90102FA
:1013A0002946236BFEF78EFFA168206850F82120A4
:1013B00042F0010240F82120002070BDFFF728B85C
:1013C00010B5401EB0F1807F01D3012010BD4FF059
:1013D000E02460610F21601701F0B2F90020A061E4
:1013E00007202061002010BD7047704730B590F88D
:1013F0003820012A20D0012380F83830022280F8DA
:1014000039200268546824F07004546002685468FB
:101410000D682C4354600268946824F08004946042
:101420000268946849680C43946080F83930002160
:1014300080F83810084630BD022030BD10B50400D9
:1014400003D094F8390010B107E0012010BD00204E
:1014500084F83800204600F00DF8022084F83900A6
:10146000211D206801F086FA012084F8390000204F
:1014700010BD000008B500680F4988421AD10F4816
:10148000016841F0010101600068002200F00100E4
:10149000009011461820FFF72DFA1820FFF71EFACA
:1014A000002211461920FFF725FABDE8084019204F
:1014B000FFF714BA08BD00000000014044380240A4
:1014C000022180F8391001680A6842F001020A60BE
:1014D000012180F83910002070470168CA6842F085
:1014E0000102CA600068016841F00101016000204A
:1014F000704770B5044690F83800012817D00125D0
:1015000084F83850022084F839002068826822F07C
:10151000770222F47F4282600868502836D00DDCC2
:10152000202858D005DC80B3102840D150E002209C
:1015300070BD302852D0402839D13EE060282DD0EF
:1015400070280BD0B0F5805F03D0B0F5005F2ED1CE
:1015500010E02068816821F0070109E0CB68D1E93B
:101560000121206801F066FA2068816841F0770166
:1015700081601CE0CB68D1E90121206801F05AFAB2
:101580002068816841F48041F2E71EE0CA6849683A
:10159000206801F061FA5021206806E0CA684968B5
:1015A000206801F06AFA6021206801F04DFA84F8A1
:1015B0003950002084F8380070BDCA684968206836
:1015C00001F04AFA40212068EFE700212068ECE7AB
:1015D00010212068E9E720212068E6E73021206813
:1015E000E3E7704770B50446006801694FF00005F5
:1015F000C943890715D4C168C943890711D4E91EB5
:10160000016101202076206880698007204602D091
:10161000FFF7E7FF04E000F098F8204600F096F8A6
:10162000257620680169C943490717D4C168C943B1
:10163000490713D46FF0040101610220207620686D
:10164000806910F4407F204602D0FFF7CAFF04E013
:1016500000F07BF8204600F079F8257620680169D3
:10166000C943090716D4C168C943090712D46FF0EA
:1016700008010161042020762068C06980072046A7
:1016800002D0FFF7AEFF04E000F05FF8204600F064
:101690005DF8257620680169C943C90617D4C16879
:1016A000C943C90613D46FF01001016108202076E8
:1016B0002068C06910F4407F204602D0FFF791FFF8
:1016C00004E000F042F8204600F040F8257620685B
:1016D0000169C943C90708D1C168C943C90704D111
:1016E000891E0161204600F032F820680169C94373
:1016F000090609D4C168C943090605D46FF0800101
:1017000001612046FFF770FE20680169C943490660
:1017100009D4C168C943490605D46FF0400101618D
:10172000204600F015F820680169C94389060BD4EA
:10173000C168C943890607D46FF0200101612046C2
:10174000BDE87040FFF751BE70BD704770477047ED
:10175000704770B5040004D094F83900002510B12A
:1017600006E0012070BD84F83850204600F022F8D1
:10177000242084F839002068C16821F40051C16038
:10178000204601F08DF92068016921F49041016142
:101790002068416921F02A0141612068C16841F453
:1017A0000051C160E563202084F8390084F83A00D4
:1017B000002070BDF0B587B0044614216846FEF7DE
:1017C00037FD1D4F21681D4A0223012403250726EA
:1017D0001B48B94213D1194914310F6847F010075B
:1017E0000F60096801F010010591116841F00101D5
:1017F0001160116801F001010591690215E0114FB6
:10180000B94217D10D4910310F6847F400370F6006
:10181000096801F400310591116841F0010111607E
:10182000116801F0010105910C218DE87A006946EB
:10183000FEF73AFE07B0F0BD00100140303802401C
:1018400000000240004400402DE9F843044690F8AF
:1018500039001E4617460D46202850D1A5B19FB12C
:1018600094F8380001284AD0012084F838004FF05D
:101870000008C4F83C80212084F83900FEF7FAFE05
:10188000A7848146E78426E00120BDE8F883E08C48
:10189000401EE084A0684B46B0F5805F4FF0000228
:1018A0004FF080012046009603D001F04FFAE8B9CE
:1018B0000DE001F04BFAC8B928882168C0F3080090
:1018C0004860206908B16D1C05E0AD1C03E021688B
:1018D00015F8010B4860E08C0028D8D14B46002257
:1018E00040212046009601F031FA08B10320CCE7F0
:1018F000202084F8390084F838800020C5E70220D1
:10190000C3E7FEE72DE9FF4F82B018684FF0000AE9
:1019100001908B460F9FB2F80090144656465046F1
:101920005146E278884642454AD9002529E03EB929
:101930000199802611F809A009F101011FFA81F926
:101940001AEA060F02D0401C80B217E0B0B110991D
:10195000009194F9063007FB00F18AB2434403FB7F
:1019600007B194F9053089B22B441B1A029803FB86
:10197000070080B23B4600F050FC002076086D1C4A
:10198000EDB2A178A942D2D8B0B11099009194F9E2
:10199000063007FB00F18AB2434403FB07B194F918
:1019A000053089B22B441B1A029803FB070080B252
:1019B0003B4600F032FC002008F10101C9B2B0E75B
:1019C00006B0BDE8F08F2DE9FF4F85B00F46804689
:1019D00000241546C2F10109139E86E008980128EB
:1019E00060D004EB0800CDE90060129B05EB070B0B
:1019F0001FFA8BF180B21A4600F00FFC05EB0800CD
:101A0000129B04EB070A04901FFA8AF1009680B239
:101A10001A4600F002FCA8EB04000390129B1FFA88
:101A20008BF1009680B21A4600F0F7FBA8EB050098
:101A3000129B02901FFA8AF1009680B21A4600F0BB
:101A4000ECFB0498129BA7EB040B1FFA8BF100969A
:101A500080B21A4600F0E1FB0198129BA7EB050A41
:101A60001FFA8AF1009680B21A4600F0D6FB03985E
:101A7000129B1FFA8AF1009680B21A4600F0CDFB45
:101A80000298129B1FFA8BF1009680B21A4600F062
:101A9000C4FBB9F1000F21DA09EB440000F103099E
:101AA000641C22E0012101EB450B01EB440A781B89
:101AB00081B2A8EB04001FFA8BF31FFA8AF280B2FE
:101AC000009600F0AAFB381B81B2A8EB05001FFAB4
:101AD0008AF31FFA8BF280B20096D8E7611B09EBFC
:101AE0004100641C00F105096D1EAC427FF776AF22
:101AF00009B0BDE8F08F2DE9FF4F83B08046DDE9E6
:101B000010A9C2F1010006B201200290C2EBC2305E
:101B100040000F460FFA80FB0025144660E0002EBF
:101B200008DB0BF102000FFA80FB641E06EB0B00D2
:101B300024B206B202986D1C801C00B202903044A0
:101B400006B206982DB2C00723D00121381BCDE97B
:101B5000001900EB440202EB0A018BB208EB05010D
:101B60001FFA80FC8AB288B2614600F0F0FA0121C7
:101B7000781BCDE9001900EB450202EB0A018BB29C
:101B800008EB04011FFA80FC8AB288B2614600F0BB
:101B9000DEFA0698800723D50121381BCDE900190C
:101BA00000EB440202EB0A018BB2A8EB05011FFA1D
:101BB00080FC8AB288B2614600F0C9FA0121781B24
:101BC000CDE9001900EB450202EB0A018BB2A8EB4C
:101BD00004011FFA80FC8AB288B2614600F0B7FAAD
:101BE000A5429CDB07B0BDE8F08F2DE9FC4F07460E
:101BF000C2F101000FFA80F901200190C2EBC2305E
:101C000040009A460E46DDF830800FFA80FB002532
:101C1000144671E0B9F1000F09DB0BF102000FFA75
:101C200080FB641E09EB0B0024B20FFA80F96D1CD7
:101C300001982DB2801C00B2019048440FFA80F93F
:101C40005FEA4A7013D5301981B20B9B781980B2C4
:101C5000CDF800801A4600F0E0FA701981B20B9BB3
:101C6000381980B2CDF800801A4600F0D6FA5FEA43
:101C70008A7013D5301B81B20B9B781980B2CDF8D6
:101C800000801A4600F0C9FA701B81B20B9B38190C
:101C900080B2CDF800801A4600F0BFFA5FEA0A7001
:101CA00013D5701981B20B9B381B80B2CDF8008020
:101CB0001A4600F0B2FA301981B20B9B781B80B241
:101CC000CDF800801A4600F0A8FA5FEACA7013D077
:101CD000701B81B20B9B381B80B2CDF800801A4676
:101CE00000F09BFA301B81B20B9B781B80B2CDF8C1
:101CF00000801A4600F091FAA5428BDBBDE8FC8F0C
:101D00002DE9FF4F88B00F468046DDE9151B0A9884
:101D100010FB00F613FB03F5B0000590179CA8001C
:101D200003900A980122404202EB4000049058427E
:101D300002EB40000A9A12FB02F2504313FB03F23B
:101D4000002900EB42004FF000018A4699460290BC
:101D500038D1CDE008EB0A02A2EB0B00401C82B2A6
:101D60000790A8EB0A000690A7EB0901CDE900B4A3
:101D70008BB289B280B200F0EAF9CDE900B40798DD
:101D800007EB090182B206988BB289B280B200F0EB
:101D9000DEF9029800280ADB05990298C9F10102D0
:101DA00001FB02000290A9F101000FFA80F906215F
:101DB000029801EB8A0105FB010002900AF1010083
:101DC0000FFA80FA05FB0AF006FB09F18842C1DD33
:101DD00004984FF0000A684300EB4600DDF82890B5
:101DE000029037E008EB0902A2EB0B00401C0590C3
:101DF00082B2A7EB0A01A8EB0900CDE900B48BB2CF
:101E0000049089B280B200F0A2F9CDE900B405983F
:101E100007EB0A0182B204988BB289B280B200F05B
:101E200096F9029800280ADBDDE90201C9F10102F6
:101E300001FB02000290A9F101000FFA80F90621CE
:101E4000029801EB8A0106FB010002900AF10100F1
:101E50000FFA80FA06FB0AF005FB09F18842C1DDA2
:101E60000CB0BDE8F08F07EB0900CDE9004081B26E
:101E700008EB0A0006905B4680B21A4600F0CDF9E6
:101E800001985B4681B2A8EB0A000190009480B2F1
:101E90001A4600F0C2F9A7EB090081B20790069834
:101EA0005B46009480B21A4600F0B7F907985B468B
:101EB00081B20198009480B21A4600F0AEF90298FF
:101EC00000280ADB05990298C9F1010201FB020012
:101ED0000290A9F101000FFA80F90621029801EBA6
:101EE0008A0105FB010002900AF101000FFA80FA55
:101EF00005FB0AF006FB09F18842B4DD04984FF0B7
:101F0000000A684300EB4600DDF82890029044E0A8
:101F100007EB0A00CDE9004081B208EB090004900C
:101F20005B4680B21A4600F078F901985B4681B2B0
:101F3000A8EB09000190009480B21A4600F06DF9F8
:101F4000A7EB0A00009481B2059004985B4680B22A
:101F50001A4600F062F9009405985B4681B2019838
:101F60001A4680B200F059F9029800280ADBDDE930
:101F70000201C9F1010201FB02000290A9F1010076
:101F80000FFA80F90621029801EB8A0106FB010095
:101F900002900AF101000FFA80FA06FB0AF005FB35
:101FA00009F18842B4DD5BE72DE9F04788B005B25E
:101FB00091460FB2DDE9106A93E807000DF1080CB5
:101FC000A8468CE80700002426E019F804000A2837
:101FD0002AD09DF8101081421CD89DF81110814222
:101FE00018D30D2816D09DF810200399801A01EB04
:101FF000C00002AB0168059140680690CDE9006A17
:1020000005AA39462846FFF77DFC9DF8180000FB1D
:10201000065005B2641CA4B24846FEF714F9A0426B
:10202000D3D808B0BDE8F0879DF81200454600FB04
:10203000067007B2EEE710B59620FEF7D7F94FF01D
:10204000C044E22020801D2000F0A4F9022000F00E
:10205000A1F9FF2000F09EF9E0202080012000F08F
:1020600099F97820FEF7C2F9E0202080032000F0E3
:1020700091F97820FEF7BAF9012020807820FEF748
:10208000B5F9E6202080032000F084F9852000F0D7
:1020900081F91D2000F07EF9B0202080AE2000F0F4
:1020A00079F9202000F076F9032000F073F91F2061
:1020B00000F070F9012000F06DF9DF2000F06AF9FE
:1020C0002D2000F067F9B4202080032000F062F991
:1020D000A02000F05FF9002000F05CF92E2000F055
:1020E00059F9302000F056F9002000F053F90F2084
:1020F00000F050F9002000F04DF9B62020800220B9
:1021000000F048F90D2000F045F9002000F042F9F8
:10211000102000F03FF9102000F03CF9082000F0FA
:1021200039F9002000F036F9BE202080082000F0A8
:1021300031F9FF2000F02EF9012000F02BF9F020FA
:102140002080032000F026F92920208010BD2DE9F1
:10215000FE4F0646994692460D46971B00D57F4294
:10216000B9EB050000D5404280464FF0FF305645A0
:1021700001D2012100E0014602914D4500D201202B
:102180008346C8F10000A7EB080401900D980C9B52
:1021900000901A462946304600F03FF8564501D1D6
:1021A0004D450FD001996000884204DD0299A4EBEF
:1021B000080431448EB2B842E8DA05EB0B003C4427
:1021C00085B2E3E7BDE8FE8F2DE9FC431C46DDE95F
:1021D0000967851889468046AAB20B46CDE9006793
:1021E000FFF7B5FF4C44A3B2AAB2A1B24046CDE975
:1021F0000067FFF7ACFF4246A3B249461046CDE95F
:102200000067FFF7A4FFA3B2AAB2A8B24946CDE97E
:102210000067FFF79CFFBDE8FC83F0B50F4681180F
:1022200002FB03F5FA18491E89B20B46521E0146FD
:10223000002492B23846059E00F037F906E0314698
:102240000120FEF7ABF800F0A5F8641CAC42F6D311
:10225000F0BD2DE9FE4F0746DDE90D450C9E8A468F
:1022600000EB020909EB0400811B0094CDE9015148
:1022700098468AB207EB060B53461FFA8BF01946B5
:10228000FFF765FFD0440299A8F101008AB283B23A
:1022900081B2CDE900451FFA8BF0FFF758FFA8EB9C
:1022A0000400801B0094CDE9015083B2B2443A4649
:1022B0001FFA8AF11046FFF74AFF0298CDE9004560
:1022C00083B2A9F1010082B21FFA8AF180B2FFF74E
:1022D0003EFF0FFA8AF10094CDE901510FFA8BF01D
:1022E00032B2824601231746FFF77FFCA9EB0600B6
:1022F000401E00B2CDE90045814602233A460299CC
:10230000FFF773FCA8EB0600401E06B24846042304
:102310003A463146CDE90045FFF767FC3146504665
:1023200008233A46CDE90045FFF75FFCBDE8FE8F84
:102330002DE9FC4F8146DDE90B456642904602EBF4
:10234000460082B209EB040A1F468B461FFA8AF048
:102350000095FFF762FF07EB4600401E07B20BEB4C
:10236000040006B209EB0800001BCDE90075401E11
:1023700022B200B2012314463146FFF7BCFBCDE97F
:10238000007531460FFA8AF002232246FFF7B3FBAD
:10239000BDE8FC8F034A0021491C108011F0FF01A9
:1023A000FAD07047000002602DE9FC4F9A46DDE943
:1023B0000D54DDE90B76CDE90054934688468146FD
:1023C000FFF7C5FECDE9005433463A46514658461C
:1023D000FFF7BDFECDE9005443464A463146384634
:1023E000FFF7B5FEBDE8FC8F2DE9F04F0027141A6A
:1023F00085B0002C00DC841A0FFA84F85C1A002CDB
:1024000000DCCC1A0FFA84FC06B20DB24FF0FF3498
:10241000824203D301200390029001E003940294CE
:102420008B4203D34FF0010BDA4601E0A346DA46B4
:10243000E0454FF0000008DB8246039008EBD870BF
:10244000C1464410CDF810C02AE00290E1460CEBE2
:10245000DC70CDF810804FF0000B4410C8461FE030
:1024600010990120CDE90001DDE90E23A9B2B0B237
:10247000FFF76DFE0498204404B24C4508DBA4EB42
:10248000090004B20398304406B205EB0B0005B214
:1024900002987F1C304406B205EB0A0005B23FB239
:1024A0004745DDDD05B0BDE8F08FF0B507464FF0DC
:1024B000C0442A20208015460E46080AFFF76AFF0E
:1024C000F0B2FFF767FF180AFFF764FFD8B2FFF713
:1024D00061FF2B202080380AFFF75CFFF8B2FFF77E
:1024E00059FF280AFFF756FFE8B2FFF753FF2C20E9
:1024F0002080F0BD00B5164887B04FF02041016044
:1025000014494160002181601022C160C0E90412B9
:102510008161C16113020162C0E90913C1620163F3
:10252000416381634164022005230090CDE90103EA
:10253000CDE903021120CDE90501002269460448D6
:10254000FEF711FF002800D0FEE707B000BD000035
:10255000EC010020040100A02DE9F04387B0142114
:102560006846FDF765FE45480024016841F010010A
:102570000160016801F010010591016841F08001DE
:102580000160016801F080010591016841F00101DD
:102590000160016801F001010591016841F002014B
:1025A0000160016801F002010591016841F0080134
:1025B0000160016801F008010591016841F0040122
:1025C000016000682E4F00F00400059001224021B8
:1025D0003846FEF749F8002280213846FEF744F8D5
:1025E000DFF8A0804FF44076002231464046FEF7E7
:1025F0003BF8DFF89490002204214846FEF734F8B7
:102600001820CDE90004694620480294FDF74CFFEC
:10261000C02000900125CDE9015469463846039455
:10262000FDF742FF0427CDE900746946184802947B
:10263000FDF73AFF0096CDE9015469464046039400
:10264000FDF732FF0097CDE90154694648460394EF
:10265000FDF72AFF082000900E48CDE901056946E4
:102660004846FDF721FF002211460920FEF742F9F6
:102670000920FEF733F907B0BDE8F0833038024097
:102680000000024000080240000C0240001002401E
:1026900000040240000021100E4810B50C490160F2
:1026A0004FF48271416000218160C1604FF480224B
:1026B0000161C0E905123822C0E907214162816247
:1026C0000A21C162FEF726FC002800D0FEE710BDFB
:1026D000003C0040D800002010B586B00024164809
:1026E00000940194029403940494124905940160A7
:1026F0000A21C0E9011444F2A011C0E903144461A5
:10270000FEF79CFE00B1FEE74FF480500090694652
:102710000948FEF7EEFE00B1FEE72020CDE90404F3
:1027200004A90548FEF762FE002800D0FEE706B0C7
:1027300010BD00000000014030010020FEE770479E
:102740000907090E002806DA00F00F0000F1E0206A
:1027500080F8141D704700F1E02080F800147047E5
:10276000704700000148FEF76BBB0000D800002056
:1027700038B50B46009204460022802100F010F884
:10278000002804D0606D40F020006065032038BD53
:1027900010B5806B0021C187C186FEF74FFB10BDCD
:1027A0002DE9F0411D4617460E460446DDF8188017
:1027B00035E0681C33D02DB1FDF75CFFA0EB0800BD
:1027C000A8422CD32068416821F0E0014160606894
:1027D000B0F5827F0BD1A068B0F5004F02D0B0F504
:1027E000806F04D12068016821F040010160A06A77
:1027F000B0F5005F0AD1206801684DF6FF72114004
:1028000001602068016841F400510160012084F8F2
:102810005100002084F850000320BDE8F0812068BA
:10282000806836EA000004D00020B842C1D1002000
:10283000F3E70120F9E770470448D0E90012491C8A
:1028400042F10002C0E90012FDF7EEBF10000020C7
:1028500030B593B030216846FDF7EAFC14210CA88E
:10286000FDF7E6FC1C480025016841F0805101603D
:10287000006800F0805011901848016841F48041D0
:1028800001600068022400F4804011900120009053
:10289000000401908001CDE9064004200890A820A2
:1028A000CDE9090407200B906846FEF73DF900B119
:1028B000FEE70CA90F2081E831004FF4A0500F90E3
:1028C0004FF48050109005210CA8FEF745F8002821
:1028D00000D0FEE713B030BD403802400070004029
:1028E0001048016841F4700101600F48016841F02F
:1028F000010101600C4A00210832116002680B4B93
:102900001A400260031D0A4A1A60026822F48022FB
:10291000026005480C3001600249580680390860A1
:102920007047000088ED00E000380240FFFFF6FE2F
:10293000103000240548D0E90012491C42F1000281
:10294000C0E900120248FEF74DBE0000080000205A
:10295000300100200548D0E90012491C42F1000274
:10296000C0E900120248FEF73DBE0000080000204A
:1029700030010020F0B50268234D244E244FDFF8CB
:1029800094C0254B4FF0804EA84209D0704507D027
:10299000B04205D0B84203D0604501D0984203D17F
:1029A00022F070044A682243A8421BD0704519D017
:1029B000B04217D0B84215D0604513D0984211D01C
:1029C000164CA0420ED0164CA0420BD0154CA04283
:1029D00008D0154CA04205D0144CA04202D0144C93
:1029E000A04203D122F44074CA68224302608A687C
:1029F000C2620A688262A84201D0984201D1096984
:102A0000016301214161F0BD00000140000400406C
:102A100000080040000C004000040140004001405C
:102A2000004401400048014000180040001C0040E4
:102A30000020004010B5846842EA032224F47F4459
:102A40000A432243826010BD826822F070020A436A
:102A500042F007018160704710B5046A036A23F0F1
:102A600001030362836923F0F00343EA021324F0B5
:102A70000A020A438361026210BD10B5036A23F0A3
:102A8000100303628469036A24F4704444EA023246
:102A900023F0A00343EA01118261016210BD00002E
:102AA0002DE9F04104460068016921F44052E168D3
:102AB000114301612068C16849F20C6291432369A6
:102AC000A268E5691A4363692B431A430A43C2604B
:102AD00020684169A26921F440710A434261E069BA
:102AE0006425B0F5004F974A974920684FF03208A7
:102AF0003FD0884201D090427CD1FDF7D5FF00EB5A
:102B0000C00101EB001061688900B0FBF1F6FDF730
:102B1000CBFF00EBC00101EB001061688900B0FB46
:102B2000F1F0B0FBF5F06FF01801484306EB8001BF
:102B300008EB0110B0FBF5F000F0F006FDF7B4FF74
:102B400000EBC00101EB001061688900B0FBF1F0FF
:102B5000B0FBF5F006EB0016FDF7A6FF00EBC00199
:102B600001EB001061688900B0FBF1F7FDF79CFFF5
:102B7000D2E0884201D090423DD1FDF795FF00EBB5
:102B8000C00101EB001061684900B0FBF1F0B0FB3F
:102B9000F5F00601FDF788FF00EBC00101EB001026
:102BA00061684900B0FBF1F7FDF77EFF00EBC00163
:102BB00001EB001061684900B0FBF1F0B0FBF5F0EB
:102BC0006FF01801484307EB800108EBC100B0FB30
:102BD000F5F000F0F80006EB4006FDF765FF00EBAE
:102BE000C00101EB001061684900B0FBF1F7FDF78F
:102BF0005BFF3CE055E0FDF747FF00EBC00101EB58
:102C0000001061684900B0FBF1F0B0FBF5F006017F
:102C1000FDF73AFF00EBC00101EB001061684900CD
:102C2000B0FBF1F7FDF730FF00EBC00101EB001046
:102C300061684900B0FBF1F0B0FBF5F06FF01801EE
:102C4000484307EB800108EBC100B0FBF5F000F052
:102C5000F80006EB4006FDF717FF00EBC00101EBA3
:102C6000001061684900B0FBF1F7FDF70DFF00EBC4
:102C7000C00101EB001061684900B0FBF1F0B0FB4E
:102C8000F5F06FF01801484307EB800108EBC10035
:102C9000B0FBF5F000F00700216830448860BDE823
:102CA000F081FDF7F1FE00EBC00101EB001061685F
:102CB0008900B0FBF1F6FDF7E7FE00EBC00101EB88
:102CC000001061688900B0FBF1F0B0FBF5F06FF027
:102CD0001801484306EB800108EB0110B0FBF5F04A
:102CE00000F0F006FDF7D0FE00EBC00101EB001094
:102CF00061688900B0FBF1F0B0FBF5F006EB00165F
:102D0000FDF7C2FE00EBC00101EB00106168890015
:102D1000B0FBF1F7FDF7B8FE00EBC00101EB0010CE
:102D200061688900B0FBF1F0B0FBF5F06FF01801BD
:102D3000484307EB800108EB0110B0FBF5F000F011
:102D40000F00A9E700140140001001402DE9F041F7
:102D50001E46174688460446069D1CE0681C1AD08D
:102D600025B1FDF787FC801BA84214D92068C168F3
:102D700021F4D071C1602068416921F001014161F5
:102D8000202084F8390084F83A00002084F83800C4
:102D90000320BDE8F0812068016838EA010004D012
:102DA0000020B842DAD00020F3E70120F9E7FEE77F
:102DB00010B5D02000F074F800EE100A9FED0B2A39
:102DC000DFED0B1AB8EE400A9FED0A1ADFED0A0A92
:102DD00000F0B2FABCEEC00A40F21E3210EE100A49
:102DE00080B2411E914200D3002010BD00C0474474
:102DF0000000000000007A450000484310B54FF481
:102E00007A742346012280210848FEF715F92346EB
:102E1000012200210548FEF70FF923460122BDE8F3
:102E2000104000210148FEF707B90000D80000203B
:102E300010B5902000F034F800EE100A9FED0C2A37
:102E4000DFED0C1AB8EE400A9FED0B1ADFED0B0A0E
:102E500000F072FABCEEC00A10EE100AA0F2DF1009
:102E6000404280B2411EB1F5EF7F00D3002010BD7B
:102E70000080EF430000000000806D4500004843E3
:102E800002E008C8121F08C1002AFAD17047704733
:102E9000002001E001C1121F002AFBD17047000091
:102EA00071B583B00120FDF7A1FA4FF47A7633466D
:102EB000012203A90F48FEF7BFF800258DF80C503A
:102EC000012301AA03A90B480096FEF767F99DF8B4
:102ED00004408DF80C50012301AA03A9054800966F
:102EE000FEF75CF99DF8040004B040EA0420C00835
:102EF00070BD0000D8000020084810B5046807E045
:102F0000FFF756FF60F30F04FFF752FF60F31F4413
:102F1000A0B2210C8842F3D1A0B210BD54330008F6
:102F2000084810B5446807E0FFF782FF60F30F041C
:102F3000FFF77EFF60F31F44A0B2210C8842F3D15B
:102F4000A0B210BD5433000888B0FDF775FCFFF740
:102F50007FFCFFF701FBFFF7CDFAD148CF49D14DF8
:102F600000240160C0E901540E14C0E90346446125
:102F70008461C4610462FDF783FB00B1FEE7C848C9
:102F8000C94954300160C0E90154C0E903464461B5
:102F90008461C4610462FDF773FB00B1FEE7C448BD
:102FA000C2494FF4E1350160C0E901540C26C46008
:102FB000C0E904468461C461FEF7CBFB00B1FEE7C3
:102FC000FFF76AFBFFF788FBB948BA494030016058
:102FD000C0E90154C460C0E904468461C461FEF7DD
:102FE000B8FB00B1FEE7B2483C38FEF769FAB048DA
:102FF0003C38FEF772FAFFF71EF8FFF7FFFEAEA0AF
:103000000DF1100C07C88CE8070064230A2204A9FC
:10301000A748FEF719FCFF20002100904FF4F07341
:103020004FF448720846FFF7F8F80121A0464FF424
:10303000EF7340F21E3208460094FFF7EEF80021CD
:103040008023A02208460094FFF7E7F80825012412
:103050004FF47F46CDE90046002180232A460846EA
:10306000FFF775F80835EDB2A02DF3D90825B14664
:10307000CDE9004900212B46A0220846FFF767F85A
:103080000835EDB2802DF3D9FA20FDF7AFF91026FF
:103090001425DFF830A200274FF0020B4020A0EBF0
:1030A000560081B25020CDE900BAA0EB550080B2A5
:1030B00033462A46FFF788F8103614357F1CFFB2D6
:1030C000F6B2EDB2082FE9D3FA20FDF78FF9FF250C
:1030D00000218023A02208460095FFF79EF80121D9
:1030E00047467E239E220846CDF80080FFF795F8DC
:1030F000CDE9004A744B75A228210520FEF754FF44
:103100004FF0FF16CDE900461423892219461720F7
:10311000FFF71DF81523892219461720CDE9004530
:10312000FFF715F81523892219461720CDE9004528
:10313000FFF70DF8644BCDE900460C336CA20A2171
:103140002920FEF731FF2E045F4BCDE900462433E2
:103150006BA223212D20FEF727FFCDE90046002397
:103160001E225A212820FEF72EFC012314225A2168
:103170002D20CDE90045FEF726FC4FF01908CDF8CB
:1031800000800522CDE90185142311461046FFF782
:103190002BF90522CDE90246CDF800801423114613
:1031A0001046CDF80480FFF7FFF8CDE900B91423ED
:1031B0001E222D213C20FFF707F84FF00A086FF080
:1031C0007F450321CDF80080CDE9011519233C226C
:1031D00046215020FFF73DF8CDE9008519233C2218
:1031E00064215020FFF7A4F8CDE9007B14231E22B0
:1031F00064213C20CDF808A0FEF782FD0094CDE9C3
:10320000014A0F2319223C217D20FEF779FD2E4B28
:10321000CDE9004630333DA2C8210020FEF7C4FEB0
:10322000294BCDE9004618333BA2DC210A20FEF7EA
:10323000BBFE3F4CDFF8FC804FF47A762078B8B1C3
:10324000FFF75AFE6080FFF76BFEA08001466088A2
:1032500028B121B102231A460095FEF7DEFF0022B5
:1032600040214046FDF700FA6780A780277004E000
:10327000012240214046FDF7F7F9D4E90201324628
:103280000023FCF79DFFC00705D0002280214046A7
:10329000FDF7EAF9D2E70122F8E700000054004008
:1032A00030000020A08601000058004000100140BE
:1032B0006C0100200044004055415254204F4B0DFA
:1032C0000A00000000FFFF00F83700085468697327
:1032D0002069730A206A75737420612054657374C1
:1032E0000A20546F6D5468756D62204578740A0029
:1032F000444953504C4159204452495645520000CC
:10330000534552494620424F4C4400003132333439
:1033100035363738393000003132333435363738C6
:1033200039302044656661756C7420466F6E740098
:10333000000000200000024030EE600A32EE612AF8
:1033400031EE601A20EE020AC0EE010A30EEA10A48
:103350007047000001000200010002000080808030
:103360000080A0A0A0E0A0E0A060C060C0408020DD
:10337000408020C0C0E0A06080804080808040808D
:1033800040404080A040A040E0404080E0802020BD
:1033900040808060A0A0A0C040C0404040C020400D
:1033A00080E0C0204020C0A0A0E02020E080C0201D
:1033B000C06080E0A0E0E020408080E0A0E0A0E0ED
:1033C000E0A0E020C080008040004080204080409D
:1033D00020E000E08040204080E02040004040A00D
:1033E000E0806040A0E0A0A0C0A0C0A0C06080803D
:1033F0008060C0A0A0A0C0E080E080E0E080E0802D
:10340000806080E0A060A0A0E0A0A0E0404040E09C
:10341000202020A040A0A0C0A0A080808080E0A0AC
:10342000E0E0A0A0A0E0E0E0A040A0A0A040C0A0FC
:10343000C0808040A0A0E060C0A0E0C0A06080404C
:1034400020C0E040404040A0A0A0A060A0A0A040BC
:1034500040A0A0E0E0A0A0A040A0A0A0A0404040CC
:10346000E0204080E0E0808080E0804020E020207C
:1034700020E040A0E08040C060A0E080C0A0A0C0EC
:10348000608080602060A0A06060A0C0602040E0FC
:10349000404060A0E0204080C0A0A0A080008080CC
:1034A0008020002020A04080A0C0C0A0C04040409C
:1034B000E0E0E0E0A0C0A0A0A040A0A040C0A0A08C
:1034C000C08060A0A060206080808060C060C0403C
:1034D000E0404060A0A0A060A0A0E040A0E0E0E04C
:1034E000A04040A0A0A0602040E060C0E06040801C
:1034F00040608080008080C0402040C060C00000EC
:1035000008010200FB00010008050200FB000600A4
:1035100008020400FB00080008050400FB000D0081
:1035200008050400FB00120008050400FB0017005A
:1035300008050400FB001C0008020200FB001E003E
:1035400008050300FB00230008050300FB0028001A
:1035500008030400FB002B0008030400FC002E00FD
:1035600008020300FE00300008010400FD003100E5
:1035700008010200FF00320008050400FB003700CC
:1035800008050400FB003C0008050300FB004100A7
:1035900008050400FB00460008050400FB004B0082
:1035A00008050400FB00500008050400FB0055005E
:1035B00008050400FB005A0008050400FB005F003A
:1035C00008050400FB00640008050400FB00690016
:1035D00008030200FC006C0008040300FC007000FB
:1035E00008050400FB00750008030400FC007800D7
:1035F00008050400FB007D0008050400FB008200B4
:1036000008050400FB00870008050400FB008C008F
:1036100008050400FB00910008050400FB0096006B
:1036200008050400FB009B0008050400FB00A00047
:1036300008050400FB00A50008050400FB00AA0023
:1036400008050400FB00AF0008050400FB00B400FF
:1036500008050400FB00B90008050400FB00BE00DB
:1036600008050400FB00C30008050400FB00C800B7
:1036700008050400FB00CD0008050400FB00D20093
:1036800008050400FB00D70008050400FB00DC006F
:1036900008050400FB00E10008050400FB00E6004B
:1036A00008050400FB00EB0008050400FB00F00027
:1036B00008050400FB00F50008050400FB00FA0003
:1036C00008050400FB00FF0008050400FB000401DE
:1036D00008050400FB00090108050400FB000E01B9
:1036E00008030400FC00110108050400FB0016019A
:1036F00008020400FB00180108010400FF00190182
:1037000008020300FB001B0108040400FC001F0169
:1037100008050400FB00240108040400FC00280143
:1037200008050400FB002D0108040400FC00310121
:1037300008050400FB00360108050400FC003B01FD
:1037400008050400FB00400108050200FB004501DC
:1037500008060400FB004B0108050400FB005001B3
:1037600008050400FB00550108040400FC00590191
:1037700008040400FC005D0108040400FC00610171
:1037800008050400FC00660108050400FC006B014C
:1037900008040400FC006F0108040400FC0073012D
:1037A00008050400FB00780108040400FC007C010B
:1037B00008040400FC00800108040400FC008401EB
:1037C00008040400FC00880108050400FC008D01C9
:1037D00008040400FC00910108050400FB009601A8
:1037E00008050200FB009B0108050400FB00A00186
:1037F00008020400FB0000005C330008FE340008EF
:10380000207E06003438000844390008207E070076
:103810003C3C0008DA3D0008207E0C00D240000845
:103820005C450008207E160054480008C84D00087A
:103830002E3A3200E8A057D5F500FD3E5F8088881B
:103840008880F4BF2E80806A409580AA805D00C089
:10385000F08008888800FC631F80F8F87F0F80F8EC
:103860007E1F808C7E1080FC3E1F80FC3F1F80F8F6
:10387000421080FC7F1F80FC7E1F8090B02A22F0C7
:10388000F088A8F84E0200FD6F0F80FC7F1880F4CE
:103890007D1F00FC210F80F4631F00FC3F0F80FCA4
:1038A0003F0800FC2F1F808C7F1880F9084F80781C
:1038B000852F808DB1688084210F80FD6B5A80FC3C
:1038C000631880FC631F80FC7F0800FC633F80FC62
:1038D0007F2900FC3E1F80F90842008C631F808C0A
:1038E00062A200AD6B5F808A88A8808C544200F889
:1038F0007F0F80EAC082082080D5C054F880F1FF95
:103900008F99F0F88F1F99F0FF8F6BA4F99F108F9C
:103910009990F055C08AF990F8FD6310F999F99FD4
:10392000F99F80F99F20F888471F27C84200999F78
:1039300099978C6BF09669999F102E8F2B22F8899E
:10394000A80FE000000000000600010000000105D3
:103950000200FC00010003010400FC000200050558
:103960000600FC00060005050600FC000A0005052F
:103970000600FC000E0005050600FC001200010117
:103980000200FC00130002050300FC001500020504
:103990000300FC00170003030400FD0019000303EB
:1039A0000400FD001B000102020000001C000401D5
:1039B0000500FE001D000101020000001E000505BB
:1039C0000600FC00220005050600FC00260001059B
:1039D0000200FC00270005050600FC002B00050581
:1039E0000600FC002F0005050600FC00330005055D
:1039F0000600FC00370005050600FC003B0005053D
:103A00000600FC003F0005050600FC00430005051C
:103A10000600FC00470001040200FD00480001040C
:103A20000200FD00490003050400FC004B000403F4
:103A30000500FD004D0003050400FC004F000505D6
:103A40000600FC00530005050600FC0057000505B4
:103A50000600FC005B0005050600FC005F00050594
:103A60000600FC00630005050600FC006700050574
:103A70000600FC006B0005050600FC006F00050554
:103A80000600FC00730005050600FC007700050534
:103A90000600FC007B0005050600FC007F00050514
:103AA0000600FC00830005050600FC0087000505F4
:103AB0000600FC008B0005050600FC008F000505D4
:103AC0000600FC00930005050600FC0097000505B4
:103AD0000600FC009B0005050600FC009F00050594
:103AE0000600FC00A30005050600FC00A700050574
:103AF0000600FC00AB0005050600FC00AF00050554
:103B00000600FC00B30005050600FC00B700050533
:103B10000600FC00BB0005050600FC00BF00020516
:103B20000300FC00C10005050600FC00C5000205FD
:103B30000300FC00C70003020400FC00C8000501EC
:103B400006000100C90001010200FC00CA000404D3
:103B50000500FD00CC0004050500FC00CF000404B6
:103B60000500FD00D10004050500FC00D40004049C
:103B70000500FD00D60003050400FC00D800040584
:103B80000500FD00DB0004050500FC00DE0001046B
:103B90000200FD00DF0002050300FD00E100040556
:103BA0000500FC00E40001050200FC00E50005043E
:103BB0000600FD00E80004040500FD00EA0004041E
:103BC0000500FD00EC0004050500FD00EF00040504
:103BD0000500FD00F20004040500FD00F4000404EB
:103BE0000500FD00F60005050600FC00FA000404CF
:103BF0000500FD00FC0004040500FD00FE000504B6
:103C00000600FD00010104040500FD000301040598
:103C10000500FD00060104040500FD000801030580
:103C20000400FC000A0101050200FC000B01030571
:103C30000400FC000D0105030600FD00FD5AA0284C
:103C4000AFCA53F51423EB4618B5F1004AAB14285C
:103C5000D55221451EAAA91B582A492444889249B5
:103C600050255CEA902109F2108058F880088422DF
:103C700011084400746318C62E59249774622222D6
:103C80001F744260862E1194A93C43FC21E0862ECD
:103C900074A1E8C62EFC844210847462E8C62E74B7
:103CA0006317852E848C088888208208F801F082AA
:103CB0000820888880746222100474675ADE0F20FE
:103CC000831451E4B3F252E4A53E7C6108422EF223
:103CD0005294A53EFA54E5213FFA54E5211C3928B7
:103CE000209E248CCD249E4924B3F90842109F7C49
:103CF0004104104124E0ED25185144BBE10410417A
:103D0000047FDEF7BAD6B5DD269A5964BA74631813
:103D1000C62EF252E4211C746318F66E18F1249C2E
:103D20005124BB7C60C1063EFD4842108ECD2492DA
:103D300049248CCD249450C208AD6AE5294ADA940E
:103D400042295BDA9442108EFC8442213FF24924DE
:103D50009C8884422210E492493C54FC80649D2754
:103D600080C210E4A52E7988703084E94A4F69F842
:103D7000703A11E4211E7C990F45C0C1041C4924EE
:103D8000BB406497100311111EC1041751C4BBE15D
:103D90000842109FF56B5A80F12492EC699960F209
:103DA0005297238074A52708E0DB108E00F861F09D
:103DB00044E44430D924923CED250C20AD5CA500B0
:103DC000DA88AD80ED250C208C00F244F069289251
:103DD0004CFFF0C922925842918000000000080078
:103DE0000000000001080802F700010004030801B8
:103DF000F600030006080800F7000900050A08009D
:103E0000F600100006080800F70016000608080073
:103E1000F7001C0002030800F6001D00030A080357
:103E2000F6002100030A0801F60025000506080037
:103E3000F800290005070800F7002E00020308001B
:103E4000FE002F0005010800FA0030000101080102
:103E5000FE003100050A0800F600380005080800D9
:103E6000F7003D0003080801F700400005080800BE
:103E7000F700450005080800F7004A00050808009B
:103E8000F7004F0005080800F70054000508080077
:103E9000F700590005080800F7005E000508080053
:103EA000F700630005080800F70068000106080233
:103EB000F900690001060802FA006A000509080114
:103EC000F600700005040800F900730005090801F8
:103ED000F600790005080800F7007E0005080800D4
:103EE000F700830006080800F700890005080800AD
:103EF000F7008E0005080800F70093000508080089
:103F0000F700980005080800F7009D000508080064
:103F1000F700A20006080800F700A800060808003D
:103F2000F700AE0005080800F700B3000609080016
:103F3000F700BA0006080800F700C00006080800ED
:103F4000F700C60005080800F700CB0006080800C7
:103F5000F700D10005080800F700D60005080800A2
:103F6000F700DB0005090800F700E100060808007B
:103F7000F700E70005080800F700EC000508080056
:103F8000F700F10006080800F700F700060808002F
:103F9000F700FD0005080800F70002010508080009
:103FA000F700070105080800F7000C0105080800E4
:103FB000F7001101030A0802F600150104090801BF
:103FC000F6001A01030A0801F6001E0103020801A7
:103FD000F6001F010601080000002001010108028F
:103FE000F600210105050801FA0025010508080071
:103FF000F7002A0104050801FA002D01050808014F
:10400000F700320104050801FA003501050808012E
:10401000F7003A0105070801FA003F010608080009
:10402000F700450103080801F7004801040A0800E9
:10403000F7004D0106080800F700530105080800C5
:10404000F700580105050800FA005C0106050800A4
:10405000FA00600104050801FA0063010507080081
:10406000FA00680105070801FA006D01050508005E
:10407000FA00710104050801FA007401040708013F
:10408000F800780106050800FA007C010605080022
:10409000FA00800105050800FA0084010505080002
:1040A000FA00880106070800FA008E0104050801DD
:1040B000FA009101030A0802F6009501010C0803B9
:1040C000F5009701030A0801F6009B0106030800AA
:1040D000F500FFF4921FF0CF3CE388130984C24738
:1040E000F990C84CFF13090C86401038D692D2F0D4
:1040F0007C3E179393D67C103C21CF0E2430A0C574
:104100000334E72640B904C423308C841C0F00CC50
:1041100006603E00E78F189C8CE4E3C79E3C72FD6E
:10412000E0FF803244CCCCCCC462108422333333E1
:10413000326480316BB18ED68C00080402010FF816
:104140004020100800DF9500FFFF800C218610C37F
:1041500008618430C01C3398DC7E3F1F8FC7E3B1F9
:1041600098C38008E38E38E38E38E3BF3C3F23C01A
:10417000E07030381818185FDFE07C8E0E0E0C1ED1
:1041800007030302E6F8060E0E3E2E4E8E8EFFFF4C
:104190000E0E3F7E4040F8FC1E060202E4F8071CAB
:1041A0003070FCE6E7E7E767663C7F3FA0D0406001
:1041B0003010180C040603003CC6C6C6FC7C3ECF7B
:1041C000C7C7C67C3E33B8DC7E3F1DCE7F07070FD6
:1041D0001C00FF803FE0FF8037E5400000707878EA
:1041E000783803803C03C030FFC0000000FFC0C02F
:1041F0003C03C01C01C1E1E1E0E000003D9F3E70D6
:10420000E104080070E1C00F818318C4899C4CE46C
:10421000672239224FE3000C101F0002003001C05A
:104220000E00B805C04F02383FE107183DE3F0FF2C
:10423000871CE39C739C7F0E71C738E71CE77FC027
:104240001F261DC1B01E01C0380700E00E04E10F9B
:10425000C0FF0E71C738770EE1DC3B8770CE39C6E0
:104260007F80FFCE19C1388730FE1CC388702E0DA9
:10427000C37FE0FFDC3705C4731FC731C4701C0760
:1042800003E01F230E706E02E00E00E1FE0E60E7F9
:104290000E38E0F8F9F70E70E70E70E7FE70E70EE3
:1042A00070E70E70EF9FFB9CE739CE739DF01F0EF9
:1042B0000E0E0E0E0E0E0E0E0ECECC78F9F3821CE4
:1042C00020E207203F01DC0E7073C38F1C3DF3F02A
:1042D000F80E01C0380700E01C0380702E09C37F70
:1042E000E0F80F3C1E3C1E2E2E2E2E264E274E276B
:1042F0004E238E238E210E711FF0EE09E13E25E440
:104300009E91D21E43C8390370201F830C70EE07A4
:10431000E07E07E07E07E0770E30C1F8FF1CE71D66
:10432000C771DCE7F1C0701C0703E00F839C70E6E7
:1043300006E07E07E07E07E0760630C1980F007841
:1043400003E0FF073871C71C71C7387E0770778795
:104350003C71EF8F3947C1C0F07C3E0F83C3C6BCB0
:10436000FFFCE38E10E00E00E00E00E00E00E00E19
:1043700001F0F8EE09C1382704E09C1382704E0862
:10438000E20F80FC7BC10E087081C40E207A01D040
:104390000E803801C004002000FDFBDC384387108C
:1043A000E1C438F2072E81D3A034700E1C038700BD
:1043B00060801020FEF3C30F103900F003801E014F
:1043C0007009C08F083DF3F0FC7BC18E083881E88E
:1043D00007401C00E007003801C01F00FFD8721E14
:1043E0004380E01C0701C0382E0F837FE0FCCCCC5B
:1043F000CCCCCCCCF0C1061820C3041860830CF3DD
:10440000333333333333F0181C34266243C1FF8017
:10441000C6307C63B1C0E1F33B9DCEFF80F01C074A
:1044200001DC7B9C771DC771DC77393C3CED9F0E2E
:104430001C38393C0780E038EE77B8EE3B8EE3B8A5
:10444000E778EF3C66E6FEE0E0E0723C3EEDC7C791
:104450000E1C3870E1C7C031DFBF7EE79060FCFE04
:104460000C17C0F01C0701DC7B9CE739CE739CE77E
:104470003BFF739DE739CE739DF01C71CF1C71C754
:104480001C71C71C7DBEF01C0701CE711C8741F852
:10449000771CE71BEFF39CE739CE739DF0F738F7F5
:1044A000B9CE739CE739CE739CE739CEFFFEF71E79
:1044B000E739CE739CE739CEFFC03E31B8FC7E3F72
:1044C0001F8EC63E00F71EE71DC771DC771DCE7F2D
:1044D0001C0701C0F8003C9CEE3B8EE3B8EE39CEE1
:1044E0003F80E0380E07C0F77B707070707070F816
:1044F0007E73C78E39B010CF9C71C71C71D380F703
:104500009CE739CE739CE739CE3FC0FBB88C87431C
:10451000C0E070100800F7B63173A33A3DA3DC1871
:10452000C1881080FBB88E8381C0F098CEEF80F7F1
:10453000627234343C1818101010E0E0FF1C70E375
:10454000871C71FE198C6318CC618C6318C3FFF84B
:10455000C318C631863318C63198F08E00000000AB
:10456000050001000000030C0601F500050006052A
:104570000A02F5000900090D0900F4001800080EF0
:104580000901F40026000E0C1202F5003B000D0C90
:104590000F01F5004F0002050501F5005100040F61
:1045A0000601F5005900040F0601F5006100070738
:1045B0000902F500680009090C01F8007300030600
:1045C0000401FE00760004020601FC0077000303EC
:1045D0000401FE007900060D0500F5008300090CBA
:1045E0000900F5009100060C0901F5009A00090C7C
:1045F0000900F500A800080C0900F500B400080C3B
:104600000901F500C000080C0901F500CC00080CF8
:104610000901F500D800090C0900F500E600080CB6
:104620000901F500F200090C0900F5000001030979
:104630000601F8000401030C0602F80009010A0A49
:104640000C01F70016010A050C01FA001D010A0A07
:104650000C01F8002A01070C0901F50035010D0CC9
:104660001102F50049010D0C0D00F5005D010B0C68
:104670000C00F5006E010B0C0D01F5007F010B0C19
:104680000D01F50090010B0C0C01F500A1010A0CC5
:104690000B01F500B0010C0C0E01F500C2010C0C71
:1046A0000E01F500D401050C0701F500DC01080E30
:1046B0000900F500EA010D0C0E01F500FE010B0CDE
:1046C0000C01F5000F02100C1100F50027020B0C75
:1046D0000D01F50038020C0C0E01F5004A020A0C1F
:1046E0000B01F50059020C0F0E01F50070020C0CC5
:1046F0000D01F5008202080C0A01F5008E020C0C77
:104700000C00F500A0020B0C0D01F500B1020D0D1F
:104710000D00F500C702120C1200F500E2020D0CAC
:104720000D00F500F6020D0C0D00F5000A030B0C50
:104730000C01F5001B03040F0601F5002303060D11
:104740000500F5002D03040F0601F50035030807E9
:104750000A01F5003C030901090003003E030403BC
:104760000600F400400309090900F8004B030A0C95
:104770000A00F5005A0307090800F80062030A0C52
:104780000A00F500710308090800F8007A03070C15
:104790000700F5008503070D0901F80091030A0CD5
:1047A0000A00F500A003050C0500F500A80306109B
:1047B0000700F500B4030A0C0A00F500C303050C5A
:1047C0000500F500CB030F090F00F800DC030A0910
:1047D0000A00F800E80309090900F800F3030A0DCC
:1047E0000A00F80004040A0D0A00F800150408097C
:1047F0000800F8001E0405090701F8002404060B50
:104800000600F6002D040A090A00F8003904090917
:104810000900F80044040C090D00F80052040909CD
:104820000900F8005D04080D0900F8006A04070992
:104830000801F800720405100700F4007C04010D63
:104840000401F5007E0405100702F4008804080244
:104850000901FC0038FBFFFFEF8E0003FFF800FFAB
:10486000FF803FFFF803FFFEC33FFFBCF0000FFFD8
:104870000001FFE0003FFC0007FF8000FFF0001F89
:10488000FE0003FFC0007FF8000FFF0001FFE00003
:104890003FFC0007FF8000FFF0001FFC0000FE004F
:1048A000000700000040000004000000E000007F5E
:1048B00000003FF0001FFE0003FFC0007FF8000F64
:1048C000FF0001FFE0003FFC0007FF8000FFF00059
:1048D0001FFE0003FFC0007FF8000FFF0001FFE094
:1048E000003F780003C67FFF301FFFF007FFFF0087
:1048F0007FFFC007FFF00031EFFFFFFFFFFFFFFF6B
:10490000FFFFFF3C30400033FFFFFFFFFFFFFFFFD3
:10491000FFFFFDE30003FFF800FFFF803FFFF80308
:10492000FFFEC03FFFBC00000FC00001F800003FC9
:10493000000007E00000FC00001F800003F0000002
:104940007E00000FC00001F800003F000007E000FB
:1049500000FC00001F800000F07FFF861FFFFC4F5F
:10496000FFFFE4FFFFF8E7FFFC1F000003F000007B
:104970007E00000FC00001F800003F000007E000CB
:1049800000FC00001F800003F000007E00000FC04C
:104990000001F800003F000007E00000780000067A
:1049A0007FFF001FFFF007FFFF007FFFC007FFF042
:1049B000000FFFE00FFFF80FFFFE03FFFEC0FFFE3A
:1049C000F00000FC00007E00003F00001F80000F90
:1049D000C00007E00003F00001F80000FC00007ECA
:1049E00000003F00001F80000FC00007E00000F142
:1049F000FFFE19FFFFC7FFFFF8FFFFF81FFFF18061
:104A00000003C00007E00003F00001F80000FC0014
:104A1000007E00003F00001F80000FC00007E00084
:104A200003F00001F80000FC00007E00003F0000E1
:104A30000F07FFF307FFFC07FFFF01FFFF007FFFEA
:104A40000000000186000079E0001FFE0003FFC0A7
:104A5000007FF8000FFF0001FFE0003FFC0007FFB0
:104A60008000FFF0001FFE0003FFC0007FF8000F72
:104A7000FF0001FFE0003FF80001FCFFFF0E3FFFD9
:104A8000F89FFFFFC1FFFFF00FFFF8C000007800A4
:104A9000003F000007E00000FC00001F800003F062
:104AA00000007E00000FC00001F800003F0000077A
:104AB000E00000FC00001F800003F000007E00000A
:104AC000078000006003FFF800FFFF803FFFF8034E
:104AD000FFFE033FFF80F000003F000007E0000002
:104AE000FC00001F800003F000007E00000FC000EB
:104AF00001F800003F000007E00000FC00001F80FC
:104B00000003F000007C00000E7FFF811FFFFC0F00
:104B1000FFFFE0FFFFF807FFFC6000003C00001F04
:104B2000800003F000007E00000FC00001F80000CC
:104B30003F000007E00000FC00001F800003F000C1
:104B4000007E00000FC00001F800003F000003C01D
:104B50007FFF301FFFF007FFFF007FFFC007FFF060
:104B60000003FFF800FFFF803FFFF803FFFE033F55
:104B7000FF80F000003F000007E00000FC00001F85
:104B8000800003F000007E00000FC00001F800006C
:104B90003F000007E00000FC00001F800003F00061
:104BA000007C00000E7FFF811FFFFC0FFFFFE4FF72
:104BB000FFF8E7FFFC7F00003FF0001FFE0003FF4F
:104BC000C0007FF8000FFF0001FFE0003FFC00077E
:104BD000FF8000FFF0001FFE0003FFC0007FF80011
:104BE0000FFF0001FFE0003F780003C67FFF301F8A
:104BF000FFF007FFFF007FFFC007FFF0003FFF80CF
:104C0000FFFF83FFFF83FFFEC3FFFBC0000FC00059
:104C10001F80003F00007E0000FC0001F80003F050
:104C20000007E0000FC0001F80003F00007E000072
:104C3000FC0001F80000F0000060000040000000EF
:104C4000000000000600003C0001F80003F000072F
:104C5000E0000FC0001F80003F00007E0000FC004D
:104C600001F80003F00007E0000FC0001F80003FC4
:104C700000003C00003003FFF800FFFF803FFFF81A
:104C800003FFFEC33FFFBCF0000FFF0001FFE00089
:104C90003FFC0007FF8000FFF0001FFE0003FFC085
:104CA000007FF8000FFF0001FFE0003FFC0007FF5E
:104CB0008000FFF0001FFC0000FE7FFF871FFFFC4D
:104CC0004FFFFFE4FFFFF8E7FFFC7F00003FF0002D
:104CD0001FFE0003FFC0007FF8000FFF0001FFE090
:104CE000003FFC0007FF8000FFF0001FFE0003FFF5
:104CF000C0007FF8000FFF0001FFE0003F780003D5
:104D0000C67FFF301FFFF007FFFF007FFFC007FFD8
:104D1000F00003FFF800FFFF803FFFF803FFFEC332
:104D20003FFFBCF0000FFF0001FFE0003FFC000769
:104D3000FF8000FFF0001FFE0003FFC0007FF800AF
:104D40000FFF0001FFE0003FFC0007FF8000FFF0C5
:104D5000001FFC0000FE7FFF871FFFFC4FFFFFE0EE
:104D6000FFFFF807FFFC6000003C00001F8000030D
:104D7000F000007E00000FC00001F800003F0000BE
:104D800007E00000FC00001F800003F000007E0030
:104D9000000FC00001F800003F000003C07FFF309B
:104DA0001FFFF007FFFF007FFFC007FFF00038FB89
:104DB000FFFFEF8E00000000000000000000000078
:104DC000071F7FFFFDF1C00000000707200EF50060
:104DD000070000002000000007001B2E2002D10069
:104DE000A30006272017D400C1001B2E2002D100EB
:104DF0005D01192E2004D100ED011B272002D400F3
:104E000071021B2E2002D1000D031B2E2002D100A7
:104E1000A903172A2006D10022041B2E2002D1004C
:104E2000BE041B2E2002D1005A05071C200EDB00F9
:104E3000000000000000000001020304060708094A
:104E40000000000001020304684E0008000000207A
:104E500030000000802E0008984E0008300000202E
:104E600010060000902E0008000000000000000066
:104E70000000000000000000000000000000000032
:104E80000000000000000000010000001000000011
:084E9000000000000024F40002
:040000050800018965
:00000001FF
