Component: ARM Compiler 5.06 update 6 (build 750) Tool: armlink [4d35ed]

==============================================================================

Section Cross References

    startup_stm32f103xe.o(RESET) refers to startup_stm32f103xe.o(STACK) for __initial_sp
    startup_stm32f103xe.o(RESET) refers to startup_stm32f103xe.o(.text) for Reset_Handler
    startup_stm32f103xe.o(RESET) refers to stm32f1xx_it.o(i.NMI_Handler) for NMI_Handler
    startup_stm32f103xe.o(RESET) refers to stm32f1xx_it.o(i.HardFault_Handler) for HardFault_Handler
    startup_stm32f103xe.o(RESET) refers to stm32f1xx_it.o(i.MemManage_Handler) for MemManage_Handler
    startup_stm32f103xe.o(RESET) refers to stm32f1xx_it.o(i.BusFault_Handler) for BusFault_Handler
    startup_stm32f103xe.o(RESET) refers to stm32f1xx_it.o(i.UsageFault_Handler) for UsageFault_Handler
    startup_stm32f103xe.o(RESET) refers to stm32f1xx_it.o(i.SVC_Handler) for SVC_Handler
    startup_stm32f103xe.o(RESET) refers to stm32f1xx_it.o(i.DebugMon_Handler) for DebugMon_Handler
    startup_stm32f103xe.o(RESET) refers to stm32f1xx_it.o(i.PendSV_Handler) for PendSV_Handler
    startup_stm32f103xe.o(RESET) refers to stm32f1xx_it.o(i.SysTick_Handler) for SysTick_Handler
    startup_stm32f103xe.o(RESET) refers to stm32f1xx_it.o(i.TIM1_BRK_IRQHandler) for TIM1_BRK_IRQHandler
    startup_stm32f103xe.o(RESET) refers to stm32f1xx_it.o(i.TIM1_UP_IRQHandler) for TIM1_UP_IRQHandler
    startup_stm32f103xe.o(.text) refers to system_stm32f1xx.o(i.SystemInit) for SystemInit
    startup_stm32f103xe.o(.text) refers to entry.o(.ARM.Collect$$$$00000000) for __main
    system_stm32f1xx.o(i.SystemCoreClockUpdate) refers to system_stm32f1xx.o(.data) for .data
    system_stm32f1xx.o(i.SystemCoreClockUpdate) refers to system_stm32f1xx.o(.constdata) for .constdata
    stm32f1xx_hal_rcc_ex.o(i.HAL_RCCEx_GetPeriphCLKFreq) refers to stm32f1xx_hal_rcc.o(i.HAL_RCC_GetPCLK2Freq) for HAL_RCC_GetPCLK2Freq
==============================================================================

Removing Unused input sections from the image.

    Removing startup_stm32f103xe.o(HEAP), (512 bytes).
    Removing system_stm32f1xx.o(.rev16_text), (4 bytes).
    Removing system_stm32f1xx.o(.revsh_text), (4 bytes).
    Removing system_stm32f1xx.o(.rrx_text), (6 bytes).
    Removing system_stm32f1xx.o(i.SystemCoreClockUpdate), (104 bytes).
    Removing stm32f1xx_hal_rcc_ex.o(.rev16_text), (4 bytes).
    Removing stm32f1xx_hal_rcc_ex.o(.revsh_text), (4 bytes).
    Removing stm32f1xx_hal_rcc_ex.o(.rrx_text), (6 bytes).
    Removing stm32f1xx_hal_rcc_ex.o(i.HAL_RCCEx_GetPeriphCLKConfig), (52 bytes).
    Removing stm32f1xx_hal_rcc_ex.o(i.HAL_RCCEx_GetPeriphCLKFreq), (212 bytes).
    Removing stm32f1xx_hal_rcc_ex.o(i.HAL_RCCEx_PeriphCLKConfig), (236 bytes).
    Removing stm32f1xx_hal_sram.o(.rev16_text), (4 bytes).
    Removing stm32f1xx_hal_sram.o(.revsh_text), (4 bytes).
    Removing stm32f1xx_hal_sram.o(.rrx_text), (6 bytes).
    Removing stm32f1xx_hal_sram.o(i.HAL_SRAM_DMA_XferCpltCallback), (2 bytes).
    Removing stm32f1xx_hal_sram.o(i.HAL_SRAM_DMA_XferErrorCallback), (2 bytes).
    Removing stm32f1xx_hal_sram.o(i.HAL_SRAM_DeInit), (28 bytes).
    Removing stm32f1xx_hal_sram.o(i.HAL_SRAM_GetState), (6 bytes).
==============================================================================

Image Symbol Table

    Local Symbols

    Symbol Name                              Value     Ov Type        Size  Object(Section)

    ../Drivers/STM32F1xx_HAL_Driver/Src/stm32f1xx_hal.c 0x00000000   Number         0  stm32f1xx_hal.o ABSOLUTE
    ../Drivers/STM32F1xx_HAL_Driver/Src/stm32f1xx_hal_cortex.c 0x00000000   Number         0  stm32f1xx_hal_cortex.o ABSOLUTE
    ../Drivers/STM32F1xx_HAL_Driver/Src/stm32f1xx_hal_dma.c 0x00000000   Number         0  stm32f1xx_hal_dma.o ABSOLUTE
    ../Drivers/STM32F1xx_HAL_Driver/Src/stm32f1xx_hal_flash.c 0x00000000   Number         0  stm32f1xx_hal_flash.o ABSOLUTE
    ../Drivers/STM32F1xx_HAL_Driver/Src/stm32f1xx_hal_flash_ex.c 0x00000000   Number         0  stm32f1xx_hal_flash_ex.o ABSOLUTE
    ../Drivers/STM32F1xx_HAL_Driver/Src/stm32f1xx_hal_gpio.c 0x00000000   Number         0  stm32f1xx_hal_gpio.o ABSOLUTE
    ../Drivers/STM32F1xx_HAL_Driver/Src/stm32f1xx_hal_gpio_ex.c 0x00000000   Number         0  stm32f1xx_hal_gpio_ex.o ABSOLUTE
    ../Drivers/STM32F1xx_HAL_Driver/Src/stm32f1xx_hal_pwr.c 0x00000000   Number         0  stm32f1xx_hal_pwr.o ABSOLUTE
    ../Drivers/STM32F1xx_HAL_Driver/Src/stm32f1xx_hal_rcc.c 0x00000000   Number         0  stm32f1xx_hal_rcc.o ABSOLUTE
    ../Drivers/STM32F1xx_HAL_Driver/Src/stm32f1xx_hal_rcc_ex.c 0x00000000   Number         0  stm32f1xx_hal_rcc_ex.o ABSOLUTE
    ../Drivers/STM32F1xx_HAL_Driver/Src/stm32f1xx_hal_spi.c 0x00000000   Number         0  stm32f1xx_hal_spi.o ABSOLUTE
    ../Drivers/STM32F1xx_HAL_Driver/Src/stm32f1xx_hal_spi_ex.c 0x00000000   Number         0  stm32f1xx_hal_spi_ex.o ABSOLUTE
    ../Drivers/STM32F1xx_HAL_Driver/Src/stm32f1xx_hal_sram.c 0x00000000   Number         0  stm32f1xx_hal_sram.o ABSOLUTE
    ../Drivers/STM32F1xx_HAL_Driver/Src/stm32f1xx_hal_tim.c 0x00000000   Number         0  stm32f1xx_hal_tim.o ABSOLUTE
    ../Drivers/STM32F1xx_HAL_Driver/Src/stm32f1xx_hal_tim_ex.c 0x00000000   Number         0  stm32f1xx_hal_tim_ex.o ABSOLUTE
    ../Drivers/STM32F1xx_HAL_Driver/Src/stm32f1xx_hal_uart.c 0x00000000   Number         0  stm32f1xx_hal_uart.o ABSOLUTE
    ../Drivers/STM32F1xx_HAL_Driver/Src/stm32f1xx_ll_fsmc.c 0x00000000   Number         0  stm32f1xx_ll_fsmc.o ABSOLUTE
    ../Src/main.c                            0x00000000   Number         0  main.o ABSOLUTE
    ../Src/stm32f1xx_hal_msp.c               0x00000000   Number         0  stm32f1xx_hal_msp.o ABSOLUTE
    ../Src/stm32f1xx_it.c                    0x00000000   Number         0  stm32f1xx_it.o ABSOLUTE
    ../Src/system_stm32f1xx.c                0x00000000   Number         0  system_stm32f1xx.o ABSOLUTE
    ../clib/microlib/division.c              0x00000000   Number         0  uldiv.o ABSOLUTE
    ../clib/microlib/init/entry.s            0x00000000   Number         0  entry10b.o ABSOLUTE
    ../clib/microlib/init/entry.s            0x00000000   Number         0  entry2.o ABSOLUTE
    ../clib/microlib/init/entry.s            0x00000000   Number         0  entry5.o ABSOLUTE
    ../clib/microlib/init/entry.s            0x00000000   Number         0  entry7b.o ABSOLUTE
    ../clib/microlib/init/entry.s            0x00000000   Number         0  entry8b.o ABSOLUTE
    ../clib/microlib/init/entry.s            0x00000000   Number         0  entry9a.o ABSOLUTE
    ../clib/microlib/init/entry.s            0x00000000   Number         0  entry7a.o ABSOLUTE
    ../clib/microlib/init/entry.s            0x00000000   Number         0  entry9b.o ABSOLUTE
    ../clib/microlib/init/entry.s            0x00000000   Number         0  entry10a.o ABSOLUTE
    ../clib/microlib/init/entry.s            0x00000000   Number         0  entry.o ABSOLUTE
    ../clib/microlib/init/entry.s            0x00000000   Number         0  entry11b.o ABSOLUTE
    ../clib/microlib/init/entry.s            0x00000000   Number         0  entry11a.o ABSOLUTE
    ../clib/microlib/init/entry.s            0x00000000   Number         0  entry8a.o ABSOLUTE
    ../clib/microlib/longlong.c              0x00000000   Number         0  llushr.o ABSOLUTE
    ../clib/microlib/longlong.c              0x00000000   Number         0  llshl.o ABSOLUTE
    ../clib/microlib/string/strlen.c         0x00000000   Number         0  strlen.o ABSOLUTE
    ../clib/microlib/stubs.s                 0x00000000   Number         0  iusefp.o ABSOLUTE
    ../fplib/microlib/fpadd.c                0x00000000   Number         0  fadd.o ABSOLUTE
    ../fplib/microlib/fpdiv.c                0x00000000   Number         0  fdiv.o ABSOLUTE
    ../fplib/microlib/fpepilogue.c           0x00000000   Number         0  fepilogue.o ABSOLUTE
    ../fplib/microlib/fpfix.c                0x00000000   Number         0  ffixui.o ABSOLUTE
    ../fplib/microlib/fpflt.c                0x00000000   Number         0  ffltui.o ABSOLUTE
    ../fplib/microlib/fpmul.c                0x00000000   Number         0  fmul.o ABSOLUTE
    ..\Drivers\STM32F1xx_HAL_Driver\Src\stm32f1xx_hal.c 0x00000000   Number         0  stm32f1xx_hal.o ABSOLUTE
    ..\Drivers\STM32F1xx_HAL_Driver\Src\stm32f1xx_hal_cortex.c 0x00000000   Number         0  stm32f1xx_hal_cortex.o ABSOLUTE
    ..\Drivers\STM32F1xx_HAL_Driver\Src\stm32f1xx_hal_dma.c 0x00000000   Number         0  stm32f1xx_hal_dma.o ABSOLUTE
    ..\Drivers\STM32F1xx_HAL_Driver\Src\stm32f1xx_hal_flash.c 0x00000000   Number         0  stm32f1xx_hal_flash.o ABSOLUTE
    ..\Drivers\STM32F1xx_HAL_Driver\Src\stm32f1xx_hal_flash_ex.c 0x00000000   Number         0  stm32f1xx_hal_flash_ex.o ABSOLUTE
    ..\Drivers\STM32F1xx_HAL_Driver\Src\stm32f1xx_hal_gpio.c 0x00000000   Number         0  stm32f1xx_hal_gpio.o ABSOLUTE
    ..\Drivers\STM32F1xx_HAL_Driver\Src\stm32f1xx_hal_gpio_ex.c 0x00000000   Number         0  stm32f1xx_hal_gpio_ex.o ABSOLUTE
    ..\Drivers\STM32F1xx_HAL_Driver\Src\stm32f1xx_hal_pwr.c 0x00000000   Number         0  stm32f1xx_hal_pwr.o ABSOLUTE
    ..\Drivers\STM32F1xx_HAL_Driver\Src\stm32f1xx_hal_rcc.c 0x00000000   Number         0  stm32f1xx_hal_rcc.o ABSOLUTE
    ..\Drivers\STM32F1xx_HAL_Driver\Src\stm32f1xx_hal_rcc_ex.c 0x00000000   Number         0  stm32f1xx_hal_rcc_ex.o ABSOLUTE
    ..\Drivers\STM32F1xx_HAL_Driver\Src\stm32f1xx_hal_spi.c 0x00000000   Number         0  stm32f1xx_hal_spi.o ABSOLUTE
    ..\Drivers\STM32F1xx_HAL_Driver\Src\stm32f1xx_hal_spi_ex.c 0x00000000   Number         0  stm32f1xx_hal_spi_ex.o ABSOLUTE
    ..\Drivers\STM32F1xx_HAL_Driver\Src\stm32f1xx_hal_sram.c 0x00000000   Number         0  stm32f1xx_hal_sram.o ABSOLUTE
    ..\Drivers\STM32F1xx_HAL_Driver\Src\stm32f1xx_hal_tim.c 0x00000000   Number         0  stm32f1xx_hal_tim.o ABSOLUTE
    ..\Drivers\STM32F1xx_HAL_Driver\Src\stm32f1xx_hal_tim_ex.c 0x00000000   Number         0  stm32f1xx_hal_tim_ex.o ABSOLUTE
    ..\Drivers\STM32F1xx_HAL_Driver\Src\stm32f1xx_hal_uart.c 0x00000000   Number         0  stm32f1xx_hal_uart.o ABSOLUTE
    ..\Drivers\STM32F1xx_HAL_Driver\Src\stm32f1xx_ll_fsmc.c 0x00000000   Number         0  stm32f1xx_ll_fsmc.o ABSOLUTE
    ..\Src\ili9325_fsmc.c                    0x00000000   Number         0  ili9325_fsmc.o ABSOLUTE
    ..\Src\main.c                            0x00000000   Number         0  main.o ABSOLUTE
    ..\Src\stm32f1xx_hal_msp.c               0x00000000   Number         0  stm32f1xx_hal_msp.o ABSOLUTE
    ..\Src\stm32f1xx_it.c                    0x00000000   Number         0  stm32f1xx_it.o ABSOLUTE
    ..\Src\system_stm32f1xx.c                0x00000000   Number         0  system_stm32f1xx.o ABSOLUTE
    ..\Src\xpt2046.c                         0x00000000   Number         0  xpt2046.o ABSOLUTE
    ..\\Src\\ili9325_fsmc.c                  0x00000000   Number         0  ili9325_fsmc.o ABSOLUTE
    ..\\Src\\xpt2046.c                       0x00000000   Number         0  xpt2046.o ABSOLUTE
    dc.s                                     0x00000000   Number         0  dc.o ABSOLUTE
    handlers.s                               0x00000000   Number         0  handlers.o ABSOLUTE
    init.s                                   0x00000000   Number         0  init.o ABSOLUTE
    startup_stm32f103xe.s                    0x00000000   Number         0  startup_stm32f103xe.o ABSOLUTE
    RESET                                    0x08000000   Section      304  startup_stm32f103xe.o(RESET)
    .ARM.Collect$$$$00000000                 0x08000130   Section        0  entry.o(.ARM.Collect$$$$00000000)
    .ARM.Collect$$$$00000001                 0x08000130   Section        4  entry2.o(.ARM.Collect$$$$00000001)
    .ARM.Collect$$$$00000004                 0x08000134   Section        4  entry5.o(.ARM.Collect$$$$00000004)
    .ARM.Collect$$$$00000008                 0x08000138   Section        0  entry7b.o(.ARM.Collect$$$$00000008)
    .ARM.Collect$$$$0000000A                 0x08000138   Section        0  entry8b.o(.ARM.Collect$$$$0000000A)
    .ARM.Collect$$$$0000000B                 0x08000138   Section        8  entry9a.o(.ARM.Collect$$$$0000000B)
    .ARM.Collect$$$$0000000D                 0x08000140   Section        0  entry10a.o(.ARM.Collect$$$$0000000D)
    .ARM.Collect$$$$0000000F                 0x08000140   Section        0  entry11a.o(.ARM.Collect$$$$0000000F)
    .ARM.Collect$$$$00002712                 0x08000140   Section        4  entry2.o(.ARM.Collect$$$$00002712)
    __lit__00000000                          0x08000140   Data           4  entry2.o(.ARM.Collect$$$$00002712)
    .text                                    0x08000144   Section       36  startup_stm32f103xe.o(.text)
    .text                                    0x08000168   Section        0  uldiv.o(.text)
    .text                                    0x080001ca   Section        0  llushr.o(.text)
    .text                                    0x080001ea   Section        0  strlen.o(.text)
    .text                                    0x080001f8   Section        0  fadd.o(.text)
    .text                                    0x080002a8   Section        0  fmul.o(.text)
    .text                                    0x0800030c   Section        0  fdiv.o(.text)
    .text                                    0x08000388   Section        0  ffltui.o(.text)
    .text                                    0x08000392   Section        0  ffixui.o(.text)
    .text                                    0x080003ba   Section        0  llshl.o(.text)
    .text                                    0x080003d8   Section        0  iusefp.o(.text)
    .text                                    0x080003d8   Section        0  fepilogue.o(.text)
    .text                                    0x08000448   Section       36  init.o(.text)
    i.BusFault_Handler                       0x0800046c   Section        0  stm32f1xx_it.o(i.BusFault_Handler)
    i.DebugMon_Handler                       0x0800046e   Section        0  stm32f1xx_it.o(i.DebugMon_Handler)
    i.FSMC_NORSRAM_Extended_Timing_Init      0x08000470   Section        0  stm32f1xx_ll_fsmc.o(i.FSMC_NORSRAM_Extended_Timing_Init)
    i.FSMC_NORSRAM_Init                      0x080004ac   Section        0  stm32f1xx_ll_fsmc.o(i.FSMC_NORSRAM_Init)
    i.FSMC_NORSRAM_Timing_Init               0x08000544   Section        0  stm32f1xx_ll_fsmc.o(i.FSMC_NORSRAM_Timing_Init)
    i.HAL_Delay                              0x08000588   Section        0  stm32f1xx_hal.o(i.HAL_Delay)
    i.HAL_GPIO_Init                          0x080005a4   Section        0  stm32f1xx_hal_gpio.o(i.HAL_GPIO_Init)
    i.HAL_GPIO_ReadPin                       0x0800078c   Section        0  stm32f1xx_hal_gpio.o(i.HAL_GPIO_ReadPin)
    i.HAL_GPIO_WritePin                      0x08000796   Section        0  stm32f1xx_hal_gpio.o(i.HAL_GPIO_WritePin)
    i.HAL_GetTick                            0x080007a0   Section        0  stm32f1xx_hal.o(i.HAL_GetTick)
    i.HAL_IncTick                            0x080007ac   Section        0  stm32f1xx_hal.o(i.HAL_IncTick)
    i.HAL_Init                               0x080007bc   Section        0  stm32f1xx_hal.o(i.HAL_Init)
    i.HAL_InitTick                           0x080007e0   Section        0  stm32f1xx_hal.o(i.HAL_InitTick)
    i.HAL_MspInit                            0x08000808   Section        0  stm32f1xx_hal_msp.o(i.HAL_MspInit)
    i.HAL_NVIC_EnableIRQ                     0x0800088c   Section        0  stm32f1xx_hal_cortex.o(i.HAL_NVIC_EnableIRQ)
    i.HAL_NVIC_SetPriority                   0x080008a4   Section        0  stm32f1xx_hal_cortex.o(i.HAL_NVIC_SetPriority)
    i.HAL_NVIC_SetPriorityGrouping           0x080008e4   Section        0  stm32f1xx_hal_cortex.o(i.HAL_NVIC_SetPriorityGrouping)
    i.HAL_RCC_ClockConfig                    0x08000908   Section        0  stm32f1xx_hal_rcc.o(i.HAL_RCC_ClockConfig)
    i.HAL_RCC_GetHCLKFreq                    0x08000a5c   Section        0  stm32f1xx_hal_rcc.o(i.HAL_RCC_GetHCLKFreq)
    i.HAL_RCC_GetPCLK1Freq                   0x08000a68   Section        0  stm32f1xx_hal_rcc.o(i.HAL_RCC_GetPCLK1Freq)
    i.HAL_RCC_GetPCLK2Freq                   0x08000a88   Section        0  stm32f1xx_hal_rcc.o(i.HAL_RCC_GetPCLK2Freq)
    i.HAL_RCC_GetSysClockFreq                0x08000aa8   Section        0  stm32f1xx_hal_rcc.o(i.HAL_RCC_GetSysClockFreq)
    i.HAL_RCC_OscConfig                      0x08000b14   Section        0  stm32f1xx_hal_rcc.o(i.HAL_RCC_OscConfig)
    i.HAL_SPI_Init                           0x08000e18   Section        0  stm32f1xx_hal_spi_ex.o(i.HAL_SPI_Init)
    i.HAL_SPI_MspInit                        0x08000e9c   Section        0  stm32f1xx_hal_msp.o(i.HAL_SPI_MspInit)
    i.HAL_SPI_Transmit                       0x08000ef4   Section        0  stm32f1xx_hal_spi.o(i.HAL_SPI_Transmit)
    i.HAL_SPI_TransmitReceive                0x0800105c   Section        0  stm32f1xx_hal_spi.o(i.HAL_SPI_TransmitReceive)
    i.HAL_SRAM_Init                          0x08001234   Section        0  stm32f1xx_hal_sram.o(i.HAL_SRAM_Init)
    i.HAL_SRAM_MspInit                       0x0800128c   Section        0  stm32f1xx_hal_msp.o(i.HAL_SRAM_MspInit)
    i.HAL_SYSTICK_CLKSourceConfig            0x080012ec   Section        0  stm32f1xx_hal_cortex.o(i.HAL_SYSTICK_CLKSourceConfig)
    i.HAL_SYSTICK_Callback                   0x08001304   Section        0  stm32f1xx_hal_cortex.o(i.HAL_SYSTICK_Callback)
    i.HAL_SYSTICK_Config                     0x08001306   Section        0  stm32f1xx_hal_cortex.o(i.HAL_SYSTICK_Config)
    i.HAL_SYSTICK_IRQHandler                 0x0800132e   Section        0  stm32f1xx_hal_cortex.o(i.HAL_SYSTICK_IRQHandler)
    i.HAL_TIMEx_BreakCallback                0x08001336   Section        0  stm32f1xx_hal_tim_ex.o(i.HAL_TIMEx_BreakCallback)
    i.HAL_TIMEx_CommutationCallback          0x08001338   Section        0  stm32f1xx_hal_tim_ex.o(i.HAL_TIMEx_CommutationCallback)
    i.HAL_TIMEx_MasterConfigSynchronization  0x0800133a   Section        0  stm32f1xx_hal_tim_ex.o(i.HAL_TIMEx_MasterConfigSynchronization)
    i.HAL_TIM_Base_Init                      0x0800138a   Section        0  stm32f1xx_hal_tim.o(i.HAL_TIM_Base_Init)
    i.HAL_TIM_Base_MspInit                   0x080013c0   Section        0  stm32f1xx_hal_msp.o(i.HAL_TIM_Base_MspInit)
    i.HAL_TIM_Base_Start                     0x0800140c   Section        0  stm32f1xx_hal_tim.o(i.HAL_TIM_Base_Start)
    i.HAL_TIM_Base_Start_IT                  0x08001426   Section        0  stm32f1xx_hal_tim.o(i.HAL_TIM_Base_Start_IT)
    i.HAL_TIM_ConfigClockSource              0x0800143e   Section        0  stm32f1xx_hal_tim.o(i.HAL_TIM_ConfigClockSource)
    i.HAL_TIM_IC_CaptureCallback             0x08001530   Section        0  stm32f1xx_hal_tim.o(i.HAL_TIM_IC_CaptureCallback)
    i.HAL_TIM_IRQHandler                     0x08001532   Section        0  stm32f1xx_hal_tim.o(i.HAL_TIM_IRQHandler)
    i.HAL_TIM_OC_DelayElapsedCallback        0x08001698   Section        0  stm32f1xx_hal_tim.o(i.HAL_TIM_OC_DelayElapsedCallback)
    i.HAL_TIM_PWM_PulseFinishedCallback      0x0800169a   Section        0  stm32f1xx_hal_tim.o(i.HAL_TIM_PWM_PulseFinishedCallback)
    i.HAL_TIM_PeriodElapsedCallback          0x0800169c   Section        0  stm32f1xx_hal_tim.o(i.HAL_TIM_PeriodElapsedCallback)
    i.HAL_TIM_TriggerCallback                0x0800169e   Section        0  stm32f1xx_hal_tim.o(i.HAL_TIM_TriggerCallback)
    i.HAL_UART_Init                          0x080016a0   Section        0  stm32f1xx_hal_uart.o(i.HAL_UART_Init)
    i.HAL_UART_MspInit                       0x08001704   Section        0  stm32f1xx_hal_msp.o(i.HAL_UART_MspInit)
    i.HardFault_Handler                      0x0800175c   Section        0  stm32f1xx_it.o(i.HardFault_Handler)
    i.LCD_Char                               0x0800175e   Section        0  ili9325_fsmc.o(i.LCD_Char)
    LCD_Char                                 0x0800175f   Thumb Code   198  ili9325_fsmc.o(i.LCD_Char)
    i.LCD_Circle                             0x08001824   Section        0  ili9325_fsmc.o(i.LCD_Circle)
    i.LCD_Circle_Fill_Helper                 0x08001952   Section        0  ili9325_fsmc.o(i.LCD_Circle_Fill_Helper)
    i.LCD_Circle_Helper                      0x08001a38   Section        0  ili9325_fsmc.o(i.LCD_Circle_Helper)
    i.LCD_Ellipse                            0x08001b50   Section        0  ili9325_fsmc.o(i.LCD_Ellipse)
    i.LCD_Font                               0x08001de8   Section        0  ili9325_fsmc.o(i.LCD_Font)
    i.LCD_Init                               0x08001e78   Section        0  ili9325_fsmc.o(i.LCD_Init)
    i.LCD_Line                               0x08001f14   Section        0  ili9325_fsmc.o(i.LCD_Line)
    i.LCD_Rect                               0x08001f8e   Section        0  ili9325_fsmc.o(i.LCD_Rect)
    i.LCD_Rect_Fill                          0x08001fe0   Section        0  ili9325_fsmc.o(i.LCD_Rect_Fill)
    i.LCD_Rect_Round                         0x0800204c   Section        0  ili9325_fsmc.o(i.LCD_Rect_Round)
    i.LCD_Rect_Round_Fill                    0x0800212a   Section        0  ili9325_fsmc.o(i.LCD_Rect_Round_Fill)
    i.LCD_Send_Reg                           0x08002190   Section        0  ili9325_fsmc.o(i.LCD_Send_Reg)
    LCD_Send_Reg                             0x08002191   Thumb Code    12  ili9325_fsmc.o(i.LCD_Send_Reg)
    i.LCD_Triangle                           0x080021a0   Section        0  ili9325_fsmc.o(i.LCD_Triangle)
    i.LCD_Triangle_Fill                      0x080021e0   Section        0  ili9325_fsmc.o(i.LCD_Triangle_Fill)
    i.MX_FSMC_Init                           0x080022a4   Section        0  main.o(i.MX_FSMC_Init)
    MX_FSMC_Init                             0x080022a5   Thumb Code   116  main.o(i.MX_FSMC_Init)
    i.MX_GPIO_Init                           0x08002324   Section        0  main.o(i.MX_GPIO_Init)
    MX_GPIO_Init                             0x08002325   Thumb Code   124  main.o(i.MX_GPIO_Init)
    i.MX_SPI1_Init                           0x080023a8   Section        0  main.o(i.MX_SPI1_Init)
    MX_SPI1_Init                             0x080023a9   Thumb Code    56  main.o(i.MX_SPI1_Init)
    i.MX_TIM1_Init                           0x080023e8   Section        0  main.o(i.MX_TIM1_Init)
    MX_TIM1_Init                             0x080023e9   Thumb Code    82  main.o(i.MX_TIM1_Init)
    i.MemManage_Handler                      0x08002444   Section        0  stm32f1xx_it.o(i.MemManage_Handler)
    i.NMI_Handler                            0x08002446   Section        0  stm32f1xx_it.o(i.NMI_Handler)
    i.NVIC_SetPriority                       0x08002448   Section        0  stm32f1xx_hal_cortex.o(i.NVIC_SetPriority)
    NVIC_SetPriority                         0x08002449   Thumb Code    32  stm32f1xx_hal_cortex.o(i.NVIC_SetPriority)
    i.PendSV_Handler                         0x08002468   Section        0  stm32f1xx_it.o(i.PendSV_Handler)
    i.SPI_CheckFlag_BSY                      0x0800246a   Section        0  stm32f1xx_hal_spi.o(i.SPI_CheckFlag_BSY)
    SPI_CheckFlag_BSY                        0x0800246b   Thumb Code    32  stm32f1xx_hal_spi.o(i.SPI_CheckFlag_BSY)
    i.SPI_WaitFlagStateUntilTimeout          0x0800248a   Section        0  stm32f1xx_hal_spi.o(i.SPI_WaitFlagStateUntilTimeout)
    SPI_WaitFlagStateUntilTimeout            0x0800248b   Thumb Code   150  stm32f1xx_hal_spi.o(i.SPI_WaitFlagStateUntilTimeout)
    i.SVC_Handler                            0x08002520   Section        0  stm32f1xx_it.o(i.SVC_Handler)
    i.SysTick_Handler                        0x08002522   Section        0  stm32f1xx_it.o(i.SysTick_Handler)
    i.SystemClock_Config                     0x08002530   Section        0  main.o(i.SystemClock_Config)
    i.SystemInit                             0x08002598   Section        0  system_stm32f1xx.o(i.SystemInit)
    i.TIM1_BRK_IRQHandler                    0x080025e0   Section        0  stm32f1xx_it.o(i.TIM1_BRK_IRQHandler)
    i.TIM1_UP_IRQHandler                     0x080025ec   Section        0  stm32f1xx_it.o(i.TIM1_UP_IRQHandler)
    i.TIM_Base_SetConfig                     0x0800260c   Section        0  stm32f1xx_hal_tim.o(i.TIM_Base_SetConfig)
    i.TIM_ETR_SetConfig                      0x08002698   Section        0  stm32f1xx_hal_tim.o(i.TIM_ETR_SetConfig)
    TIM_ETR_SetConfig                        0x08002699   Thumb Code    20  stm32f1xx_hal_tim.o(i.TIM_ETR_SetConfig)
    i.TIM_ITRx_SetConfig                     0x080026ac   Section        0  stm32f1xx_hal_tim.o(i.TIM_ITRx_SetConfig)
    TIM_ITRx_SetConfig                       0x080026ad   Thumb Code    16  stm32f1xx_hal_tim.o(i.TIM_ITRx_SetConfig)
    i.TIM_TI1_ConfigInputStage               0x080026bc   Section        0  stm32f1xx_hal_tim.o(i.TIM_TI1_ConfigInputStage)
    TIM_TI1_ConfigInputStage                 0x080026bd   Thumb Code    34  stm32f1xx_hal_tim.o(i.TIM_TI1_ConfigInputStage)
    i.TIM_TI2_ConfigInputStage               0x080026de   Section        0  stm32f1xx_hal_tim.o(i.TIM_TI2_ConfigInputStage)
    TIM_TI2_ConfigInputStage                 0x080026df   Thumb Code    36  stm32f1xx_hal_tim.o(i.TIM_TI2_ConfigInputStage)
    i.UART_SetConfig                         0x08002704   Section        0  stm32f1xx_hal_uart.o(i.UART_SetConfig)
    UART_SetConfig                           0x08002705   Thumb Code   364  stm32f1xx_hal_uart.o(i.UART_SetConfig)
    i.UsageFault_Handler                     0x08002874   Section        0  stm32f1xx_it.o(i.UsageFault_Handler)
    i.X                                      0x08002878   Section        0  xpt2046.o(i.X)
    X                                        0x08002879   Thumb Code    48  xpt2046.o(i.X)
    i.XPT2046_Init                           0x080028b4   Section        0  xpt2046.o(i.XPT2046_Init)
    i.Y                                      0x080028e8   Section        0  xpt2046.o(i.Y)
    Y                                        0x080028e9   Thumb Code    44  xpt2046.o(i.Y)
    i.__scatterload_copy                     0x08002920   Section       14  handlers.o(i.__scatterload_copy)
    i.__scatterload_null                     0x0800292e   Section        2  handlers.o(i.__scatterload_null)
    i.__scatterload_zeroinit                 0x08002930   Section       14  handlers.o(i.__scatterload_zeroinit)
    i.getRaw                                 0x08002940   Section        0  xpt2046.o(i.getRaw)
    i.getX                                   0x08002998   Section        0  xpt2046.o(i.getX)
    i.getY                                   0x080029c0   Section        0  xpt2046.o(i.getY)
    i.main                                   0x080029e8   Section        0  main.o(i.main)
    i.remap                                  0x08002d4c   Section        0  xpt2046.o(i.remap)
    remap                                    0x08002d4d   Thumb Code    60  xpt2046.o(i.remap)
    .constdata                               0x08002d88   Section       16  system_stm32f1xx.o(.constdata)
    .constdata                               0x08002d98   Section        8  system_stm32f1xx.o(.constdata)
    .constdata                               0x08002da0   Section      418  main.o(.constdata)
    .constdata                               0x08002f42   Section      760  main.o(.constdata)
    .constdata                               0x0800323c   Section       60  main.o(.constdata)
    .constdata                               0x08003278   Section      271  main.o(.constdata)
    .constdata                               0x08003388   Section      760  main.o(.constdata)
    .constdata                               0x08003680   Section      414  main.o(.constdata)
    .constdata                               0x0800381e   Section      760  main.o(.constdata)
    .constdata                               0x08003b16   Section     1162  main.o(.constdata)
    .constdata                               0x08003fa0   Section      760  main.o(.constdata)
    .constdata                               0x08004298   Section     1395  main.o(.constdata)
    .constdata                               0x0800480c   Section      104  main.o(.constdata)
    .constdata                               0x08004874   Section        8  xpt2046.o(.constdata)
    .data                                    0x20000000   Section        4  system_stm32f1xx.o(.data)
    .data                                    0x20000004   Section        4  stm32f1xx_hal.o(.data)
    .data                                    0x20000008   Section       16  main.o(.data)
    .data                                    0x20000018   Section        8  stm32f1xx_hal_msp.o(.data)
    FSMC_Initialized                         0x20000018   Data           4  stm32f1xx_hal_msp.o(.data)
    FSMC_DeInitialized                       0x2000001c   Data           4  stm32f1xx_hal_msp.o(.data)
    .bss                                     0x20000020   Section      284  main.o(.bss)
    STACK                                    0x20000140   Section     1024  startup_stm32f103xe.o(STACK)

    Global Symbols

    Symbol Name                              Value     Ov Type        Size  Object(Section)

    BuildAttributes$$THM_ISAv4$P$D$K$B$S$PE$A:L22UL41UL21$X:L11$S22US41US21$IEEE1$IW$USESV6$~STKCKD$USESV7$~SHL$OTIME$ROPI$EBA8$MICROLIB$REQ8$PRES8$EABIv2 0x00000000   Number         0  anon$$obj.o ABSOLUTE
    __ARM_use_no_argv                        0x00000000   Number         0  main.o ABSOLUTE
    __cpp_initialize__aeabi_                  - Undefined Weak Reference
    __cxa_finalize                            - Undefined Weak Reference
    __decompress                              - Undefined Weak Reference
    _clock_init                               - Undefined Weak Reference
    _microlib_exit                            - Undefined Weak Reference
    __Vectors_Size                           0x00000130   Number         0  startup_stm32f103xe.o ABSOLUTE
    __Vectors                                0x08000000   Data           4  startup_stm32f103xe.o(RESET)
    __Vectors_End                            0x08000130   Data           0  startup_stm32f103xe.o(RESET)
    __main                                   0x08000131   Thumb Code     0  entry.o(.ARM.Collect$$$$00000000)
    _main_stk                                0x08000131   Thumb Code     0  entry2.o(.ARM.Collect$$$$00000001)
    _main_scatterload                        0x08000135   Thumb Code     0  entry5.o(.ARM.Collect$$$$00000004)
    __main_after_scatterload                 0x08000139   Thumb Code     0  entry5.o(.ARM.Collect$$$$00000004)
    _main_clock                              0x08000139   Thumb Code     0  entry7b.o(.ARM.Collect$$$$00000008)
    _main_cpp_init                           0x08000139   Thumb Code     0  entry8b.o(.ARM.Collect$$$$0000000A)
    _main_init                               0x08000139   Thumb Code     0  entry9a.o(.ARM.Collect$$$$0000000B)
    __rt_final_cpp                           0x08000141   Thumb Code     0  entry10a.o(.ARM.Collect$$$$0000000D)
    __rt_final_exit                          0x08000141   Thumb Code     0  entry11a.o(.ARM.Collect$$$$0000000F)
    Reset_Handler                            0x08000145   Thumb Code     8  startup_stm32f103xe.o(.text)
    ADC1_2_IRQHandler                        0x0800015f   Thumb Code     0  startup_stm32f103xe.o(.text)
    ADC3_IRQHandler                          0x0800015f   Thumb Code     0  startup_stm32f103xe.o(.text)
    CAN1_RX1_IRQHandler                      0x0800015f   Thumb Code     0  startup_stm32f103xe.o(.text)
    CAN1_SCE_IRQHandler                      0x0800015f   Thumb Code     0  startup_stm32f103xe.o(.text)
    DMA1_Channel1_IRQHandler                 0x0800015f   Thumb Code     0  startup_stm32f103xe.o(.text)
    DMA1_Channel2_IRQHandler                 0x0800015f   Thumb Code     0  startup_stm32f103xe.o(.text)
    DMA1_Channel3_IRQHandler                 0x0800015f   Thumb Code     0  startup_stm32f103xe.o(.text)
    DMA1_Channel4_IRQHandler                 0x0800015f   Thumb Code     0  startup_stm32f103xe.o(.text)
    DMA1_Channel5_IRQHandler                 0x0800015f   Thumb Code     0  startup_stm32f103xe.o(.text)
    DMA1_Channel6_IRQHandler                 0x0800015f   Thumb Code     0  startup_stm32f103xe.o(.text)
    DMA1_Channel7_IRQHandler                 0x0800015f   Thumb Code     0  startup_stm32f103xe.o(.text)
    DMA2_Channel1_IRQHandler                 0x0800015f   Thumb Code     0  startup_stm32f103xe.o(.text)
    DMA2_Channel2_IRQHandler                 0x0800015f   Thumb Code     0  startup_stm32f103xe.o(.text)
    DMA2_Channel3_IRQHandler                 0x0800015f   Thumb Code     0  startup_stm32f103xe.o(.text)
    DMA2_Channel4_5_IRQHandler               0x0800015f   Thumb Code     0  startup_stm32f103xe.o(.text)
    EXTI0_IRQHandler                         0x0800015f   Thumb Code     0  startup_stm32f103xe.o(.text)
    EXTI15_10_IRQHandler                     0x0800015f   Thumb Code     0  startup_stm32f103xe.o(.text)
    EXTI1_IRQHandler                         0x0800015f   Thumb Code     0  startup_stm32f103xe.o(.text)
    EXTI2_IRQHandler                         0x0800015f   Thumb Code     0  startup_stm32f103xe.o(.text)
    EXTI3_IRQHandler                         0x0800015f   Thumb Code     0  startup_stm32f103xe.o(.text)
    EXTI4_IRQHandler                         0x0800015f   Thumb Code     0  startup_stm32f103xe.o(.text)
    EXTI9_5_IRQHandler                       0x0800015f   Thumb Code     0  startup_stm32f103xe.o(.text)
    FLASH_IRQHandler                         0x0800015f   Thumb Code     0  startup_stm32f103xe.o(.text)
    FSMC_IRQHandler                          0x0800015f   Thumb Code     0  startup_stm32f103xe.o(.text)
    I2C1_ER_IRQHandler                       0x0800015f   Thumb Code     0  startup_stm32f103xe.o(.text)
    I2C1_EV_IRQHandler                       0x0800015f   Thumb Code     0  startup_stm32f103xe.o(.text)
    I2C2_ER_IRQHandler                       0x0800015f   Thumb Code     0  startup_stm32f103xe.o(.text)
    I2C2_EV_IRQHandler                       0x0800015f   Thumb Code     0  startup_stm32f103xe.o(.text)
    PVD_IRQHandler                           0x0800015f   Thumb Code     0  startup_stm32f103xe.o(.text)
    RCC_IRQHandler                           0x0800015f   Thumb Code     0  startup_stm32f103xe.o(.text)
    RTC_Alarm_IRQHandler                     0x0800015f   Thumb Code     0  startup_stm32f103xe.o(.text)
    RTC_IRQHandler                           0x0800015f   Thumb Code     0  startup_stm32f103xe.o(.text)
    SDIO_IRQHandler                          0x0800015f   Thumb Code     0  startup_stm32f103xe.o(.text)
    SPI1_IRQHandler                          0x0800015f   Thumb Code     0  startup_stm32f103xe.o(.text)
    SPI2_IRQHandler                          0x0800015f   Thumb Code     0  startup_stm32f103xe.o(.text)
    SPI3_IRQHandler                          0x0800015f   Thumb Code     0  startup_stm32f103xe.o(.text)
    TAMPER_IRQHandler                        0x0800015f   Thumb Code     0  startup_stm32f103xe.o(.text)
    TIM1_CC_IRQHandler                       0x0800015f   Thumb Code     0  startup_stm32f103xe.o(.text)
    TIM1_TRG_COM_IRQHandler                  0x0800015f   Thumb Code     0  startup_stm32f103xe.o(.text)
    TIM2_IRQHandler                          0x0800015f   Thumb Code     0  startup_stm32f103xe.o(.text)
    TIM3_IRQHandler                          0x0800015f   Thumb Code     0  startup_stm32f103xe.o(.text)
    TIM4_IRQHandler                          0x0800015f   Thumb Code     0  startup_stm32f103xe.o(.text)
    TIM5_IRQHandler                          0x0800015f   Thumb Code     0  startup_stm32f103xe.o(.text)
    TIM6_IRQHandler                          0x0800015f   Thumb Code     0  startup_stm32f103xe.o(.text)
    TIM7_IRQHandler                          0x0800015f   Thumb Code     0  startup_stm32f103xe.o(.text)
    TIM8_BRK_IRQHandler                      0x0800015f   Thumb Code     0  startup_stm32f103xe.o(.text)
    TIM8_CC_IRQHandler                       0x0800015f   Thumb Code     0  startup_stm32f103xe.o(.text)
    TIM8_TRG_COM_IRQHandler                  0x0800015f   Thumb Code     0  startup_stm32f103xe.o(.text)
    TIM8_UP_IRQHandler                       0x0800015f   Thumb Code     0  startup_stm32f103xe.o(.text)
    UART4_IRQHandler                         0x0800015f   Thumb Code     0  startup_stm32f103xe.o(.text)
    UART5_IRQHandler                         0x0800015f   Thumb Code     0  startup_stm32f103xe.o(.text)
    USART1_IRQHandler                        0x0800015f   Thumb Code     0  startup_stm32f103xe.o(.text)
    USART2_IRQHandler                        0x0800015f   Thumb Code     0  startup_stm32f103xe.o(.text)
    USART3_IRQHandler                        0x0800015f   Thumb Code     0  startup_stm32f103xe.o(.text)
    USBWakeUp_IRQHandler                     0x0800015f   Thumb Code     0  startup_stm32f103xe.o(.text)
    USB_HP_CAN1_TX_IRQHandler                0x0800015f   Thumb Code     0  startup_stm32f103xe.o(.text)
    USB_LP_CAN1_RX0_IRQHandler               0x0800015f   Thumb Code     0  startup_stm32f103xe.o(.text)
    WWDG_IRQHandler                          0x0800015f   Thumb Code     0  startup_stm32f103xe.o(.text)
    __aeabi_uldivmod                         0x08000169   Thumb Code    98  uldiv.o(.text)
    __aeabi_llsr                             0x080001cb   Thumb Code    32  llushr.o(.text)
    _ll_ushift_r                             0x080001cb   Thumb Code     0  llushr.o(.text)
    strlen                                   0x080001eb   Thumb Code    14  strlen.o(.text)
    __aeabi_fadd                             0x080001f9   Thumb Code   164  fadd.o(.text)
    __aeabi_fsub                             0x0800029d   Thumb Code     6  fadd.o(.text)
    __aeabi_frsub                            0x080002a3   Thumb Code     6  fadd.o(.text)
    __aeabi_fmul                             0x080002a9   Thumb Code   100  fmul.o(.text)
    __aeabi_fdiv                             0x0800030d   Thumb Code   124  fdiv.o(.text)
    __aeabi_ui2f                             0x08000389   Thumb Code    10  ffltui.o(.text)
    __aeabi_f2uiz                            0x08000393   Thumb Code    40  ffixui.o(.text)
    __aeabi_llsl                             0x080003bb   Thumb Code    30  llshl.o(.text)
    _ll_shift_l                              0x080003bb   Thumb Code     0  llshl.o(.text)
    __I$use$fp                               0x080003d9   Thumb Code     0  iusefp.o(.text)
    _float_round                             0x080003d9   Thumb Code    18  fepilogue.o(.text)
    _float_epilogue                          0x080003eb   Thumb Code    92  fepilogue.o(.text)
    __scatterload                            0x08000449   Thumb Code    28  init.o(.text)
    __scatterload_rt2                        0x08000449   Thumb Code     0  init.o(.text)
    BusFault_Handler                         0x0800046d   Thumb Code     2  stm32f1xx_it.o(i.BusFault_Handler)
    DebugMon_Handler                         0x0800046f   Thumb Code     2  stm32f1xx_it.o(i.DebugMon_Handler)
    FSMC_NORSRAM_Extended_Timing_Init        0x08000471   Thumb Code    56  stm32f1xx_ll_fsmc.o(i.FSMC_NORSRAM_Extended_Timing_Init)
    FSMC_NORSRAM_Init                        0x080004ad   Thumb Code   148  stm32f1xx_ll_fsmc.o(i.FSMC_NORSRAM_Init)
    FSMC_NORSRAM_Timing_Init                 0x08000545   Thumb Code    64  stm32f1xx_ll_fsmc.o(i.FSMC_NORSRAM_Timing_Init)
    HAL_Delay                                0x08000589   Thumb Code    28  stm32f1xx_hal.o(i.HAL_Delay)
    HAL_GPIO_Init                            0x080005a5   Thumb Code   446  stm32f1xx_hal_gpio.o(i.HAL_GPIO_Init)
    HAL_GPIO_ReadPin                         0x0800078d   Thumb Code    10  stm32f1xx_hal_gpio.o(i.HAL_GPIO_ReadPin)
    HAL_GPIO_WritePin                        0x08000797   Thumb Code    10  stm32f1xx_hal_gpio.o(i.HAL_GPIO_WritePin)
    HAL_GetTick                              0x080007a1   Thumb Code     6  stm32f1xx_hal.o(i.HAL_GetTick)
    HAL_IncTick                              0x080007ad   Thumb Code    10  stm32f1xx_hal.o(i.HAL_IncTick)
    HAL_Init                                 0x080007bd   Thumb Code    32  stm32f1xx_hal.o(i.HAL_Init)
    HAL_InitTick                             0x080007e1   Thumb Code    34  stm32f1xx_hal.o(i.HAL_InitTick)
    HAL_MspInit                              0x08000809   Thumb Code   122  stm32f1xx_hal_msp.o(i.HAL_MspInit)
    HAL_NVIC_EnableIRQ                       0x0800088d   Thumb Code    22  stm32f1xx_hal_cortex.o(i.HAL_NVIC_EnableIRQ)
    HAL_NVIC_SetPriority                     0x080008a5   Thumb Code    60  stm32f1xx_hal_cortex.o(i.HAL_NVIC_SetPriority)
    HAL_NVIC_SetPriorityGrouping             0x080008e5   Thumb Code    26  stm32f1xx_hal_cortex.o(i.HAL_NVIC_SetPriorityGrouping)
    HAL_RCC_ClockConfig                      0x08000909   Thumb Code   322  stm32f1xx_hal_rcc.o(i.HAL_RCC_ClockConfig)
    HAL_RCC_GetHCLKFreq                      0x08000a5d   Thumb Code     6  stm32f1xx_hal_rcc.o(i.HAL_RCC_GetHCLKFreq)
    HAL_RCC_GetPCLK1Freq                     0x08000a69   Thumb Code    20  stm32f1xx_hal_rcc.o(i.HAL_RCC_GetPCLK1Freq)
    HAL_RCC_GetPCLK2Freq                     0x08000a89   Thumb Code    20  stm32f1xx_hal_rcc.o(i.HAL_RCC_GetPCLK2Freq)
    HAL_RCC_GetSysClockFreq                  0x08000aa9   Thumb Code    74  stm32f1xx_hal_rcc.o(i.HAL_RCC_GetSysClockFreq)
    HAL_RCC_OscConfig                        0x08000b15   Thumb Code   750  stm32f1xx_hal_rcc.o(i.HAL_RCC_OscConfig)
    HAL_SPI_Init                             0x08000e19   Thumb Code   130  stm32f1xx_hal_spi_ex.o(i.HAL_SPI_Init)
    HAL_SPI_MspInit                          0x08000e9d   Thumb Code    74  stm32f1xx_hal_msp.o(i.HAL_SPI_MspInit)
    HAL_SPI_Transmit                         0x08000ef5   Thumb Code   360  stm32f1xx_hal_spi.o(i.HAL_SPI_Transmit)
    HAL_SPI_TransmitReceive                  0x0800105d   Thumb Code   472  stm32f1xx_hal_spi.o(i.HAL_SPI_TransmitReceive)
    HAL_SRAM_Init                            0x08001235   Thumb Code    86  stm32f1xx_hal_sram.o(i.HAL_SRAM_Init)
    HAL_SRAM_MspInit                         0x0800128d   Thumb Code    78  stm32f1xx_hal_msp.o(i.HAL_SRAM_MspInit)
    HAL_SYSTICK_CLKSourceConfig              0x080012ed   Thumb Code    24  stm32f1xx_hal_cortex.o(i.HAL_SYSTICK_CLKSourceConfig)
    HAL_SYSTICK_Callback                     0x08001305   Thumb Code     2  stm32f1xx_hal_cortex.o(i.HAL_SYSTICK_Callback)
    HAL_SYSTICK_Config                       0x08001307   Thumb Code    40  stm32f1xx_hal_cortex.o(i.HAL_SYSTICK_Config)
    HAL_SYSTICK_IRQHandler                   0x0800132f   Thumb Code     8  stm32f1xx_hal_cortex.o(i.HAL_SYSTICK_IRQHandler)
    HAL_TIMEx_BreakCallback                  0x08001337   Thumb Code     2  stm32f1xx_hal_tim_ex.o(i.HAL_TIMEx_BreakCallback)
    HAL_TIMEx_CommutationCallback            0x08001339   Thumb Code     2  stm32f1xx_hal_tim_ex.o(i.HAL_TIMEx_CommutationCallback)
    HAL_TIMEx_MasterConfigSynchronization    0x0800133b   Thumb Code    80  stm32f1xx_hal_tim_ex.o(i.HAL_TIMEx_MasterConfigSynchronization)
    HAL_TIM_Base_Init                        0x0800138b   Thumb Code    54  stm32f1xx_hal_tim.o(i.HAL_TIM_Base_Init)
    HAL_TIM_Base_MspInit                     0x080013c1   Thumb Code    66  stm32f1xx_hal_msp.o(i.HAL_TIM_Base_MspInit)
    HAL_TIM_Base_Start                       0x0800140d   Thumb Code    26  stm32f1xx_hal_tim.o(i.HAL_TIM_Base_Start)
    HAL_TIM_Base_Start_IT                    0x08001427   Thumb Code    24  stm32f1xx_hal_tim.o(i.HAL_TIM_Base_Start_IT)
    HAL_TIM_ConfigClockSource                0x0800143f   Thumb Code   242  stm32f1xx_hal_tim.o(i.HAL_TIM_ConfigClockSource)
    HAL_TIM_IC_CaptureCallback               0x08001531   Thumb Code     2  stm32f1xx_hal_tim.o(i.HAL_TIM_IC_CaptureCallback)
    HAL_TIM_IRQHandler                       0x08001533   Thumb Code   358  stm32f1xx_hal_tim.o(i.HAL_TIM_IRQHandler)
    HAL_TIM_OC_DelayElapsedCallback          0x08001699   Thumb Code     2  stm32f1xx_hal_tim.o(i.HAL_TIM_OC_DelayElapsedCallback)
    HAL_TIM_PWM_PulseFinishedCallback        0x0800169b   Thumb Code     2  stm32f1xx_hal_tim.o(i.HAL_TIM_PWM_PulseFinishedCallback)
    HAL_TIM_PeriodElapsedCallback            0x0800169d   Thumb Code     2  stm32f1xx_hal_tim.o(i.HAL_TIM_PeriodElapsedCallback)
    HAL_TIM_TriggerCallback                  0x0800169f   Thumb Code     2  stm32f1xx_hal_tim.o(i.HAL_TIM_TriggerCallback)
    HAL_UART_Init                            0x080016a1   Thumb Code    98  stm32f1xx_hal_uart.o(i.HAL_UART_Init)
    HAL_UART_MspInit                         0x08001705   Thumb Code    76  stm32f1xx_hal_msp.o(i.HAL_UART_MspInit)
    HardFault_Handler                        0x0800175d   Thumb Code     2  stm32f1xx_it.o(i.HardFault_Handler)
    LCD_Circle                               0x08001825   Thumb Code   302  ili9325_fsmc.o(i.LCD_Circle)
    LCD_Circle_Fill_Helper                   0x08001953   Thumb Code   228  ili9325_fsmc.o(i.LCD_Circle_Fill_Helper)
    LCD_Circle_Helper                        0x08001a39   Thumb Code   280  ili9325_fsmc.o(i.LCD_Circle_Helper)
    LCD_Ellipse                              0x08001b51   Thumb Code   664  ili9325_fsmc.o(i.LCD_Ellipse)
    LCD_Font                                 0x08001de9   Thumb Code   144  ili9325_fsmc.o(i.LCD_Font)
    LCD_Init                                 0x08001e79   Thumb Code   156  ili9325_fsmc.o(i.LCD_Init)
    LCD_Line                                 0x08001f15   Thumb Code   122  ili9325_fsmc.o(i.LCD_Line)
    LCD_Rect                                 0x08001f8f   Thumb Code    82  ili9325_fsmc.o(i.LCD_Rect)
    LCD_Rect_Fill                            0x08001fe1   Thumb Code   102  ili9325_fsmc.o(i.LCD_Rect_Fill)
    LCD_Rect_Round                           0x0800204d   Thumb Code   222  ili9325_fsmc.o(i.LCD_Rect_Round)
    LCD_Rect_Round_Fill                      0x0800212b   Thumb Code   100  ili9325_fsmc.o(i.LCD_Rect_Round_Fill)
    LCD_Triangle                             0x080021a1   Thumb Code    64  ili9325_fsmc.o(i.LCD_Triangle)
    LCD_Triangle_Fill                        0x080021e1   Thumb Code   194  ili9325_fsmc.o(i.LCD_Triangle_Fill)
    MemManage_Handler                        0x08002445   Thumb Code     2  stm32f1xx_it.o(i.MemManage_Handler)
    NMI_Handler                              0x08002447   Thumb Code     2  stm32f1xx_it.o(i.NMI_Handler)
    PendSV_Handler                           0x08002469   Thumb Code     2  stm32f1xx_it.o(i.PendSV_Handler)
    SVC_Handler                              0x08002521   Thumb Code     2  stm32f1xx_it.o(i.SVC_Handler)
    SysTick_Handler                          0x08002523   Thumb Code    14  stm32f1xx_it.o(i.SysTick_Handler)
    SystemClock_Config                       0x08002531   Thumb Code   104  main.o(i.SystemClock_Config)
    SystemInit                               0x08002599   Thumb Code    56  system_stm32f1xx.o(i.SystemInit)
    TIM1_BRK_IRQHandler                      0x080025e1   Thumb Code     6  stm32f1xx_it.o(i.TIM1_BRK_IRQHandler)
    TIM1_UP_IRQHandler                       0x080025ed   Thumb Code    22  stm32f1xx_it.o(i.TIM1_UP_IRQHandler)
    TIM_Base_SetConfig                       0x0800260d   Thumb Code   120  stm32f1xx_hal_tim.o(i.TIM_Base_SetConfig)
    UsageFault_Handler                       0x08002875   Thumb Code     2  stm32f1xx_it.o(i.UsageFault_Handler)
    XPT2046_Init                             0x080028b5   Thumb Code    46  xpt2046.o(i.XPT2046_Init)
    __scatterload_copy                       0x08002921   Thumb Code    14  handlers.o(i.__scatterload_copy)
    __scatterload_null                       0x0800292f   Thumb Code     2  handlers.o(i.__scatterload_null)
    __scatterload_zeroinit                   0x08002931   Thumb Code    14  handlers.o(i.__scatterload_zeroinit)
    getRaw                                   0x08002941   Thumb Code    82  xpt2046.o(i.getRaw)
    getX                                     0x08002999   Thumb Code    36  xpt2046.o(i.getX)
    getY                                     0x080029c1   Thumb Code    36  xpt2046.o(i.getY)
    main                                     0x080029e9   Thumb Code   744  main.o(i.main)
    AHBPrescTable                            0x08002d88   Data          16  system_stm32f1xx.o(.constdata)
    APBPrescTable                            0x08002d98   Data           8  system_stm32f1xx.o(.constdata)
    Font_3_TomThumb_ExtendedBitmaps          0x08002da0   Data         418  main.o(.constdata)
    Font_3_TomThumb_ExtendedGlyphs           0x08002f42   Data         760  main.o(.constdata)
    Font_3_TomThumb_Extended                 0x0800323c   Data          12  main.o(.constdata)
    Font_5_Org                               0x08003248   Data          12  main.o(.constdata)
    Font_8_Default                           0x08003254   Data          12  main.o(.constdata)
    Font_9_Serif_Bold                        0x08003260   Data          12  main.o(.constdata)
    Font_32_Segment_7_Num_Plus               0x0800326c   Data          12  main.o(.constdata)
    Font_5_OrgBitmaps                        0x08003278   Data         271  main.o(.constdata)
    Font_5_OrgGlyphs                         0x08003388   Data         760  main.o(.constdata)
    Font_8_DefaultBitmaps                    0x08003680   Data         414  main.o(.constdata)
    Font_8_DefaultGlyphs                     0x0800381e   Data         760  main.o(.constdata)
    Font_9_Serif_BoldBitmaps                 0x08003b16   Data        1162  main.o(.constdata)
    Font_9_Serif_BoldGlyphs                  0x08003fa0   Data         760  main.o(.constdata)
    Font_32_Segment_7_Num_PlusBitmaps        0x08004298   Data        1395  main.o(.constdata)
    Font_32_Segment_7_Num_PlusGlyphs         0x0800480c   Data         104  main.o(.constdata)
    Region$$Table$$Base                      0x0800487c   Number         0  anon$$obj.o(Region$$Table)
    Region$$Table$$Limit                     0x0800489c   Number         0  anon$$obj.o(Region$$Table)
    SystemCoreClock                          0x20000000   Data           4  system_stm32f1xx.o(.data)
    uwTick                                   0x20000004   Data           4  stm32f1xx_hal.o(.data)
    touchIRQ                                 0x20000008   Data           1  main.o(.data)
    touchX                                   0x2000000a   Data           2  main.o(.data)
    touchY                                   0x2000000c   Data           2  main.o(.data)
    millis                                   0x20000010   Data           8  main.o(.data)
    hspi1                                    0x20000020   Data          88  main.o(.bss)
    htim1                                    0x20000078   Data          64  main.o(.bss)
    huart1                                   0x200000b8   Data          64  main.o(.bss)
    hsram1                                   0x200000f8   Data          68  main.o(.bss)
    __initial_sp                             0x20000540   Data           0  startup_stm32f103xe.o(STACK)



==============================================================================

Memory Map of the image

  Image Entry point : 0x08000131

  Load Region LR_IROM1 (Base: 0x08000000, Size: 0x000048bc, Max: 0x00040000, ABSOLUTE)

    Execution Region ER_IROM1 (Exec base: 0x08000000, Load base: 0x08000000, Size: 0x0000489c, Max: 0x00040000, ABSOLUTE)

    Exec Addr    Load Addr    Size         Type   Attr      Idx    E Section Name        Object

    0x08000000   0x08000000   0x00000130   Data   RO            3    RESET               startup_stm32f103xe.o
    0x08000130   0x08000130   0x00000000   Code   RO         3624  * .ARM.Collect$$$$00000000  mc_w.l(entry.o)
    0x08000130   0x08000130   0x00000004   Code   RO         3643    .ARM.Collect$$$$00000001  mc_w.l(entry2.o)
    0x08000134   0x08000134   0x00000004   Code   RO         3646    .ARM.Collect$$$$00000004  mc_w.l(entry5.o)
    0x08000138   0x08000138   0x00000000   Code   RO         3648    .ARM.Collect$$$$00000008  mc_w.l(entry7b.o)
    0x08000138   0x08000138   0x00000000   Code   RO         3650    .ARM.Collect$$$$0000000A  mc_w.l(entry8b.o)
    0x08000138   0x08000138   0x00000008   Code   RO         3651    .ARM.Collect$$$$0000000B  mc_w.l(entry9a.o)
    0x08000140   0x08000140   0x00000000   Code   RO         3653    .ARM.Collect$$$$0000000D  mc_w.l(entry10a.o)
    0x08000140   0x08000140   0x00000000   Code   RO         3655    .ARM.Collect$$$$0000000F  mc_w.l(entry11a.o)
    0x08000140   0x08000140   0x00000004   Code   RO         3644    .ARM.Collect$$$$00002712  mc_w.l(entry2.o)
    0x08000144   0x08000144   0x00000024   Code   RO            4    .text               startup_stm32f103xe.o
    0x08000168   0x08000168   0x00000062   Code   RO         3627    .text               mc_w.l(uldiv.o)
    0x080001ca   0x080001ca   0x00000020   Code   RO         3629    .text               mc_w.l(llushr.o)
    0x080001ea   0x080001ea   0x0000000e   Code   RO         3631    .text               mc_w.l(strlen.o)
    0x080001f8   0x080001f8   0x000000b0   Code   RO         3633    .text               mf_w.l(fadd.o)
    0x080002a8   0x080002a8   0x00000064   Code   RO         3635    .text               mf_w.l(fmul.o)
    0x0800030c   0x0800030c   0x0000007c   Code   RO         3637    .text               mf_w.l(fdiv.o)
    0x08000388   0x08000388   0x0000000a   Code   RO         3639    .text               mf_w.l(ffltui.o)
    0x08000392   0x08000392   0x00000028   Code   RO         3641    .text               mf_w.l(ffixui.o)
    0x080003ba   0x080003ba   0x0000001e   Code   RO         3657    .text               mc_w.l(llshl.o)
    0x080003d8   0x080003d8   0x00000000   Code   RO         3659    .text               mc_w.l(iusefp.o)
    0x080003d8   0x080003d8   0x0000006e   Code   RO         3660    .text               mf_w.l(fepilogue.o)
    0x08000446   0x08000446   0x00000002   PAD
    0x08000448   0x08000448   0x00000024   Code   RO         3662    .text               mc_w.l(init.o)
    0x0800046c   0x0800046c   0x00000002   Code   RO         2831    i.BusFault_Handler  stm32f1xx_it.o
    0x0800046e   0x0800046e   0x00000002   Code   RO         2832    i.DebugMon_Handler  stm32f1xx_it.o
    0x08000470   0x08000470   0x0000003c   Code   RO         1083    i.FSMC_NORSRAM_Extended_Timing_Init  stm32f1xx_ll_fsmc.o
    0x080004ac   0x080004ac   0x00000098   Code   RO         1084    i.FSMC_NORSRAM_Init  stm32f1xx_ll_fsmc.o
    0x08000544   0x08000544   0x00000044   Code   RO         1085    i.FSMC_NORSRAM_Timing_Init  stm32f1xx_ll_fsmc.o
    0x08000588   0x08000588   0x0000001c   Code   RO          875    i.HAL_Delay         stm32f1xx_hal.o
    0x080005a4   0x080005a4   0x000001e8   Code   RO         1012    i.HAL_GPIO_Init     stm32f1xx_hal_gpio.o
    0x0800078c   0x0800078c   0x0000000a   Code   RO         1014    i.HAL_GPIO_ReadPin  stm32f1xx_hal_gpio.o
    0x08000796   0x08000796   0x0000000a   Code   RO         1016    i.HAL_GPIO_WritePin  stm32f1xx_hal_gpio.o
    0x080007a0   0x080007a0   0x0000000c   Code   RO          879    i.HAL_GetTick       stm32f1xx_hal.o
    0x080007ac   0x080007ac   0x00000010   Code   RO          881    i.HAL_IncTick       stm32f1xx_hal.o
    0x080007bc   0x080007bc   0x00000024   Code   RO          882    i.HAL_Init          stm32f1xx_hal.o
    0x080007e0   0x080007e0   0x00000028   Code   RO          883    i.HAL_InitTick      stm32f1xx_hal.o
    0x08000808   0x08000808   0x00000084   Code   RO         3387    i.HAL_MspInit       stm32f1xx_hal_msp.o
    0x0800088c   0x0800088c   0x00000016   Code   RO          628    i.HAL_NVIC_EnableIRQ  stm32f1xx_hal_cortex.o
    0x080008a2   0x080008a2   0x00000002   PAD
    0x080008a4   0x080008a4   0x00000040   Code   RO          634    i.HAL_NVIC_SetPriority  stm32f1xx_hal_cortex.o
    0x080008e4   0x080008e4   0x00000024   Code   RO          635    i.HAL_NVIC_SetPriorityGrouping  stm32f1xx_hal_cortex.o
    0x08000908   0x08000908   0x00000154   Code   RO         1238    i.HAL_RCC_ClockConfig  stm32f1xx_hal_rcc.o
    0x08000a5c   0x08000a5c   0x0000000c   Code   RO         1243    i.HAL_RCC_GetHCLKFreq  stm32f1xx_hal_rcc.o
    0x08000a68   0x08000a68   0x00000020   Code   RO         1245    i.HAL_RCC_GetPCLK1Freq  stm32f1xx_hal_rcc.o
    0x08000a88   0x08000a88   0x00000020   Code   RO         1246    i.HAL_RCC_GetPCLK2Freq  stm32f1xx_hal_rcc.o
    0x08000aa8   0x08000aa8   0x0000006c   Code   RO         1247    i.HAL_RCC_GetSysClockFreq  stm32f1xx_hal_rcc.o
    0x08000b14   0x08000b14   0x00000304   Code   RO         1250    i.HAL_RCC_OscConfig  stm32f1xx_hal_rcc.o
    0x08000e18   0x08000e18   0x00000082   Code   RO         2807    i.HAL_SPI_Init      stm32f1xx_hal_spi_ex.o
    0x08000e9a   0x08000e9a   0x00000002   PAD
    0x08000e9c   0x08000e9c   0x00000058   Code   RO         3389    i.HAL_SPI_MspInit   stm32f1xx_hal_msp.o
    0x08000ef4   0x08000ef4   0x00000168   Code   RO         2503    i.HAL_SPI_Transmit  stm32f1xx_hal_spi.o
    0x0800105c   0x0800105c   0x000001d8   Code   RO         2504    i.HAL_SPI_TransmitReceive  stm32f1xx_hal_spi.o
    0x08001234   0x08001234   0x00000056   Code   RO          182    i.HAL_SRAM_Init     stm32f1xx_hal_sram.o
    0x0800128a   0x0800128a   0x00000002   PAD
    0x0800128c   0x0800128c   0x00000060   Code   RO         3391    i.HAL_SRAM_MspInit  stm32f1xx_hal_msp.o
    0x080012ec   0x080012ec   0x00000018   Code   RO          637    i.HAL_SYSTICK_CLKSourceConfig  stm32f1xx_hal_cortex.o
    0x08001304   0x08001304   0x00000002   Code   RO          638    i.HAL_SYSTICK_Callback  stm32f1xx_hal_cortex.o
    0x08001306   0x08001306   0x00000028   Code   RO          639    i.HAL_SYSTICK_Config  stm32f1xx_hal_cortex.o
    0x0800132e   0x0800132e   0x00000008   Code   RO          640    i.HAL_SYSTICK_IRQHandler  stm32f1xx_hal_cortex.o
    0x08001336   0x08001336   0x00000002   Code   RO          298    i.HAL_TIMEx_BreakCallback  stm32f1xx_hal_tim_ex.o
    0x08001338   0x08001338   0x00000002   Code   RO          299    i.HAL_TIMEx_CommutationCallback  stm32f1xx_hal_tim_ex.o
    0x0800133a   0x0800133a   0x00000050   Code   RO          315    i.HAL_TIMEx_MasterConfigSynchronization  stm32f1xx_hal_tim_ex.o
    0x0800138a   0x0800138a   0x00000036   Code   RO         1667    i.HAL_TIM_Base_Init  stm32f1xx_hal_tim.o
    0x080013c0   0x080013c0   0x0000004c   Code   RO         3393    i.HAL_TIM_Base_MspInit  stm32f1xx_hal_msp.o
    0x0800140c   0x0800140c   0x0000001a   Code   RO         1670    i.HAL_TIM_Base_Start  stm32f1xx_hal_tim.o
    0x08001426   0x08001426   0x00000018   Code   RO         1672    i.HAL_TIM_Base_Start_IT  stm32f1xx_hal_tim.o
    0x0800143e   0x0800143e   0x000000f2   Code   RO         1676    i.HAL_TIM_ConfigClockSource  stm32f1xx_hal_tim.o
    0x08001530   0x08001530   0x00000002   Code   RO         1696    i.HAL_TIM_IC_CaptureCallback  stm32f1xx_hal_tim.o
    0x08001532   0x08001532   0x00000166   Code   RO         1709    i.HAL_TIM_IRQHandler  stm32f1xx_hal_tim.o
    0x08001698   0x08001698   0x00000002   Code   RO         1712    i.HAL_TIM_OC_DelayElapsedCallback  stm32f1xx_hal_tim.o
    0x0800169a   0x0800169a   0x00000002   Code   RO         1739    i.HAL_TIM_PWM_PulseFinishedCallback  stm32f1xx_hal_tim.o
    0x0800169c   0x0800169c   0x00000002   Code   RO         1746    i.HAL_TIM_PeriodElapsedCallback  stm32f1xx_hal_tim.o
    0x0800169e   0x0800169e   0x00000002   Code   RO         1750    i.HAL_TIM_TriggerCallback  stm32f1xx_hal_tim.o
    0x080016a0   0x080016a0   0x00000062   Code   RO         1364    i.HAL_UART_Init     stm32f1xx_hal_uart.o
    0x08001702   0x08001702   0x00000002   PAD
    0x08001704   0x08001704   0x00000058   Code   RO         3395    i.HAL_UART_MspInit  stm32f1xx_hal_msp.o
    0x0800175c   0x0800175c   0x00000002   Code   RO         2833    i.HardFault_Handler  stm32f1xx_it.o
    0x0800175e   0x0800175e   0x000000c6   Code   RO         3461    i.LCD_Char          ili9325_fsmc.o
    0x08001824   0x08001824   0x0000012e   Code   RO         3462    i.LCD_Circle        ili9325_fsmc.o
    0x08001952   0x08001952   0x000000e4   Code   RO         3463    i.LCD_Circle_Fill_Helper  ili9325_fsmc.o
    0x08001a36   0x08001a36   0x00000002   PAD
    0x08001a38   0x08001a38   0x00000118   Code   RO         3464    i.LCD_Circle_Helper  ili9325_fsmc.o
    0x08001b50   0x08001b50   0x00000298   Code   RO         3465    i.LCD_Ellipse       ili9325_fsmc.o
    0x08001de8   0x08001de8   0x00000090   Code   RO         3466    i.LCD_Font          ili9325_fsmc.o
    0x08001e78   0x08001e78   0x0000009c   Code   RO         3467    i.LCD_Init          ili9325_fsmc.o
    0x08001f14   0x08001f14   0x0000007a   Code   RO         3468    i.LCD_Line          ili9325_fsmc.o
    0x08001f8e   0x08001f8e   0x00000052   Code   RO         3469    i.LCD_Rect          ili9325_fsmc.o
    0x08001fe0   0x08001fe0   0x0000006c   Code   RO         3470    i.LCD_Rect_Fill     ili9325_fsmc.o
    0x0800204c   0x0800204c   0x000000de   Code   RO         3471    i.LCD_Rect_Round    ili9325_fsmc.o
    0x0800212a   0x0800212a   0x00000064   Code   RO         3472    i.LCD_Rect_Round_Fill  ili9325_fsmc.o
    0x0800218e   0x0800218e   0x00000002   PAD
    0x08002190   0x08002190   0x00000010   Code   RO         3473    i.LCD_Send_Reg      ili9325_fsmc.o
    0x080021a0   0x080021a0   0x00000040   Code   RO         3474    i.LCD_Triangle      ili9325_fsmc.o
    0x080021e0   0x080021e0   0x000000c2   Code   RO         3475    i.LCD_Triangle_Fill  ili9325_fsmc.o
    0x080022a2   0x080022a2   0x00000002   PAD
    0x080022a4   0x080022a4   0x00000080   Code   RO         2919    i.MX_FSMC_Init      main.o
    0x08002324   0x08002324   0x00000084   Code   RO         2920    i.MX_GPIO_Init      main.o
    0x080023a8   0x080023a8   0x00000040   Code   RO         2921    i.MX_SPI1_Init      main.o
    0x080023e8   0x080023e8   0x0000005c   Code   RO         2922    i.MX_TIM1_Init      main.o
    0x08002444   0x08002444   0x00000002   Code   RO         2834    i.MemManage_Handler  stm32f1xx_it.o
    0x08002446   0x08002446   0x00000002   Code   RO         2835    i.NMI_Handler       stm32f1xx_it.o
    0x08002448   0x08002448   0x00000020   Code   RO          641    i.NVIC_SetPriority  stm32f1xx_hal_cortex.o
    0x08002468   0x08002468   0x00000002   Code   RO         2836    i.PendSV_Handler    stm32f1xx_it.o
    0x0800246a   0x0800246a   0x00000020   Code   RO         2519    i.SPI_CheckFlag_BSY  stm32f1xx_hal_spi.o
    0x0800248a   0x0800248a   0x00000096   Code   RO         2538    i.SPI_WaitFlagStateUntilTimeout  stm32f1xx_hal_spi.o
    0x08002520   0x08002520   0x00000002   Code   RO         2837    i.SVC_Handler       stm32f1xx_it.o
    0x08002522   0x08002522   0x0000000e   Code   RO         2838    i.SysTick_Handler   stm32f1xx_it.o
    0x08002530   0x08002530   0x00000068   Code   RO         2923    i.SystemClock_Config  main.o
    0x08002598   0x08002598   0x00000048   Code   RO           14    i.SystemInit        system_stm32f1xx.o
    0x080025e0   0x080025e0   0x0000000c   Code   RO         2839    i.TIM1_BRK_IRQHandler  stm32f1xx_it.o
    0x080025ec   0x080025ec   0x00000020   Code   RO         2840    i.TIM1_UP_IRQHandler  stm32f1xx_it.o
    0x0800260c   0x0800260c   0x0000008c   Code   RO         1751    i.TIM_Base_SetConfig  stm32f1xx_hal_tim.o
    0x08002698   0x08002698   0x00000014   Code   RO         1758    i.TIM_ETR_SetConfig  stm32f1xx_hal_tim.o
    0x080026ac   0x080026ac   0x00000010   Code   RO         1759    i.TIM_ITRx_SetConfig  stm32f1xx_hal_tim.o
    0x080026bc   0x080026bc   0x00000022   Code   RO         1765    i.TIM_TI1_ConfigInputStage  stm32f1xx_hal_tim.o
    0x080026de   0x080026de   0x00000024   Code   RO         1767    i.TIM_TI2_ConfigInputStage  stm32f1xx_hal_tim.o
    0x08002702   0x08002702   0x00000002   PAD
    0x08002704   0x08002704   0x00000170   Code   RO         1390    i.UART_SetConfig    stm32f1xx_hal_uart.o
    0x08002874   0x08002874   0x00000002   Code   RO         2841    i.UsageFault_Handler  stm32f1xx_it.o
    0x08002876   0x08002876   0x00000002   PAD
    0x08002878   0x08002878   0x0000003c   Code   RO         3568    i.X                 xpt2046.o
    0x080028b4   0x080028b4   0x00000034   Code   RO         3569    i.XPT2046_Init      xpt2046.o
    0x080028e8   0x080028e8   0x00000038   Code   RO         3570    i.Y                 xpt2046.o
    0x08002920   0x08002920   0x0000000e   Code   RO         3666    i.__scatterload_copy  mc_w.l(handlers.o)
    0x0800292e   0x0800292e   0x00000002   Code   RO         3667    i.__scatterload_null  mc_w.l(handlers.o)
    0x08002930   0x08002930   0x0000000e   Code   RO         3668    i.__scatterload_zeroinit  mc_w.l(handlers.o)
    0x0800293e   0x0800293e   0x00000002   PAD
    0x08002940   0x08002940   0x00000058   Code   RO         3571    i.getRaw            xpt2046.o
    0x08002998   0x08002998   0x00000028   Code   RO         3572    i.getX              xpt2046.o
    0x080029c0   0x080029c0   0x00000028   Code   RO         3573    i.getY              xpt2046.o
    0x080029e8   0x080029e8   0x00000364   Code   RO         2925    i.main              main.o
    0x08002d4c   0x08002d4c   0x0000003c   Code   RO         3574    i.remap             xpt2046.o
    0x08002d88   0x08002d88   0x00000010   Data   RO           15    .constdata          system_stm32f1xx.o
    0x08002d98   0x08002d98   0x00000008   Data   RO           16    .constdata          system_stm32f1xx.o
    0x08002da0   0x08002da0   0x000001a2   Data   RO         2933    .constdata          main.o
    0x08002f42   0x08002f42   0x000002f8   Data   RO         2934    .constdata          main.o
    0x0800323a   0x0800323a   0x00000002   PAD
    0x0800323c   0x0800323c   0x0000003c   Data   RO         2935    .constdata          main.o
    0x08003278   0x08003278   0x0000010f   Data   RO         2936    .constdata          main.o
    0x08003387   0x08003387   0x00000001   PAD
    0x08003388   0x08003388   0x000002f8   Data   RO         2937    .constdata          main.o
    0x08003680   0x08003680   0x0000019e   Data   RO         2950    .constdata          main.o
    0x0800381e   0x0800381e   0x000002f8   Data   RO         2951    .constdata          main.o
    0x08003b16   0x08003b16   0x0000048a   Data   RO         2982    .constdata          main.o
    0x08003fa0   0x08003fa0   0x000002f8   Data   RO         2983    .constdata          main.o
    0x08004298   0x08004298   0x00000573   Data   RO         3194    .constdata          main.o
    0x0800480b   0x0800480b   0x00000001   PAD
    0x0800480c   0x0800480c   0x00000068   Data   RO         3195    .constdata          main.o
    0x08004874   0x08004874   0x00000008   Data   RO         3575    .constdata          xpt2046.o
    0x0800487c   0x0800487c   0x00000020   Data   RO         3664    Region$$Table       anon$$obj.o


    Execution Region RW_IRAM1 (Exec base: 0x20000000, Load base: 0x0800489c, Size: 0x00000540, Max: 0x0000c000, ABSOLUTE)

    Exec Addr    Load Addr    Size         Type   Attr      Idx    E Section Name        Object

    0x20000000   0x0800489c   0x00000004   Data   RW           17    .data               system_stm32f1xx.o
    0x20000004   0x080048a0   0x00000004   Data   RW          888    .data               stm32f1xx_hal.o
    0x20000008   0x080048a4   0x00000010   Data   RW         3223    .data               main.o
    0x20000018   0x080048b4   0x00000008   Data   RW         3396    .data               stm32f1xx_hal_msp.o
    0x20000020        -       0x0000011c   Zero   RW         2926    .bss                main.o
    0x2000013c   0x080048bc   0x00000004   PAD
    0x20000140        -       0x00000400   Zero   RW            1    STACK               startup_stm32f103xe.o


==============================================================================

Image component sizes


      Code (inc. data)   RO Data    RW Data    ZI Data      Debug   Object Name

      2880         10          0          0          0      14060   ili9325_fsmc.o
      1388        162       6864         16        284      50376   main.o
        36          8        304          0       1024        784   startup_stm32f103xe.o
       132         22          0          4          0       3515   stm32f1xx_hal.o
       228         14          0          0          0      27205   stm32f1xx_hal_cortex.o
       508         42          0          0          0       3435   stm32f1xx_hal_gpio.o
       480         64          0          8          0       3569   stm32f1xx_hal_msp.o
      1296        104          0          0          0       5488   stm32f1xx_hal_rcc.o
      1014          0          0          0          0       4769   stm32f1xx_hal_spi.o
       130          0          0          0          0       1023   stm32f1xx_hal_spi_ex.o
        86          0          0          0          0       1152   stm32f1xx_hal_sram.o
       960         20          0          0          0      10248   stm32f1xx_hal_tim.o
        84          0          0          0          0       2250   stm32f1xx_hal_tim_ex.o
       466          4          0          0          0       1844   stm32f1xx_hal_uart.o
        74         16          0          0          0       4477   stm32f1xx_it.o
       280         12          0          0          0       2483   stm32f1xx_ll_fsmc.o
        72         16         24          4          0     494171   system_stm32f1xx.o
       396         44          8          0          0       3406   xpt2046.o

    ----------------------------------------------------------------------
     10528        538       7236         32       1312     634255   Object Totals
         0          0         32          0          0          0   (incl. Generated)
        18          0          4          0          4          0   (incl. Padding)

    ----------------------------------------------------------------------

      Code (inc. data)   RO Data    RW Data    ZI Data      Debug   Library Member Name

         0          0          0          0          0          0   entry.o
         0          0          0          0          0          0   entry10a.o
         0          0          0          0          0          0   entry11a.o
         8          4          0          0          0          0   entry2.o
         4          0          0          0          0          0   entry5.o
         0          0          0          0          0          0   entry7b.o
         0          0          0          0          0          0   entry8b.o
         8          4          0          0          0          0   entry9a.o
        30          0          0          0          0          0   handlers.o
        36          8          0          0          0         68   init.o
         0          0          0          0          0          0   iusefp.o
        30          0          0          0          0         68   llshl.o
        32          0          0          0          0         68   llushr.o
        14          0          0          0          0         68   strlen.o
        98          0          0          0          0         92   uldiv.o
       176          0          0          0          0        140   fadd.o
       124          0          0          0          0         88   fdiv.o
       110          0          0          0          0        168   fepilogue.o
        40          0          0          0          0         68   ffixui.o
        10          0          0          0          0         68   ffltui.o
       100          0          0          0          0         76   fmul.o

    ----------------------------------------------------------------------
       824         16          0          0          0        972   Library Totals
         4          0          0          0          0          0   (incl. Padding)

    ----------------------------------------------------------------------

      Code (inc. data)   RO Data    RW Data    ZI Data      Debug   Library Name

       260         16          0          0          0        364   mc_w.l
       560          0          0          0          0        608   mf_w.l

    ----------------------------------------------------------------------
       824         16          0          0          0        972   Library Totals

    ----------------------------------------------------------------------

==============================================================================


      Code (inc. data)   RO Data    RW Data    ZI Data      Debug   

     11352        554       7236         32       1312     630127   Grand Totals
     11352        554       7236         32       1312     630127   ELF Image Totals
     11352        554       7236         32          0          0   ROM Totals

==============================================================================

    Total RO  Size (Code + RO Data)                18588 (  18.15kB)
    Total RW  Size (RW Data + ZI Data)              1344 (   1.31kB)
    Total ROM Size (Code + RO Data + RW Data)      18620 (  18.18kB)

==============================================================================

