:020000040800F2
:1000000000050020050100086B1C0008390E0008DF
:10001000691C000881010008C51D000800000000DF
:100020000000000000000000000000006F1C00083D
:1000300083010008000000006D1C0008711C00080E
:100040001F0100081F0100081F0100081F01000810
:100050001F0100081F0100081F0100081F01000800
:100060001F0100081F0100081F0100081F010008F0
:100070001F0100081F0100081F0100081F010008E0
:100080001F0100081F0100081F0100081F010008D0
:100090001F0100081F0100081F0100081F010008C0
:1000A0001F0100081F0100081F0100081F010008B0
:1000B0001F0100081F0100081F0100081F010008A0
:1000C0001F0100081F0100081F0100081F01000890
:1000D0001F0100081F0100081F0100081F01000880
:1000E0001F0100081F0100081F010008DFF810D0E1
:1000F00000F034F800480047051E0008AFF3008008
:10010000000500200648804706480047FEE7FEE756
:10011000FEE7FEE7FEE7FEE7FEE7FEE7FEE7FEE7B7
:10012000C51C0008ED000008D2B201E000F8012B68
:10013000491EFBD270470022F6E710B513460A4667
:1001400004461946FFF7F0FF204610BD421C10F888
:10015000011B0029FBD1801A70470000064C074D97
:1001600006E0E06840F0010394E807009847103487
:10017000AC42F6D3FFF7BEFFE43B0008043C0008A6
:10018000FEE77047C1F30743CAB2C1F307218908EC
:1001900030B1D808C00240EA411040EAD2007047AE
:1001A000D008C00240EA411040EAD3007047000086
:1001B00070B5044600F004F90546601C02D00448FE
:1001C0000078044400F0FCF8401BA042FAD370BD54
:1001D000000000202DE9F84FDFF8B891002409F164
:1001E000040A0AF1040B23460F270BF1040EC9E0A1
:1001F0000125A5402A40AA427DD1674ED1F804C00E
:10020000ACEB0608B44532D014DCBCF1030F3AD095
:1002100009DCBCF1000F2AD0BCF1010F1CD0BCF1ED
:10022000020F31D11DE0BCF1110F17D0BCF1120F3C
:100230002AD119E0B8F5881F19D006DCB8F5803F3F
:1002400015D0B8F5801F1FD111E0B8F5001F0ED0F2
:10025000B8F5041F18D10AE0CB6815E0CB681B1D68
:1002600012E0CB6808330FE0CB680C330CE08B68EE
:100270002BB1012B4FF0080303D0456104E00423A8
:1002800002E0056100E00023FF2A01D8064601E0F4
:1002900000F104064FEA840501D9A5F12005D6F83E
:1002A000008007FA05FC28EA0C0803FA05F548EA7D
:1002B0000508C6F800804D68ED0062D5374DAE697F
:1002C00046F00106AE61AD6924F0030605F00105B4
:1002D0000095334D06EB050CDCF80850A607360FE9
:1002E00007FA06F825EA0805DFF8B880404503D18B
:1002F0004FF0000817E044E0DFF8AC80404502D141
:100300004FF001080FE0DFF8A480404502D14FF024
:10031000020808E0DFF89880404502D14FF003085A
:1003200001E04FF0040808FA06F848EA0508CCF89E
:1003300008804D68D9F80060ED034D4601D516439D
:1003400000E096432E604D68DAF80060AD03554634
:1003500001D5164300E096432E604D68DBF800603F
:10036000ED025D4601D5164300E096432E604D68D0
:10037000DEF80060AD02754601D5164300E09643F5
:100380002E60641C0D682A46E5407FF431AFBDE85D
:10039000F88F00000004014000001110001002401E
:1003A0000000014000080140000C01400010014025
:1003B000001401400AB1016170470904FBE7000025
:1003C00001488068704700000000002070B50400FC
:1003D00025D094F83D00002520B984F83C502046F3
:1003E00000F0B8F8242084F83D002068016821F06E
:1003F000010101602068016841F40041016020684A
:10040000016821F40041016000F0FCF94D4A616887
:10041000914201D84C4900E04C49884201D2012068
:1004200070BD4B492368B0FBF1F15E6826F03F06D2
:100430000E435E606368934206D94FF49673594346
:100440004FF47A73B1FBF3F12368491C1E6A26F05E
:100450003F06314319626168914210D84900401E3D
:10046000B0FBF1F2521CC2F30B02042A01D20420A9
:1004700022E0B0FBF1F0401CC0F30B001CE0A268CE
:10048000F2B301EBC10303EB0116431EB3FBF6F31A
:100490005B1C43F480431B0549D092B301EBC102BE
:1004A00002EB0111401EB0FBF1F0401CC0F30B0049
:1004B00040F4804040F400402168CA694CF6FF7364
:1004C0009A431043C861D4E90710014320680268C9
:1004D00022F0C00211430160D4E903010143206806
:1004E000826848F2FF339A4311438160D4E90501E1
:1004F00008432168CA6822F0FF021043C86001E087
:100500000EE016E02068016841F0010101602564F9
:10051000202084F83D00256384F83E50002070BD03
:1005200001EB4106431EB3FBF6F35B1CB3E701206E
:10053000C2E701EB4101401EB0FBF1F0401CC0F3EB
:100540000B00B7E7A086010080841E0000093D0073
:1005500040420F0010B586B0002100910191029138
:10056000039100681349884222D1134CA06940F0DE
:100570000800A061A069694600F0080004904FF4EB
:100580004070009012200190032003900B48FFF769
:1005900021FE0B48416841F0E06141F002014160F9
:1005A000E06940F40010E061E06900F4001004909C
:1005B00006B010BD0054004000100240000C014085
:1005C0000000014002488168027811448160704750
:1005D00000000020074810B5016841F010010160DB
:1005E000032000F067F8002000F006F800F024F87F
:1005F000002010BD0020024070B50D4D04464FF4A0
:100600007A712878B1FBF0F00A490968B1FBF0F083
:1006100000F08CFB48B9102C07D200222146501E56
:1006200000F028F800206C6070BD012070BD000053
:10063000000000200C0000200C4808B5816941F042
:1006400001018161816901F001010091C16941F0FD
:100650008051C161C06900F0805000900448416839
:1006600021F0E06141F00071416008BD00100240DE
:1006700000000140F0B40E4B1B680C46C3F302238C
:10068000C3F10705042D00D90425191D072901D23E
:10069000002300E0DB1E012606FA05F1491E214079
:1006A00099409E40761E16403143F0BC01F08BBB52
:1006B0000CED00E0064900F0070208684FF6FF0362
:1006C000184040EA0220034A1043086070470000C7
:1006D0000CED00E00000FA052DE9F0470F4605009B
:1006E00061D0434E306800F00700B84209D230684C
:1006F00020F0070038433060306800F00700B8424F
:1007000051D128683B4C810712D5400703D560685A
:1007100040F4E06060602878000703D5606840F42A
:10072000605060606068A96820F0F0000843606075
:100730002878C00728D06868012810D021680228CE
:1007400010D0890700292EDA616821F003010143E6
:100750006160FFF735FE804641F288390DE021687F
:100760008903EFE78901EDE7FFF72AFEA0EB080117
:10077000494502D90320BDE8F0876068696800F048
:100780000C00B0EB810FEFD1306800F00700B842E9
:100790000BD9306820F0070038433060306800F033
:1007A0000700B84201D00120E5E72878400705D5C9
:1007B0006068E96820F4E06008436060287800071A
:1007C00006D56068296920F4605040EAC100606085
:1007D00000F038F86168084AC1F30311515CC84061
:1007E0000649086006480068FFF706FF0020C2E7D8
:1007F0000020024000100240CC3B00080C0000200A
:10080000040000200448054900684968044AC1F30F
:100810000221515CC84070470C00002000100240CB
:10082000DC3B00080448054900684968044AC1F3F4
:10083000C221515CC84070470C00002000100240EB
:10084000DC3B000812A185B00FC98DE80F0014A091
:10085000144A006804905168134801F00C03042BFB
:1008600010D0082B0ED1C1F38343C9031DF8030038
:100870000AD5516804AAC1F34041515C0A4A504369
:10088000B0FBF1F005B0704708494843FAE70000B3
:1008900002030405060708090A0B0C0D0E0F1010C1
:1008A000010200000010024000127A0000093D0021
:1008B0002DE9F84F040070D02078C04DC00749D012
:1008C0006868C0F38100012807D06868C0F3810020
:1008D000022809D16868C00306D52868800339D585
:1008E00060680028E7D035E06068B0F5803F0BD045
:1008F00010B1B0F5A02F11D0286820F48030286006
:10090000286820F4802002E0286840F480302860C5
:10091000606890B1FFF754FD06460AE0286840F48D
:1009200080202860F0E700BFFFF74AFD801B6428A5
:1009300073D828688003F7D50CE0FFF741FD064621
:1009400005E000BFFFF73CFD801B6428F0D8286855
:100950008003F7D420789A4E80074FF001094FF0BA
:10096000000839D5686810F00C0F07D06868C0F32C
:100970008100022809D16868C00306D4286880076E
:1009800014D52069012808D110E02069B0B1C6F85B
:100990000090FFF715FD074605E00AE1FFF710FD9F
:1009A000C01B0228C4D828688007F7D52868616969
:1009B00020F0F80040EAC10028600DE0C6F8008091
:1009C000FFF7FEFC074604E0FFF7FAFCC01B022815
:1009D00023D828688007F7D4207800072CD57948D9
:1009E000A169D9B1C0F80090FFF7EAFC074604E01E
:1009F000FFF7E6FCC01B02280FD8686A8007F7D50E
:100A000071484FF4FA510068B0FBF1F0009000BF5C
:100A10000098411E0091FAD20EE080E0C0F80080FC
:100A2000FFF7CEFC074604E0FFF7CAFCC01B022814
:100A300075D8686A8007F7D42078400760D5E869E0
:100A40000027C00008D4E86940F08050E861E869F8
:100A5000012700F0805000905C480168C90513D45C
:100A60000168834641F480710160FFF7A9FC82466A
:100A700006E000BFFFF7A4FCA0EB0A0064284ED8F4
:100A8000DBF80000C005F5D5E06801280AD008B100
:100A9000052813D0286A20F001002862286A20F077
:100AA000040002E0286A40F001002862E06841F298
:100AB000883B98B1FFF784FC82460BE0286A40F03F
:100AC00004002862EEE700BFFFF77AFCA0EB0A0102
:100AD00059455AD8286A8007F6D50CE0FFF770FC14
:100AE000824605E0FFF76CFCA0EB0A0159454CD8A3
:100AF000286A8007F6D41FB1E86920F08050E861C9
:100B0000E06988B36968C1F38101022944D00228F1
:100B1000C6F8608004D0FFF753FC044638E034E0A8
:100B2000FFF74EFC074604E0FFF74AFCC01B022813
:100B30002BD828688001F7D4206AB0F5803F05D112
:100B40006868A16820F4003008436860D4E90801AF
:100B50000843696821F4741108436860C6F860901E
:100B6000FFF72EFC044606E025E000BFFFF728FC57
:100B7000001B022809D828688001F7D51BE000BFB8
:100B8000FFF71EFC001B022802D90320BDE8F88FE6
:100B900028688001F4D40EE00128F7D06868226A42
:100BA00000F48031914204D1616A00F470108842EF
:100BB00001D00120EAE70020E8E700000010024031
:100BC00000004242800442420C00002000700040BD
:100BD00070B5040009D0606A002540B125616561E7
:100BE000A56294F8510040B10CE0012070BD60682E
:100BF000B0F5827FF4D0E561F2E784F850502046EA
:100C000000F040F8022084F851002068016821F0CB
:100C100040010160A088218900F4827001F4044140
:100C20000843A18901F400610843217C01F002011D
:100C30000843217D01F001010843218B01F400717B
:100C40000843217F01F03801084394F8201001F097
:100C500080010843218D01F4005108432168086098
:100C6000A069042101EA1040216848602068C16938
:100C700021F40061C1616565012084F85100002004
:100C800070BD000070B586B00024009401940294F9
:100C900003940068204988423BD12048816941F48F
:100CA00080518161816901F480510491816941F031
:100CB00004018161816901F004010491816941F0BD
:100CC000080181618069022500F0080004904FF45A
:100CD0000040CDE900050326694603961048FFF75A
:100CE00079FA2820CDE900050E4D6946039628467D
:100CF000FFF770FA1020CDE90004694628460294F7
:100D0000FFF768FA0848416841F0E06141F00101ED
:100D1000416006B070BD000000300140001002408C
:100D200000080140000C01400000014010B5401EC9
:100D3000B0F1807F01D3012010BD4FF0E02460614D
:100D40000F21601701F03FF80020A061072020610B
:100D5000002010BD70B5040004D094F839000025BF
:100D600010B106E0012070BD84F83850204600F034
:100D700023F8242084F839002068C16821F4005148
:100D8000C160204600F0C2FF2068016921F4904153
:100D900001612068416921F02A0141612068C16830
:100DA00041F40051C160E563202084F8390084F8E3
:100DB0003A00002070BD000030B585B000240094DA
:100DC0000194029403940068174988422AD1174875
:100DD000816941F480418161816901F4804104911C
:100DE000816941F0080181618069114D00F00800BE
:100DF0000490402000900220019003200390694657
:100E00002846FFF7E7F98020CDE900046946284627
:100E10000294FFF7DFF90748416841F0E06141F0D3
:100E20000401416005B030BD0038014000100240AF
:100E3000000C014000000140FEE7000070B50446D0
:100E40004D4DC00B4FF4004101D0012200E00022C3
:100E50002846FFF7AFFA60044FF4804101D5012224
:100E600000E000222846FFF7A5FAA0044FF4005145
:100E700001D5012200E000222846FFF79BFA3F4DF2
:100E8000E0044FF4805101D5012200E00022284601
:100E9000FFF790FA20054FF4006101D5012200E030
:100EA00000222846FFF786FA60054FF4806101D5DD
:100EB000012200E000222846FFF77CFAA0054FF44B
:100EC000007101D5012200E000222846FFF772FAE6
:100ED000E0054FF4807101D5012200E00022284690
:100EE000FFF768FA200601D5012200E000228021E8
:100EF0002846FFF75FFA600601D5012200E00022D4
:100F000040212846FFF756FAA00601D5012200E04D
:100F1000002220212846FFF74DFAE00601D50122E4
:100F200000E0002210212846FFF744FA200701D5EF
:100F3000012200E0002208212846FFF73BFA600763
:100F400001D5012200E0002204212846FFF732FAF1
:100F5000A00701D5012200E0002202212846FFF768
:100F600029FAE00701D0012200E000222846BDE86E
:100F700070400121FFF71EBA000C0140000801403B
:100F80002DE9FF4F4FF0000981B01446DDF838A07D
:100F9000B2F800804F4648464E46D3F800B04CE0C9
:100FA00000252BE037B91BF8089008F101011FFA62
:100FB00081F8802719EA070F02D0401C80B21AE09E
:100FC000C8B10F9900910AFB00F18AB294F906109A
:100FD000029B01EB060C0CFB0A3194F9053089B237
:100FE0002B44A3EB000C019B0CFB0A3080B2534650
:100FF00000F0F0FB00207F086D1CEDB2A178A94243
:10100000D0D8C0B10F9900910AFB00F18AB294F9CF
:101010000610029B01EB060C0CFB0A3194F905301B
:1010200089B22B441D1A019B05FB0A3080B253463E
:1010300000F0D0FB0020761CF6B2E178B142AFD8C8
:1010400005B0BDE8F08F2DE9FF4F85B08846814699
:1010500000241546C2F10107139E85E00898012877
:101060005ED004EB0900CDE90060129B05EB080B94
:101070001FFA8BF180B21A4600F0ACFB05EB0900B9
:10108000129B04EB080A04901FFA8AF1009680B2C2
:101090001A4600F09FFBA9EB04000390129B1FFA75
:1010A0008BF1009680B21A4600F094FBA9EB050084
:1010B000129B02901FFA8AF1009680B21A4600F045
:1010C00089FB0498129BA8EB040B1FFA8BF1009686
:1010D00080B21A4600F07EFB0198129BA8EB050A2D
:1010E0001FFA8AF1009680B21A4600F073FB03984B
:1010F000129B1FFA8AF1009680B21A4600F06AFB32
:101100000298129B1FFA8BF1009680B21A4600F0EB
:1011100061FB002F22DA07EB4407641CFF1C23E06D
:10112000012000EB450B00EB440AA8EB050081B25F
:10113000A9EB04001FFA8BF31FFA8AF280B2009623
:1011400000F048FBA8EB040081B2A9EB05001FFAF0
:101150008AF31FFA8BF280B20096D8E7601B07EB88
:101160004007641C6D1E7F1DAC427FF777AF09B04E
:10117000BDE8F08F2DE9FF4F8146C2F1010083B039
:1011800006B2C2EBC230DDE910BA4000012700B25E
:10119000884600251446029059E0002E07DB641EA5
:1011A000029824B2801C00B20290304406B2BF1CE8
:1011B0006D1C3FB2F01906B206982DB2C00721D0BF
:1011C0000120A8EB0401CDE9000A01EB440202EB87
:1011D0000B0083B209EB050082B289B280B200F045
:1011E0007BFA0121CDE9001AA8EB050101EB4502CC
:1011F00002EB0B0083B209EB040082B289B280B229
:1012000000F06AFA0698800721D50121CDE9001A7D
:10121000A8EB040101EB440202EB0B0083B2A9EB43
:10122000050082B289B280B200F056FA0121CDE900
:10123000001AA8EB050101EB450202EB0B0083B29B
:10124000A9EB040082B289B280B200F045FAA5424F
:10125000A3DB07B0BDE8F08F2DE9FC5F0746C2F1C4
:1012600001000FFA80F9C2EBC230400000B29B4689
:101270000E464FF0010ADDF8348000251446019037
:1012800072E000BFB9F1000F08DB641E019824B2C0
:10129000801C00B2019048440FFA80F90AF1020064
:1012A0000FFA80FA6D1C09EB0A000FFA80F92DB2D3
:1012B0005FEA4B7013D5301981B20C9B781980B25C
:1012C000CDF800801A4600F085FA701981B20C9BA7
:1012D000381980B2CDF800801A4600F07BFA5FEA38
:1012E0008B7013D5301B81B20C9B781980B2CDF86E
:1012F00000801A4600F06EFA701B81B20C9B381900
:1013000080B2CDF800801A4600F064FA5FEA0B70F4
:1013100013D5701981B20C9B381B80B2CDF80080B8
:101320001A4600F057FA301981B20C9B781B80B234
:10133000CDF800801A4600F04DFA5FEACB7013D06A
:10134000701B81B20C9B381B80B2CDF800801A460E
:1013500000F040FA301B81B20C9B781B80B2CDF8B4
:1013600000801A4600F036FAA5428BDBBDE8FC9FF0
:101370002DE9F04F91B0934602FB0BF58046A80093
:1013800003FB03F409901C9EA0000890CBF100021F
:10139000012000EB420207925A4200EB42000BFB95
:1013A0000BF250430F461A9903FB03F2002900EB9E
:1013B00042004FF0000189469A4602903AD1CCE0B3
:1013C0001B98CDE900061B9808EB0902101A401C77
:1013D00082B20F90A7EB0A01A8EB09008BB20E9026
:1013E00089B280B200F078F91B98CDE900060F9819
:1013F00007EB0A0182B20E988BB289B280B200F07C
:101400006BF9029800280ADB09990298CAF10102D7
:1014100001FB02000290AAF101000FFA80FA0621F6
:10142000029801EB890104FB0100029009F101001F
:101430000FFA80F904FB09F005FB0AF18842BFDDD1
:101440000798DA4660434FF0000900EB450B35E0A2
:101450001B98CDE900061B9808EB0A02101A401CE5
:1014600082B20D90A7EB0901A8EB0A008BB20C9099
:1014700089B280B200F030F91B98CDE900060D98D2
:1014800007EB090182B20C988BB289B280B200F0EE
:1014900023F9BBF1000F08DBCAF101020899AAF198
:1014A000010001FB02BB0FFA80FA062101EB890162
:1014B00005FB01BB09F101000FFA80F905FB09F0FA
:1014C00004FB0AF18842C3DD11B0BDE8F08F00BF14
:1014D00007EB0A0081B20B9008EB09000C901B9BF4
:1014E000009680B21A4600F075F90B981B9B81B2EA
:1014F000A8EB09000B90009680B21A4600F06AF93A
:10150000A7EB0A0081B20D900C981B9B009680B24D
:101510001A4600F05FF90D981B9B81B20B9800965C
:1015200080B21A4600F056F9029800280ADB0999A1
:101530000298CAF1010201FB02000290AAF1010027
:101540000FFA80FA0621029801EB890104FB0100E1
:10155000029009F101000FFA80F904FB09F005FB84
:101560000AF18842B4DD0798DA4660434FF000097B
:1015700000EB450B41E000BF07EB090081B2099089
:10158000009608EB0A001B9B0A9080B21A4600F0F6
:1015900021F909981B9B81B2A8EB0A0009900096DB
:1015A00080B21A4600F016F9A7EB090081B2009646
:1015B0000B900A981B9B80B21A4600F00BF90B980F
:1015C0001B9B81B20998009680B21A4600F002F97E
:1015D000BBF1000F08DBCAF101020899AAF1010072
:1015E00001FB02BB0FFA80FA062101EB890105FB22
:1015F00001BB09F101000FFA80F905FB09F004FBBA
:101600000AF18842B8DD5FE72DE9F04788B005B2FE
:1016100090460EB2DDE9109A93E807000DF1100C28
:101620002F468CE80700002427E000BF18F80400CC
:101630000A282AD09DF8181081421CD89DF819104C
:10164000814218D30D2816D09DF818200599801ACC
:1016500001EBC00004AB016802914068CDE9009A3B
:10166000039002AA31462846FFF78AFC9DF80C1029
:1016700001FB095005B2641CA4B24046FEF766FDAA
:10168000A042D3D808B0BDE8F0879DF81A103D46B7
:1016900001FB096006B2EEE710B5012211460D48C4
:1016A000FEF788FE112000F05BF97820FEF780FD40
:1016B0003A2000F055F9552000F078F90520FEF7A2
:1016C00077FD292000F04CF9BDE81040022000F021
:1016D00040B80000000C01402DE9FE4F07469A4635
:1016E00090460E46D41B00D56442BAEB060000D5E6
:1016F000404281464FF0FF30474501D2012100E0D2
:1017000001460291564500D201208346C9F10000EE
:10171000A4EB090501900D980C9B00901A463146E8
:10172000384600F057F8474501D156450FD001998A
:101730006800884204DD0299A5EB090539448FB29F
:10174000A042E8DA06EB0B00254486B2E3E7BDE8E9
:10175000FE8F10B50446362000F002F954B1012C7A
:101760000AD0022C0AD0032C0AD16820BDE8104010
:1017700000F01CB90820F9E7A820F7E7C820F5E732
:1017800010BD2DE9FC471C46DDE90A67851889462E
:101790008046AAB20B46CDE90067FFF79DFF4C4497
:1017A000A3B2AAB2A1B24046CDE90067FFF794FF09
:1017B0004246A3B249461046CDE90067FFF78CFFC9
:1017C000A3B2AAB2A8B24946CDE90067FFF784FFE9
:1017D000BDE8FC872DE9F0410F46811802FB03F5B7
:1017E000FA18491E89B20B46521E0146002492B2D5
:1017F0003846069E00F07FF906E031460120FEF7EC
:10180000C1FC00F0D3F8641CAC42F6D3BDE8F08113
:101810002DE9FE4F8A46DDE90D4507460C9E00EB9B
:10182000020909EB0400811B891E0094CDE90151D6
:101830009846B8198AB200F1020B53461FFA8BF092
:101840001946FFF749FFD0440299A8F101008AB276
:1018500083B281B2CDE900451FFA8BF0FFF73CFF60
:10186000A8EB0400801B801E0094CDE901500AEB18
:10187000060183B201F1020A3A461FFA8AF11046C4
:10188000FFF72AFF0298CDE9004583B2A9F10100D4
:1018900082B21FFA8AF180B2FFF71EFF0FFA8AF1B7
:1018A0000094B21CCDE901510FFA8BF012B28246BE
:1018B00001231746FFF7D0FCA9EB0600C01E00B2BB
:1018C000CDE90045814602233A460299FFF7C4FC60
:1018D000A8EB0600C01E06B2484604233A4631462D
:1018E000CDE90045FFF7B8FC3146504608233A469B
:1018F000CDE90045FFF7B0FCBDE8FE8F2DE9FC5FA8
:101900008146DDE90C476542904602EB450082B214
:1019100009EB040A1E468B461FFA8AF00097FFF770
:1019200059FF06EB4500401E06B20BEB040005B262
:1019300009EB0800001B401E22B200B2012314462E
:101940002946CDE90067FFF715FC29460FFA8AF012
:1019500002232246CDE90067FFF70CFCBDE8FC9F9F
:1019600070B5114C054600224FF400612046FEF789
:1019700021FD002202212046FEF71CFD2846FFF72C
:101980005DFA2515002229462046FEF713FD0122A7
:1019900029462046FEF70EFD2046BDE87040012294
:1019A0000221FEF707BD0000000C014070B5104C8D
:1019B00005460122D1022046FEF7FCFC002202214E
:1019C0002046FEF7F7FC2846FFF738FA25150022D7
:1019D00029462046FEF7EEFC012229462046FEF766
:1019E000E9FC2046BDE8704001220221FEF7E2BC7E
:1019F000000C01402DE9FC5F9A46DDE90E54DDE95B
:101A00000C76CDE90054934688468146FFF764FE84
:101A1000CDE9005433463A4651465846FFF75CFE3E
:101A2000CDE9005443464A4631463846FFF754FE56
:101A3000BDE8FC9F2DE9F04F0027141A85B0002C5B
:101A400000DC841A0FFA84F85C1A002C00DCCC1A33
:101A50000FFA84FC06B20DB24FF0FF34824203D37A
:101A600001208246039001E0A24603948B4203D3F7
:101A700001208146029001E0A1460294E0454FF02A
:101A8000000008DB8146039008EBD870C346441081
:101A9000CDF810C02AE0824600200290E3460CEB0D
:101AA000DC70CDF810804410D8461FE0109901205A
:101AB000CDE90001DDE90E23A9B2B0B2FFF70CFEBB
:101AC0000498204404B25C4508DBA4EB0B0004B28C
:101AD0000398304406B20298284405B206EB0A0087
:101AE00006B205EB09007F1C05B23FB24745DDDDBC
:101AF00005B0BDE8F08FF8B50F4600210091010A4E
:101B00008DF800108DF80100100A8DF802001E46B5
:101B10008DF803202A20FFF723FF00246D46285D5F
:101B2000FFF744FF641CE4B2042CF8D3380A8DF8A4
:101B300000008DF80170300A8DF802008DF8036006
:101B40002B20FFF70DFF0024285DFFF72FFF641CFB
:101B5000E4B2042CF8D32C20FFF702FFF8BD0000FC
:101B60002DE9F04F85B000242E4800940194029492
:101B70000394816941F010018161816901F01001D4
:101B80000491816941F020018161816901F02001A6
:101B90000491816941F004018161816901F00401CE
:101BA0000491816941F0080181618069DFF87890D2
:101BB00000F008004FF400550490002229464846E2
:101BC000FEF7F8FBDFF864A06F1E0022394650468E
:101BD000FEF7F0FBDFF858B04EF60348002241460E
:101BE0005846FEF7E7FB0095022601250396CDE94E
:101BF000015469464846FEF7EDFA00970396CDE991
:101C0000015469465046FEF7E5FACDF80080039688
:101C1000CDE9015469465846FEF7DCFA05B0BDE847
:101C2000F08F000000100240001001400008014049
:101C3000000C01400B480A494FF4802201604FF428
:101C40008271416000218160C1600161C0E90512BB
:101C5000C1610162416281620A21C162FEF7B8BFBF
:101C60000030014064000020FEE770477047704775
:101C7000FEF7A8BC30B58FB028216846FEF75BFAA6
:101C800014210AA8FEF757FA01210804CDE9001033
:101C90000024029402250491CDE907504FF4E0108E
:101CA00009906846FEF704FE0F20CDE90A05680298
:101CB000CDE90C400E9002210AA8FEF70DFD0FB0F1
:101CC00030BD00000D48016841F00101016041682C
:101CD0000B4A1140416001680A4A114001600168E5
:101CE00021F480210160416821F4FE0141604FF43C
:101CF0001F0181600449C003086070470010024062
:101D00000000FFF8FFFFF6FE08ED00E070B50446A6
:101D100000680169E26821F44051114301612169C1
:101D2000A0680843616908432168CA6841F20C63EE
:101D30009A430243CA6020684169A26921F4407154
:101D4000114341611E492068884202D1FEF76AFDB5
:101D500001E0FEF757FD00EBC00101EB00126068E7
:101D600064218000B2FBF0F3B3FBF1F36FF01806CF
:101D70007343B2FBF0F5B2FBF0F605EB83053223BB
:101D800003EB0515B5FBF1F5B6FBF1F605F0F00533
:101D900005EB0615B2FBF0F6B2FBF0F0B0FBF1F08C
:101DA0006FF01802504306EB800003EB0010B0FB0D
:101DB000F1F0216800F00F002844886070BD000039
:101DC00000380140FEE70907090E002804DB00F196
:101DD000E02080F80014704700F00F0000F1E020D0
:101DE00080F8141D704702E008C8121F08C1002ABD
:101DF000FAD170477047002001E001C1121F002A8C
:101E0000FBD170471FB5FEF7E5FBFFF733FFFFF788
:101E1000A7FE9B4899494FF0000B01609949C0E922
:101E2000011B4FF48041C0E903B1C0F814B0C0F801
:101E300018B0C0F81CB05C46C0F820B0FEF7C6FA77
:101E40008F489149AC3001604FF4E131C0E9011491
:101E50000C21C460C0E904418461C461FEF77AFFCB
:101E6000FFF7E8FEFFF718FCFF20002100904FF479
:101E7000A0734FF4F0720846FFF7ACFC01214FF459
:101E80009F734FF4EF7208460094FFF7A3FC002104
:101E90008023A02208460094FFF79CFC082501241B
:101EA0004FF47F46CDE90046002180232A460846AC
:101EB000FFF712FC0835EDB2A02DF3D90825B04686
:101EC000CDE9004800212B46A0220846FFF704FC7C
:101ED0000835EDB2802DF3D9FA20FEF769F9102606
:101EE0001425DFF8A89100274FF0020A4020A0EB4C
:101EF000560081B25020CDE900A9A0EB550080B278
:101F000033462A46FFF73DFC103614357F1CFFB2DE
:101F1000F6B2EDB2082FE9D3FA20FEF749F9FF2512
:101F200000218023A02208460095FFF753FC0121E1
:101F30007E239E220846CDF800B0FFF74BFCCDE98A
:101F40000049534B53A228210520FFF75DFB4FF0BA
:101F5000FF16CDE900461423892219461720FFF702
:101F6000BBFB1523892219461720CDE90045FFF751
:101F7000B3FB1523892219461720CDE90045FFF749
:101F8000ABFB434BCDE900460C334BA20A21292081
:101F9000FFF73AFB2E043E4BCDE9004624334AA21C
:101FA00023212D20FFF730FBCDE9004600231E2220
:101FB0005A212820FFF747F8012314225A212D2007
:101FC000CDE90045FFF73FF8192700970522CDE935
:101FD0000175142311461046FFF72CFD0522CDE9AB
:101FE000024600971423114610460197FFF702FDA1
:101FF000CDE900A8554614231E222D213C20FFF7D1
:10200000C0FB4FF00A086FF07F470321CDF8008036
:10201000CDE9011719233C2246215020FFF7F8FB98
:10202000CDE9008719233C2264215020FFF766FC8C
:10203000CDF800B0CDE9015914231E2264213C20C3
:10204000FFF796F90094CDE901490F2319223C21AD
:102050007D20FFF78DF90E4BCDE9004630331DA2F0
:10206000C8210020FFF7D0FA094BCDE9004618330C
:102070001BA2DC210A20FFF7C7FAFEE7005400404C
:1020800010000020A08601000038014000FFFF0082
:1020900094250008546869732069730A206A75736F
:1020A00074206120546573740A20546F6D546875F0
:1020B0006D62204578740A00444953504C415920C0
:1020C0004452495645520000534552494620424F1A
:1020D0004C44000031323334353637383930000063
:1020E00031323334353637383930204465666175DE
:1020F0006C7420466F6E7400008080800080A0A009
:10210000A0E0A0E0A060C060C0408020408020C06F
:10211000C0E0A0608080408080804080404040805F
:10212000A040A040E0404080E080202040808060CF
:10213000A0A0A0C040C0404040C0204080E0C020DF
:102140004020C0A0A0E02020E080C020C06080E04F
:10215000A0E0E020408080E0A0E0A0E0E0A0E0205F
:10216000C0800080400040802040804020E000E0AF
:102170008040204080E02040004040A0E08060405F
:10218000A0E0A0A0C0A0C0A0C06080808060C0A06F
:10219000A0A0C0E080E080E0E080E080806080E09F
:1021A000A060A0A0E0A0A0E0404040E0202020A04F
:1021B00040A0A0C0A0A080808080E0A0E0E0A0A01F
:1021C000A0E0E0E0A040A0A0A040C0A0C08080406F
:1021D000A0A0E060C0A0E0C0A060804020C0E040BF
:1021E000404040A0A0A0A060A0A0A04040A0A0E0CF
:1021F000E0A0A0A040A0A0A0A0404040E0204080DF
:10220000E0E0808080E0804020E0202020E040A0CE
:10221000E08040C060A0E080C0A0A0C0608080607E
:102220002060A0A06060A0C0602040E0404060A0AE
:10223000E0204080C0A0A0A08000808080200020FE
:1022400020A04080A0C0C0A0C0404040E0E0E0E04E
:10225000A0C0A0A0A040A0A040C0A0A0C08060A03E
:10226000A060206080808060C060C040E04040602E
:10227000A0A0A060A0A0E040A0E0E0E0A04040A0BE
:10228000A0A0602040E060C0E060408040608080AE
:10229000008080C0402040C060C0000008010200F3
:1022A000FB00010008050200FB0006000802040014
:1022B000FB00080008050400FB000D0008050400F1
:1022C000FB00120008050400FB00170008050400CD
:1022D000FB001C0008020200FB001E0008050300B2
:1022E000FB00230008050300FB002800080304008E
:1022F000FB002B0008030400FC002E000802030072
:10230000FE00300008010400FD0031000801020059
:10231000FF00320008050400FB0037000805040038
:10232000FB003C0008050300FB0041000805040019
:10233000FB00460008050400FB004B0008050400F4
:10234000FB00500008050400FB00550008050400D0
:10235000FB005A0008050400FB005F0008050400AC
:10236000FB00640008050400FB006900080302008C
:10237000FC006C0008040300FC0070000805040069
:10238000FB00750008030400FC0078000805040049
:10239000FB007D0008050400FB0082000805040026
:1023A000FB00870008050400FB008C000805040002
:1023B000FB00910008050400FB00960008050400DE
:1023C000FB009B0008050400FB00A00008050400BA
:1023D000FB00A50008050400FB00AA000805040096
:1023E000FB00AF0008050400FB00B4000805040072
:1023F000FB00B90008050400FB00BE00080504004E
:10240000FB00C30008050400FB00C8000805040029
:10241000FB00CD0008050400FB00D2000805040005
:10242000FB00D70008050400FB00DC0008050400E1
:10243000FB00E10008050400FB00E60008050400BD
:10244000FB00EB0008050400FB00F0000805040099
:10245000FB00F50008050400FB00FA000805040075
:10246000FB00FF0008050400FB0004010805040050
:10247000FB00090108050400FB000E01080304002D
:10248000FC00110108050400FB001601080204000D
:10249000FB00180108010400FF00190108020300F5
:1024A000FB001B0108040400FC001F0108050400D8
:1024B000FB00240108040400FC00280108050400B6
:1024C000FB002D0108040400FC0031010805040094
:1024D000FB00360108050400FC003B010805040070
:1024E000FB00400108050200FB004501080604004E
:1024F000FB004B0108050400FB0050010805040027
:10250000FB00550108040400FC0059010804040004
:10251000FC005D0108040400FC00610108050400E2
:10252000FC00660108050400FC006B0108040400BF
:10253000FC006F0108040400FC007301080504009E
:10254000FB00780108040400FC007C01080404007E
:10255000FC00800108040400FC008401080404005D
:10256000FC00880108050400FC008D01080404003B
:10257000FC00910108050400FB009601080502001B
:10258000FB009B0108050400FB00A00108020400F9
:10259000FB000000F82000089A220008207E0600B8
:1025A000D0250008E0260008207E0700D829000872
:1025B000762B0008207E0C006E2E0008F8320008F2
:1025C000207E1600F0350008643B00082E3A3200E9
:1025D000E8A057D5F500FD3E5F8088888880F4BF6D
:1025E0002E80806A409580AA805D00C0F0800888B7
:1025F0008800FC631F80F8F87F0F80F87E1F808CB6
:102600007E1080FC3E1F80FC3F1F80F8421080FC43
:102610007F1F80FC7E1F8090B02A22F0F088A8F8EF
:102620004E0200FD6F0F80FC7F1880F47D1F00FCC0
:10263000210F80F4631F00FC3F0F80FC3F0800FC6B
:102640002F1F808C7F1880F9084F8078852F808D10
:10265000B1688084210F80FD6B5A80FC631880FC78
:10266000631F80FC7F0800FC633F80FC7F2900FC27
:102670003E1F80F90842008C631F808C62A200AD6F
:102680006B5F808A88A8808C544200F87F0F80EAB4
:10269000C082082080D5C054F880F1FF8F99F0F8EF
:1026A0008F1F99F0FF8F6BA4F99F108F9990F055B1
:1026B000C08AF990F8FD6310F999F99FF99F80F9A4
:1026C0009F20F888471F27C84200999F99978C6BD5
:1026D000F09669999F102E8F2B22F889A80FE000A1
:1026E0000000000006000100000001050200FC00DF
:1026F000010003010400FC00020005050600FC00C7
:10270000060005050600FC000A0005050600FC00A1
:102710000E0005050600FC00120001010200FC008D
:10272000130002050300FC00150002050300FC0075
:10273000170003030400FD00190003030400FD005B
:102740001B000102020000001C0004010500FE0045
:102750001D000101020000001E0005050600FC002E
:10276000220005050600FC00260001050200FC0011
:10277000270005050600FC002B0005050600FC00EF
:102780002F0005050600FC00330005050600FC00CF
:10279000370005050600FC003B0005050600FC00AF
:1027A0003F0005050600FC00430005050600FC008F
:1027B000470001040200FD00480001040200FD0082
:1027C000490003050400FC004B0004030500FD0064
:1027D0004D0003050400FC004F0005050600FC0049
:1027E000530005050600FC00570005050600FC0027
:1027F0005B0005050600FC005F0005050600FC0007
:10280000630005050600FC00670005050600FC00E6
:102810006B0005050600FC006F0005050600FC00C6
:10282000730005050600FC00770005050600FC00A6
:102830007B0005050600FC007F0005050600FC0086
:10284000830005050600FC00870005050600FC0066
:102850008B0005050600FC008F0005050600FC0046
:10286000930005050600FC00970005050600FC0026
:102870009B0005050600FC009F0005050600FC0006
:10288000A30005050600FC00A70005050600FC00E6
:10289000AB0005050600FC00AF0005050600FC00C6
:1028A000B30005050600FC00B70005050600FC00A6
:1028B000BB0005050600FC00BF0002050300FC008C
:1028C000C10005050600FC00C50002050300FC0070
:1028D000C70003020400FC00C80005010600010057
:1028E000C90001010200FC00CA0004040500FD004B
:1028F000CC0004050500FC00CF0004040500FD0029
:10290000D10004050500FC00D40004040500FD000E
:10291000D60003050400FC00D80004050500FD00F6
:10292000DB0004050500FC00DE0001040200FD00E0
:10293000DF0002050300FD00E10004050500FC00C6
:10294000E40001050200FC00E50005040600FD00AE
:10295000E80004040500FD00EA0004040500FD0091
:10296000EC0004050500FD00EF0004050500FD0076
:10297000F20004040500FD00F40004040500FD005D
:10298000F60005050600FC00FA0004040500FD0041
:10299000FC0004040500FD00FE0005040600FD0027
:1029A000010104040500FD00030104050500FD000C
:1029B000060104040500FD00080103050400FC00F5
:1029C0000A0101050200FC000B0103050400FC00E4
:1029D0000D0105030600FD00FD5AA028AFCA53F5FE
:1029E0001423EB4618B5F1004AAB1428D552214503
:1029F0001EAAA91B582A49244488924950255CEAFA
:102A0000902109F2108058F88008842211084400AF
:102A1000746318C62E592497746222221F74426070
:102A2000862E1194A93C43FC21E0862E74A1E8C6B1
:102A30002EFC844210847462E8C62E746317852EBF
:102A4000848C088888208208F801F0820820888811
:102A500080746222100474675ADE0F20831451E4DC
:102A6000B3F252E4A53E7C6108422EF25294A53E98
:102A7000FA54E5213FFA54E5211C3928209E248C84
:102A8000CD249E4924B3F90842109F7C4104104193
:102A900024E0ED25185144BBE1041041047FDEF72A
:102AA000BAD6B5DD269A5964BA746318C62EF252A6
:102AB000E4211C746318F66E18F1249C5124BB7C2D
:102AC00060C1063EFD4842108ECD249249248CCD33
:102AD000249450C208AD6AE5294ADA9442295BDAA7
:102AE0009442108EFC8442213FF249249C88844207
:102AF0002210E492493C54FC80649D2780C210E47B
:102B0000A52E7988703084E94A4F69F8703A11E44B
:102B1000211E7C990F45C0C1041C4924BB40649709
:102B2000100311111EC1041751C4BBE10842109FCC
:102B3000F56B5A80F12492EC699960F252972380E8
:102B400074A52708E0DB108E00F861F044E44430FF
:102B5000D924923CED250C20AD5CA500DA88AD802F
:102B6000ED250C208C00F244F06928924CFFF0C94E
:102B700022925842918000000000080000000000EE
:102B800001080802F700010004030801F600030031
:102B900006080800F7000900050A0800F600100002
:102BA00006080800F700160006080800F7001C00D9
:102BB00002030800F6001D00030A0803F6002100C6
:102BC000030A0801F600250005060800F8002900A0
:102BD00005070800F7002E0002030800FE002F0082
:102BE00005010800FA00300001010801FE00310073
:102BF000050A0800F600380005080800F7003D0047
:102C000003080801F700400005080800F700450028
:102C100005080800F7004A0005080800F7004F0003
:102C200005080800F700540005080800F7005900DF
:102C300005080800F7005E0005080800F7006300BB
:102C400005080800F700680001060802F90069009D
:102C500001060802FA006A0005090801F600700082
:102C600005040800F900730005090801F600790061
:102C700005080800F7007E0005080800F70083003B
:102C800006080800F700890005080800F7008E0014
:102C900005080800F700930005080800F7009800F1
:102CA00005080800F7009D0005080800F700A200CD
:102CB00006080800F700A80006080800F700AE00A4
:102CC00005080800F700B30006090800F700BA007D
:102CD00006080800F700C00006080800F700C60054
:102CE00005080800F700CB0006080800F700D1002F
:102CF00005080800F700D60005080800F700DB000B
:102D000005090800F700E10006080800F700E700E1
:102D100005080800F700EC0005080800F700F100BE
:102D200006080800F700F70006080800F700FD0095
:102D300005080800F700020105080800F700070170
:102D400005080800F7000C0105080800F70011014C
:102D5000030A0802F600150104090801F6001A0129
:102D6000030A0801F6001E0103020801F6001F0114
:102D7000060108000000200101010802F6002101FF
:102D800005050801FA00250105080800F7002A01D9
:102D900004050801FA002D0105080801F7003201B9
:102DA00004050801FA00350105080801F7003A0199
:102DB00005070801FA003F0106080800F700450171
:102DC00003080801F7004801040A0800F7004D0154
:102DD00006080800F700530105080800F70058012D
:102DE00005050800FA005C0106050800FA0060010C
:102DF00004050801FA00630105070800FA006801EC
:102E000005070801FA006D0105050800FA007101C7
:102E100004050801FA00740104070801F8007801AC
:102E200006050800FA007C0106050800FA0080018A
:102E300005050800FA00840105050800FA0088016C
:102E400006070800FA008E0104050801FA00910146
:102E5000030A0802F6009501010C0803F50097012A
:102E6000030A0801F6009B0106030800F500FFF4C1
:102E7000921FF0CF3CE388130984C247F990C84CF5
:102E8000FF13090C86401038D692D2F07C3E17937F
:102E900093D67C103C21CF0E2430A0C50334E72606
:102EA00040B904C423308C841C0F00CC06603E0063
:102EB000E78F189C8CE4E3C79E3C72FDE0FF8032F4
:102EC00044CCCCCCC462108422333333326480319E
:102ED0006BB18ED68C00080402010FF84020100858
:102EE00000DF9500FFFF800C218610C3086184304D
:102EF000C01C3398DC7E3F1F8FC7E3B198C38008A6
:102F0000E38E38E38E38E3BF3C3F23C0E0703038B7
:102F10001818185FDFE07C8E0E0E0C1E07030302EC
:102F2000E6F8060E0E3E2E4E8E8EFFFF0E0E3F7EF4
:102F30004040F8FC1E060202E4F8071C3070FCE674
:102F4000E7E7E767663C7F3FA0D040603010180C91
:102F5000040603003CC6C6C6FC7C3ECFC7C7C67C81
:102F60003E33B8DC7E3F1DCE7F07070F1C00FF807D
:102F70003FE0FF8037E540000070787878380380C4
:102F80003C03C030FFC0000000FFC0C03C03C01CB9
:102F900001C1E1E1E0E000003D9F3E70E104080076
:102FA00070E1C00F818318C4899C4CE467223922E8
:102FB0004FE3000C101F0002003001C00E00B805E6
:102FC000C04F02383FE107183DE3F0FF871CE39C48
:102FD000739C7F0E71C738E71CE77FC01F261DC199
:102FE000B01E01C0380700E00E04E10FC0FF0E71F3
:102FF000C738770EE1DC3B8770CE39C67F80FFCEC5
:1030000019C1388730FE1CC388702E0DC37FE0FFC6
:10301000DC3705C4731FC731C4701C0703E01F23CE
:103020000E706E02E00E00E1FE0E60E70E38E0F872
:10303000F9F70E70E70E70E7FE70E70E70E70E709E
:10304000EF9FFB9CE739CE739DF01F0E0E0E0E0E08
:103050000E0E0E0E0ECECC78F9F3821C20E2072065
:103060003F01DC0E7073C38F1C3DF3F0F80E01C0FE
:10307000380700E01C0380702E09C37FE0F80F3C86
:103080001E3C1E2E2E2E2E264E274E274E238E23DE
:103090008E210E711FF0EE09E13E25E49E91D21EB5
:1030A00043C8390370201F830C70EE07E07E07E0F1
:1030B0007E07E0770E30C1F8FF1CE71DC771DCE723
:1030C000F1C0701C0703E00F839C70E606E07E07EA
:1030D000E07E07E0760630C1980F007803E0FF0736
:1030E0003871C71C71C7387E077077873C71EF8FC6
:1030F0003947C1C0F07C3E0F83C3C6BCFFFCE38EE2
:1031000010E00E00E00E00E00E00E00E01F0F8EE20
:1031100009C1382704E09C1382704E08E20F80FC3E
:103120007BC10E087081C40E207A01D00E80380158
:10313000C004002000FDFBDC38438710E1C438F2F6
:10314000072E81D3A034700E1C03870060801020EE
:10315000FEF3C30F103900F003801E017009C08F09
:10316000083DF3F0FC7BC18E083881E807401C0065
:10317000E007003801C01F00FFD8721E4380E01C2A
:103180000701C0382E0F837FE0FCCCCCCCCCCCCC5C
:10319000F0C1061820C3041860830CF333333333B3
:1031A0003333F0181C34266243C1FF80C6307C6381
:1031B000B1C0E1F33B9DCEFF80F01C0701DC7B9C9E
:1031C000771DC771DC77393C3CED9F0E1C38393CCC
:1031D0000780E038EE77B8EE3B8EE3B8E778EF3C57
:1031E00066E6FEE0E0E0723C3EEDC7C70E1C3870BC
:1031F000E1C7C031DFBF7EE79060FCFE0C17C0F076
:103200001C0701DC7B9CE739CE739CE73BFF739D79
:10321000E739CE739DF01C71CF1C71C71C71C71CA0
:103220007DBEF01C0701CE711C8741F8771CE71B9F
:10323000EFF39CE739CE739DF0F738F7B9CE739C66
:10324000E739CE739CE739CEFFFEF71EE739CE7320
:103250009CE739CEFFC03E31B8FC7E3F1F8EC63E94
:1032600000F71EE71DC771DC771DCE7F1C0701C06C
:10327000F8003C9CEE3B8EE3B8EE39CE3F80E03860
:103280000E07C0F77B707070707070F87E73C78E19
:1032900039B010CF9C71C71C71D380F79CE739CE31
:1032A000739CE739CE3FC0FBB88C8743C0E07010F9
:1032B0000800F7B63173A33A3DA3DC18C18810802B
:1032C000FBB88E8381C0F098CEEF80F76272343401
:1032D0003C1818101010E0E0FF1C70E3871C71FE12
:1032E000198C6318CC618C6318C3FFF8C318C631FE
:1032F000863318C63198F08E0000000005000100EA
:103300000000030C0601F500050006050A02F500A1
:103310000900090D0900F4001800080E0901F40065
:1033200026000E0C1202F5003B000D0C0F01F500FB
:103330004F0002050501F5005100040F0601F500DC
:103340005900040F0601F500610007070902F500A6
:10335000680009090C01F800730003060401FE006F
:10336000760004020601FC00770003030401FE005E
:103370007900060D0500F5008300090C0900F50031
:103380009100060C0901F5009A00090C0900F500EE
:10339000A800080C0900F500B400080C0901F500AC
:1033A000C000080C0901F500CC00080C0901F5006B
:1033B000D800090C0900F500E600080C0901F50029
:1033C000F200090C0900F500000103090601F800EC
:1033D0000401030C0602F80009010A0A0C01F700B7
:1033E00016010A050C01FA001D010A0A0C01F80079
:1033F0002A01070C0901F50035010D0C1102F50039
:1034000049010D0C0D00F5005D010B0C0C00F500E1
:103410006E010B0C0D01F5007F010B0C0D01F50089
:1034200090010B0C0C01F500A1010A0C0B01F50039
:10343000B0010C0C0E01F500C2010C0C0E01F500E0
:10344000D401050C0701F500DC01080E0900F500A8
:10345000EA010D0C0E01F500FE010B0C0C01F5004C
:103460000F02100C1100F50027020B0C0D01F500E6
:1034700038020C0C0E01F5004A020A0C0B01F50093
:1034800059020C0F0E01F50070020C0C0D01F50035
:103490008202080C0A01F5008E020C0C0C00F500EB
:1034A000A0020B0C0D01F500B1020D0D0D00F50091
:1034B000C702120C1200F500E2020D0C0D00F5001F
:1034C000F6020D0C0D00F5000A030B0C0C01F500C3
:1034D0001B03040F0601F5002303060D0500F5008C
:1034E0002D03040F0601F500350308070A01F50056
:1034F0003C030901090003003E0304030600F40035
:10350000400309090900F8004B030A0C0A00F50002
:103510005A0307090800F80062030A0C0A00F500C4
:10352000710308090800F8007A03070C0700F5008A
:103530008503070D0901F80091030A0C0A00F50044
:10354000A003050C0500F500A80306100700F50010
:10355000B4030A0C0A00F500C303050C0500F500CE
:10356000CB030F090F00F800DC030A090A00F8007A
:10357000E80309090900F800F3030A0D0A00F8003E
:1035800004040A0D0A00F800150408090800F800F0
:103590001E0405090701F8002404060B0600F600C6
:1035A0002D040A090A00F800390409090900F80085
:1035B00044040C090D00F800520409090900F80040
:1035C0005D04080D0900F8006A0407090801F80005
:1035D000720405100700F4007C04010D0401F500DD
:1035E0007E0405100702F400880408020901FC00AB
:1035F00038FBFFFFEF8E0003FFF800FFFF803FFF67
:10360000F803FFFEC33FFFBCF0000FFF0001FFE027
:10361000003FFC0007FF8000FFF0001FFE0003FFDB
:10362000C0007FF8000FFF0001FFE0003FFC000733
:10363000FF8000FFF0001FFC0000FE0000070000FC
:103640000040000004000000E000007F00003FF0A8
:10365000001FFE0003FFC0007FF8000FFF0001FF06
:10366000E0003FFC0007FF8000FFF0001FFE0003AA
:10367000FFC0007FF8000FFF0001FFE0003F78006F
:1036800003C67FFF301FFFF007FFFF007FFFC0076B
:10369000FFF00031EFFFFFFFFFFFFFFFFFFFFF3CE9
:1036A00030400033FFFFFFFFFFFFFFFFFFFFFDE3A1
:1036B0000003FFF800FFFF803FFFF803FFFEC03F5D
:1036C000FFBC00000FC00001F800003F000007E051
:1036D0000000FC00001F800003F000007E00000FCF
:1036E000C00001F800003F000007E00000FC0000FF
:1036F0001F800000F07FFF861FFFFC4FFFFFE4FFED
:10370000FFF8E7FFFC1F000003F000007E00000F41
:10371000C00001F800003F000007E00000FC0000CE
:103720001F800003F000007E00000FC00001F800C1
:10373000003F000007E00000780000067FFF001F48
:10374000FFF007FFFF007FFFC007FFF0000FFFE063
:103750000FFFF80FFFFE03FFFEC0FFFEF00000FCAE
:1037600000007E00003F00001F80000FC00007E047
:103770000003F00001F80000FC00007E00003F00A4
:10378000001F80000FC00007E00000F1FFFE19FFDE
:10379000FFC7FFFFF8FFFFF81FFFF1800003C00025
:1037A00007E00003F00001F80000FC00007E0000CC
:1037B0003F00001F80000FC00007E00003F0000181
:1037C000F80000FC00007E00003F00000F07FFF340
:1037D00007FFFC07FFFF01FFFF007FFF0000000164
:1037E00086000079E0001FFE0003FFC0007FF800A4
:1037F0000FFF0001FFE0003FFC0007FF8000FFF02B
:10380000001FFE0003FFC0007FF8000FFF0001FF54
:10381000E0003FF80001FCFFFF0E3FFFF89FFFFFB5
:10382000C1FFFFF00FFFF8C000007800003F00006C
:1038300007E00000FC00001F800003F000007E0095
:10384000000FC00001F800003F000007E00000FC8E
:1038500000001F800003F000007E000007800000D1
:103860006003FFF800FFFF803FFFF803FFFE033F08
:10387000FF80F000003F000007E00000FC00001F98
:10388000800003F000007E00000FC00001F800007F
:103890003F000007E00000FC00001F800003F00074
:1038A000007C00000E7FFF811FFFFC0FFFFFE0FF89
:1038B000FFF807FFFC6000003C00001F800003F0E1
:1038C00000007E00000FC00001F800003F0000076C
:1038D000E00000FC00001F800003F000007E0000FC
:1038E0000FC00001F800003F000003C07FFF301F41
:1038F000FFF007FFFF007FFFC007FFF00003FFF8A6
:1039000000FFFF803FFFF803FFFE033FFF80F00052
:10391000003F000007E00000FC00001F800003F0F3
:1039200000007E00000FC00001F800003F0000070B
:10393000E00000FC00001F800003F000007C00009D
:103940000E7FFF811FFFFC0FFFFFE4FFFFF8E7FF83
:10395000FC7F00003FF0001FFE0003FFC0007FF867
:10396000000FFF0001FFE0003FFC0007FF8000FFA9
:10397000F0001FFE0003FFC0007FF8000FFF0001F2
:10398000FFE0003F780003C67FFF301FFFF007FF16
:10399000FF007FFFC007FFF0003FFF80FFFF83FFB6
:1039A000FF83FFFEC3FFFBC0000FC0001F80003F6E
:1039B00000007E0000FC0001F80003F00007E000BA
:1039C0000FC0001F80003F00007E0000FC0001F8D7
:1039D0000000F00000600000400000000000000057
:1039E0000600003C0001F80003F00007E0000FC0F3
:1039F000001F80003F00007E0000FC0001F8000373
:103A0000F00007E0000FC0001F80003F00003C00F6
:103A1000003003FFF800FFFF803FFFF803FFFEC305
:103A20003FFFBCF0000FFF0001FFE0003FFC00077C
:103A3000FF8000FFF0001FFE0003FFC0007FF800C2
:103A40000FFF0001FFE0003FFC0007FF8000FFF0D8
:103A5000001FFC0000FE7FFF871FFFFC4FFFFFE4FD
:103A6000FFFFF8E7FFFC7F00003FF0001FFE0003B0
:103A7000FFC0007FF8000FFF0001FFE0003FFC00E7
:103A800007FF8000FFF0001FFE0003FFC0007FF86B
:103A9000000FFF0001FFE0003F780003C67FFF300A
:103AA0001FFFF007FFFF007FFFC007FFF00003FFCD
:103AB000F800FFFF803FFFF803FFFEC33FFFBCF0AD
:103AC000000FFF0001FFE0003FFC0007FF8000FF48
:103AD000F0001FFE0003FFC0007FF8000FFF000191
:103AE000FFE0003FFC0007FF8000FFF0001FFC002C
:103AF00000FE7FFF871FFFFC4FFFFFE0FFFFF8077F
:103B0000FFFC6000003C00001F800003F000007E0E
:103B100000000FC00001F800003F000007E00000B7
:103B2000FC00001F800003F000007E00000FC000BA
:103B300001F800003F000003C07FFF301FFFF007C7
:103B4000FFFF007FFFC007FFF00038FBFFFFEF8E95
:103B5000000000000000000000000000071F7FFFC1
:103B6000FDF1C00000000707200EF500070000006F
:103B70002000000007001B2E2002D100A300062712
:103B80002017D400C1001B2E2002D1005D01192E88
:103B90002004D100ED011B272002D40071021B2E4E
:103BA0002002D1000D031B2E2002D100A903172AE9
:103BB0002006D10022041B2E2002D100BE041B2EA1
:103BC0002002D1005A05071C200EDB000000000077
:103BD00000000000010203040607080900000000BD
:103BE00001020304043C0008000000201000000053
:103BF000E61D0008143C000810000020F00400003E
:103C0000F61D000801000000100000000000000088
:043C100000A24A04C0
:04000005080000ED02
:00000001FF
