Component: ARM Compiler 5.06 update 7 (build 960) Tool: armlink [4d3601]

==============================================================================

Section Cross References

    startup_stm32f103xb.o(RESET) refers to startup_stm32f103xb.o(STACK) for __initial_sp
    startup_stm32f103xb.o(RESET) refers to startup_stm32f103xb.o(.text) for Reset_Handler
    startup_stm32f103xb.o(RESET) refers to stm32f1xx_it.o(i.NMI_Handler) for NMI_Handler
    startup_stm32f103xb.o(RESET) refers to stm32f1xx_it.o(i.HardFault_Handler) for HardFault_Handler
    startup_stm32f103xb.o(RESET) refers to stm32f1xx_it.o(i.MemManage_Handler) for MemManage_Handler
    startup_stm32f103xb.o(RESET) refers to stm32f1xx_it.o(i.BusFault_Handler) for BusFault_Handler
    startup_stm32f103xb.o(RESET) refers to stm32f1xx_it.o(i.UsageFault_Handler) for UsageFault_Handler
    startup_stm32f103xb.o(RESET) refers to stm32f1xx_it.o(i.SVC_Handler) for SVC_Handler
    startup_stm32f103xb.o(RESET) refers to stm32f1xx_it.o(i.DebugMon_Handler) for DebugMon_Handler
    startup_stm32f103xb.o(RESET) refers to stm32f1xx_it.o(i.PendSV_Handler) for PendSV_Handler
    startup_stm32f103xb.o(RESET) refers to stm32f1xx_it.o(i.SysTick_Handler) for SysTick_Handler
    startup_stm32f103xb.o(.text) refers to system_stm32f1xx.o(i.SystemInit) for SystemInit
    startup_stm32f103xb.o(.text) refers to entry.o(.ARM.Collect$$$$00000000) for __main
    main.o(i.MX_GPIO_Init) refers to stm32f1xx_hal_gpio.o(i.HAL_GPIO_WritePin) for HAL_GPIO_WritePin
    main.o(i.MX_GPIO_Init) refers to stm32f1xx_hal_gpio.o(i.HAL_GPIO_Init) for HAL_GPIO_Init
    main.o(i.MX_SPI1_Init) refers to stm32f1xx_hal_spi.o(i.HAL_SPI_Init) for HAL_SPI_Init
    main.o(i.MX_SPI1_Init) refers to main.o(.bss) for .bss
    main.o(i.SystemClock_Config) refers to memseta.o(.text) for __aeabi_memclr4
==============================================================================

Removing Unused input sections from the image.

    Removing startup_stm32f103xb.o(HEAP), (512 bytes).
    Removing main.o(.rev16_text), (4 bytes).
    Removing main.o(.revsh_text), (4 bytes).
    Removing main.o(.rrx_text), (6 bytes).
    Removing main.o(i.Error_Handler), (2 bytes).
    Removing main.o(.constdata), (142 bytes).
    Removing main.o(.constdata), (760 bytes).
    Removing main.o(.constdata), (12 bytes).
    Removing main.o(.constdata), (180 bytes).
    Removing main.o(.constdata), (760 bytes).
    Removing main.o(.constdata), (12 bytes).
    Removing main.o(.constdata), (373 bytes).
    Removing main.o(.constdata), (760 bytes).
    Removing main.o(.constdata), (12 bytes).
    Removing main.o(.constdata), (482 bytes).
    Removing main.o(.constdata), (760 bytes).
    Removing main.o(.constdata), (12 bytes).
    Removing main.o(.constdata), (523 bytes).
==============================================================================

Image Symbol Table

    Local Symbols

    Symbol Name                              Value     Ov Type        Size  Object(Section)

    ../Drivers/STM32F1xx_HAL_Driver/Src/stm32f1xx_hal.c 0x00000000   Number         0  stm32f1xx_hal.o ABSOLUTE
    ../Drivers/STM32F1xx_HAL_Driver/Src/stm32f1xx_hal_cortex.c 0x00000000   Number         0  stm32f1xx_hal_cortex.o ABSOLUTE
    ../Drivers/STM32F1xx_HAL_Driver/Src/stm32f1xx_hal_dma.c 0x00000000   Number         0  stm32f1xx_hal_dma.o ABSOLUTE
    ../Drivers/STM32F1xx_HAL_Driver/Src/stm32f1xx_hal_exti.c 0x00000000   Number         0  stm32f1xx_hal_exti.o ABSOLUTE
    ../Drivers/STM32F1xx_HAL_Driver/Src/stm32f1xx_hal_flash.c 0x00000000   Number         0  stm32f1xx_hal_flash.o ABSOLUTE
    ../Drivers/STM32F1xx_HAL_Driver/Src/stm32f1xx_hal_flash_ex.c 0x00000000   Number         0  stm32f1xx_hal_flash_ex.o ABSOLUTE
    ../Drivers/STM32F1xx_HAL_Driver/Src/stm32f1xx_hal_gpio.c 0x00000000   Number         0  stm32f1xx_hal_gpio.o ABSOLUTE
    ../Drivers/STM32F1xx_HAL_Driver/Src/stm32f1xx_hal_gpio_ex.c 0x00000000   Number         0  stm32f1xx_hal_gpio_ex.o ABSOLUTE
    ../Drivers/STM32F1xx_HAL_Driver/Src/stm32f1xx_hal_i2c.c 0x00000000   Number         0  stm32f1xx_hal_i2c.o ABSOLUTE
    ../Drivers/STM32F1xx_HAL_Driver/Src/stm32f1xx_hal_pwr.c 0x00000000   Number         0  stm32f1xx_hal_pwr.o ABSOLUTE
    ../Drivers/STM32F1xx_HAL_Driver/Src/stm32f1xx_hal_rcc.c 0x00000000   Number         0  stm32f1xx_hal_rcc.o ABSOLUTE
    ../Drivers/STM32F1xx_HAL_Driver/Src/stm32f1xx_hal_rcc_ex.c 0x00000000   Number         0  stm32f1xx_hal_rcc_ex.o ABSOLUTE
    ../Drivers/STM32F1xx_HAL_Driver/Src/stm32f1xx_hal_spi.c 0x00000000   Number         0  stm32f1xx_hal_spi.o ABSOLUTE
    ../Drivers/STM32F1xx_HAL_Driver/Src/stm32f1xx_hal_tim.c 0x00000000   Number         0  stm32f1xx_hal_tim.o ABSOLUTE
    ../Drivers/STM32F1xx_HAL_Driver/Src/stm32f1xx_hal_tim_ex.c 0x00000000   Number         0  stm32f1xx_hal_tim_ex.o ABSOLUTE
    ../Drivers/STM32F1xx_HAL_Driver/Src/stm32f1xx_hal_uart.c 0x00000000   Number         0  stm32f1xx_hal_uart.o ABSOLUTE
    ../Src/main.c                            0x00000000   Number         0  main.o ABSOLUTE
    ../Src/stm32f1xx_hal_msp.c               0x00000000   Number         0  stm32f1xx_hal_msp.o ABSOLUTE
    ../Src/stm32f1xx_it.c                    0x00000000   Number         0  stm32f1xx_it.o ABSOLUTE
    ../Src/system_stm32f1xx.c                0x00000000   Number         0  system_stm32f1xx.o ABSOLUTE
    ../clib/microlib/init/entry.s            0x00000000   Number         0  entry7b.o ABSOLUTE
    ../clib/microlib/init/entry.s            0x00000000   Number         0  entry7a.o ABSOLUTE
    ../clib/microlib/init/entry.s            0x00000000   Number         0  entry5.o ABSOLUTE
    ../clib/microlib/init/entry.s            0x00000000   Number         0  entry2.o ABSOLUTE
    ../clib/microlib/init/entry.s            0x00000000   Number         0  entry.o ABSOLUTE
    ../clib/microlib/init/entry.s            0x00000000   Number         0  entry12b.o ABSOLUTE
    ../clib/microlib/init/entry.s            0x00000000   Number         0  entry12a.o ABSOLUTE
    ../clib/microlib/init/entry.s            0x00000000   Number         0  entry11b.o ABSOLUTE
    ../clib/microlib/init/entry.s            0x00000000   Number         0  entry11a.o ABSOLUTE
    ../clib/microlib/init/entry.s            0x00000000   Number         0  entry10b.o ABSOLUTE
    ../clib/microlib/init/entry.s            0x00000000   Number         0  entry10a.o ABSOLUTE
    ../clib/microlib/init/entry.s            0x00000000   Number         0  entry9b.o ABSOLUTE
    ../clib/microlib/init/entry.s            0x00000000   Number         0  entry9a.o ABSOLUTE
    ../clib/microlib/init/entry.s            0x00000000   Number         0  entry8b.o ABSOLUTE
    ../clib/microlib/init/entry.s            0x00000000   Number         0  entry8a.o ABSOLUTE
    ../clib/microlib/longlong.c              0x00000000   Number         0  llushr.o ABSOLUTE
    ../clib/microlib/string/memset.c         0x00000000   Number         0  memseta.o ABSOLUTE
    ../clib/microlib/string/strlen.c         0x00000000   Number         0  strlen.o ABSOLUTE
    ..\Drivers\STM32F1xx_HAL_Driver\Src\stm32f1xx_hal.c 0x00000000   Number         0  stm32f1xx_hal.o ABSOLUTE
    ..\Drivers\STM32F1xx_HAL_Driver\Src\stm32f1xx_hal_cortex.c 0x00000000   Number         0  stm32f1xx_hal_cortex.o ABSOLUTE
    ..\Drivers\STM32F1xx_HAL_Driver\Src\stm32f1xx_hal_dma.c 0x00000000   Number         0  stm32f1xx_hal_dma.o ABSOLUTE
    ..\Drivers\STM32F1xx_HAL_Driver\Src\stm32f1xx_hal_exti.c 0x00000000   Number         0  stm32f1xx_hal_exti.o ABSOLUTE
    ..\Drivers\STM32F1xx_HAL_Driver\Src\stm32f1xx_hal_flash.c 0x00000000   Number         0  stm32f1xx_hal_flash.o ABSOLUTE
    ..\Drivers\STM32F1xx_HAL_Driver\Src\stm32f1xx_hal_flash_ex.c 0x00000000   Number         0  stm32f1xx_hal_flash_ex.o ABSOLUTE
    ..\Drivers\STM32F1xx_HAL_Driver\Src\stm32f1xx_hal_gpio.c 0x00000000   Number         0  stm32f1xx_hal_gpio.o ABSOLUTE
    ..\Drivers\STM32F1xx_HAL_Driver\Src\stm32f1xx_hal_gpio_ex.c 0x00000000   Number         0  stm32f1xx_hal_gpio_ex.o ABSOLUTE
    ..\Drivers\STM32F1xx_HAL_Driver\Src\stm32f1xx_hal_i2c.c 0x00000000   Number         0  stm32f1xx_hal_i2c.o ABSOLUTE
    ..\Drivers\STM32F1xx_HAL_Driver\Src\stm32f1xx_hal_pwr.c 0x00000000   Number         0  stm32f1xx_hal_pwr.o ABSOLUTE
    ..\Drivers\STM32F1xx_HAL_Driver\Src\stm32f1xx_hal_rcc.c 0x00000000   Number         0  stm32f1xx_hal_rcc.o ABSOLUTE
    ..\Drivers\STM32F1xx_HAL_Driver\Src\stm32f1xx_hal_rcc_ex.c 0x00000000   Number         0  stm32f1xx_hal_rcc_ex.o ABSOLUTE
    ..\Drivers\STM32F1xx_HAL_Driver\Src\stm32f1xx_hal_spi.c 0x00000000   Number         0  stm32f1xx_hal_spi.o ABSOLUTE
    ..\Drivers\STM32F1xx_HAL_Driver\Src\stm32f1xx_hal_tim.c 0x00000000   Number         0  stm32f1xx_hal_tim.o ABSOLUTE
    ..\Drivers\STM32F1xx_HAL_Driver\Src\stm32f1xx_hal_tim_ex.c 0x00000000   Number         0  stm32f1xx_hal_tim_ex.o ABSOLUTE
    ..\Drivers\STM32F1xx_HAL_Driver\Src\stm32f1xx_hal_uart.c 0x00000000   Number         0  stm32f1xx_hal_uart.o ABSOLUTE
    ..\Src\hx8357.c                          0x00000000   Number         0  hx8357.o ABSOLUTE
    ..\Src\main.c                            0x00000000   Number         0  main.o ABSOLUTE
    ..\Src\stm32f1xx_hal_msp.c               0x00000000   Number         0  stm32f1xx_hal_msp.o ABSOLUTE
    ..\Src\stm32f1xx_it.c                    0x00000000   Number         0  stm32f1xx_it.o ABSOLUTE
    ..\Src\system_stm32f1xx.c                0x00000000   Number         0  system_stm32f1xx.o ABSOLUTE
    ..\\Src\\hx8357.c                        0x00000000   Number         0  hx8357.o ABSOLUTE
    dc.s                                     0x00000000   Number         0  dc.o ABSOLUTE
    handlers.s                               0x00000000   Number         0  handlers.o ABSOLUTE
    init.s                                   0x00000000   Number         0  init.o ABSOLUTE
    startup_stm32f103xb.s                    0x00000000   Number         0  startup_stm32f103xb.o ABSOLUTE
    RESET                                    0x08000000   Section      236  startup_stm32f103xb.o(RESET)
    .ARM.Collect$$$$00000000                 0x080000ec   Section        0  entry.o(.ARM.Collect$$$$00000000)
    .ARM.Collect$$$$00000001                 0x080000ec   Section        4  entry2.o(.ARM.Collect$$$$00000001)
    .ARM.Collect$$$$00000004                 0x080000f0   Section        4  entry5.o(.ARM.Collect$$$$00000004)
    .ARM.Collect$$$$00000008                 0x080000f4   Section        0  entry7b.o(.ARM.Collect$$$$00000008)
    .ARM.Collect$$$$0000000A                 0x080000f4   Section        0  entry8b.o(.ARM.Collect$$$$0000000A)
    .ARM.Collect$$$$0000000B                 0x080000f4   Section        8  entry9a.o(.ARM.Collect$$$$0000000B)
    .ARM.Collect$$$$0000000E                 0x080000fc   Section        4  entry12b.o(.ARM.Collect$$$$0000000E)
    .ARM.Collect$$$$0000000F                 0x08000100   Section        0  entry10a.o(.ARM.Collect$$$$0000000F)
    .ARM.Collect$$$$00000011                 0x08000100   Section        0  entry11a.o(.ARM.Collect$$$$00000011)
    .ARM.Collect$$$$00002712                 0x08000100   Section        4  entry2.o(.ARM.Collect$$$$00002712)
    __lit__00000000                          0x08000100   Data           4  entry2.o(.ARM.Collect$$$$00002712)
    .text                                    0x08000104   Section       36  startup_stm32f103xb.o(.text)
    .text                                    0x08000128   Section        0  memseta.o(.text)
    .text                                    0x0800014c   Section        0  strlen.o(.text)
    .text                                    0x0800015c   Section       36  init.o(.text)
    i.BusFault_Handler                       0x08000180   Section        0  stm32f1xx_it.o(i.BusFault_Handler)
    i.DebugMon_Handler                       0x08000182   Section        0  stm32f1xx_it.o(i.DebugMon_Handler)
    i.H24_RGB565                             0x08000184   Section        0  hx8357.o(i.H24_RGB565)
    H24_RGB565                               0x08000185   Thumb Code    42  hx8357.o(i.H24_RGB565)
    i.HAL_Delay                              0x080001b0   Section        0  stm32f1xx_hal.o(i.HAL_Delay)
    i.HAL_GPIO_Init                          0x080001d4   Section        0  stm32f1xx_hal_gpio.o(i.HAL_GPIO_Init)
    i.HAL_GPIO_WritePin                      0x080003b4   Section        0  stm32f1xx_hal_gpio.o(i.HAL_GPIO_WritePin)
    i.HAL_GetTick                            0x080003c0   Section        0  stm32f1xx_hal.o(i.HAL_GetTick)
    i.HAL_I2C_Init                           0x080003cc   Section        0  stm32f1xx_hal_i2c.o(i.HAL_I2C_Init)
    i.HAL_I2C_MspInit                        0x08000554   Section        0  stm32f1xx_hal_msp.o(i.HAL_I2C_MspInit)
    i.HAL_IncTick                            0x080005c4   Section        0  stm32f1xx_hal.o(i.HAL_IncTick)
    i.HAL_Init                               0x080005d4   Section        0  stm32f1xx_hal.o(i.HAL_Init)
    i.HAL_InitTick                           0x080005f8   Section        0  stm32f1xx_hal.o(i.HAL_InitTick)
    i.HAL_MspInit                            0x08000638   Section        0  stm32f1xx_hal_msp.o(i.HAL_MspInit)
    i.HAL_NVIC_SetPriority                   0x08000674   Section        0  stm32f1xx_hal_cortex.o(i.HAL_NVIC_SetPriority)
    i.HAL_NVIC_SetPriorityGrouping           0x080006b4   Section        0  stm32f1xx_hal_cortex.o(i.HAL_NVIC_SetPriorityGrouping)
    i.HAL_RCC_ClockConfig                    0x080006d8   Section        0  stm32f1xx_hal_rcc.o(i.HAL_RCC_ClockConfig)
    i.HAL_RCC_GetPCLK1Freq                   0x08000804   Section        0  stm32f1xx_hal_rcc.o(i.HAL_RCC_GetPCLK1Freq)
    i.HAL_RCC_GetPCLK2Freq                   0x08000824   Section        0  stm32f1xx_hal_rcc.o(i.HAL_RCC_GetPCLK2Freq)
    i.HAL_RCC_GetSysClockFreq                0x08000844   Section        0  stm32f1xx_hal_rcc.o(i.HAL_RCC_GetSysClockFreq)
    i.HAL_RCC_OscConfig                      0x080008b0   Section        0  stm32f1xx_hal_rcc.o(i.HAL_RCC_OscConfig)
    i.HAL_SPI_Init                           0x08000bd0   Section        0  stm32f1xx_hal_spi.o(i.HAL_SPI_Init)
    i.HAL_SPI_MspInit                        0x08000c84   Section        0  stm32f1xx_hal_msp.o(i.HAL_SPI_MspInit)
    i.HAL_SYSTICK_Config                     0x08000d2c   Section        0  stm32f1xx_hal_cortex.o(i.HAL_SYSTICK_Config)
    i.HAL_UART_Init                          0x08000d54   Section        0  stm32f1xx_hal_uart.o(i.HAL_UART_Init)
    i.HAL_UART_MspInit                       0x08000db8   Section        0  stm32f1xx_hal_msp.o(i.HAL_UART_MspInit)
    i.HardFault_Handler                      0x08000e38   Section        0  stm32f1xx_it.o(i.HardFault_Handler)
    i.LCD_Bus                                0x08000e3c   Section        0  hx8357.o(i.LCD_Bus)
    LCD_Bus                                  0x08000e3d   Thumb Code   316  hx8357.o(i.LCD_Bus)
    i.LCD_Char                               0x08000f80   Section        0  hx8357.o(i.LCD_Char)
    LCD_Char                                 0x08000f81   Thumb Code   198  hx8357.o(i.LCD_Char)
    i.LCD_Circle                             0x08001046   Section        0  hx8357.o(i.LCD_Circle)
    i.LCD_Circle_Fill_Helper                 0x08001174   Section        0  hx8357.o(i.LCD_Circle_Fill_Helper)
    i.LCD_Circle_Helper                      0x08001258   Section        0  hx8357.o(i.LCD_Circle_Helper)
    i.LCD_Ellipse                            0x08001370   Section        0  hx8357.o(i.LCD_Ellipse)
    i.LCD_Font                               0x08001608   Section        0  hx8357.o(i.LCD_Font)
    i.LCD_Init                               0x08001698   Section        0  hx8357.o(i.LCD_Init)
    i.LCD_Line                               0x080016d8   Section        0  hx8357.o(i.LCD_Line)
    i.LCD_Orientation                        0x08001752   Section        0  hx8357.o(i.LCD_Orientation)
    i.LCD_Rect                               0x08001782   Section        0  hx8357.o(i.LCD_Rect)
    i.LCD_Rect_Fill                          0x080017d4   Section        0  hx8357.o(i.LCD_Rect_Fill)
    i.LCD_Rect_Round                         0x08001810   Section        0  hx8357.o(i.LCD_Rect_Round)
    i.LCD_Rect_Round_Fill                    0x080018fc   Section        0  hx8357.o(i.LCD_Rect_Round_Fill)
    i.LCD_Send_Cmd                           0x08001960   Section        0  hx8357.o(i.LCD_Send_Cmd)
    LCD_Send_Cmd                             0x08001961   Thumb Code    70  hx8357.o(i.LCD_Send_Cmd)
    i.LCD_Send_Dat                           0x080019ac   Section        0  hx8357.o(i.LCD_Send_Dat)
    LCD_Send_Dat                             0x080019ad   Thumb Code    68  hx8357.o(i.LCD_Send_Dat)
    i.LCD_Triangle                           0x080019f4   Section        0  hx8357.o(i.LCD_Triangle)
    i.LCD_Triangle_Fill                      0x08001a34   Section        0  hx8357.o(i.LCD_Triangle_Fill)
    i.LCD_Window                             0x08001af6   Section        0  hx8357.o(i.LCD_Window)
    LCD_Window                               0x08001af7   Thumb Code   104  hx8357.o(i.LCD_Window)
    i.MX_GPIO_Init                           0x08001b60   Section        0  main.o(i.MX_GPIO_Init)
    MX_GPIO_Init                             0x08001b61   Thumb Code   194  main.o(i.MX_GPIO_Init)
    i.MX_SPI1_Init                           0x08001c34   Section        0  main.o(i.MX_SPI1_Init)
    MX_SPI1_Init                             0x08001c35   Thumb Code    44  main.o(i.MX_SPI1_Init)
    i.MemManage_Handler                      0x08001c68   Section        0  stm32f1xx_it.o(i.MemManage_Handler)
    i.NMI_Handler                            0x08001c6a   Section        0  stm32f1xx_it.o(i.NMI_Handler)
    i.PendSV_Handler                         0x08001c6c   Section        0  stm32f1xx_it.o(i.PendSV_Handler)
    i.SVC_Handler                            0x08001c6e   Section        0  stm32f1xx_it.o(i.SVC_Handler)
    i.SysTick_Handler                        0x08001c70   Section        0  stm32f1xx_it.o(i.SysTick_Handler)
    i.SystemClock_Config                     0x08001c74   Section        0  main.o(i.SystemClock_Config)
    i.SystemInit                             0x08001cc4   Section        0  system_stm32f1xx.o(i.SystemInit)
    i.UART_SetConfig                         0x08001d0c   Section        0  stm32f1xx_hal_uart.o(i.UART_SetConfig)
    UART_SetConfig                           0x08001d0d   Thumb Code   178  stm32f1xx_hal_uart.o(i.UART_SetConfig)
    i.UsageFault_Handler                     0x08001dc4   Section        0  stm32f1xx_it.o(i.UsageFault_Handler)
    i.__NVIC_SetPriority                     0x08001dc6   Section        0  stm32f1xx_hal_cortex.o(i.__NVIC_SetPriority)
    __NVIC_SetPriority                       0x08001dc7   Thumb Code    32  stm32f1xx_hal_cortex.o(i.__NVIC_SetPriority)
    i.__scatterload_copy                     0x08001de6   Section       14  handlers.o(i.__scatterload_copy)
    i.__scatterload_null                     0x08001df4   Section        2  handlers.o(i.__scatterload_null)
    i.__scatterload_zeroinit                 0x08001df6   Section       14  handlers.o(i.__scatterload_zeroinit)
    i.main                                   0x08001e04   Section        0  main.o(i.main)
    .constdata                               0x080020f8   Section      418  main.o(.constdata)
    .constdata                               0x0800229a   Section      760  main.o(.constdata)
    .constdata                               0x08002594   Section       60  main.o(.constdata)
    .constdata                               0x080025d0   Section      271  main.o(.constdata)
    .constdata                               0x080026e0   Section      760  main.o(.constdata)
    .constdata                               0x080029d8   Section      414  main.o(.constdata)
    .constdata                               0x08002b76   Section      760  main.o(.constdata)
    .constdata                               0x08002e6e   Section     1162  main.o(.constdata)
    .constdata                               0x080032f8   Section      760  main.o(.constdata)
    .constdata                               0x080035f0   Section     1395  main.o(.constdata)
    .constdata                               0x08003b64   Section      104  main.o(.constdata)
    .constdata                               0x08003bcc   Section       16  system_stm32f1xx.o(.constdata)
    .constdata                               0x08003bdc   Section        8  system_stm32f1xx.o(.constdata)
    .data                                    0x20000000   Section       12  stm32f1xx_hal.o(.data)
    .data                                    0x2000000c   Section        4  system_stm32f1xx.o(.data)
    .bss                                     0x20000010   Section      236  main.o(.bss)
    STACK                                    0x20000100   Section     1024  startup_stm32f103xb.o(STACK)

    Global Symbols

    Symbol Name                              Value     Ov Type        Size  Object(Section)

    BuildAttributes$$THM_ISAv4$P$D$K$B$S$PE$A:L22UL41UL21$X:L11$S22US41US21$IEEE1$IW$USESV6$~STKCKD$USESV7$~SHL$OSPACE$EBA8$MICROLIB$REQ8$PRES8$EABIv2 0x00000000   Number         0  anon$$obj.o ABSOLUTE
    __ARM_use_no_argv                        0x00000000   Number         0  main.o ABSOLUTE
    __arm_fini_                               - Undefined Weak Reference
    __cpp_initialize__aeabi_                  - Undefined Weak Reference
    __cxa_finalize                            - Undefined Weak Reference
    __decompress                              - Undefined Weak Reference
    _clock_init                               - Undefined Weak Reference
    _microlib_exit                            - Undefined Weak Reference
    __Vectors_Size                           0x000000ec   Number         0  startup_stm32f103xb.o ABSOLUTE
    __Vectors                                0x08000000   Data           4  startup_stm32f103xb.o(RESET)
    __Vectors_End                            0x080000ec   Data           0  startup_stm32f103xb.o(RESET)
    __main                                   0x080000ed   Thumb Code     0  entry.o(.ARM.Collect$$$$00000000)
    _main_stk                                0x080000ed   Thumb Code     0  entry2.o(.ARM.Collect$$$$00000001)
    _main_scatterload                        0x080000f1   Thumb Code     0  entry5.o(.ARM.Collect$$$$00000004)
    __main_after_scatterload                 0x080000f5   Thumb Code     0  entry5.o(.ARM.Collect$$$$00000004)
    _main_clock                              0x080000f5   Thumb Code     0  entry7b.o(.ARM.Collect$$$$00000008)
    _main_cpp_init                           0x080000f5   Thumb Code     0  entry8b.o(.ARM.Collect$$$$0000000A)
    _main_init                               0x080000f5   Thumb Code     0  entry9a.o(.ARM.Collect$$$$0000000B)
    __rt_lib_shutdown_fini                   0x080000fd   Thumb Code     0  entry12b.o(.ARM.Collect$$$$0000000E)
    __rt_final_cpp                           0x08000101   Thumb Code     0  entry10a.o(.ARM.Collect$$$$0000000F)
    __rt_final_exit                          0x08000101   Thumb Code     0  entry11a.o(.ARM.Collect$$$$00000011)
    Reset_Handler                            0x08000105   Thumb Code     8  startup_stm32f103xb.o(.text)
    ADC1_2_IRQHandler                        0x0800011f   Thumb Code     0  startup_stm32f103xb.o(.text)
    CAN1_RX1_IRQHandler                      0x0800011f   Thumb Code     0  startup_stm32f103xb.o(.text)
    CAN1_SCE_IRQHandler                      0x0800011f   Thumb Code     0  startup_stm32f103xb.o(.text)
    DMA1_Channel1_IRQHandler                 0x0800011f   Thumb Code     0  startup_stm32f103xb.o(.text)
    DMA1_Channel2_IRQHandler                 0x0800011f   Thumb Code     0  startup_stm32f103xb.o(.text)
    DMA1_Channel3_IRQHandler                 0x0800011f   Thumb Code     0  startup_stm32f103xb.o(.text)
    DMA1_Channel4_IRQHandler                 0x0800011f   Thumb Code     0  startup_stm32f103xb.o(.text)
    DMA1_Channel5_IRQHandler                 0x0800011f   Thumb Code     0  startup_stm32f103xb.o(.text)
    DMA1_Channel6_IRQHandler                 0x0800011f   Thumb Code     0  startup_stm32f103xb.o(.text)
    DMA1_Channel7_IRQHandler                 0x0800011f   Thumb Code     0  startup_stm32f103xb.o(.text)
    EXTI0_IRQHandler                         0x0800011f   Thumb Code     0  startup_stm32f103xb.o(.text)
    EXTI15_10_IRQHandler                     0x0800011f   Thumb Code     0  startup_stm32f103xb.o(.text)
    EXTI1_IRQHandler                         0x0800011f   Thumb Code     0  startup_stm32f103xb.o(.text)
    EXTI2_IRQHandler                         0x0800011f   Thumb Code     0  startup_stm32f103xb.o(.text)
    EXTI3_IRQHandler                         0x0800011f   Thumb Code     0  startup_stm32f103xb.o(.text)
    EXTI4_IRQHandler                         0x0800011f   Thumb Code     0  startup_stm32f103xb.o(.text)
    EXTI9_5_IRQHandler                       0x0800011f   Thumb Code     0  startup_stm32f103xb.o(.text)
    FLASH_IRQHandler                         0x0800011f   Thumb Code     0  startup_stm32f103xb.o(.text)
    I2C1_ER_IRQHandler                       0x0800011f   Thumb Code     0  startup_stm32f103xb.o(.text)
    I2C1_EV_IRQHandler                       0x0800011f   Thumb Code     0  startup_stm32f103xb.o(.text)
    I2C2_ER_IRQHandler                       0x0800011f   Thumb Code     0  startup_stm32f103xb.o(.text)
    I2C2_EV_IRQHandler                       0x0800011f   Thumb Code     0  startup_stm32f103xb.o(.text)
    PVD_IRQHandler                           0x0800011f   Thumb Code     0  startup_stm32f103xb.o(.text)
    RCC_IRQHandler                           0x0800011f   Thumb Code     0  startup_stm32f103xb.o(.text)
    RTC_Alarm_IRQHandler                     0x0800011f   Thumb Code     0  startup_stm32f103xb.o(.text)
    RTC_IRQHandler                           0x0800011f   Thumb Code     0  startup_stm32f103xb.o(.text)
    SPI1_IRQHandler                          0x0800011f   Thumb Code     0  startup_stm32f103xb.o(.text)
    SPI2_IRQHandler                          0x0800011f   Thumb Code     0  startup_stm32f103xb.o(.text)
    TAMPER_IRQHandler                        0x0800011f   Thumb Code     0  startup_stm32f103xb.o(.text)
    TIM1_BRK_IRQHandler                      0x0800011f   Thumb Code     0  startup_stm32f103xb.o(.text)
    TIM1_CC_IRQHandler                       0x0800011f   Thumb Code     0  startup_stm32f103xb.o(.text)
    TIM1_TRG_COM_IRQHandler                  0x0800011f   Thumb Code     0  startup_stm32f103xb.o(.text)
    TIM1_UP_IRQHandler                       0x0800011f   Thumb Code     0  startup_stm32f103xb.o(.text)
    TIM2_IRQHandler                          0x0800011f   Thumb Code     0  startup_stm32f103xb.o(.text)
    TIM3_IRQHandler                          0x0800011f   Thumb Code     0  startup_stm32f103xb.o(.text)
    TIM4_IRQHandler                          0x0800011f   Thumb Code     0  startup_stm32f103xb.o(.text)
    USART1_IRQHandler                        0x0800011f   Thumb Code     0  startup_stm32f103xb.o(.text)
    USART2_IRQHandler                        0x0800011f   Thumb Code     0  startup_stm32f103xb.o(.text)
    USART3_IRQHandler                        0x0800011f   Thumb Code     0  startup_stm32f103xb.o(.text)
    USBWakeUp_IRQHandler                     0x0800011f   Thumb Code     0  startup_stm32f103xb.o(.text)
    USB_HP_CAN1_TX_IRQHandler                0x0800011f   Thumb Code     0  startup_stm32f103xb.o(.text)
    USB_LP_CAN1_RX0_IRQHandler               0x0800011f   Thumb Code     0  startup_stm32f103xb.o(.text)
    WWDG_IRQHandler                          0x0800011f   Thumb Code     0  startup_stm32f103xb.o(.text)
    __aeabi_memset                           0x08000129   Thumb Code    14  memseta.o(.text)
    __aeabi_memset4                          0x08000129   Thumb Code     0  memseta.o(.text)
    __aeabi_memset8                          0x08000129   Thumb Code     0  memseta.o(.text)
    __aeabi_memclr                           0x08000137   Thumb Code     4  memseta.o(.text)
    __aeabi_memclr4                          0x08000137   Thumb Code     0  memseta.o(.text)
    __aeabi_memclr8                          0x08000137   Thumb Code     0  memseta.o(.text)
    _memset$wrapper                          0x0800013b   Thumb Code    18  memseta.o(.text)
    strlen                                   0x0800014d   Thumb Code    14  strlen.o(.text)
    __scatterload                            0x0800015d   Thumb Code    28  init.o(.text)
    __scatterload_rt2                        0x0800015d   Thumb Code     0  init.o(.text)
    BusFault_Handler                         0x08000181   Thumb Code     2  stm32f1xx_it.o(i.BusFault_Handler)
    DebugMon_Handler                         0x08000183   Thumb Code     2  stm32f1xx_it.o(i.DebugMon_Handler)
    HAL_Delay                                0x080001b1   Thumb Code    32  stm32f1xx_hal.o(i.HAL_Delay)
    HAL_GPIO_Init                            0x080001d5   Thumb Code   446  stm32f1xx_hal_gpio.o(i.HAL_GPIO_Init)
    HAL_GPIO_WritePin                        0x080003b5   Thumb Code    10  stm32f1xx_hal_gpio.o(i.HAL_GPIO_WritePin)
    HAL_GetTick                              0x080003c1   Thumb Code     6  stm32f1xx_hal.o(i.HAL_GetTick)
    HAL_I2C_Init                             0x080003cd   Thumb Code   376  stm32f1xx_hal_i2c.o(i.HAL_I2C_Init)
    HAL_I2C_MspInit                          0x08000555   Thumb Code    96  stm32f1xx_hal_msp.o(i.HAL_I2C_MspInit)
    HAL_IncTick                              0x080005c5   Thumb Code    12  stm32f1xx_hal.o(i.HAL_IncTick)
    HAL_Init                                 0x080005d5   Thumb Code    32  stm32f1xx_hal.o(i.HAL_Init)
    HAL_InitTick                             0x080005f9   Thumb Code    54  stm32f1xx_hal.o(i.HAL_InitTick)
    HAL_MspInit                              0x08000639   Thumb Code    52  stm32f1xx_hal_msp.o(i.HAL_MspInit)
    HAL_NVIC_SetPriority                     0x08000675   Thumb Code    60  stm32f1xx_hal_cortex.o(i.HAL_NVIC_SetPriority)
    HAL_NVIC_SetPriorityGrouping             0x080006b5   Thumb Code    26  stm32f1xx_hal_cortex.o(i.HAL_NVIC_SetPriorityGrouping)
    HAL_RCC_ClockConfig                      0x080006d9   Thumb Code   280  stm32f1xx_hal_rcc.o(i.HAL_RCC_ClockConfig)
    HAL_RCC_GetPCLK1Freq                     0x08000805   Thumb Code    20  stm32f1xx_hal_rcc.o(i.HAL_RCC_GetPCLK1Freq)
    HAL_RCC_GetPCLK2Freq                     0x08000825   Thumb Code    20  stm32f1xx_hal_rcc.o(i.HAL_RCC_GetPCLK2Freq)
    HAL_RCC_GetSysClockFreq                  0x08000845   Thumb Code    74  stm32f1xx_hal_rcc.o(i.HAL_RCC_GetSysClockFreq)
    HAL_RCC_OscConfig                        0x080008b1   Thumb Code   778  stm32f1xx_hal_rcc.o(i.HAL_RCC_OscConfig)
    HAL_SPI_Init                             0x08000bd1   Thumb Code   178  stm32f1xx_hal_spi.o(i.HAL_SPI_Init)
    HAL_SPI_MspInit                          0x08000c85   Thumb Code   146  stm32f1xx_hal_msp.o(i.HAL_SPI_MspInit)
    HAL_SYSTICK_Config                       0x08000d2d   Thumb Code    40  stm32f1xx_hal_cortex.o(i.HAL_SYSTICK_Config)
    HAL_UART_Init                            0x08000d55   Thumb Code    98  stm32f1xx_hal_uart.o(i.HAL_UART_Init)
    HAL_UART_MspInit                         0x08000db9   Thumb Code   112  stm32f1xx_hal_msp.o(i.HAL_UART_MspInit)
    HardFault_Handler                        0x08000e39   Thumb Code     2  stm32f1xx_it.o(i.HardFault_Handler)
    LCD_Circle                               0x08001047   Thumb Code   302  hx8357.o(i.LCD_Circle)
    LCD_Circle_Fill_Helper                   0x08001175   Thumb Code   228  hx8357.o(i.LCD_Circle_Fill_Helper)
    LCD_Circle_Helper                        0x08001259   Thumb Code   280  hx8357.o(i.LCD_Circle_Helper)
    LCD_Ellipse                              0x08001371   Thumb Code   664  hx8357.o(i.LCD_Ellipse)
    LCD_Font                                 0x08001609   Thumb Code   144  hx8357.o(i.LCD_Font)
    LCD_Init                                 0x08001699   Thumb Code    58  hx8357.o(i.LCD_Init)
    LCD_Line                                 0x080016d9   Thumb Code   122  hx8357.o(i.LCD_Line)
    LCD_Orientation                          0x08001753   Thumb Code    48  hx8357.o(i.LCD_Orientation)
    LCD_Rect                                 0x08001783   Thumb Code    82  hx8357.o(i.LCD_Rect)
    LCD_Rect_Fill                            0x080017d5   Thumb Code    60  hx8357.o(i.LCD_Rect_Fill)
    LCD_Rect_Round                           0x08001811   Thumb Code   236  hx8357.o(i.LCD_Rect_Round)
    LCD_Rect_Round_Fill                      0x080018fd   Thumb Code   100  hx8357.o(i.LCD_Rect_Round_Fill)
    LCD_Triangle                             0x080019f5   Thumb Code    64  hx8357.o(i.LCD_Triangle)
    LCD_Triangle_Fill                        0x08001a35   Thumb Code   194  hx8357.o(i.LCD_Triangle_Fill)
    MemManage_Handler                        0x08001c69   Thumb Code     2  stm32f1xx_it.o(i.MemManage_Handler)
    NMI_Handler                              0x08001c6b   Thumb Code     2  stm32f1xx_it.o(i.NMI_Handler)
    PendSV_Handler                           0x08001c6d   Thumb Code     2  stm32f1xx_it.o(i.PendSV_Handler)
    SVC_Handler                              0x08001c6f   Thumb Code     2  stm32f1xx_it.o(i.SVC_Handler)
    SysTick_Handler                          0x08001c71   Thumb Code     4  stm32f1xx_it.o(i.SysTick_Handler)
    SystemClock_Config                       0x08001c75   Thumb Code    78  main.o(i.SystemClock_Config)
    SystemInit                               0x08001cc5   Thumb Code    56  system_stm32f1xx.o(i.SystemInit)
    UsageFault_Handler                       0x08001dc5   Thumb Code     2  stm32f1xx_it.o(i.UsageFault_Handler)
    __scatterload_copy                       0x08001de7   Thumb Code    14  handlers.o(i.__scatterload_copy)
    __scatterload_null                       0x08001df5   Thumb Code     2  handlers.o(i.__scatterload_null)
    __scatterload_zeroinit                   0x08001df7   Thumb Code    14  handlers.o(i.__scatterload_zeroinit)
    main                                     0x08001e05   Thumb Code   632  main.o(i.main)
    Font_3_TomThumb_ExtendedBitmaps          0x080020f8   Data         418  main.o(.constdata)
    Font_3_TomThumb_ExtendedGlyphs           0x0800229a   Data         760  main.o(.constdata)
    Font_3_TomThumb_Extended                 0x08002594   Data          12  main.o(.constdata)
    Font_5_Org                               0x080025a0   Data          12  main.o(.constdata)
    Font_8_Default                           0x080025ac   Data          12  main.o(.constdata)
    Font_9_Serif_Bold                        0x080025b8   Data          12  main.o(.constdata)
    Font_32_Segment_7_Num_Plus               0x080025c4   Data          12  main.o(.constdata)
    Font_5_OrgBitmaps                        0x080025d0   Data         271  main.o(.constdata)
    Font_5_OrgGlyphs                         0x080026e0   Data         760  main.o(.constdata)
    Font_8_DefaultBitmaps                    0x080029d8   Data         414  main.o(.constdata)
    Font_8_DefaultGlyphs                     0x08002b76   Data         760  main.o(.constdata)
    Font_9_Serif_BoldBitmaps                 0x08002e6e   Data        1162  main.o(.constdata)
    Font_9_Serif_BoldGlyphs                  0x080032f8   Data         760  main.o(.constdata)
    Font_32_Segment_7_Num_PlusBitmaps        0x080035f0   Data        1395  main.o(.constdata)
    Font_32_Segment_7_Num_PlusGlyphs         0x08003b64   Data         104  main.o(.constdata)
    AHBPrescTable                            0x08003bcc   Data          16  system_stm32f1xx.o(.constdata)
    APBPrescTable                            0x08003bdc   Data           8  system_stm32f1xx.o(.constdata)
    Region$$Table$$Base                      0x08003be4   Number         0  anon$$obj.o(Region$$Table)
    Region$$Table$$Limit                     0x08003c04   Number         0  anon$$obj.o(Region$$Table)
    uwTickFreq                               0x20000000   Data           1  stm32f1xx_hal.o(.data)
    uwTickPrio                               0x20000004   Data           4  stm32f1xx_hal.o(.data)
    uwTick                                   0x20000008   Data           4  stm32f1xx_hal.o(.data)
    SystemCoreClock                          0x2000000c   Data           4  system_stm32f1xx.o(.data)
    hi2c1                                    0x20000010   Data          84  main.o(.bss)
    hspi1                                    0x20000064   Data          88  main.o(.bss)
    huart1                                   0x200000bc   Data          64  main.o(.bss)
    __initial_sp                             0x20000500   Data           0  startup_stm32f103xb.o(STACK)



==============================================================================

Memory Map of the image

  Image Entry point : 0x080000ed

  Load Region LR_IROM1 (Base: 0x08000000, Size: 0x00003c14, Max: 0x00010000, ABSOLUTE)

    Execution Region ER_IROM1 (Exec base: 0x08000000, Load base: 0x08000000, Size: 0x00003c04, Max: 0x00010000, ABSOLUTE)

    Exec Addr    Load Addr    Size         Type   Attr      Idx    E Section Name        Object

    0x08000000   0x08000000   0x000000ec   Data   RO            3    RESET               startup_stm32f103xb.o
    0x080000ec   0x080000ec   0x00000000   Code   RO         2984  * .ARM.Collect$$$$00000000  mc_w.l(entry.o)
    0x080000ec   0x080000ec   0x00000004   Code   RO         2993    .ARM.Collect$$$$00000001  mc_w.l(entry2.o)
    0x080000f0   0x080000f0   0x00000004   Code   RO         2996    .ARM.Collect$$$$00000004  mc_w.l(entry5.o)
    0x080000f4   0x080000f4   0x00000000   Code   RO         2998    .ARM.Collect$$$$00000008  mc_w.l(entry7b.o)
    0x080000f4   0x080000f4   0x00000000   Code   RO         3000    .ARM.Collect$$$$0000000A  mc_w.l(entry8b.o)
    0x080000f4   0x080000f4   0x00000008   Code   RO         3001    .ARM.Collect$$$$0000000B  mc_w.l(entry9a.o)
    0x080000fc   0x080000fc   0x00000004   Code   RO         3008    .ARM.Collect$$$$0000000E  mc_w.l(entry12b.o)
    0x08000100   0x08000100   0x00000000   Code   RO         3003    .ARM.Collect$$$$0000000F  mc_w.l(entry10a.o)
    0x08000100   0x08000100   0x00000000   Code   RO         3005    .ARM.Collect$$$$00000011  mc_w.l(entry11a.o)
    0x08000100   0x08000100   0x00000004   Code   RO         2994    .ARM.Collect$$$$00002712  mc_w.l(entry2.o)
    0x08000104   0x08000104   0x00000024   Code   RO            4    .text               startup_stm32f103xb.o
    0x08000128   0x08000128   0x00000024   Code   RO         2989    .text               mc_w.l(memseta.o)
    0x0800014c   0x0800014c   0x0000000e   Code   RO         2991    .text               mc_w.l(strlen.o)
    0x0800015a   0x0800015a   0x00000002   PAD
    0x0800015c   0x0800015c   0x00000024   Code   RO         3009    .text               mc_w.l(init.o)
    0x08000180   0x08000180   0x00000002   Code   RO          558    i.BusFault_Handler  stm32f1xx_it.o
    0x08000182   0x08000182   0x00000002   Code   RO          559    i.DebugMon_Handler  stm32f1xx_it.o
    0x08000184   0x08000184   0x0000002a   Code   RO          693    i.H24_RGB565        hx8357.o
    0x080001ae   0x080001ae   0x00000002   PAD
    0x080001b0   0x080001b0   0x00000024   Code   RO         1302    i.HAL_Delay         stm32f1xx_hal.o
    0x080001d4   0x080001d4   0x000001e0   Code   RO         1610    i.HAL_GPIO_Init     stm32f1xx_hal_gpio.o
    0x080003b4   0x080003b4   0x0000000a   Code   RO         1614    i.HAL_GPIO_WritePin  stm32f1xx_hal_gpio.o
    0x080003be   0x080003be   0x00000002   PAD
    0x080003c0   0x080003c0   0x0000000c   Code   RO         1306    i.HAL_GetTick       stm32f1xx_hal.o
    0x080003cc   0x080003cc   0x00000188   Code   RO          879    i.HAL_I2C_Init      stm32f1xx_hal_i2c.o
    0x08000554   0x08000554   0x00000070   Code   RO          634    i.HAL_I2C_MspInit   stm32f1xx_hal_msp.o
    0x080005c4   0x080005c4   0x00000010   Code   RO         1312    i.HAL_IncTick       stm32f1xx_hal.o
    0x080005d4   0x080005d4   0x00000024   Code   RO         1313    i.HAL_Init          stm32f1xx_hal.o
    0x080005f8   0x080005f8   0x00000040   Code   RO         1314    i.HAL_InitTick      stm32f1xx_hal.o
    0x08000638   0x08000638   0x0000003c   Code   RO          635    i.HAL_MspInit       stm32f1xx_hal_msp.o
    0x08000674   0x08000674   0x00000040   Code   RO         1776    i.HAL_NVIC_SetPriority  stm32f1xx_hal_cortex.o
    0x080006b4   0x080006b4   0x00000024   Code   RO         1777    i.HAL_NVIC_SetPriorityGrouping  stm32f1xx_hal_cortex.o
    0x080006d8   0x080006d8   0x0000012c   Code   RO         1470    i.HAL_RCC_ClockConfig  stm32f1xx_hal_rcc.o
    0x08000804   0x08000804   0x00000020   Code   RO         1477    i.HAL_RCC_GetPCLK1Freq  stm32f1xx_hal_rcc.o
    0x08000824   0x08000824   0x00000020   Code   RO         1478    i.HAL_RCC_GetPCLK2Freq  stm32f1xx_hal_rcc.o
    0x08000844   0x08000844   0x0000006c   Code   RO         1479    i.HAL_RCC_GetSysClockFreq  stm32f1xx_hal_rcc.o
    0x080008b0   0x080008b0   0x00000320   Code   RO         1482    i.HAL_RCC_OscConfig  stm32f1xx_hal_rcc.o
    0x08000bd0   0x08000bd0   0x000000b2   Code   RO         2281    i.HAL_SPI_Init      stm32f1xx_hal_spi.o
    0x08000c82   0x08000c82   0x00000002   PAD
    0x08000c84   0x08000c84   0x000000a8   Code   RO          637    i.HAL_SPI_MspInit   stm32f1xx_hal_msp.o
    0x08000d2c   0x08000d2c   0x00000028   Code   RO         1781    i.HAL_SYSTICK_Config  stm32f1xx_hal_cortex.o
    0x08000d54   0x08000d54   0x00000062   Code   RO         2653    i.HAL_UART_Init     stm32f1xx_hal_uart.o
    0x08000db6   0x08000db6   0x00000002   PAD
    0x08000db8   0x08000db8   0x00000080   Code   RO          639    i.HAL_UART_MspInit  stm32f1xx_hal_msp.o
    0x08000e38   0x08000e38   0x00000002   Code   RO          560    i.HardFault_Handler  stm32f1xx_it.o
    0x08000e3a   0x08000e3a   0x00000002   PAD
    0x08000e3c   0x08000e3c   0x00000144   Code   RO          694    i.LCD_Bus           hx8357.o
    0x08000f80   0x08000f80   0x000000c6   Code   RO          695    i.LCD_Char          hx8357.o
    0x08001046   0x08001046   0x0000012e   Code   RO          696    i.LCD_Circle        hx8357.o
    0x08001174   0x08001174   0x000000e4   Code   RO          697    i.LCD_Circle_Fill_Helper  hx8357.o
    0x08001258   0x08001258   0x00000118   Code   RO          698    i.LCD_Circle_Helper  hx8357.o
    0x08001370   0x08001370   0x00000298   Code   RO          699    i.LCD_Ellipse       hx8357.o
    0x08001608   0x08001608   0x00000090   Code   RO          700    i.LCD_Font          hx8357.o
    0x08001698   0x08001698   0x00000040   Code   RO          701    i.LCD_Init          hx8357.o
    0x080016d8   0x080016d8   0x0000007a   Code   RO          702    i.LCD_Line          hx8357.o
    0x08001752   0x08001752   0x00000030   Code   RO          703    i.LCD_Orientation   hx8357.o
    0x08001782   0x08001782   0x00000052   Code   RO          705    i.LCD_Rect          hx8357.o
    0x080017d4   0x080017d4   0x0000003c   Code   RO          706    i.LCD_Rect_Fill     hx8357.o
    0x08001810   0x08001810   0x000000ec   Code   RO          707    i.LCD_Rect_Round    hx8357.o
    0x080018fc   0x080018fc   0x00000064   Code   RO          708    i.LCD_Rect_Round_Fill  hx8357.o
    0x08001960   0x08001960   0x0000004c   Code   RO          709    i.LCD_Send_Cmd      hx8357.o
    0x080019ac   0x080019ac   0x00000048   Code   RO          710    i.LCD_Send_Dat      hx8357.o
    0x080019f4   0x080019f4   0x00000040   Code   RO          711    i.LCD_Triangle      hx8357.o
    0x08001a34   0x08001a34   0x000000c2   Code   RO          712    i.LCD_Triangle_Fill  hx8357.o
    0x08001af6   0x08001af6   0x00000068   Code   RO          713    i.LCD_Window        hx8357.o
    0x08001b5e   0x08001b5e   0x00000002   PAD
    0x08001b60   0x08001b60   0x000000d4   Code   RO           14    i.MX_GPIO_Init      main.o
    0x08001c34   0x08001c34   0x00000034   Code   RO           15    i.MX_SPI1_Init      main.o
    0x08001c68   0x08001c68   0x00000002   Code   RO          561    i.MemManage_Handler  stm32f1xx_it.o
    0x08001c6a   0x08001c6a   0x00000002   Code   RO          562    i.NMI_Handler       stm32f1xx_it.o
    0x08001c6c   0x08001c6c   0x00000002   Code   RO          563    i.PendSV_Handler    stm32f1xx_it.o
    0x08001c6e   0x08001c6e   0x00000002   Code   RO          564    i.SVC_Handler       stm32f1xx_it.o
    0x08001c70   0x08001c70   0x00000004   Code   RO          565    i.SysTick_Handler   stm32f1xx_it.o
    0x08001c74   0x08001c74   0x0000004e   Code   RO           16    i.SystemClock_Config  main.o
    0x08001cc2   0x08001cc2   0x00000002   PAD
    0x08001cc4   0x08001cc4   0x00000048   Code   RO         2950    i.SystemInit        system_stm32f1xx.o
    0x08001d0c   0x08001d0c   0x000000b8   Code   RO         2679    i.UART_SetConfig    stm32f1xx_hal_uart.o
    0x08001dc4   0x08001dc4   0x00000002   Code   RO          566    i.UsageFault_Handler  stm32f1xx_it.o
    0x08001dc6   0x08001dc6   0x00000020   Code   RO         1783    i.__NVIC_SetPriority  stm32f1xx_hal_cortex.o
    0x08001de6   0x08001de6   0x0000000e   Code   RO         3013    i.__scatterload_copy  mc_w.l(handlers.o)
    0x08001df4   0x08001df4   0x00000002   Code   RO         3014    i.__scatterload_null  mc_w.l(handlers.o)
    0x08001df6   0x08001df6   0x0000000e   Code   RO         3015    i.__scatterload_zeroinit  mc_w.l(handlers.o)
    0x08001e04   0x08001e04   0x000002f4   Code   RO           17    i.main              main.o
    0x080020f8   0x080020f8   0x000001a2   Data   RO           25    .constdata          main.o
    0x0800229a   0x0800229a   0x000002f8   Data   RO           26    .constdata          main.o
    0x08002592   0x08002592   0x00000002   PAD
    0x08002594   0x08002594   0x0000003c   Data   RO           27    .constdata          main.o
    0x080025d0   0x080025d0   0x0000010f   Data   RO           28    .constdata          main.o
    0x080026df   0x080026df   0x00000001   PAD
    0x080026e0   0x080026e0   0x000002f8   Data   RO           29    .constdata          main.o
    0x080029d8   0x080029d8   0x0000019e   Data   RO           42    .constdata          main.o
    0x08002b76   0x08002b76   0x000002f8   Data   RO           43    .constdata          main.o
    0x08002e6e   0x08002e6e   0x0000048a   Data   RO           74    .constdata          main.o
    0x080032f8   0x080032f8   0x000002f8   Data   RO           75    .constdata          main.o
    0x080035f0   0x080035f0   0x00000573   Data   RO          286    .constdata          main.o
    0x08003b63   0x08003b63   0x00000001   PAD
    0x08003b64   0x08003b64   0x00000068   Data   RO          287    .constdata          main.o
    0x08003bcc   0x08003bcc   0x00000010   Data   RO         2951    .constdata          system_stm32f1xx.o
    0x08003bdc   0x08003bdc   0x00000008   Data   RO         2952    .constdata          system_stm32f1xx.o
    0x08003be4   0x08003be4   0x00000020   Data   RO         3011    Region$$Table       anon$$obj.o


    Execution Region RW_IRAM1 (Exec base: 0x20000000, Load base: 0x08003c04, Size: 0x00000500, Max: 0x00005000, ABSOLUTE)

    Exec Addr    Load Addr    Size         Type   Attr      Idx    E Section Name        Object

    0x20000000   0x08003c04   0x0000000c   Data   RW         1320    .data               stm32f1xx_hal.o
    0x2000000c   0x08003c10   0x00000004   Data   RW         2953    .data               system_stm32f1xx.o
    0x20000010        -       0x000000ec   Zero   RW           18    .bss                main.o
    0x200000fc   0x08003c14   0x00000004   PAD
    0x20000100        -       0x00000400   Zero   RW            1    STACK               startup_stm32f103xb.o


==============================================================================

Image component sizes


      Code (inc. data)   RO Data    RW Data    ZI Data      Debug   Object Name

      3404         24          0          0          0      16542   hx8357.o
      1098        150       6864          0        236     459331   main.o
        36          8        236          0       1024        800   startup_stm32f103xb.o
       164         28          0         12          0       5861   stm32f1xx_hal.o
       172         14          0          0          0      28258   stm32f1xx_hal_cortex.o
       490         34          0          0          0       2880   stm32f1xx_hal_gpio.o
       392         16          0          0          0       3079   stm32f1xx_hal_i2c.o
       468         62          0          0          0       3001   stm32f1xx_hal_msp.o
      1272        100          0          0          0       5164   stm32f1xx_hal_rcc.o
       178          0          0          0          0       1223   stm32f1xx_hal_spi.o
       282          6          0          0          0       1900   stm32f1xx_hal_uart.o
        20          0          0          0          0       3758   stm32f1xx_it.o
        72         16         24          4          0       1147   system_stm32f1xx.o

    ----------------------------------------------------------------------
      8062        458       7160         16       1264     532944   Object Totals
         0          0         32          0          0          0   (incl. Generated)
        14          0          4          0          4          0   (incl. Padding)

    ----------------------------------------------------------------------

      Code (inc. data)   RO Data    RW Data    ZI Data      Debug   Library Member Name

         0          0          0          0          0          0   entry.o
         0          0          0          0          0          0   entry10a.o
         0          0          0          0          0          0   entry11a.o
         4          0          0          0          0          0   entry12b.o
         8          4          0          0          0          0   entry2.o
         4          0          0          0          0          0   entry5.o
         0          0          0          0          0          0   entry7b.o
         0          0          0          0          0          0   entry8b.o
         8          4          0          0          0          0   entry9a.o
        30          0          0          0          0          0   handlers.o
        36          8          0          0          0         68   init.o
        36          0          0          0          0        108   memseta.o
        14          0          0          0          0         68   strlen.o

    ----------------------------------------------------------------------
       142         16          0          0          0        244   Library Totals
         2          0          0          0          0          0   (incl. Padding)

    ----------------------------------------------------------------------

      Code (inc. data)   RO Data    RW Data    ZI Data      Debug   Library Name

       140         16          0          0          0        244   mc_w.l

    ----------------------------------------------------------------------
       142         16          0          0          0        244   Library Totals

    ----------------------------------------------------------------------

==============================================================================


      Code (inc. data)   RO Data    RW Data    ZI Data      Debug   

      8204        474       7160         16       1264     530480   Grand Totals
      8204        474       7160         16       1264     530480   ELF Image Totals
      8204        474       7160         16          0          0   ROM Totals

==============================================================================

    Total RO  Size (Code + RO Data)                15364 (  15.00kB)
    Total RW  Size (RW Data + ZI Data)              1280 (   1.25kB)
    Total ROM Size (Code + RO Data + RW Data)      15380 (  15.02kB)

==============================================================================

