:020000040800F2
:1000000068040020010100082F110008C30D00083A
:100010002D11000859010008E1150008000000003A
:100020000000000000000000000000001F15000894
:100030005B010008000000005111000821150008B4
:100040001B0100081B0100081B0100081B01000820
:100050001B0100081B0100081B0100081B01000810
:100060001B0100081B0100081B0100081B01000800
:100070001B0100081B0100081B0100081B010008F0
:100080001B0100081B0100081B0100081B010008E0
:100090001B0100081B0100081B0100081B010008D0
:1000A0001B0100081B0100081B0100081B010008C0
:1000B0001B0100081B0100081B0100081B010008B0
:1000C0001B0100081B0100081B0100081B010008A0
:1000D000551100081B0100081B0100081B01000846
:1000E0001B0100081B0100081B010008DFF80CD0F1
:1000F00000F020F8004800470116000868040020BE
:100100000648804706480047FEE7FEE7FEE7FEE7B1
:10011000FEE7FEE7FEE7FEE7FEE7FEE799150008CB
:10012000ED000008421C10F8011B0029FBD1801AC9
:1001300070470000064C074D06E0E06840F0010300
:1001400094E8070098471034AC42F6D3FFF7D2FF8B
:10015000C4980008E4980008FEE77047C1F307431D
:10016000CAB2C1F30721890830B1D808C00240EAF9
:10017000411040EAD2007047D008C00240EA411066
:1001800040EAD3007047000010B590F82110002419
:10019000022903D00421816301243DE001680A683B
:1001A00022F00E020A6001680A6822F001020A6069
:1001B0001A4A0168914201D1012121E0174A143203
:1001C000914201D110211BE0144A2832914201D101
:1001D000891515E0114A3C32914201D189140FE092
:1001E0000E4A5032914202D14FF4803108E00B4A5E
:1001F0006432914202D14FF4801101E04FF08071DE
:10020000064A083A5160012180F82110002180F847
:100210002010416B01B18847204610BD0800024004
:1002200070B5044600F0F2F80546601C02D00448A0
:100230000078044400F0EAF8401BA042FAD370BDF5
:10024000040000202DE9F84FDFF890A100220AF108
:10025000040B144601274FF00F090BF1040E00BFE9
:100260000B6807FA04F52B40AB4274D1DFF870C17C
:100270004E68A6EB0C0866452BD00DDC032E34D05F
:1002800005DC36B3012E19D0022E2FD11BE0112E22
:1002900016D0122E2AD119E0B8F5881F19D006DC25
:1002A000B8F5803F15D0B8F5801F1FD111E0B8F523
:1002B000001F0ED0B8F5041F18D10AE0CA6815E077
:1002C000CA68121D12E0CA6808320FE0CA680C3210
:1002D0000CE08A682AB1012A4FF0080203D0456178
:1002E00004E0042202E0056100E00022FF2B01D8B7
:1002F000064601E000F104064FEA840501D9A5F1A4
:100300002005D6F800C009FA05F82CEA080C02FA14
:1003100005F54CEA050CC6F800C04D68ED0057D550
:10032000304DAE6946F00106AE61AD6924F00306BA
:1003300005F0010500952C4D06EB050CDCF8085086
:10034000A6074FEA167809FA08F6B543274EB042D9
:1003500002D1002610E03BE0254EB04201D101263B
:100360000AE0244EB04201D1022605E0224EB042FE
:1003700001D1032600E0042606FA08F62E43CCF845
:1003800008604D68DAF80060ED03554601D51E435C
:1003900000E09E432E604D68DBF80060AD035D46D3
:1003A00001D51E4300E09E432E604D68DEF80060DC
:1003B000ED02754601D51E4300E09E432E604D6858
:1003C000AD020E4D2E6801D51E4300E09E432E6007
:1003D000641C102CFFF444AFBDE8F88F000401400A
:1003E0000000111000100240000001400008014010
:1003F000000C014000100140001401400C040140B9
:100400000AB1016170470904FBE7000001488068F8
:1004100070470000040000200248816802781144FF
:100420008160704704000020074810B5016841F062
:1004300010010160032000F095F8002000F006F89C
:1004400000F024F8002010BD0020024070B50D4DD2
:1004500004464FF47A712878B1FBF0F00A49096834
:10046000B1FBF0F000F095FC48B9102C07D2002247
:100470002146501E00F056F800206C6070BD01202F
:1004800070BD000004000020000000201D4808B5D9
:10049000816941F001018161806900F001000090F3
:1004A000032000F05FF8002211466FF00B0000F00F
:1004B00039F8002211466FF00A0000F033F80022EC
:1004C00011466FF0090000F02DF800221146501F70
:1004D00000F028F800221146101F00F023F8002237
:1004E0001146901E00F01EF800221146501E00F02A
:1004F00019F80548416821F0E06141F00071416060
:1005000008BD0000001002400000014000F01F0282
:10051000012191404009800000F1E020C0F8001165
:1005200070470000F0B40E4B1B680C46C3F3022367
:10053000C3F10705042D00D90425191D072901D28F
:10054000002300E0DB1E012606FA05F1491E2140CA
:1005500099409E40761E16403143F0BC00F0E8BD45
:100560000CED00E0064900F0070208684FF6FF03B3
:10057000184040EA0220034A104308607047000018
:100580000CED00E00000FA052DE9F047DFF83C81B2
:1005900005460E46D8F8000000F00700B0420CD225
:1005A000D8F8001021F007013143C8F80010D8F83E
:1005B000000000F00700B04263D12878444C800767
:1005C00005D56068A96820F0F000084360602878CD
:1005D000C00745D06868012816D02168022816D0C7
:1005E000890700294DDA616821F003010143616048
:1005F000FFF70CFF6968074641F2883001290FD0E8
:100600000229814619D027E021688903E9E7890199
:10061000E7E700BFFFF7FAFEC11B494501D918E023
:1006200081466068C0F381000128F3D118E000BF63
:10063000FFF7ECFEC11B49450BD86068C0F3810091
:100640000228F5D10CE000BFFFF7E0FEC11B4945D1
:1006500002D90320BDE8F087606810F00C0FF3D1D9
:10066000D8F80010404601F00701B1420BD90168EB
:1006700021F0070131430160006800F00700B0423B
:1006800001D00120E6E72878400705D56068E968D1
:1006900020F4E060084360602878000706D56068B1
:1006A000296920F4605040EAC100606000F01CF845
:1006B0006168084AC1F30311515CC84006490860EB
:1006C0000020FFF7C3FE0020C4E700000020024026
:1006D00000100240FC1700080000002001480068DC
:1006E000704700000000002012A185B00FC98DE8FE
:1006F0000F0014A0144A006804905168134801F0D8
:100700000C03042B10D0082B0ED1C1F38343C90373
:100710001DF803000AD5516804AAC1F34041515C99
:100720000A4A5043B0FBF1F005B07047084948430E
:10073000FAE7000002030405060708090A0B0C0D7E
:100740000E0F1010010200000010024000127A008B
:1007500000093D002DE9F84F04460078B94DC00767
:1007600048D06868C0F38100012807D06868C0F3EA
:100770008100022809D16868C00306D52868800373
:1007800038D5606800286FD034E06068B0F5803FED
:100790000BD010B1B0F5A02F11D0286820F4803014
:1007A0002860286820F4802002E0286840F4803027
:1007B0002860606888B1FFF729FE064609E02868CE
:1007C00040F480202860F0E7FFF720FE801B6428BB
:1007D00075D828688003F7D50CE0FFF717FE0646AA
:1007E00005E000BFFFF712FE801B6428F0D82868E0
:1007F0008003F7D42078944E80074FF001094FF022
:1008000000083BD5686810F00C0F07D06868C0F38B
:100810008100022809D16868C00306D428688007CF
:1008200014D5206901281FD110E02069B0B1C6F8A5
:100830000090FFF7EBFD074605E000BFFFF7E6FD80
:10084000C01B0228C4D828688007F7D528686169CA
:1008500020F0F80040EAC10028600FE0C6F80080F0
:10086000FFF7D4FD074606E0E9E000BFFFF7CEFD45
:10087000C01B022823D828688007F7D420780007F7
:100880002CD57248A169D9B1C0F80090FFF7BEFD20
:10089000074604E0FFF7BAFDC01B02280FD8686ABC
:1008A0008007F7D56A484FF4FA510068B0FBF1F0C1
:1008B000009000BF0098411E0091FAD20EE080E047
:1008C000C0F80080FFF7A2FD074604E0FFF79EFD99
:1008D000C01B022875D8686A8007F7D420784007C3
:1008E00060D5E8690027C00008D4E86940F080506E
:1008F000E861E869012700F08050009055480168E0
:10090000C90513D40168834641F480710160FFF783
:100910007DFD824606E000BFFFF778FDA0EB0A00F0
:1009200064284ED8DBF80000C005F5D5E068012842
:100930000AD008B1052813D0286A20F001002862E7
:10094000286A20F0040002E0286A40F001002862D2
:10095000E06841F2883B98B1FFF758FD82460BE012
:10096000286A40F004002862EEE700BFFFF74EFD62
:10097000A0EB0A0159455AD8286A8007F6D50CE041
:10098000FFF744FD824605E0FFF740FDA0EB0A01BA
:1009900059454CD8286A8007F6D41FB1E86920F081
:1009A0008050E861E06988B36968C1F38101022978
:1009B00045D00228C6F8608004D0FFF727FD044622
:1009C00038E034E0FFF722FD074604E0FFF71EFDA4
:1009D000C01B02282BD828688001F7D4206AB0F504
:1009E000803F05D16868A16820F400300843686042
:1009F000D4E908010843696821F474110843686068
:100A0000C6F86090FFF702FD044606E015E000BF5F
:100A1000FFF7FCFC001B022809D828688001F7D5E5
:100A20000BE000BFFFF7F2FC001B022802D90320F5
:100A3000BDE8F88F28688001F4D40020F8E7012091
:100A4000F6E70000001002400000424280044242EB
:100A500000000020007000407047000038B50446D8
:100A60000068426881684B0605D4CB0703D0530663
:100A700001D5216C04E08B0707D5130605D5616C01
:100A800001B02046BDE83040084711F0600F3FD06C
:100A900093063DD54B060AD594F85130032B34D03C
:100AA000636D43F004036365C3688368009389063C
:100AB00009D5616D41F001016165816800910168AE
:100AC00021F040010160606D002821D0206841685C
:100AD00021F0E0014160012084F85100900718D016
:100AE0002068416821F0030141600C4DE06C18B1B1
:100AF0004563E06CFFF748FBA06C002808D0456315
:100B0000A06CBDE83840FFF73FBBC168806800902B
:100B100038BD2046FFF7A0FF38BD00008111000856
:100B200070B5040005D00025A56294F8510010B1FD
:100B300004E0012070BD204600F034F8022084F863
:100B400051002068016821F040010160D4E90101F1
:100B50000843D4E903121143084361690843218B18
:100B600001F400710843E1690843216A0843A16A5E
:100B7000084321680860A069042101EA1040616A05
:100B80000843216848602168E06A08612068C169FB
:100B900021F40061C1616565012084F851000020E5
:100BA00070BD000010B50068164986B0884227D194
:100BB0001548C16941F48041C161C069134C00F41A
:100BC000804004904FF430400090022001900320B8
:100BD000039069462046FFF735FB4FF480400090B4
:100BE000002001900120029069462046FFF72AFB71
:100BF000002211462420FFF795FC2420FFF786FCF5
:100C000006B010BD0038004000100240000C01404A
:100C10002DE9F84F044690F85000002699461746F3
:100C20000D4601280DD04FF0010B84F850B0FFF7AE
:100C3000EDFB804694F85100B246012804D002260C
:100C400094E00220BDE8F88F002D7BD0002F79D0F2
:100C5000032084F85100C4F854A02563A786E786D2
:100C6000C4F838A0A4F83CA0A4F83EA0C4F844A05E
:100C7000C4F840A0A068B0F5004F04D12068016816
:100C800041F48041016020680168490603D401688D
:100C900041F040010160E068B0F5006F606804D089
:100CA00030B3E08E012823D03EE010B1E08E012861
:100CB0001AD135F8021B206805E020688168890791
:100CC00006D535F8021BC160E08E401EE0860BE0C1
:100CD000B9F1000F34D0B9F1FF3F05D0FFF796FB13
:100CE000A0EB080149452BD2E08E0028E5D11EE09B
:100CF000216815F8010B087306E0206881688907F0
:100D000006D515F8011B0173E08E401EE0860BE04E
:100D1000B9F1000F14D0B9F1FF3F05D0FFF776FB12
:100D2000A0EB080149450BD2E08E0028E5D14B46E7
:100D3000012202212046CDF8008000F029FA10B1EE
:100D4000032613E011E042464946204600F008FA27
:100D500018B101262020606508E0A06818B9206855
:100D6000C16880680090606D00B1012684F851B0C0
:100D700084F850A0304665E74FF0E0210428086968
:100D800003D020F004000861704740F00400FAE747
:100D9000704710B5401EB0F1807F01D3012010BD17
:100DA0004FF0E02460610F21601700F0C1F90020CE
:100DB000A06107202061002010BD10B5FFF7E8FFFB
:100DC00010BDFEE72DE9FF4F4FF0000981B014463A
:100DD000DDF838A0B2F800804F4648464E46D3F8BA
:100DE00000B04CE000252BE037B91BF8089008F163
:100DF00001011FFA81F8802719EA070F02D0401C71
:100E000080B21AE0C8B10F9900910AFB00F18AB2D2
:100E100094F90610029B01EB060C0CFB0A3194F9C5
:100E2000053089B22B44A3EB000C019B0CFB0A306C
:100E300080B2534600F01CF900207F086D1CEDB213
:100E4000A178A942D0D8C0B10F9900910AFB00F156
:100E50008AB294F90610029B01EB060C0CFB0A31D6
:100E600094F9053089B22B441D1A019B05FB0A3009
:100E700080B2534600F0FCF80020761CF6B2E17810
:100E8000B142AFD805B0BDE8F08F2DE9FF4F85B076
:100E90008846814600241546C2F10107139E85E06D
:100EA000089801285ED004EB0900CDE90060129B90
:100EB00005EB080B1FFA8BF180B21A4600F0D8F848
:100EC00005EB0900129B04EB080A04901FFA8AF153
:100ED000009680B21A4600F0CBF8A9EB040003900C
:100EE000129B1FFA8BF1009680B21A4600F0C0F8F0
:100EF000A9EB0500129B02901FFA8AF1009680B2BE
:100F00001A4600F0B5F80498129BA8EB040B1FFAE0
:100F10008BF1009680B21A4600F0AAF80198129B55
:100F2000A8EB050A1FFA8AF1009680B21A4600F073
:100F30009FF80398129B1FFA8AF1009680B21A4616
:100F400000F096F80298129B1FFA8BF1009680B27F
:100F50001A4600F08DF8002F22DA07EB4407641CD4
:100F6000FF1C23E0012000EB450B00EB440AA8EB3B
:100F7000050081B2A9EB04001FFA8BF31FFA8AF275
:100F800080B2009600F074F8A8EB040081B2A9EBDF
:100F900005001FFA8AF31FFA8BF280B20096D8E799
:100FA000601B07EB4007641C6D1E7F1DAC427FF782
:100FB00077AF09B0BDE8F08F01B500224FF40061B2
:100FC0000548FFF71DFA4FF47A730122694603487A
:100FD000FFF71EFE08BD0000000C014010000020BD
:100FE0002DE9F04788B005B290460EB2DDE9109ABF
:100FF00093E807000DF1100C2F468CE80700002441
:1010000027E000BF18F804000A282AD09DF818101D
:1010100081421CD89DF81910814218D30D2816D092
:101020009DF818200599801A01EBC00004AB0168F7
:1010300002914068CDE9009A039002AA3146284601
:10104000FFF7C0FE9DF80C1001FB095005B2641CAF
:10105000A4B24046FFF766F8A042D3D808B0BDE876
:10106000F0879DF81A103D4601FB096006B2EEE7D5
:101070001CB50B44049C024400949BB292B20194B0
:1010800000F0D1F81CBD000030B5164885B081696C
:1010900041F020018161816901F0200104918169A1
:1010A00041F008018161816901F0080104918169C1
:1010B00041F00401816180690B4D00F004004FF4A0
:1010C00000640490002221462846FFF799F9012088
:1010D000CDE900400220039069462846FFF7B2F8A8
:1010E00005B030BD00100240000C01400E4810B5A4
:1010F0000C4901604FF48271416000218160C16040
:101100004FF480220161C0E90512C16101624162B0
:1011100081620A21C162FFF703FD002800D0FEE7CB
:1011200010BD00000038004010000020FEE77047AE
:101130000907090E002806DA00F00F0000F1E02090
:1011400080F8141D704700F1E02080F8001470470B
:10115000704700000148FFF781BC0000100000202C
:1011600038B50B46009204460022802100F010F8AA
:10117000002804D0606D40F020006065032038BD79
:1011800010B5406A0021C187C186FFF765FC10BD1C
:101190002DE9F0411D4617460E460446DDF818803D
:1011A00035E0681C33D02DB1FFF730F9A0EB080013
:1011B000A8422CD32068416821F0E00141606068BA
:1011C000B0F5827F0BD1A068B0F5004F02D0B0F52A
:1011D000806F04D12068016821F040010160A06A9D
:1011E000B0F5005F0AD1206801684DF6FF7211402A
:1011F00001602068016841F400510160012084F819
:101200005100002084F850000320BDE8F0812068E0
:10121000806836EA000004D00020B842C1D1002026
:10122000F3E70120F9E72DE9F0470746DDE90889F2
:101230001C4615460E462620FFF7BEFE0120FFF78E
:10124000BBFE2220FFF7B8FEF8B2FFF7B5FEF0B202
:10125000FFF7B2FEE8B2FFF7AFFEE0B2FFF7ACFE79
:1012600041460120FEF77AFF044649460120FEF779
:1012700075FF0546E00AFFF79FFEC4F34510FFF730
:101280009BFE04F01F00FFF797FEE80AFFF794FEAD
:10129000C5F34510FFF790FE05F01F00BDE8F047CD
:1012A000FFF78ABE2DE9F84F1E46834688190A9F2C
:1012B00091468A46602801D9012000E0002009EB10
:1012C0000701402901D9012100E0002108433AD15A
:1012D000002436E01520FFF76FFE0AF0FF00FFF74D
:1012E0006BFE5F20FFF768FE7520FFF765FE09EBD8
:1012F0000400C0B2FFF760FE3F20FFF75DFE012251
:10130000D1021248FFF77CF8002504FB06F813E031
:1013100005EB480101221BF801008DF80000D10205
:101320000A48FFF76DF84FF47A73012269460848BE
:10133000FFF76EFC6D1CADB2B5EB460FE8D3641C35
:10134000A4B2BC42C6D3BDE8F88F0000000C014037
:101350001000002010B5AE20FFF72EFE8120FFF711
:101360002BFE9120FFF728FE8220FFF725FE50205C
:10137000FFF722FE8320FFF71FFE7D20FFF71CFEF4
:101380008720FFF719FE0620FFF716FE8A20FFF7D9
:1013900013FE6420FFF710FE8B20FFF70DFE782070
:1013A000FFF70AFE8C20FFF707FE6420FFF704FE1C
:1013B000A020FFF701FE7220FFF7FEFDA120FFF73E
:1013C000FBFD0020FFF7F8FDA220FFF7F5FD002050
:1013D000FFF7F2FDA420FFF7EFFDA820FFF7ECFDDB
:1013E0003F20FFF7E9FDAD20FFF7E6FD8E20FFF778
:1013F000E3FDB020FFF7E0FD0020FFF7DDFDB120A9
:10140000FFF7DAFD3120FFF7D7FDB320FFF7D4FD5A
:10141000F020FFF7D1FDBB20FFF7CEFD3A20FFF70C
:10142000CBFDBE20FFF7C8FD3E20FFF7C5FD2E20F7
:10143000FFF7C2FDAF20FFF7BFFD00213F235F2272
:10144000084600F005F8BDE810400120FEF7E8BEB0
:101450002DE9F04107461C4615460E462520FFF7AC
:10146000ABFDF8B2FFF7A8FDF0B2FFF7A5FDE8B2BB
:10147000FFF7A2FDE0B2BDE8F041FFF79DBD2DE909
:10148000F0470746DDE908891C4615460E4623202D
:10149000FFF792FDF8B2FFF78FFDF0B2FFF78CFD7A
:1014A000E8B2FFF789FDE0B2FFF786FD08F0FF0024
:1014B000FFF782FD09F0FF00BDE8F047FFF77CBDB4
:1014C00008B12F2000E02E20FFF776BD2DE9F04176
:1014D00000251E46174688462C4620B1012804D018
:1014E000022803D119E0012500E001242720FFF79D
:1014F00063FD2846FFF760FD4046FFF75DFD384677
:10150000FFF75AFD2046FFF757FD3046FFF754FD21
:10151000BDE8F0412F20FFF74FBD0125E5E77047FB
:1015200010B5FEF779FFBDE81040FFF746BC30B5B7
:101530008FB001210804CDE9001000240294022597
:101540000491CDE907504FF4E01009906846FFF789
:1015500001F900B1FEE70F20CDE90A054FF48060E4
:10156000CDE90C4002210AA80E94FFF70DF800B156
:10157000FEE7FFF7B3F84FF47A71B0FBF1F0FFF735
:1015800008FC0420FFF7F8FB00221146501EFEF76E
:10159000C9FF0FB030BD00000D48016841F00101E6
:1015A000016041680B4A1140416001680A4A1140DC
:1015B0000160016821F480210160416821F4FE018D
:1015C00041604FF41F0181600449C0030860704707
:1015D000001002400000FFF8FFFFF6FE08ED00E0FB
:1015E000FEE702E008C8121F08C1002AFAD17047BE
:1015F0007047002001E001C1121F002AFBD1704793
:101600001CB5FEF711FFFFF792FFFFF73DFDFFF757
:101610006DFDFFF79FFE6420FEF702FEFF2401250B
:10162000CDE900540023052220213020FFF72DFCB6
:10163000664E0023CDE900560A2220213020FFF714
:1016400024FCCDE9005400230F2220213020FFF795
:101650001CFCCDE900560023142220213020FFF786
:1016600014FCCDE900540023192220213020FFF77B
:101670000CFCCDE9005600231E2220213020FFF76C
:1016800004FC4FF47A784046FEF7CAFD0026CDE907
:1016900000463F235F2231463046FFF7C4FD01205C
:1016A000FEF7BEFD40270022602311464848009700
:1016B000FFF7F8FD4046FEF7B3FDCDE900460021F7
:1016C0003F235F220846FFF7AEFD0120FEF7A8FD8D
:1016D0004023002210213F480097FFF7E3FD4046DA
:1016E000FEF79EFDCDE9004600213F235F2208461C
:1016F000FFF799FD0120FEF793FD202003460146E8
:10170000009010223448FFF7CDFD00963023402290
:10171000102120200196FFF7B2FE4046FEF780FD23
:10172000CDE9004600213F235F220846FFF77BFDFD
:101730000120FEF775FD3220034600900722172195
:101740002648FFF7AFFD0021012340220846FFF79E
:10175000BDFE0120FFF7B4FE4046FEF761FDCDE976
:10176000004600213F235F220846FFF75CFD012071
:10177000FEF756FD0020FFF7A3FE2004CDE9005040
:10178000174B18A219210520FFF72AFC2002CDE9EA
:101790000050134B15A218332D210520FFF720FC14
:1017A0000F4BCDE900540C3312A23C210A20FFF765
:1017B00017FC4046FEF734FD002101234022084675
:1017C000FFF784FE0120FFF77BFEFEE700FFFF002E
:1017D0000C1800080C480008947B00080C680008EE
:1017E0009483000853534431333331004F4C454404
:1017F0000000000030313233343536000000000084
:10180000000000000102030406070809B572D6961D
:10181000CE34A5109CCFA510AD72A5115AA92923CD
:101820000820420683ED39C48C6ECE55D696C61577
:10183000BDF5BDF57C0D844E52E97C0DD6D89D32A8
:101840001922636BC65673ED3A26842E296473CD34
:10185000632B39E6086010A12984318410A110C1DE
:1018600019022943214310A1216429A42143A593EE
:10187000C677ADD5A594B5F6A5B5A5B5A5B59D73A7
:101880008D129D949D939D92A5F4955184AFA59240
:10189000A5924AE83A655B6A3245638AB6139D5061
:1018A000C695BE3494CE842CBDF3CE74C634BE33FC
:1018B000BE13CE95B5D294CE7C0C52E831E43225DD
:1018C0003225114221A31121740C8CCFCE35DEB705
:1018D000BDD3B59294AEAD51B592738B738C294341
:1018E00018C173ACAD52C635BDF4AD92A531C63545
:1018F000A53173CC6329634A31E594F17C0D9D32A7
:1019000029839D32CEB7634A634A3A2610E131E615
:101910002123190218C1296418E110C110C118C18E
:101920002963210210A129632964214329A4B5F563
:10193000BE36ADD5ADB5A5949D739D7495329D739E
:1019400095329D739D73848F84AF9D72B614C69734
:10195000A5B33A663A453A4529E44AE7848EADB2E2
:10196000DF59D6F7D6B6BDF3BE14C634C633BE13A0
:10197000BE13BE139D0F94CE636931E31962320426
:101980002A0429C32A0429E36BCA9D71A4F0C61452
:10199000AD31D696C635C61483ED6B6B5AA818C107
:1019A0004A27CE57BDD5E739C5F4BDD3C615D6D81D
:1019B000844E844E630A31A46B8B6B6B636B7C0D1E
:1019C0004A888C906BAC73AC29A4088021430880B2
:1019D000212321432963422710C118C12102294331
:1019E0002143190218C22143298410E22143B5F58D
:1019F000B616A594A5949D529D539D529D529D321D
:101A00009D52ADB4A5939D52A5B4C677BE56C67679
:101A10009D314AC86BCC3A4529C429A36BCBA5722A
:101A2000CE96CE95CE96D6B6BE13BE13BDF2C633B5
:101A3000A50F7C0B8CAD9D0F5AE731E34AC74AE7EF
:101A400021821120428642A64AC6848D9CB0842DF4
:101A5000948FAD73DEB8AD5273AC5AC939C5084026
:101A6000736BC636B552E6F8C614A531C635A53136
:101A70008C6FA5324AA8634A844F94D073CD73CD3E
:101A80007C2E6B6B7C0E31C5004031E5842F2143E9
:101A900052A83A06298431C510A1296321222102C6
:101AA000212318E22103296431E600404247C6772A
:101AB000D6D9BE57BE15ADD4B5F4ADB3A593A572B6
:101AC00095116B8B5B2A94F1AD94846F846F8CB00D
:101AD000846F6BAC848F32262183194294F0CEB789
:101AE000B5B3CEB6CE75CE75CE75CE54CE74C674A3
:101AF0009CEE94ADC654B5F294CE9D30848D5B6956
:101B00005B6929E331E33A4473CA9D0F948F7BEDFF
:101B1000948FCE77B574632AB594212318A042051B
:101B2000B573AD32DED8DEB7AD52948EAD72A5324C
:101B300094B05B2910A03A26A55394D152E95B0AD0
:101B400073CD29A410C108800880844F6BAC086055
:101B5000296431A431A4214318E131C531A5298478
:101B6000296410A12123210310A13A06D6B9F7DD7B
:101B7000E77BDF1AD6F9D718D718CEB7CED7CEB7AE
:101B8000846E5B099D12AD945ACA31A53A263A2655
:101B90003A474AA85B2A29C529A529C59D32EF9B4A
:101BA000DF19DF18D6B7D696CE75D6D6CE54D6D690
:101BB000D6B5CE94D6B5C674C6747C4C3A244AE7E2
:101BC000ADD27C2B4AA53A438C8CB5B0A53273CCF0
:101BD00031A4840E5AEA842F4206086031A4C5F568
:101BE000C614BDF4CE56BDB39CAFB5939CD094D073
:101BF0008CB03A062142846FADB49D325B0A6B8C87
:101C0000426710E1002008A03A0673ED31C510C10B
:101C1000212231C539E521432143298421233184FF
:101C200010C1108029642964086073CDFFFEE75B52
:101C3000E73AEF9BE77AE75AE77AEFBBEFBBEFBBF8
:101C4000CE777C0E4A472123000000200020002090
:101C50000020004000400060088108A129A59D32B5
:101C6000EF7BEF7AE759E738EF58E738DF17D6F61A
:101C7000D6B5D6B5CEB5CE95CE955B07216152E6E9
:101C80009D2F8CAD9D0E9D0EAD8FB5B0B5B43A06AF
:101C900021225AEA84506B8D10C210C18C6FCE562F
:101CA000C635C614CE55AD52D6768C2E73AC9D1269
:101CB000AD932143846FD71A6BAC6BACA5947C4F6A
:101CC0003A2610E20040216394D152C929631922B7
:101CD000298431A42122212331A4296419022964F1
:101CE00018C118E2190231A510A152A9FFFDE73A67
:101CF000E75AEF7BDF19E75AEFBBEFBBC677636BA1
:101D0000212200400000000008400860086010A187
:101D100010A1088100200040004008610020004020
:101D200029439D11F79BE739EF79D6D7DF17E7579E
:101D3000DEF6CE95DEF6D6D69D0F42443A446B8948
:101D40009D2FADB1B5B0B5B0BDF1B56F4A67190201
:101D500010C18C91AD95426900204A68BDF5A5522D
:101D6000AD92C614CE76DEB7CE5683ED3A0694D049
:101D70004A884267C698A57352C9A5736BCD3A27A6
:101D80003A266B8C634B29849D3242674267086018
:101D900031A5298418E2296331A4212210C12143ED
:101DA000214310C1214321230020AD74F7DCE75A01
:101DB000E71AE73AF7BCF7DDB5B44A8800400000FF
:101DC0000000004008400860086108600860108159
:101DD0000861084010A208810861004008410860BD
:101DE00008400020634AEF7AE739DF18DF38D6F67B
:101DF000D6F6D6D6D6B6B5F27C2C94CEA591BE3406
:101E0000B5D1B5B1BDF1B5B0AD4EAD4E634A4AC81E
:101E10002985A5549D135B0B1903AD74BE15BDF444
:101E2000B5B2AD71A530BDD4AD524A674A887C0EBB
:101E30001922634B8CB05B0A6BCD4AC9002031C5B7
:101E4000844F52C931E610E23A06632B19223A2632
:101E500039E5190218C139C5318410C118E2294386
:101E600018C129442964004031C5F7DDE75AE73934
:101E7000DEF9F7BC8C705AEA08810000004000408F
:101E8000084008610861086108200820082008202F
:101E90000820084008200841086108410840002047
:101EA0000881088000205AE9EF7AD6B7D6D7D6D66F
:101EB000CE95C675D6D6BE14BDF3C695B5F3A5713D
:101EC000B5B2B5D1BDF1B58FA4ED9CAB7BED4A8821
:101ED00029A573CE73EE39E621649D12C6569D1076
:101EE0007BEB6B696B8A73AB422531C494B05B4A60
:101EF0003A2652C952EA9D53638C002008C17C4F98
:101F0000190208802143088010A142674AA84A8824
:101F100031C5212318C12123296310C121021902CF
:101F200021432964212300209D12EF9CDF19D6D77D
:101F3000EF7BC65721230000086108610841084172
:101F40000841084008200000080008200800080098
:101F5000082008200820104010610860002010812F
:101F6000000010A1088008606B8CE75ACEB6DF181D
:101F7000D6D7A5519D309D108C8E6BCB3A243A0458
:101F80007C0BB5D2B5B1AD2EAD2EA4CC4A8810A035
:101F900000004A67422752A98C6F73AC94D0632922
:101FA0005AE89CF073CC73ABA532842E9D12634B20
:101FB00042674267298429A508A111028CD18CB1FE
:101FC00010E22984190210E210E118E24247634B43
:101FD0004A6710A0088021022123086021232123C1
:101FE000212331A40020634BF7FDE75BDEF8F7BB4C
:101FF000C61610A0002008810020084108410820D2
:10200000082008200820104018601860208020A0B8
:1020100028A020A02080188018801040080010817F
:1020200010A110800880002010A194F1BE3594CF3B
:10203000846D7C2C73EC4AA6426642865308530892
:1020400073EBB5B2BDD2AD4FAD4FA50D39C508206C
:102050005267844F842EC6366B8B528763295B0987
:10206000844E844E632A8C6E94906B6B5AE92143A4
:10207000632B634B0000006008809D33B5D63A4760
:1020800010E1192210C110E12163214373CD3A26DA
:1020900018E108802984210218C12123318518E222
:1020A000212310A13A06DF1AF7FDE75BFFFDCE976B
:1020B0001901002008610861082008410800082073
:1020C00010401860186030E049A35A0472A672A646
:1020D0006A86624651E44984312220A0082018A172
:1020E0001080108010810880088031C5638A636A7F
:1020F00042666BAA52E73A243A6642A74AC7638A05
:1021000063698C8DAD91B570B56FBD8F20C11080A6
:102110007B8C736B9CD09CAF840D738B52A87C0D11
:102120007BCD94B0842E6B6B4A4652A85AEA5AE98A
:1021300052A82964088000404A8894F2844F218480
:10214000110208C1214331C542475B0A52E910A17F
:1021500019022964294310A12123420631A52964CB
:10216000210218E2BE16FFFEEF7BF7DDDEF9190251
:102170000000086010A10820084008001020184046
:10218000288038E151A272858B2893898B078307B9
:10219000830783077AE772A7624651E439421880C1
:1021A00020C1108010A110A1002029C5740C532853
:1021B0004AE73A6542A7740C3A4529C342864AC7A2
:1021C0004265846DBDF2B570AD2EB56F208049E5D6
:1021D0008C0D8BED5AA78C4D9CAF62E839E4630AF5
:1021E0006B2A8C6F738CAD94842E6B4B9D125AE9C5
:1021F00010A118E210A118E273CD94D1426810E149
:1022000010E2194310E242474268634B6B8C214352
:10221000214321431902086021234A6831A518E2AD
:1022200018C1738CFFFDE73AEF7BE77B298500003F
:1022300018C20840000008401040188020A0394211
:1022400059C36A659328A3CAABEAABC9ABC9A3A8B3
:10225000A3889B8893688B487B0772A75A4541C423
:10226000292220E110A108600861214373EC4AC7CC
:1022700032245B495B6A532942A742A75B6A6BCB56
:1022800042A65B2894CEAD70B590B590D5D59C4F45
:10229000ACD0CDD37B6A73495AA763088C2E83EDEB
:1022A000738C736C42069CF162E918E152A82964B0
:1022B00010A1002021433A277C0E6BAD216408A1B8
:1022C00010E11923214342474AA8636B31A518E264
:1022D00010A110C118E2086021233A07294429649B
:1022E00018C1A533FFFDF7BCEFBC39E60000108232
:1022F0000020084008401080186028E041427AE73A
:10230000A3EAABEAB40ABC0ABBE9C429BC09B3C856
:10231000ABC8ABE9A3A89B888B688B4872C75A45AA
:1023200052462942106018E200402984848E63CA14
:1023300042C684CE5349532942C7324519625329B4
:1023400042A621614224842BBDD1BDB0CDF59C2E87
:10235000D5D4EEB6BD30A46D62A66AE8948F6B4BFF
:102360007BCD8C504A274A4810A1000018C110A00C
:10237000004018E1632B4A6831A54AA919231903C3
:10238000214310C1298410E1426729A42143190285
:1023900018C2212318C20020296439E6210218C17D
:1023A000842FFFFEE75AFFFE632B00200881108276
:1023B00008410000104020A0394249A272A6A42B77
:1023C000C48DBC6BCC8CCC8BCC4ACC6ACC6ABC099F
:1023D000BC09B429ABC99B678B478B48832772C75D
:1023E00062875225292210A1086073CDADF4B6345E
:1023F000A5B2744D42A64B08742D29E419821141EF
:102400003A66532842444244842B94AC4A2583CBF9
:10241000DE14EE75EE74D5B1C530836962E9C61578
:10242000AD73BDB462EA18A218C210A110A131C5E3
:10243000738B8C4E844E2963298431C6190319236A
:1024400008A129A431E5190131C5298418E219022E
:10245000190218E22103212339E6296418C14A67C9
:10246000EF7BDF19EF7BA5530000086000400020E0
:102470000840104020A130E159E48327AC2BBCACCC
:10248000C4ADC48DC48CCCACCCCCC48BC46AC46B7E
:10249000BC2AB409ABE9A3C993688B278B486A8629
:1024A00072E862C74A25108021439D126BCC5329E4
:1024B00063CB84AF951021823A652A042A041983DC
:1024C00029E47C4D6BAA63687BCA7BEAAD51BDB23F
:1024D000A48DC52FDDB1DDB2BCEFA44D5A665266A6
:1024E000AD52840E18C110A11081086039E673CC7A
:1024F000A531B5B339E421012984190310E3004063
:102500000060424739E5214221432964296308607C
:102510002123212310A15AC931A5318410A09D1176
:10252000FFFDE73AE75B3184000010810860084056
:10253000084020A128A16225A40BBC8CC4ACCCCD42
:10254000CCEEDD4FDD2FCCEECD0DCD0DCCCDC48C42
:10255000BC4BABE9A3C9A3A99B68934882E67AE781
:1025600072E76AC762C8318310805B4B29C4196265
:1025700021828CCFCEB784AE3A4529E44B082A0499
:10258000198232043224634994AE94CEAD3083EC88
:102590006AE7BCF0D591CD2FBCEFB4CEA46D49E471
:1025A00039C4422610A0084021242103A574B5B4E3
:1025B000AD729CF02962212231A529A50861190379
:1025C00073EE9D114267296310A129432102210264
:1025D00031C5296408604207318518E218E1D6B890
:1025E000FFFDFFFE6B8C000010810040084008409A
:1025F000104028C149A49BCBCD2FCD0FDD70DD6FDE
:10260000DD70EDF2EDD2DD70DD4FDD4ED50DCCACE1
:10261000C46BBC2AABC9A3889B6893278B077AE756
:1026200072A672E862C84A4619014AA829A421A3E1
:102630003A454AE7846EBE559D3129E44AE82A04AA
:1026400009001962322429C252C66B8973298BECA6
:102650009C4E9C2DA40BD570CD71CD50C4EEA44CD6
:1026600039A30860086021235B0B52CAB5F6BE1679
:102670008CAFB5D4844E296339E6088110A294F258
:10268000BDF65B0A31A431A4294331A510C139C577
:10269000296418C110A1296421431080844EFFFDD4
:1026A000F7DCA5530040004010810840002008409E
:1026B00020A131018329C4CECCEED52FE590E5B120
:1026C000E5B1E5B1E5B1DD90DD70D52ED50ECCAC30
:1026D000CCACC48BB3EAA3A89B68932782E683079C
:1026E00072A66AC75AA75AC8296329A45B8B3A669F
:1026F00032043224638A95308CCF73EC4AE821820D
:1027000011001120218221613A0342655A66AD1100
:10271000D61573098B6AC530D571DD90CD4FBCCE0F
:102720007B6918C00020088073EEA5536BAD7C0E4A
:1027300094F1C67652C8190239E618C24A697BCEAE
:102740003184086039E521222943210229633A06B0
:10275000296410C110C131A5004052C9F7DDFFFE48
:10276000EF7B2123000008810840084108201880E1
:1027700030E15A05AC4CCCEECCEEE5B1EDD1EE1229
:10278000E5F2E5D2E5D2EDF2EDD2DD70DD6FD4ED0C
:10279000CCACC48CB40AABC9ABA99B688AE68B28C5
:1027A00072C6628662C7528742467C4EADF44AE8E2
:1027B0003A6653089D30846D3A4553085B491121B0
:1027C00029E4218229A33A24216152E7940D730858
:1027D000C59362679C2D9C0CD570E5B1DDB1BD0E33
:1027E000A44C5A86108008607BEEC678424731C5FB
:1027F000AD93AD9319423A06296418E231A521023E
:1028000010A0296339C52143294318C139E639E5A8
:1028100039E6212310C121432122C637FFFEF7BC30
:10282000B5D500400860088108610820084020A153
:102830003901938AC4CDC4ADDD2FED91EDD2EDF217
:10284000E5D2E5F2E5F2E5B1DD91DD50DD4FD4ED05
:10285000CCACC46BB40AB3EAABEAA3A9932782E673
:1028600072A662855A6542256329B6159D72742D3C
:10287000A5724AA73A2453084AA673CB7C0C426639
:10288000ADB373EC4265636929C2842CCDD3B4CF58
:102890007B2993EC5A466AA7BCADDDD1DDF2C55069
:1028A000B4EE942C3983002010C1634B31C54AA982
:1028B000BE167C2E216329A42943294320E2084027
:1028C0002101296331A431A410A118E231C531A539
:1028D00031A52123214321228C70F7DDE75BF7DD51
:1028E000632B00000861002008400840104028A128
:1028F0005A04B46CCCEDCCCDDD2EE550F5F2EDF202
:10290000E5F2E613E612DDB1DD91DD50D50ED4ED32
:10291000CCACC46BBC2BBC2BB3EAA3898AE682E6A1
:102920007AC6626552044A2552A773CC196129E31D
:102930006BAB5B695B28A5726B6A52C76BAB5B289C
:102940008CAEADB35B0819205B2894EFD5D2D5F3DC
:10295000C5517B29522541624982C50FDDD2D5B1CF
:10296000BCEEB4CF7B6A20C1086019023A06636BE3
:10297000951229A4196331E52984318420C118C036
:10298000318339E539E5212218E2210229633A062B
:1029900039C5294319022143DEF9F7BCEF7BE73A39
:1029A00018C208400020088108400820186030E163
:1029B0008B69BCADD50DD50DDD0EEDB1E591E5B260
:1029C000DDB1DDB1DDB1D591DD71D530CCEECD0D10
:1029D000C4ACBC4BBC4BBC4BB40AABA993078B0734
:1029E00072856245522441E44A8694F0740C742C3A
:1029F0009D71ADB29D30ADD373CB31E452C77C0C29
:102A00007BECA571A57142856349A591E654DDF281
:102A1000CDB1BD3072C7208008006AA7CD71C55006
:102A2000C550A46D8B8A5225188010A110A16B8C03
:102A30009D533A6721845B0A31A420E118804A261D
:102A4000738B39E539E52122296439E6294331A41C
:102A500039E5298318E12963DF19E73AF7BD94D1F5
:102A600000000861086108610020104120A149A30D
:102A7000B48ECCEED50DDD2EDD2FE591E5B2E5F37C
:102A8000D570D5B1DDB1E5D2EE34DD71D54FD52F9E
:102A9000C4ACC4ADBC4CBC6CB42BA3A9934882E6B7
:102AA0006A645A24522442044A65C655C675CEB695
:102AB000BE559D51846E8CAF94AF73AB4A869CEF2C
:102AC000AD92AD71AD9194CF740B9D10EE73DDF2AC
:102AD000D5D2C570B4CE6AC610201840A44DBD1022
:102AE000BD10AC6D9C0C8B8A41A420E1294339E6D2
:102AF000320610E1194331C51080186049C49C6F3B
:102B000062E839C431C4212229433184212321437D
:102B100031C518E1212294D0EF9CDF3AF7BC4A88F6
:102B20000000086108400861108108402060832986
:102B3000BCEED54FDD4FDD6FDD2FE5B1EDF3E5D216
:102B4000DDB1DDD2E5F2E5F2E5D3D571E5D2D54FC1
:102B5000C4CDCCEEBC6CC4ADB42BA3A9932782C664
:102B60007AC6626549E342044A66B5B3B5D3AD920D
:102B7000B5D3740C31C34AA77C0C7BEC73AB6329CF
:102B8000842C8C6D842C7BEB5B073A03D590E65349
:102B9000E633CD70C550ACAE732910406287D5D3F3
:102BA000BD10C530AC4D9C0C838A290110402123F7
:102BB0001943110232063A2620E128C09C4EA4AFE8
:102BC00039A439E4420631C510A1086019023A0659
:102BD0004A8808801921DF19E75ADF19EF9C3A2744
:102BE0000000086010610840000018804142A40CF9
:102BF000CD70CD2FCD2FD570DD91E5D2F655E5F313
:102C0000E5D2DDB2DDD2E5F2E5B2E5F3E5D2CD30D5
:102C1000BCCEAC2CAC2BAC0BAC0BAC0B8B277AE644
:102C20007AE76A8551E44A044A25AD51BE14A5717C
:102C3000A5514A8608C05B298CCF7C2C6B6939E38F
:102C40003A034A85632873AA52C64265BD2FCDB1A7
:102C5000DDF2D5F2CD91B4EFB4F06AE828C0B4F05B
:102C6000CD71C50FC4EFA42C93CB51E4104018C113
:102C7000192310E2218431A439A38BCCD5F493EC31
:102C8000396239C43A062123086018E221434247D9
:102C9000422608805B29E75ADF19DF19EFBC39E6C5
:102CA00000001081084008400840104049A3AC6D66
:102CB0009BEB8B689BCAA40BB44CCD30E5F3DDD203
:102CC000DDB1D550D550DD71DD71DDB2B48D9369C4
:102CD00083078B288B487AA672858B4882E7830707
:102CE00083286AA65A4549E44A05C614BE14B5D3DA
:102CF000A5514A862182636A8CAF94F09D308C6D19
:102D00005AC639E24A65A550B5B2AD91D5F3C55062
:102D1000CDB1D5D1CDB2BD30A44CAC8E52045A0445
:102D2000D571CD50CD30B4CE93CA72E73121106049
:102D3000190210C21923212241A4CDD3CDB29C2D5A
:102D400041A342054226086018E229442143424734
:102D500031E55B2AEFBBE77ADF39D6F8EFBC5B0AD7
:102D60000040088108600840002018A07B288B697B
:102D700059C393AA93AA8B6A834893AAB4ADCD0F83
:102D8000CD2FD52FD550CD2FC4CEB46C8B498328F1
:102D90008B8AB4AEAC6DA42C7AC65A036A648307DE
:102DA0008B697B085A6549E45245C614BDD3AD51C1
:102DB000948E842D8CAF9D31ADB3C675B5F3BE1323
:102DC0007389422352A6AD70C613BDF3EED7BD5131
:102DD000BD30CD91BD50BD30B48DBCCEAC6D51A2D7
:102DE00082E7DDB2C550BD0FAC6C8B8941A318A042
:102DF00029842164298429634183BD10CD71940CF9
:102E000041C3526731A40880296418C221434A682B
:102E1000214294F0FFFDD718DF5AE75AF7DD9CF204
:102E2000000010A10020084018A120C193EB6A8582
:102E30008B69C572BD31BD31A46D93EBA40BBCADE4
:102E4000CD0FDD91E5B2CD0FB42B93899C0C93EBA4
:102E50009C0C93CB8BAA93CA93EB6A865A0372C6D7
:102E60008B8A83695A654A0449E47B8B7BABA4F067
:102E7000B592AD93AD93AD93B5F4B5F3A571B5B27D
:102E80008C6C7C0B9CEEAD70AD71AD91EED87B6A15
:102E90007308BD51C571BD0FCD2FC4EEC4CE93A92B
:102EA00041009C2CD5D2C52FBCEDAC8C72E83122F0
:102EB00018E22164214310A031419C0CC5518BAA1A
:102EC00052254225088008A031A518E2294442264F
:102ED0003A06CEB7DF5AEFBBEF9BE79BE75BDF1A03
:102EE00021430040108110A110A139839C2BA42BF9
:102EF000ACAE6AA77B4B838B7B6A9C2CA42BB46CF7
:102F0000CD0FE5B1E5B2C4CDA3C9A3CAA40C9C0DF5
:102F10008B8A7B08836A51E36A867B4862657B28DB
:102F2000838983495A4552043142312231419C8E72
:102F3000C635AD929D31A592ADD3A571A591A54F92
:102F4000AD50A52F9CEEAD70C5F3A52FEEB839425C
:102F50001860838BC551CD70C52FD570CCEEAC2BCE
:102F600072A672C7DDF2D590CD6FB4CD93EB52252A
:102F700018E1296429631080394272E7B4AE9C0CD1
:102F8000524531830880192331C5088039C631A4E0
:102F9000844EFFFDDF39E79AE79AE77ADF5AF7FDBB
:102FA000CE7829840860000018805A66BCEECD4FA8
:102FB000A42C8329BD1193EC9C2DCD51A42BA40AE4
:102FC000CCEEDD90DD50B42B9327AC2B938ACDB2A1
:102FD000A42D9C0BACAE72E751E383487B079C0B9E
:102FE0008BAA7B085A4549C4310128E13121A4CF7D
:102FF000CE55AD729D1095109D71B5F3B5F3AD91A1
:10300000AD70AD50A50FB591B591BDB173092080DC
:1030100010003100AC8EBD2FCD70D590C50FB48D92
:103020009BEA72A5AC6CE633D590C50EB4AD7B2897
:10303000418329231060108031415A249C0C940C48
:103040005A672902108131A5296410C129A431C50C
:10305000D6B8E77BE77ADF7ADF59E79AE75AE79B4A
:10306000F7FDDF5BA553840D41836245BC8DCD0E1A
:10307000BC8DB46DBC8FBC8EC4AEC4CEB44BD52E4B
:10308000D52ECCCDCCCD9B689B68E5B1C4CEB48D9C
:10309000BCADAC0B9B898B278B2793689BA99BCAE4
:1030A0008B687B08628651E4312128E03121A4AF8E
:1030B000CE55AD9294F09510A572A592ADB2AD71BA
:1030C000AD50AD50AD2FAD4FB5B1AD90ACD07B4A4A
:1030D00039417B28A48DB4CEB4EEC54FC52FB4AD15
:1030E000AC4B9BC98B47AC6CC50EC52EB4AC9BEAF0
:1030F0006AA741A4312318A028C049E3940C8BECA3
:10310000524620C118E221442984190210C039E531
:10311000E75BD6F9DF5ADF7ADF79E7BAE79AE77A31
:10312000E77BDF3ADF5AFFFD8BCB6224C4ADD50EBF
:10313000D4EEC48DCC8ECCAEC44DBC4CD50EDD2EA1
:10314000CCCCC48BBC4B8AE69B27D50FE5D2D54FA0
:10315000C48CB40BA368A368A388B42BAC2BA40BBA
:1031600093AA7B0862665A05310128E031219C8FC1
:10317000CE55A5318C8E84AF848E8CAEA5519CCE5D
:10318000948DA50EAD2FA50EAD6FAD90CD93BD3135
:10319000B4EFAC8D4981A42BBD0EBCEEC50EC50E9F
:1031A000B48DB48DA40AAC4CBCEEB4ADAC6BA42B06
:1031B0007B0949E55A884A05396252249C4C9C4C4B
:1031C0005246106018A11081214331A41922AD93F9
:1031D000D6D9D6D9E79BEFDBF7FDDF59DF39F7DC2E
:1031E000E79BD6F9D6D8E6F8B5108B48BCACCD0D28
:1031F000DD70CCEEC46DC4AED4CFE571E570D4ED16
:10320000BC2AC46BC46B93079B27B42CDD70D54FCD
:10321000BC6CB42BABA9ABA9B40AC4ADB44CA40A22
:103220008B6972A66A866287392120A03121944D6C
:10323000C5F4A5318C8F7C4D7C2D9D31B5B2A53068
:103240009CADB550B570A50EAD2EA50ECD72C55175
:10325000B4CFB4AE7AE68B48FEF6D590C50ECD2F2E
:10326000C50FC50FC50FAC6CBCCEB48CAC6BA42B1A
:103270007B4949E47B8B732A52245A249C2CA4AEAC
:103280005A67084010A121232122190252C8CE9862
:10329000AD949D128CD08CD0740D6BAB8CAFADB453
:1032A000C657C698C677EF39942C9389C4EDCCEDF8
:1032B000DD4FDD50CCEFCCEFD50FDD50D50ECCCDB2
:1032C000C46BCCCDC48C9B279B27B40BBC6CCCCEE1
:1032D000C48CBC2BC46CBC2BC48CC4ACAC0BA3CABC
:1032E00083076A8572A76AC8394220803141944DAC
:1032F000AD529D118CD07C2D7C4DA592B5D3B5B22D
:10330000AD2FB570B590AD4FB590A52EB4CFBD1013
:10331000B4CEC50FBCEE9BC9BCCEFEB5EE33D59185
:10332000D571D591CD50AC6CAC8DB4ADAC6BA40A5D
:103330008BAA5A6683AB838B6286520362658BCB02
:103340006AE8108020E239E631A42142634B7C0E0A
:10335000632B18C2002019431942190110C039E526
:103360003A27426773CCA51083699BEAC4CDCCEDA4
:10337000CD0ED52FD50FD52FE571D50FD50ED4EEA7
:10338000BC4BCC8CCCADA3689307B3EBC48DD52FCD
:10339000D4EEC48CCCCDC48CC48CB42BABEAABEAD9
:1033A000830772C672C76286418328C031429CCFB0
:1033B000AD519D319D11848F848E94EFA551AD71D7
:1033C000A50FA50EA50EAD2EBDD1BDD1CD51D5B247
:1033D000C530CD70C52FB48C8B27B4ACEE54E6331A
:1033E000D5B1DDD2DDD2CD50AC6CB48DB48BA42A76
:1033F0008BAA6AA77B4A83AA732862653940522444
:1034000062A720E1294331A5424652C810C000609E
:1034100018E22144214308A0192231C5190218C11C
:1034200031C51923298329216A86B46DBC6CCCED82
:10343000D50ED52FDD50EDB2FE33EDB1CCCDCCADF8
:10344000C46CCCCECCEEABEB9328ABEBBC6CE59074
:10345000EDB1DD4FCCCDCCACC46BBC2AABC9A3C99C
:1034600082C67AE772A65A4549A328E029219CD052
:10347000A531AD729D31846E846E8CAF9D10A530E8
:10348000AD2FAD0FA50EA4EDAD4FBDF1BCEFC53016
:10349000D5B2CD70CD4FB48CAC4B9BC9C4EEE61207
:1034A000DDF2DDD1DDD2CD50AC4CAC6CBCCDAC6B23
:1034B00093AA72E76AE87B697B486AA65204418254
:1034C00041A329022984298439C53A0539E510C167
:1034D0000020086121232144088010A0210218E265
:1034E00008812984212229017B28B46CBC8CCCCD95
:1034F000D52EE590EDD2F613EDD2D50FC4ADCCADFF
:10350000DD70F613DD91BC6C9B69B42C9B68CCAD6F
:10351000EDB1EDB1D4EDD4CDC46BC46BA3899348A8
:1035200082C683076A865A2549A3312139C49CF093
:103530009D11A5528CD073EC740D8C8F9CEFA5302F
:10354000B591B570AD4FA4ED9CCDB56F6245A46D3E
:10355000ACADBCEEB4CEBCCDB4ADB48CBCCDCD5016
:10356000DDD1DDD1D590BCCDBCCDAC6CAC6BAC6C41
:1035700093CA7B486AC77B287B2872C7520449A339
:1035800039833163296431C52943002010C12122C8
:10359000190308600040190318E20860086018E386
:1035A00018E3086031A47BAB8B6AAC4CBC8CC48C38
:1035B000D52FE570E570DD50CCCECCCEB42B9B681A
:1035C000B42BD52FBCCE9BAA62046A247223930726
:1035D000C48DCCCDD4EDCCADC46BBC2AA3689327ED
:1035E00093288B696A86520441A33983738BBDF497
:1035F000A55294D0846E740D73EC7C2D8CAE9CEF30
:10360000B591B570AD2FAD0E9CCDB56F28C09C2C7B
:103610009C2BA46CB4CEB4ADB4ACC50EBCEEC4EE61
:10362000CD2FCD6FCD2FBCCDB4ACB48CB46BAC6B07
:10363000A42B8BA972E772E7834972C751E349C48F
:1036400039A420E2318439E6212308600040088053
:10365000210318E30040004010A110A11061106187
:1036600018E318E2088041E5836AAC6CBC8CC48C1A
:10367000DD2FDD2FD50FCCADB42BCCEEA3CAA3CA62
:10368000AC0B9BA96A654120180051A29328A3683E
:10369000CCADC46CCCACC48BBC4AB3C99B479307BC
:1036A000A3AA83076A8649C43942210173ABC63590
:1036B000ADB39D31846F848F8CD07C2D844D94CE9E
:1036C000A530B570B550A4EDA4EDB57083AAACEFEC
:1036D000ACCEB50FACCDACADBD0EBD0EC52FC52F5C
:1036E000C52FC52FC52EBCEDBCACB48CB46CB46C6E
:1036F000A44C93CA730772C77B0872C7520441A3D4
:1037000039A4318431A529642123210210C1088004
:10371000084010C218E30861002018C2108110612F
:10372000210331A518E129016AA7AC4CBC6CC46C1B
:10373000CCCDD4EED4EEBC2BB42BD50FCD0EB48CA7
:10374000AC6C9BCA6A8562656AC69C0BBC6DB40B87
:10375000BC2BBC4BD4EDC48CB3E9B3C99B269B47AF
:1037600093487AA66225520431423183A531BE14B2
:103770009D3195118CAF73ED740D73EC844D94CF26
:10378000A52FAD2FA50E9CADA4CDB56FC592A4AE4F
:10379000B4EFEED6F6F6D5D1CD90CD70D5B1D590AB
:1037A000CD2FC4EEC4EEC4EDB4ACB4ACBCADB48C9F
:1037B000A44C9C0B834872C672A76A6649C441A494
:1037C0002922294339C518C20000084018C110C178
:1037D0000860086118C210A20860086018A218A248
:1037E00018C22985212329426AC7AC2CBC6CBC6C49
:1037F000CCADCCCEC48CABEAC48CCCEEC4EE8B4743
:103800009BCAAC8DA44C9C0B83698B8AA3CA9B2852
:10381000B3EAC48CC48CC48BBC4A9B469B26A36869
:103820009348728651E3418241C48C6E9D319D3133
:103830008CAF8CD0846E5B295B2973CC844D94CE85
:10384000A50FA52FAD4FA50EA4EEAD2FACEF9C6D2F
:10385000ACCECDD2F6F6F6D5EE94E633DDD1DDB1C1
:10386000C52FBCCDC4CDBCCDB4ACB4ACBCCDB48C38
:10387000A42B9BEA8B897AE772A65A2549A349E5CE
:103880002922212231A5210308401061084010A1FE
:1038900018C20861002010C218E20840084018A2AF
:1038A00018C318E210A120E162669BCBBC8DBC6CF2
:1038B000CCCED50EB42BBC4BC4ADB42BAC0B8B070C
:1038C0008B28938983697B287B087AE7A3AAA3685E
:1038D000A389BC4BC48CC4ACB40A9B46A367A38821
:1038E00093486A445A24312141C4A552846E844EBF
:1038F0007C0D7C2D844E6B8B5B096BAB844D9CEFF8
:10390000A530A52FAD2FAD2FAD0FB54FB4EFBD50E6
:10391000BD30AC8DBD2FD5B1DDF2DDD2D591D591C5
:10392000C50FB4ADBCADBCCDB4ACBCADBC8CB46C3F
:10393000A42B9C0A8B8983487AE75A2549834183C3
:10394000316321230860086020C2108108400860AC
:10395000108110810840088118C110A1084008405A
:103960000881088110A018C151E48B6ABC6DC48C19
:10397000CCEED52FC48CCCCDBC6CABEABC8D9348BF
:103980007244830872A651E36A866A448AC77A44FD
:103990008285B42BCCEDCCEDB4099B26A388ABC9B2
:1039A000932761E35A04314142059CF17C2D848EBA
:1039B0007C2D7C0D844E7C2E5B2A6BAB8C6E9D30F7
:1039C000A5509CEE948D948DA4EEB570B4CEB4CE7B
:1039D000BD0FBD0FC52FBCEECD70DDB1D570D5705C
:1039E000C50FBCADBCADB4ADB48CB4ACAC4BAC4B42
:1039F000AC4B9C0A8B688B688328622551E449E5AF
:103A000041E53184084000201081106110A1086058
:103A10000820086110A20860004010A118A1082029
:103A20000860004010A1212251E48349AC2CC4ADB0
:103A3000C4ADCD0EDD4FD52EB42BC48D93486A0393
:103A400072457A8662047AC77AE761E35120594069
:103A50008AE6CCADCCEDCCEDBC4A9B26ABC9ABEA3B
:103A60008B076A2449A229014A469CF07C2D84AF29
:103A7000846E846E844E844E634A6B8B846E9CEF9E
:103A80009D0F948D8C6C946C9CADAD0F9BEBAC4CEE
:103A9000B48DB48DB48DB48CC50EC50FCD50C50F8B
:103AA000BCCEBCAEB4ADB48DB46CAC6CAC4BA40AA3
:103AB000A42AA42A8B888B888B696A4551C4520535
:103AC0004A2639C518C110810840084010A110A12C
:103AD00008400840108108800040086010A110A133
:103AE00018C20060004010A049C47AC79BCABC8CB1
:103AF000BC6CC4ADDD90D50EC4ADD52FABCA69E3A7
:103B0000828693498B08938A6A25516272249B2886
:103B1000BC6DD50ED52ECCCCABC8A3A8B40AA3A936
:103B200082C66A2449A328E04A877C2E740C742D2F
:103B3000844E848F7C2E846F73ED636A7C4D8CAED3
:103B400094CE94CE9CEEA4EE9CAD946C72C79C0B6C
:103B50009BEB93A993CAA40BB4ADC4EFBCCEB48DB8
:103B6000B46DB46DB46DAC6DAC6CAC4CB44CA3C95D
:103B7000A40AA42A93C89BEA9BEA72A75A25522555
:103B80005AA74A2618C118C1108108400840086089
:103B900010A210610020088010C10880108010A1C0
:103BA00010A108A110A118A14A056AA7938AAC2BFD
:103BB000B44BBC6CCD0ECCCDE570DD50CCAEBC4C66
:103BC000ABCBBC6EABCB9B699B89A3CAA3AAA389D1
:103BD000C48DD52FDD4FCCEDB3E9A388BC2BA3A9B1
:103BE00082E751A23962290173AC8C8F73CC73ECDC
:103BF0008CAF8CAF6BCC7C2D94D0844E7C2C8C8E77
:103C000094CE9D0FAD50AD2F9CAD944C28E13983DF
:103C10004A0452246AA68369A44CA42CB46DB46DE2
:103C2000AC6DAC4DAC4DA40BAC6CA42BB44CAC0B3C
:103C3000A40AAC4BA40A9BC99BEA8B4972A66AA64C
:103C40005A655A8618C0086010C208A10040086072
:103C500010A210C20861004010A1210218C11080FA
:103C6000084010A010801080318452268B6A9BAAD5
:103C7000B48DB44CC4ADCCEDE590DD4FCCADCCAD46
:103C8000D4CFDD10DD50D4EEBC6CB40AA3A8B40AC6
:103C9000D4EDE570DD2EC48CB3E9ABC9BC2B9B8998
:103CA000726549823962316294AF94D08C8F8C8F67
:103CB00094F0846E636A638A846E848E846D9CEF54
:103CC0009CEFA50FAD2FB54FA4CDA4CDBDD4948F3F
:103CD0008C0D5A8641C38BAA8B89A40CAC6DB48E13
:103CE000AC4DAC2CAC4C9BEAA44BB46CB46CAC2B80
:103CF000AC2AAC2AA40AA40AA40B9369830772C64F
:103D00006AC65A86294200200040086110A1084076
:103D10000020086110C20861084010A1108010A0A6
:103D200010A018E11060108021234A277B099BAA6C
:103D3000AC4CB46CBC8CDD6FD52EDD6FCCADD4CE6D
:103D4000D4CED4AECC8DCC8DC48CC46BBC2ACCACC0
:103D5000CCACD4EDDD2EC46CB3EAABCAA3CA8B07DE
:103D60006224394128E0526694F08CAF9CF08C8F2D
:103D700094B08CAF6BCB5308636A846D7C2C94CE6B
:103D8000A50FA50FAD2FAD0EA4CDA4EDD656E6F828
:103D9000DE97D65683AB8BABACAFACAEAC8DB4AECE
:103DA000AC6CA40BAC4CA3EAA40AAC4BB48CB46BC3
:103DB000AC4BA409A42AAC6BA42B9BCA8B698308C7
:103DC0007B086AC64A25210208400860108110A1BC
:103DD00010810840086110A210A2088108601080BC
:103DE00018A020E10840086018C152686246A3EBA1
:103DF000A3EBC4EEBCACBCACDD4FDD4FDD4FDD2F23
:103E0000DCEFD4CED4EEDD2FDD2FCCEDCCCED50F34
:103E1000C48CC48CD50EB42AB40AABC99B897AC6AB
:103E200051A239213121318394B0AD93A51194D0A1
:103E300094B094D0844E636A53096BAB8C8E9CEF24
:103E4000A530A50FAD309CAD9CAD9CCDCE35C61434
:103E5000CE55D65549E4942DC572ACAEACAEB4CEB9
:103E6000B48DA42BAC4BAC4BB46CAC6CB48CB46BBD
:103E7000AC6BA409AC4AB48CA42BA40B93AA93AA50
:103E800083487B496AE85A67312310400820106054
:103E900018C210810020108118E310A108600840AA
:103EA000106018E118C11060106041A56AA7938ADC
:103EB000A42CBCCDBCADB44BD52EDD4FDD4FDD2FDA
:103EC000DD0FDD0FDD0FD50FD52EDD2FDD2FCCCE95
:103ED000C48DBC6CC48CABC9AC0AA3A98B276A4443
:103EE00039003921290100004A68AD94A5529D117D
:103EF00094F09D11848E638A4AA752C87C0C844D2D
:103F000094AE9CCEA4EF9CAD948C948CB592D69537
:103F1000E6F8A4F02901C5939C6EA46E9C2C9C4BE2
:103F2000AC8CAC6BAC6CAC6BB46CAC4BB46CB46CBC
:103F3000B48BAC4AAC6BB48CA42BAC4CA3EBA3EB12
:103F400093A993AA83697B295A4720801880082067
:103F5000106118A210A208610040108118C21081DF
:103F60000840106020E21060106020A172C893AB7E
:103F7000A40CAC4CC4EEB46CCD0ED52EDD2FCCCE43
:103F8000CCADD4EED4EEC48CBC6CC4ADD50FC4ADF6
:103F9000BC6CA3C9ABEAA3C9A3C993687AC6518113
:103FA00038E03942188008400020738DAD93A53168
:103FB0009CF0A5517C2D4AC83A4652E86BAB7BEC8D
:103FC000842D94CE9CEF9CCE8C4B840ACE74D675F7
:103FD000D676AD119C8FC5D46AE9838BACAE9C2C90
:103FE000A44BA44BAC4BA40AA3EAA40AB46CB4AD92
:103FF000BCACB4ACBCACB4ACAC4CB46CAC2CA40B92
:10400000A40AA40A9BEA8369834A49C418601880F9
:104010001060084018C218C200200840108118E241
:1040200018C210A120E2104018A11860416393ABA0
:10403000A40CB48DC50FB46CBCACCD0EDD4FCCCE92
:10404000CCAEDD50E591CD0EBC8CBC6CC4AEC48D45
:10405000ABEA8AE69BA9A3EA93888327728541404D
:104060003921396218A0108000003185B5B3AD92B6
:104070009CF0A5517C2D52E853096BCC73EC7C0D60
:10408000844D94CF94CE8C8D73C96327D696C5F397
:10409000DED7B552CE15A4D15A8741A3AD10A4AE38
:1040A0009C4C8BA99BEA9BC99BC9B46CBC8DC4EF8B
:1040B000C4EEC4EEC4EEBCCDBCADB46DAC4CAC0B28
:1040C000B46BAC2AA42A93E99C0B7308186018807F
:1040D00018C10820084018E318C210A10020088168
:1040E00021232944294318811060104020605A057B
:1040F0009BECAC6DBCCEBCCEA3EAC4EECCEECCEF58
:10410000D550E5D2E5B2D52FC4CDC4ADB42CABEBC0
:104110008B0782C69BA99BA9832772C659E33920C6
:1041200039423943312300000840108094D0BE1436
:10413000A551A551848F73EC740D7C2D6BAB73CCA2
:104140007C0C842C7C0B73CA634852E6D676DED78F
:10415000C5D4B593D6776B0941E54A056B09944DF3
:10416000A4AE93CB9C0B93A98B47A40BBCAECD30D4
:10417000CD2FCD2ECD0EC50EC50FBC6DB42BB44BBF
:10418000B48BAC4AA42AAC6BA44B8BAA5A6620C150
:10419000292231430840084010C2190310E20000F0
:1041A00008602102292318A110401880208028A02F
:1041B00062669BECB4AEBCEEAC4CAC0BBCADC4CEFA
:1041C000C4EFCD0FCD0FC50FBCADAC4B9BA982E6A4
:1041D00072448B489BAA83277AC66A454982392153
:1041E00041833943398418A1000008407BCBC65570
:1041F000B5B2AD9294CF740C740D740D73CC73EC96
:104200007C0C6B8A63485B275B475B06CE35CE35FB
:10421000BDB3C615DE9763094A26398400003143D1
:104220007B6B940D9C0C93CA93A9AC4CC4CECD2F40
:10423000D550DD90D570D54FD52FC4ADBC8DB46BA6
:10424000BC8BB4ABB48BAC6BA44C9C4C9C6E62C866
:1042500041C44A0631431080084018E2294410C284
:104260000040084018C218C2104018602080310277
:1042700039427B299BEBBCCEC50FAC2C9BA9A3EA92
:10428000AC2CB46DB46DA3EB8B487AA66A23724450
:104290008B489BCA8B4872C76A4551A34142392259
:1042A0003942396331632102086000005AE8BDF3E6
:1042B000AD7294F0848E848E7C0D6BAB6B8B6B8AAD
:1042C0007C0C636963685B075B275B269C8FB57218
:1042D000CE36CE568C4E9CD06B6B18A020C11040B1
:1042E000080049A4730993CBACAEBCEEC50FCD0F4B
:1042F000D54FDD90E5F1E5D1D550CCEEB44CBC8C7A
:10430000B44BBCCCBD0DBD2EDE33F718D676B592BE
:10431000630941C4292231631080002010A029A51F
:1043200031C50880108029231040186018802902A8
:1043300039426A868B4993A9AC4CC4EEBCAD9BCA8A
:1043400083287AE77AA66A446A657AC69368A40BDA
:10435000A40B8B487286620451A349623902310270
:1043600049A4394331433163082008807BECBDF315
:104370009D308C8E844D73EC7C2D740C638A6B8A1B
:104380007BEB6BAA634852C552C552E6D656D69708
:10439000DED8C635948FC6155267002018C24A076A
:1043A00008001020418462A79C2CAC8DBCCED54F58
:1043B000E5F1E611E5F1EE32E5D1CCEEBC8DBC8C39
:1043C000C4EDBD0EBD2FEED6FFFBFFDBFFDBDE969F
:1043D000B57252463142314241E520E10840086061
:1043E0002123190210A03184106018A020C13102CD
:1043F00041635A05938A8B288B48A3EABCCEBCAE96
:10440000B4AEB4AEB48DAC6DAC6DB46DA40B9BEA20
:1044100083076A44622559C44142390138E1414366
:10442000394331223963314308603183A5319D100E
:10443000A551A5518CAE73CB6B8A6BAA73EBA550BB
:10444000A5307C0B6B895B275AE652E5D677EF3AAD
:10445000E719AD527BED52A80840108110A21061FF
:104460001061082020C120C05A66B510CD91DDD161
:10447000EE31EE52E610EDF1EDF1DD70C4ADBC6C45
:10448000BCCDBCEDDE33FF79EEF8FF9BE6D7DEB6A0
:10449000DEB67B69522431413983420531630860BD
:1044A0000840108010A02102188020C128C23122AB
:1044B000498359E49BCBA40B8B077AA58B0793897F
:1044C0009BEA93CA93AA9BCA9BAA93698B6872C6FC
:1044D000622459E351A24962414239014142390102
:1044E000392239633142292110A073AB63296B6AE9
:1044F000A5519D107C0C6BCA73CB6BAA8CAECE748D
:104500009D0F6327632773C96BA86BA8E719DEB8F3
:10451000B59362E93184084018C118E20881084067
:1045200000001061106020C118805A66CDB1E653BA
:10453000DDF1E611EE32E5D0E5D0EDF1D54FC4EE78
:10454000C50EBD0EE695FFFBE6F8DEB7DEB6EF382A
:10455000E6D69C6D628572E7416241A339A339C4F6
:1045600020E11080210220E120A020C120A0310202
:10457000498361E49369BC8DAC0B9B687AA5728515
:1045800072A57AE78307830782E783076A65620477
:1045900051A3496241414121412038E039003901AC
:1045A0004162416241A339A329628C6E6309634A67
:1045B00073AB94AE7C2C73CB63696B898C6CA52F29
:1045C0007BC963067388842B7BE97BC9BDB3B59334
:1045D000A51152A82102108010A139C61081002017
:1045E000422731A518C22102108008006AA7CDD148
:1045F000EE74DDD1E611E5F1DD90DD90D54FD56F9C
:10460000CD4FDDF1F716FFDAEF59EF59FFDAFFBAB8
:10461000EEF68BCA8368B4CE93CB5A45396241C457
:10462000188041C5292241E528E128E128E130E14F
:10463000494259C382A6BC4CCCCDCCCDA3A98B2773
:104640007AC682E782E772A56A446A2459C451C4D3
:10465000496249624982390030A0390041205A0438
:104660007B287329942D29019CD094AF31C473AB5E
:104670003A0573CB7C0C7C2C7BEA73CA842B842B8D
:10468000842B8C4B8C2B8C4B7BE96B67A510A53155
:104690006B2A318310600860298594B1086021235A
:1046A000A53310A0190210C10860084010207B49F2
:1046B000D5D2D5F2D5B1E612DDB1D54FDD90DDB062
:1046C000DDD0CD6EA46BC5B1EF38FFFBF779EF17E6
:1046D000C5917307BD2FCD71BD309C2C732941C48A
:1046E00020C0524620C04A0628C13102392238E192
:1046F000412159827203A389C48CCCEDDD70CD0EAB
:10470000AC4B93687AC66A4459A249414942414236
:1047100041424162414138E049406A449BEB9C0B75
:10472000AC8EA46D4A045266BDD43A055B092122C1
:104730007C0D31C3AD92A5508CAD94EE9D0EA50EAF
:10474000AD2EA50E948C946B8C2A840A5AE77BCBF1
:1047500018E039C429230020528952A90000632A95
:10476000844F18E1088018E20881084020A0184012
:104770008BAADE13DDF2E612E5D1EDF2E5B0E5D06D
:10478000DDD0D5F0BD4E946B7BA9C5F3D675BD9138
:104790008BCAB4CEDE13D5B1BD0FBD0FA46E62C7F8
:1047A0006AE941C520E1398428E1310230E139016B
:1047B0004921514161A18AC6BC2AC4ACD50EDD9005
:1047C000E5F2DDD1CD0FAC4C936882C7622651A5CE
:1047D00051C459E45A048327B4ADC52FBCCDD5B11B
:1047E000D5D25A245A667BAB39A4BE1563293183CE
:1047F0007C0C52A67C0BC674AD91BDF2BE12BDF10D
:10480000BDB0AD4FB56FAD2E9CACAD4F00000000FC
:104810000001006408A510A510A50884002100006F
:104820000000000000000000000000000000000088
:104830000000000000000000000000000000000078
:104840000000000000000000000000000000000068
:104850000000000000000000000000000000000058
:104860000000000000000000000000000000000048
:104870000000000000000000004108C4190610E517
:1048800010E50842000000000000000000000000E9
:1048900000000022006308A5006300220001000060
:1048A0000000000000000000000000000000000008
:1048B00000000000000000000000000000000000F8
:1048C00000000000000000000000000000000000E8
:1048D00000000000000000000000000000000000D8
:1048E00000000000000000000000000000000000C8
:1048F000000000000000000008A410E508A410A4B7
:1049000008A410E500000000000000000000000006
:104910000000000000000042000000000000000055
:104920000000000000000000000000000000000087
:104930000000000000000000000000000000000077
:104940000800080000000000000000000000000057
:104950000000000000000000000000000000000057
:104960000000000000000000000000000000000047
:10497000000000000000002110A410A408C51927A1
:10498000088410A50842000000000000000000009C
:104990000000000000000000000000000000000017
:1049A0000000000000000000000000000000000007
:1049B000000000000000000000000000080040208F
:1049C0006841684140200000000000000000000035
:1049D00000000000000000000000000000000000D7
:1049E00000000000000000000000000000000000C7
:1049F000000000000000002208A40863088408A446
:104A0000086308840042000000000000000000006D
:104A10000000000000000000000000000000000096
:104A20000000000000000000000000000000000086
:104A300000000000000000000000180060417882C3
:104A400080828082786260412000000000000000C7
:104A50000000000000000000000000000000000056
:104A60000000000000000000000000000000000046
:104A7000000000000000002108A518C5006310C553
:104A800010A410C50021000000000000000000007C
:104A90000000000000000000000000000000000016
:104AA0000000000000000000000000000000000006
:104AB0000000000000000000282060417882808211
:104AC0008082808278626841604140201800000046
:104AD00000000000000000000000000000000000D6
:104AE00000000000000000000000000000000000C6
:104AF00000000000000000000043086310C52127EB
:104B000000630863000000000000000000000000D7
:104B10000000000000000000000000000000000095
:104B20000000000000000000000000000000000085
:104B300000000800180030205041686278828082AE
:104B40007882686158415021482150215020280026
:104B5000080000000000000000000000000000004D
:104B60000000000000000000000000000000000045
:104B70000000000000000000000100420863004344
:104B800008430000000000000000000000000000DA
:104B90000000000000000000000000000000000015
:104BA0000000000000000000000000000000000005
:104BB000180048415041504160627882808278827A
:104BC000684160415841584158415041502150205E
:104BD000402028000000000000000000000000004D
:104BE00000000000000000000000000000000000C5
:104BF00000000000000000000000000000000000B5
:104C000000000000000000000000000000000000A4
:104C10000000000000000000000000000000000094
:104C20000000000000000000000000000000000084
:104C300050216862586260627082808280826861FE
:104C400068616862686268626061604158415841A9
:104C5000582150203000000000000000000000003B
:104C60000000000000000000000000000000000044
:104C70000000000000000000000000000000000034
:104C80000000000000000000000000000000000024
:104C90000000000000000000000000000000000014
:104CA0000000000000000000000000000000000004
:104CB0006041686260626862788280827062684186
:104CC0007882788278827862706270626861684106
:104CD000604158215020200000000000000000002A
:104CE00000000000000000000000000000000000C4
:104CF00000000000000000000000000000000000B4
:104D000000000000000000000000000000000000A3
:104D10000000000000000000000000000000000093
:104D20000000000000000000000000000000200063
:104D300060416862686270828082788268417882AD
:104D400080828082808278827862788278C37924B7
:104D5000796679C7718650E31041000000000000B9
:104D60000000000000000000000000000000000043
:104D70000000000000000000000000000000000033
:104D80000000000000000000000000000000000023
:104D90000000000000000000000000000000000013
:104DA00000000000000000000000000000004800BB
:104DB00060417082788278827882684178628082ED
:104DC00080828062784181049249ABCFC5B6E71CEE
:104DD000EF9EF7BEEF9ED69A84101082000000006E
:104DE00000000000000000000000000000000000C3
:104DF00000000000000000000000000000000000B3
:104E000000000000000000000000000000000000A2
:104E10000000000000000000000000000000000092
:104E20000000000000000000000000000800582002
:104E30006041788280828082706270628082784174
:104E400078218965A34DC555E73CF7FFFFFFFFFFBC
:104E5000FFFFFFFFFFFFFFDFF79E6B6D000000000D
:104E60000000000000000000000000000000000042
:104E70000000000000000000000000000000000032
:104E80000000000000000000000000000000000022
:104E90000000000000000000000000000000000012
:104EA0000000000000000000000000003000582159
:104EB00068418082808280826841780078A292AACC
:104EC000B4D3D638EF5DFFFFFFFFFFFFFFFFFFDF2B
:104ED000FFDFFFFFFFDFFFDFFFDFCE5910410000E4
:104EE00000000000000000000000000000000000C2
:104EF00000000000000000000000000000000000B2
:104F000000000000000000000000000000000000A1
:104F10000000000000000000000000000000000091
:104F2000000000000000000000001062480058006F
:104F3000684180828082788268A2B471D679E73C29
:104F4000F7BEFFFFFFFFFFFFFFDFF7BEF79EF79EF5
:104F5000EF5CDEBAF77ECEB8ADF1CE9939E700004E
:104F60000000000000000000000000000000000041
:104F70000000000000000000000000000000000031
:104F80000000000000000000000000000000000021
:104F90000000000000000000000000000000000011
:104FA00000000000000000000000632D93CF8ACBBA
:104FB00068C38062808270219B8EFFFFFFDFFFFF4E
:104FC000FFFFFFFFFFDFF7BEF79DF79EF77DF7DEE0
:104FD000AB2CAA684C6244631B61851183EF00000F
:104FE00000000000000000000000000000000000C1
:104FF00000000000000000000000000000000000B1
:1050000000000000000000000000000000000000A0
:105010000000000000000000000000000000000090
:1050200000000000000000210021632DE73CFFFF8D
:10503000928A784180826800CDB6FFFFFFFFFFDFD4
:10504000FFDEF79EF77DEF7DEF3CD6B995915BEBE8
:1050500062269AA9130122E31202C658AD54000039
:105060000000000000000000000000000000000040
:105070000000000000000000000000000000000030
:105080000000000000000000000000000000000020
:105090000000000000000000000000000000000010
:1050A00000000000004210E518E55AECEF3CFFBE9E
:1050B000A36D702080826841F75DFFDEF7BEF79D2B
:1050C000F79EF79DDEDABDF78C714B680AE1638DC0
:1050D00082EC69C60AE22BC22AE143838C50086144
:1050E00000000000000000000000000000000000C0
:1050F00000000000000000000000000000000000B0
:10510000000000000000000000000000000000009F
:10511000000000000000000000000000000000008F
:1051200000000000088318E508A43A09DEFBF79D9B
:10513000B4517000784181E7F79EF7BEFFDEEF5C67
:10514000CE38BDD78C506B6D6B6D5B4C532B6B8D1C
:1051500073CF6BAE4B4A32E623A223622945084146
:10516000000000000000000000000000000000003F
:10517000000000000000000000200000000000000F
:10518000000000000000000000000000000000001F
:10519000000000000000000000000000000000000F
:1051A00000000021108410A410A410E5D69AFFDEA0
:1051B000CD5568006800C4D3EF3CCE79BDD7B5B6F5
:1051C000A51373CEA5146B4D6B4D6B6D8C71AD55E6
:1051D000AD5594B2738E530B118200C00040000095
:1051E00000000000000000000000000000000000BF
:1051F00000000000000108C510E5000000000000EC
:10520000000000000000000000000000000000009E
:10521000000000000000000000000000000000008E
:1052200000000021006318C508830042A514A534BE
:105230007B0C682068416AEB9CF3BDD6D6BAF79E1A
:10524000FFDFC6176B6D7BEF632C94B284306B6D00
:105250006B6D8430A51473AE18C30000000000000D
:10526000000000000000000000000000000000003E
:105270000000002210C53A4C29A910A5000000002A
:10528000000000000000000000000000000000001E
:10529000000000000000000000000000000000000E
:1052A000000000010884108410C410E510C3000041
:1052B000102068416041A4D3DEDBEF7DF7BEFFDF45
:1052C000FFDFFFDF8C715AEB632C7BEFA534D69A9E
:1052D000D6BA9D136B4D841021040000000000001D
:1052E00000000000000000000000000000000000BE
:1052F0000000002110A510A410A4088400000000E4
:10530000000000000000000000000000000000009D
:10531000000000000000000000000000000000008D
:105320000000000000220063086410A400210000B7
:10533000080050207104C5F7E73CF79EF7BEF7BEA2
:10534000F7BEEF5DC6384228840FD6BAE73CE73C8B
:10535000F79EFFFFD6BA6B8D2945000000000000C4
:10536000000000000000000000000000000000003D
:1053700000000022088408A508A508840000000099
:10538000000000000000000000000000000000001D
:10539000000000000000000000000000000000000D
:1053A0000000000000000021002200420000000078
:1053B000000030007165CE18E73CEF7DEF7DF79E71
:1053C000EF7D8410BDD752CA9CD3D6BAEF7DF79E2D
:1053D000F77DEF7DF79EA53421240020000000001A
:1053E00000000000000000000000000000000000BD
:1053F00000000000002200640063002100000000A3
:10540000000000000000000000000000000000009C
:10541000000000000000000000000000000000008C
:10542000000000000000000000000000000000007C
:10543000000010006145CE18E73CEF5DEF5DEF7DA9
:10544000C6183186630C420842089492DEFBEF7D59
:10545000EF7DEF5DE71CC618294500000000000045
:10546000000000000000000000000000000000003C
:10547000000000000000000000000000000000002C
:10548000000000000000000000000000000000001C
:10549000000000000000000000000000000000000C
:1054A00000000000000000000000000000000000FC
:1054B000000000004965BDB6DEDBE73CE73CEF5D80
:1054C000BDD752AA10A231C639E74A49D69AE73C5D
:1054D000E73CE71CD6BABDD721240000000000003D
:1054E00000000000000000000000000000000000BC
:1054F00000000000000000000000000000000000AC
:10550000000000000000000000000000000000009B
:10551000000000000000000000000000000000008B
:10552000000000000000000000000000000000007B
:105530000000630CEF9EFFDFE71CC638DEFBDEFBDE
:10554000CE59AD555ACB190484518C71D6BADEDBD5
:10555000DEDBD69ACE598C7110A20000000000004C
:10556000000000000000000000000000000000003B
:10557000000000000000000000000000000000002B
:10558000000000000000000000000000000000001B
:10559000000000000000000000000000000000000B
:1055A00000000000000000000000000000000000FB
:1055B0002945E71CFFFFFFFFFFDFC617C638D6BA35
:1055C000D677BD6FB4EB93C6B4EABD92BDD6C6180C
:1055D000C618C618A55431C600000000000000001F
:1055E00000000000000000000000000000000000BB
:1055F0000000100020C321451061000000000000E1
:10560000000000000000000000000000000000009A
:10561000000000000000000000000000000000008A
:10562000000000000000000000000000000000007A
:105630004A69F7BEFFFFFFFFFFFFDEDAAD75DE321E
:10564000E5C2F686FF93FFF7FFD6FF51E64DBD9208
:10565000B596840F21030000000000000000000048
:105660000000000000000000000000000000180022
:105670006061A0A3E575FFFFABCF402010000000E4
:10568000000000000000000000000000000000001A
:10569000000000000000000000000000000000000A
:1056A00000000000000000000000000000000000FA
:1056B00039E7F79DF7BEF7BEFFDED6999490E60C6A
:1056C000EE45EE20EE83F72DF772F772FF70C56C92
:1056D000BDF794B229450000000000000000000062
:1056E00000000000000000000000000021459B8E2B
:1056F000A0C49882D555D67999C79000818639C7BC
:105700000000000000000000000000000000000099
:105710000000000000000000000000000000000089
:1057200000000000000000000841084100000000E7
:1057300010828C71F79DF7BEDEDBA534AD75CD8E82
:10574000F66AEE44EE40EE82F70BF72CDE0ABDB4AB
:10575000D6BAF79ED699420700000000000000006C
:10576000000010A200000000000000417BEFF7BE27
:10577000B26A70414165294530008186DE18D6BA8B
:10578000296500000000000000000000000000008B
:105790000000000000000000000000000000000009
:1057A00000000000000000002965108200000000D9
:1057B00000000841738DB596BDD7D6BAD69AB59577
:1057C000CD8CF68BEE43EE40EE83E607B571C6391D
:1057D000E71CF79EFFFFE71B2965000000000000A3
:1057E0000000318618E3000000001861ACB2FFFF32
:1057F000BCF308000000000000003165BDF7F7BEF3
:10580000A4100000000000000000000000000000E4
:105810000000000000000000000000000000000088
:1058200000000000000031A6422800000000000037
:10583000000039A6D6BAF79EF7BEF79EE71CC63819
:10584000A514D5ABF68BEE02E5A0BD2CBDD7DEDBF3
:10585000EF7DFFDFFFFFFFFFCE5808610000000073
:10586000000000007BEF18C300002000A9E7FF5DE7
:105870005AEB00000000000000000000494488A32B
:105880008841282000000000000000000000000007
:105890000000000000000000000000000000000008
:1058A0000000000031868C7121040000000000001F
:1058B0000861A533FFFFFFFFFFFFF7BEEF7DD6BAFC
:1058C000BDD79CD2DDABE62CCD4BAD76CE79EF3C8F
:1058D000F7BEFFDFFFDFFFFFFFFF7BEE00000000F2
:1058E0000000000039C7A51421044882A904DD96F0
:1058F000212400000000000000000000080088C310
:10590000A1665082000000000000000000000000BE
:105910000000000000000000000000000000000087
:10592000108252AA94924A69000000000000000010
:105930004A48FFFFFFDFFFDFFFDFFFDFF79EE73CA7
:10594000CE79B5969CF2A4F1AD55C638DEFBF79E34
:10595000FFDFFFDFFFDFFFDFFFDFFFDE21030000F0
:105960000000000000005AEB8410ACB2B28A8966D5
:105970000820000000000000000000000020CDF71B
:10598000F75D838E000000000000000000000000B2
:10599000000000000000000000000000000010A255
:1059A0006B6D630C18E300000000000000000000B5
:1059B000BDD6FFFFFFDFFFDFFFDFFFDFF7BEEF7DBD
:1059C000E71CCE79BDF7BDD7C638DEDBEF5DF7BE8D
:1059D000FFDFFFDFFFDFFFDFFFDFFFFF9CF20000E5
:1059E00000000000000000002945EF9EDD3450213A
:1059F0000000000000000000000000001082B5D789
:105A0000DF1C8430000000000000000000000000E7
:105A100000000000000000000000000018815A870C
:105A20007B48000000000000000000000000294446
:105A3000FFDFF7BEF7BEF7BEF7BEF7BEF7BEF79EB5
:105A4000EF7DE71CDEDBDEDBDEFCEF5DF79EF7BE05
:105A5000F7BEF7BEF7BEF7BEFFDFFFBEEF3C10811B
:105A6000000000000000000041C7FFFFEEBA72AA6C
:105A700000000000000000000000000000004208DC
:105A80006B6D2965000000000000000000000000B0
:105A900000000000000000000000002162C939A5DC
:105AA00062640000086129450861000000007BAEC7
:105AB000FFDFF7BEF7BEF7BEF7BEF7BEF7BEF7BE15
:105AC000F79EEF7DEF5DEF5DEF7DF79EF7BEF7BED2
:105AD000F7BEF7BEF7BEF7BEF7BEF7BEF79E62EAA7
:105AE0000000000018E319046082DD75E73C738E46
:105AF00031A60000000000000000000000000000CF
:105B00000020000000000000000000000000000075
:105B10000000000000000000000021455248312232
:105B20006AC6318618E30000000000000000BDD600
:105B3000F7BEF79EF79EF79EF79EF79EF79EF79E9D
:105B4000F79EF79EF79EF79EF79EF79EF7BEF79E8D
:105B5000F79EF79EF79EF79EF79EF79EF79E9CF2A4
:105B600000000000000000418041BB2DBDF710C3C4
:105B7000528A0861000000000000000000000000E0
:105B80000000000000000000000000000000000015
:105B9000000000000000000000202124108272E6B6
:105BA00041C4000000000000000000000020DEFBF7
:105BB000F79EEF7EF79DEF7DEF9DF79EF79EF79E98
:105BC000F79EF79EF79EF79EF79EF79EF79EF79E2D
:105BD000F79EF79EF79EF79EF79EF79EF79EBDF7FE
:105BE00000000000000010619082A986830C18E379
:105BF00010A218C300000000000000000000000018
:105C00000000000000000000000000000000000094
:105C100000000000000000000000086110A26A847B
:105C200008400000000000000000000020E2EF7DBE
:105C3000EF7DEF7DEF7DEF7DEF7DEF7DEF7DEF7D04
:105C4000EF9EEF7DEF9EF79EF79EF79EEF9DEF7D17
:105C5000EF7DEF7DEF7DEF7DEF7DEF7DEF7DCE7909
:105C600010A2000000004228CCD3908238000882A5
:105C700018C3000008400000000000000000000001
:105C80000000000000000000000000000000000014
:105C90000000000000000000000000003166AD328E
:105CA00018A30000000000000000000039E6F79E85
:105CB000EF7DEF7DEF5DEF7DEF7DEF7DEF7DEF7DA4
:105CC000EF7DEF7DEF7DEF7DEF7DEF7DEF7DEF7D74
:105CD000EF7DEF7DEF7DEF7DEF7DEF7DEF7DD6BA40
:105CE00021030000000073CFF7BEA30C18000000D2
:105CF0000000314239623142000000000000000023
:105D0000000000000000000018C419260000000078
:105D1000000000000000000010E12B046C6DE6DCC8
:105D2000546922A400400000004000004A28EF7E91
:105D3000EF5DEF5DEF5DEF5DEF5DEF5DEF5DEF5D03
:105D4000EF5DEF7DEF7DEF7DEF7DEF7DEF5DEF5D53
:105D5000EF5DEF5DEF5DEF5DEF5DEF5DEF7DD69A9F
:105D60002104190408009BCFFFFFB5550000000077
:105D700000006AA51060520300000000000000004F
:105D8000000000000000000008A410C50000000092
:105D900000000000000032E5552845263D45354409
:105DA00045A74DA734E5118218A329453184EF7D1D
:105DB000EF5DEF5DEF5DE73CE75DEF5DEF5DEF5DB4
:105DC000EF5DEF5DEF5DEF7DEF5DEF5DEF5DEF5D53
:105DD000EF5DE75DEF5DE73CE73CEF5DEF5DD69A99
:105DE0004A4831C720209062EF7D8C5100000000AE
:105DF00000005A6420C149C30000000000000000F8
:105E00000000000000000863212608840000000054
:105E10000000000033264D073D06558755E89ED209
:105E2000DFBBF7FECF794D6911A341E852A9E71C0A
:105E3000E73CE73CE71CE71CE71CE71CE73CE73CCA
:105E4000EF5DEF5DEF5DEF5DEF5DEF5DE73CDEFC8D
:105E5000DEFCE71CE71CE71CE71CE73CEF5DD69A7D
:105E600052AA214548009800BBCF52CB0000000049
:105E7000000031427B26108100000000000000007D
:105E8000000000000000002200631927000000004D
:105E9000000019A34CA83CC54D255DE97E8EAF35A9
:105EA000BF57D79AEFDDCF99344629A54A69D6BAAC
:105EB000E71CDEFBDEDBD6BAD6BADEDBDEDBDEFBE2
:105EC000E71CE73CE73CEF5DE75DDF1CD6BBD6BBDC
:105ED000D6BBCE7AD69AD6DADEDBE71CE71CC6182C
:105EE000422808825000980098A310C300000000C8
:105EF000000020E17B050000000000000000000021
:105F00000000000000000000088408840000000079
:105F100000003B4744C73CC54D253D86768E96F232
:105F2000A734C777DFBBDF9A766E098239C7AD76B3
:105F3000CE7BCE5ACE5AC639C63AC65ACE79D69AF2
:105F4000DEDBDEFBE71CE73CE73CD6BBCE7ACE7A55
:105F5000C65ABDF9BE19C659CE59CE5ACE5A9CF46E
:105F60002124000020005800500000000000000024
:105F70000041736B7BAC00000000000000000000DB
:105F800000000000000000000021002100000000CF
:105F900008A143E84CE745274D6845A87EAF8EF140
:105FA000A713AF35CF79CF78768E128420E0A4681E
:105FB000CD88CD66CD46CD67CD6BC570BDD6C61933
:105FC000CE79D6BADEFBE71CDEFBCE7ABDF8B5D9BA
:105FD000AD76AD0FC52ACD47CD46CD66CD6893E6EB
:105FE000106000000000080000000000082040E3EE
:105FF00071A6BE18D65958C32082000000000000C8
:106000000000000000000000000000000000000090
:1060100010E244083C863CC63D062D254DE85E6BEB
:106020007ECF9712B75696D245C964C4CDCAEF3613
:10603000FF9AFF79F713DDE5D560D541CD03BD2E7D
:10604000B5B7C638CE79D6BACE79BDF8A577ACCC7F
:10605000BCA4C501D540E64AF736FF99F779EEF3BF
:10606000CD6572A000000000000018618A07A20739
:10607000A9C6AA07B1E6B185A12459040000000011
:106080000000000000000000000000000000000010
:1060900008A14C094CC834843CE53D2655CA5E2C09
:1060A0007EAF7E8E766D3D863D68A692F7BAFFBACA
:1060B000FFBAFFBAFFBAFFBBE628DD80D560D50086
:1060C000C50AB575BDD7BDF7BDD7B575C4C6CCC0BB
:1060D000CD20D581EED0FFBBFF99FF99FFB9FFBA64
:1060E000F799EE88AC20082010419A48A9E6B2063C
:1060F000BA26C289EDB6F71CF6DBCB2C6945000049
:10610000000000000000000000000000000000008F
:10611000000053EA7D8F346434A434C43D263D47E7
:10612000354535452D2435254549C6D1F754F75415
:10613000F754F754F734F734F734D580D560DD6081
:10614000DCE0B4EDA534A534A534BCCAD4E0D52038
:10615000D560DDC4F735F733F733F733F753F7532B
:10616000F774EF0FEE61834079C8A208A985BAA938
:10617000C2A9E534EDD6F679FF3CFFBECB0B38C3A0
:10618000000000000000000000000000000000000F
:10619000000019C3B6965CEA34433CA43CC434E422
:1061A00034E434E434E434E5658ADECDEEEDEEED3E
:1061B000EECDEEADEEADEE8DEE8DD561D560DD6050
:1061C000DD40CCC294B294B29CB0CCA2D500D540F4
:1061D000D540DDA4EEAEEE8DEEADEECDEECDEEED26
:1061E000EEEDEEEBE641D5239A29A1A5B1A5B18547
:1061F000CAEBE451E514EDD6F699FF9EE51499E754
:10620000000000000000000000000000000000008E
:106210000000000053AACF18756C3C6434842C84B1
:106220002CA434A434A444C6ADC4E685E667E6676E
:10623000E647E627E607E607DDC4D540D540D5604A
:10624000D540DCE09C908C92A48DD4C0D500D520A4
:10625000D540D560DDE5E606E626E646E666E68656
:10626000E686E663E660BC089A08A1C6A9E6B1A680
:10627000D34DE451E472ED55EDF7F6FBE575B24907
:1062800020410000000000000000000000000000AD
:106290000000000000204B28A63396104CA82424B0
:1062A00024243C843C24AD42E600DE00DDE1DDE157
:1062B000DDC1DDA1DD81DD61D520D520D520D54032
:1062C000DD20D4A0734B6B4C7B69CC80D500D5000E
:1062D000D520D520DD60DD81DDA1DDC1DDE1E60178
:1062E000E601E600E640AB499A07A1E7AA08A9A69D
:1062F000C249D32DDBAEE4B2ED75F679CAEBBAAA8A
:1063000038820000000000000000000000000000D3
:10631000000000000020008011A32B452C451C45E7
:1063200013E31283094162A0B4A0C4E0C4C0C4A0B6
:10633000C4A0C480C460C460C440C440C460C4601D
:10634000BC00394008200020002051A0B400BC400F
:10635000C440C460C460C480C4A0C4A0C4C0C4E0BD
:10636000CCE0CD00C4C09AA89A089144A165A1656B
:10637000B207CB0CD32DDC31E492D36DB1A6B2CBF6
:1063800030A20000000000000000000021042104F1
:1063900021042104212421642A263AE733472B666D
:1063A0002B262A8621C531A44A044A244A044A04D9
:1063B0004A044A044A044A044A044A044A044A046D
:1063C00049E42944210421042104294449E44A04DC
:1063D0004A044A044A044A044A044A044A044A044D
:1063E0004A2452244A2371C6C45199C79964A144CE
:1063F000A9A6B24AB9E8B9E8B986B144A9A6AA8A59
:106400003186190421042104210421042965296508
:106410002965296529654AA8742E6C2D53A93B4727
:106420003B47436743276B667B857B657B657B6565
:106430007B467B46734573257325732573257B2522
:106440007B4572E54A484A48524872E57B257B25E0
:106450007325732573257B457B457B657B657B6554
:106460007B657B857B858345C4B3AB4C9123994485
:10647000A164A165A145A944A944A944A9A792ABD7
:1064800021242965296529652965296539C739C701
:1064900039C731A652EA8CB1742D53A94B884B8869
:1064A0004BA84BA84BA953A97C088C288C298C0994
:1064B0008C098C098BE98BE98BC88BC78BC78BC781
:1064C0008BC78BA6738D738E738C8B8683A683A7E5
:1064D00083A78BC78BE88BE98C098C098C098C29E5
:1064E0008C298C278C078C06934ADDD7AAEB914424
:1064F000996499449924A144A144A14599E84A0882
:1065000031A639C739C739C739C739C742284228E0
:1065100042084A898490742D53AA5BCA5BEA53EA05
:1065200053EA53EA5BEA53EA6C2C948C9CAD9C8D45
:106530009C8D9C8D9C8D9C8D9C6C942894089408BB
:10654000940893E87BCF7BCF7BCE8BC993E89408EC
:10655000940894299C8C9C8C9C8C9C8C9C8C9CACD2
:106560009CAC9CAC94689C685AA8938ED595BBEF64
:106570009A07912488E49944994491A66228420894
:10658000422842284228422842284228528A528AD7
:106590004A896BCD848F640B640B642B642C644C30
:1065A000644B644B644B644C6C4D94CFA510A4F0C9
:1065B000A4F0A4F0A4F0A4F0A4F19C6A9C6A9C6AE4
:1065C0009C49942D84318C518C30942D9C299C4A6B
:1065D0009C6A9C8BA4F0A4F0A4F0A4F0A4F0A510F5
:1065E000A510A4EF9CAA942A52695A288289A30C68
:1065F000A2CA814581258903816569E752495269AB
:10660000528A528A528A528A528A528A5AEB5AEBD8
:106610005B0B744E7C8E6C4D6C6D6C8D7CAF7CCF47
:106620007CF07CEF7CCE6CAD748E9511AD53AD5388
:10663000AD53AD53AD53AD54A50FA4ABA4ABA48BD8
:106640009C6D949194B294B294B294919C6CA48BEE
:10665000A4ABA4ACAD31AD53AD53AD53AD53AD53BD
:10666000AD53AD0FA4AB6B2B5ACB5A6961E771A642
:10667000812490C390C378E3698662085A8A5ACB12
:106680005AEB5AEB5AEB5AEB5AEB5AEB6B4D6B4DFC
:10669000738E7C8F7C8E7CAE7CCE74CE7D0F8530ED
:1066A0008D5195529D738D317CEF8CEFAD52B59528
:1066B000B595B5B5B595AD30ACEDACEDACCDA4CFE1
:1066C0009CF3A514A534A534A534A5149CF3A4CF3C
:1066D000A4CDACEDACEDAD52B595B595B595B594F1
:1066E000AD309C8D736D6B4D6B4D736D8BEF8BEF80
:1066F000834D72CB72CB7AEB7AEB7B2C6B4D6B4D6F
:106700006B4D6B4D6B4D6B4D6B4D6B4D73AE73AEF7
:106710007BEF8CD18D118D118D318D3195729D93C3
:10672000A594A5B4ADB5ADB595727C908C0EA4F0D2
:10673000B530B530AD2FAD0FAD10AD31AD33AD557A
:10674000AD75AD75B596B596B596AD75AD75AD55DE
:10675000AD33AD11AD10AD0FAD2FB530AD30A4EFF1
:10676000840E73AE73AE73AE7BAE8C108C10838EC2
:10677000838D838D836D838D838D838E7BAE73AE8E
:1067800073AE73AE73AE73AE73AE73AE84308430DB
:10679000843094F295529551955195729DB3A5D43C
:1067A000ADD5B5F6B5F6BDF7A5B484918C71AD55F0
:1067B000B596B596B596B596B596B596B5B6B5B641
:1067C000BDD7BDD7BDD7BDD7BDD7BDD7BDD7B5B652
:1067D000B5B6B5B6B596B596B596B595B596A55573
:1067E0008C5184108410941094308C3083EF83EF9C
:1067F0008410841084108410841083EF841084101B
:10680000843084308430843084308430741674173B
:1068100063B75BB8641863F763D66C187C7A7C59ED
:10682000849A9D3AC5FADDF9D536E576FDF8ED97FF
:10683000E4F7DC96E455EC74ECF5F576F575E4D206
:10684000BB2BA22799C79A09AB0FBBF6AB989B99B4
:10685000A3FAB4BCB3FBBBFBBC1BC41BCC3BCC1B23
:10686000C43CCC5DCC3CCC1BC43BC45BC4DEB49DFF
:106870006BF6743863B863D96C195BB76C187C7AA3
:106880007C599D3CAD9CCE3DDE1BCD56EDF9FE5AAC
:10689000FE18FDD8FD59FD18FCF8F4D6ED15ED55A0
:1068A000FDF7FDF7FDF7E450AA8991C7816789EBF1
:1068B000AB33B3F8AC19AC1ACCBDB3BABC3BBC1A01
:1068C000CC3BCC3CCC7CCC9DD45CCC3BCC5BCC9C42
:1068D000BC9CBCFD63965B7763D9741B6BDA741A3E
:1068E0008C9C8CDC951CB61EDE9EEE7CDD37ED7735
:1068F000FEFBFEBAFE7AFDFAEC35E3B4FCF8FDDAF5
:10690000FE19F5F9FE39FE59FE58FE78FD74D36B79
:10691000B20691049147A26EBC17D55DC49CBC5BC6
:10692000B3DAC41BCC1BCC5CC49CC49CCC7CCC7C9C
:10693000CC9CCCDCC53CBD3C63D86BF86C1A6BDAE4
:106940006BB973D97BF99CDBBDFDE71FFEFEDD163D
:10695000ECD5F557FEBBFEBBFE9BCBF2A1EBA18AAB
:10696000AA0CCB71ECD6FD98FDB9FDB8E4D4D410D7
:10697000EC30EBCDDAEAD2A8A1238925924DC45799
:10698000C47AB419C45BCC5BD47CCC9CCCDCC4BCD6
:10699000CCBDCCBDD4DCCD1CDDFED61D6C186BF897
:1069A0006BD87C3A845B94BBB5BDCE5EEF1EFF5FB7
:1069B000DD57E4B6F4B6F4D5FD78FD98BBD179A8DF
:1069C00079469188A148B1CBCAD0EBD4DB93EBF4E4
:1069D000DB10B9EBB9C9C209CA49DAAAD289B1C672
:1069E0009166A26CCC77C49ACCBBCCBCCCBCCCBCE2
:1069F000D4DDCCBDCCBCCCDCCCFCCD3CEE9FEEFFE2
:106A00007419741894DCA53D9CDBBDDDE6FEE6BA86
:106A1000E616D532B32EEC33EC13DB50B28D816821
:106A2000588350A3610371049146B1A9B9ECD2B067
:106A3000CA6FC1EDC1CCC18AB969B147A926B9A74E
:106A4000C207BA27B206A208AB0FDCF9DCFBD4DB25
:106A5000CCDBCCDCDD1EDCFDD4DDCCFCCD1CD57D5F
:106A6000D5DDDE1D841A841A8C7C94BBBDDDE6DD89
:106A7000E615DD4FCC6ABB67B2A8BA6ADAEEB9EAAE
:106A8000914768A460C371A582678A878A269A079E
:106A9000B22ACA4DC20CB9ABA107A948B168A9274F
:106AA000B14898E69945A1A6A1A699669988C350D0
:106AB000F55AE55BD4FCCCDCD51DD4FCCCFCCCFC7D
:106AC000CCFCD55DDDBECD7D83FB8C1B841A9CBBCD
:106AD000C61CDE78E5F0ED8CDCC8D427CBA8C2E874
:106AE000B9E8A98880E468E381E6A36BB3EBBC2C2A
:106AF000B40BA329B2A9BA4ACA6CC20BA96888A56B
:106B00009906B1C9A989A148910588E489259125EB
:106B100091059146AACEE519ED9CD51CD51CD4FC57
:106B2000CCFCD51DCCFCD53DC51DC53D949D945CCC
:106B30008C5BAD3BC5D8CDB2E5EDE5EAEE0BE5CB20
:106B4000F5ECF54DC32999C69247B36BDCD0E5103F
:106B5000E551E550DD4FE550CC2DB30AB26ACA8C41
:106B6000C24C990788A588E59967A1C9A1A889069B
:106B700078A57064708489059147AA8DE519E57C34
:106B8000D51CD53DD51CD51DD51DD55EC55EC57D95
:106B9000949C9CBD949BBDBBC553C54DEE2CFECCB7
:106BA000FECDFEAEF62CD4C9BBCAE4D0FDF4FE5532
:106BB000FE14FE54FE34FE54FE54FE53FE74B38B9A
:106BC000A268B24ABA4BBA2B996780E5708380E518
:106BD00088E699688928810770C578C491678946D5
:106BE000AAEEDD19DD7CCD1DD53DD55ECD3DC51DA3
:106BF000C57DC5BD8C7B9CDCA53BB557AC8CDDCC85
:106C0000F6ADFEEDFEAEE58BBC06C449F632FE9550
:106C1000FE96FE54FE75FE94FEB5F674FED5FE7427
:106C2000BC4CA329CC0EAACA99C8A1C8A9E9A188BD
:106C3000910680A5788470857885788578E6688463
:106C400060A371257927B310E55BD57DD57ECD5E38
:106C5000CD7DD5DDCDDDCE1D9CDD94BAAD7BAD35D2
:106C6000B4AAE62BF6ACEE8CE5CACCC8CC69FE52D1
:106C7000FEB4F694FE75FE75FE95F6B5F695F6B57E
:106C8000FEB5D52FABA9F5B2ED72C3CC9A27898694
:106C900091A799E999E989A889C98988914780E6E6
:106CA00070A570E5712560A368A47948CC56EDFE07
:106CB000D5BED5FFDE1EDE3DEEFFEF1F8C7C8C7A4D
:106CC000A51AB554BD4BE64AF6CDEE8CEE2BBCA80A
:106CD000FE32FE95FE74FEB5FE95FE96FE55FE75DF
:106CE000FE95FE95FEB5EDF2F5D2FDD2F570D44DD0
:106CF000AB099288718550C340A26165698681E7BE
:106D000089C791A7896778E5608468E558A45084AD
:106D1000820CEDBBEE9FE69EF6DEFF1EE69BDE7B61
:106D20007C1B8C7AAD39BD53C5ABFF0DFEEEF6AEC4
:106D3000D569D56BFE94FEB6FE94F633EDB2E571DF
:106D4000FE55FE75FE95FEB5FE74F633FE12F5B1E6
:106D5000E50EBBEAABEB69E538E230E320611820D1
:106D600040C150E260E26924794589A8816770E5F5
:106D700060C558A458A5A350F6FEF73ED619BD35F8
:106D8000AD14ACF38CBB94BAC599CD93DE4EFF70B5
:106D9000EE8EF68FC4CAEDCFFE94CCAEA3899327B6
:106DA0009347ABCAE591FE95F673F693FE94FE53B6
:106DB000FDF2F5B1DCEEC4AE834A736DB597CE9BA0
:106DC000D6BA8BCD6A4692E8616448C248C258C3BD
:106DD000896791887907606448226186D5D6C5B5F0
:106DE000B514BD55AD13ACF38C7A9CFAC598CD7231
:106DF000EEB0FF0FF68FEE0EB428FE52B3A9B3CA61
:106E0000DD30E591EDD1EDD1FDF2FE13FE93F67389
:106E1000FE94FE73FE12F5B1DD2F934A9430B5D97E
:106E20006BD27C74D71CFFFDD592CCCF9B6A61845A
:106E3000492348E370E48967916770C448216A0771
:106E4000CD94BD94B554BD95BD95BD74843A9478E8
:106E5000C5B8CDB3F6D1F6CEF68FBC89B3E7E54E13
:106E6000D48CFE34F5B3E531E50FED70F571F5D254
:106E7000F632F653FE94FE73F612EDD1D4EF934C36
:106E8000CDD929AA0005194863AEF79CD5B3DD51C9
:106E9000D4EF8AA761A4594358C292079185790318
:106EA00050E2B491C574ACF2AD54AD74B554BD7438
:106EB0008C9B8C78C5F9C5B2F6F1FECEF66E9303C5
:106EC000ABA7E54FF5B1FDB2ED31DCCFD4AED48D3B
:106ED000D46DE530EDD1F632FE53F652FE53F5F2A5
:106EE000DD10D533BD1620E7000400026B6DD636E9
:106EF000CD30FE13FE13C42C7A2571A4612289E5DE
:106F0000AA4768817A68CD95BD34C575B53494704B
:106F10008C2F83CE8CFC8CB9BDB9C5B3EE6FFEADA2
:106F2000EDCD7A20A347F591FDD2F571E4EFC42CA5
:106F3000ABAAA369BBCAC40BE4EEF5B1FE32FE7383
:106F4000FE73FE33E571EDF5D5D7730D3106622A78
:106F5000C4D2C48FFDF3FDF2FDF1E54FAB698A4564
:106F600071828183AA2660609BAEC595BD14C5342D
:106F7000B4D2D5D6AD137BAE743A7C79A538CDF5B5
:106F8000E60DFE6CD4E9824192C5ED71FDB2ED7162
:106F9000A38972456A26832AA3CCA369BC0BED7032
:106FA000F5F2FE53FE54F613F5D2EDF4EE36CD5362
:106FB000D555D513DCF1F5B2FDB2F5B1F5B0ED6FF5
:106FC000BBCAB328A2C69A04A2067103BCD2BD757F
:106FD000C555BCB2A3ADBC91D5F7B5755B9A73D955
:106FE0009CB8CDB6DD6BF5C9D4669AC279E2DD30C6
:106FF000EDB38B2930A05227B556A5158C72AD1272
:10700000B46DC4ADF5F2FE12FE54FE54FE54EDF321
:10701000F634F634EDB3F5B3FE13F5D2F5B2FDB1A7
:10702000ED6FED4FBBEBD44DC36991C489A58A695F
:10703000C513B513C534BCD2BC2FB40EC533CDD6E1
:1070400063BB73DA9478BD55BC47F568D446B34446
:107050006960B42CBCAF28605247FFFF9D58196986
:1070600011066B8EC5D4BCEEE54FFDF2FE95FE75A4
:10707000F654FE95EE13F633EDB2F5B2F5D1FDD22E
:10708000F5B1F570F56FED4FAB89926691C4792239
:1070900092888B0B9C0FB534BD35C534D554B42FB5
:1070A000AC0ED5B56B9B73FB94BABD56BC68F5A905
:1070B000CC05BB45696072258B2A2060D679F7DF45
:1070C000426D0045004410E4A532DE34ED91F5B187
:1070D000FE54FE74FE33FE54FE95FE54FE34FDF362
:1070E000FDF2F571FD91F570FD6FE4EEA32960E10D
:1070F00071226902930B9BCF6AEA9CB1B555A493A8
:10710000A472C514B3EECC6F6B7A7C1AA53BB53470
:10711000D54CF58ACBC5BB467161616282C96247B5
:10712000F71BF79F7BF210850002528AB552DE13DF
:10713000EDD2FDF3F633F654FE34FE54FE54FE74E5
:10714000F633F5F2FD91FD91FD70FD90ED0EDCAD95
:10715000A2E850C06922612393AE9C515AA9842FA2
:10716000AD5594737BD1A493DD54C44F635773B76B
:10717000A539C5B5E5CDED28C385B2E59264CC6EE1
:10718000C4AFDDD4DE15FF5BDE18ACB29BF0B4B14A
:10719000DDB3EDF2F612F5F2FE54FEF7FE96F6338D
:1071A000FE73FE32F632EDD1F571ECCFDC8DED2FB2
:1071B000ED2FD46D8A46404048A04902A471A4B284
:1071C0004A687BEFA5367BF36BF36BB19C52C555D8
:1071D00073778C17AD36CDB2E5CCDCE7C385AAA4B6
:1071E000A2A5AB69ABAAF654EE14CD11CD12BCB07A
:1071F000D574F636FE55EDF2FE33FE74FE95FED6DE
:10720000FE75FE33F5D1E590F652EDD0F570BB89F1
:10721000B388E54FE52FC40B8A4650C172058B0A2F
:10722000ACF2AD136B2B7BAE9CD47C137C556BF313
:107230007BD2A4D573359436BD33CD8FE589CC642C
:10724000D427B2E49263D4AD8263CCCDFE75FE96B2
:10725000F635FE96FE97FE55FE54FE54FE53FE7321
:10726000FEB5FE74FDF2D4AD8A64DD0EFE33FE94ED
:10727000E50EDCCDFE73F5F2E550B3CB71C472259B
:10728000E572D552ACD1B57483EE7BAE9494843361
:107290008C967C34845584357B549C75BD51CD6B64
:1072A000DD88D4A5E4A9B2E589C1D44CE52EA36755
:1072B000FE13FE14FE34F634F614F5F3F5D2F6128E
:1072C000F633FE73DDB09306B368BB8AE4EFFE7558
:1072D000FDF3D46CC40AFE12FE53F5F2CCAE9B282B
:1072E00072047A65EDB3D552ACF18C4F83CD83EF48
:1072F0009CB49495845474147C357C568C15ACF4F1
:10730000C58FCD8ADD87ED88E4A9A26489829A457C
:10731000ED50B389C3CCFDB3EDB2F5F3F5D2FDF377
:10732000F5D2FDF1FDF1F5F0DD4EB3C9D42CFD32FF
:10733000FDF5EC6FC30ABAE9FDB2FE33F5F1EDB02D
:10734000CC8D92C77A448AE7F635D5939C4F6B4C27
:10735000945083EF83F18C5484348C957C347C5529
:107360009CB5BD95CDEEDDEADDA7FE2BD408AA24A1
:1073700099A48963A2A6E4EF9A87DC8FED71ED7082
:10738000F591F590F590FDB0ED6FF5B0FE74FE95BA
:10739000FDB4EC2FCB2BC2E9CB0AFD31FE13FE333B
:1073A000F5F1E54FBBEA82458265ABEBF656C512B7
:1073B000942F8C0F94507BAE84117BF184748CB528
:1073C00094D68CB5A4F6CE16DE4FE60AEE0AFE2C55
:1073D000CB66C285A9A4912370E0A2C7C3ACAAE87A
:1073E000DCCEED4FED4FF56FF54FED0FDCADED3031
:1073F000E4EFCBABB247C288D36BDC0DFD51FDF29D
:10740000F612F611F5D1D4CEA34982458285C4AED9
:10741000E636B4D29C519C927BADA4F2C5F7A5147C
:107420008C737BF284338C74BD77DE57EE90DDE98C
:10743000FEADFE0CC325D2E7B9A4A123892270C0FA
:107440008963920581E3BBC9D46BDCADE4CEED0F5B
:10745000D48EC3EBB329BB29D36BEC0DEC6EF530A6
:10746000FDB1F5F1F611F5F1E570C44C92A7826615
:1074700092E6DD92EE77C5749430A4D39450C5B5EE
:10748000B554CDF7CE19C619B577AD55C5B6E6B723
:10749000E64EE60BFF10EE0DC304DB07C1C5A923C2
:1074A000990390E280807080588059009AE7BBCAA7
:1074B000CC2CDCCFF591FDB1F570F550F52FF52F03
:1074C000F570FDD1FE12F611F631EDD1DD2FA36975
:1074D00082458AA6ABA9F612F695D5B3A470ACD2B4
:1074E0008BAD93EEA42FA40FB4B2DE18E679EEBAFA
:1074F000D638EEB7E62EE62BFF51F60EC303E2E6D2
:10750000D1E5B903A8E2A8E2A0C290C270A160A030
:1075100058A08204A328BBCACC4CD4ADDCCDDCCDB2
:10752000E4EEED4FF5B0FDF1FDF2F5D1F5B1ED91E1
:10753000BC2C82458AA792C7C44BF5F1E612DE3512
:10754000940F9C308BCE9BEEB44FA3ADBC70CCD2CD
:10755000CCF2CCF3DE59E696E60DEE4BFF50FE4E34
:10756000CAE3E264E9E5C8E2B8A1C0C2C0A2B8C2F9
:10757000A0C288A170A060C069008A45A348AB89F9
:10758000BC0BCC8DDCADE4EEF550F591F591FDD260
:10759000F5B2CC8D8AC77A25826692A6C42BE5B156
:1075A000CD91A48F734C734D730C7B2C9B4CB3CE3D
:1075B000D470DC90D44FCBEEDE1AE677E60EF66C94
:1075C000FF4FFE6ED323DA02F246D0E3C8A1C8C152
:1075D000D0A1C8A2C0E2A8E29101810168E060C028
:1075E00061427A2592E89B28BBEBC42CD4AEE50F10
:1075F000DD0FDCEFC44D8AA771E482668A868AA615
:10760000B3EBCCCF93EC734B83CE6B2D62CC62AAE1
:10761000936DA36CAB2BBB6CCBADCBADD5BAE657A2
:10762000E62EEE6BFF0EFE8DE3A5D201FA67D9239D
:10763000C901D0E1D0C1D0C2C8A1B8E2A8E290E2AD
:1076400080E268C25080408050E2598369E58267D9
:107650008AC793299329726661C459C46A467246DF
:1076600082A68286A36AC4F1A4905A897BAE94B3A1
:1076700094B28C0F8BCE8B4C8AAA8A699ACAAB0AB9
:10768000C4F8DDD7E60EE64AFECCFE8DF447CA010B
:10769000F287E184C900D0E0D0C1D8C2C8A1C0C27D
:1076A000B0C3A0C388C370A2586148613861386014
:1076B000304030803060308030802020204038E101
:1076C000414359C46A0472468B09BCF2B554736DC8
:1076D0008C3184108C92BDF79CB2A491C555BC929C
:1076E000A3CE9B2CBC58DD37DD8DE5EAFEACFE6CED
:1076F000FCE9D282EA66EA06C8E0C8E0D0C1D8E276
:10770000C8C1C0E2B0C3A0C390A3788368635883A4
:10771000486238823082286120402840204028403A
:1077200028812040204030A0412259C47AC9CD95FB
:10773000BD95736C8C108C3173B073B07C118472F6
:10774000C63ADEDCDE9BD638CC5AE517DD2DE5A93E
:10775000F66BFE4BFD6AD303DA24F287C901D0E150
:10776000D0C1D0C2C8E2B8C2A8C3A0C398C488C45C
:1077700078A4688348424062308230822861286160
:1077800030612861286128402040288020405A2705
:10779000A491ACF3B55483EE8C31A4D48C7373D123
:1077A0007C32743274347C74A557C65BCC1AE4D82E
:1077B000D4EDDD68F62AFE4AFDA9E3C5D263EA8668
:1077C000D9A3D0C1D0A1D8C2C8C2B8C2A8E3A0E38F
:1077D00098C390C388A3788360834862386238A3D3
:1077E0003082304138413861304028202820202024
:1077F000182049A59C71B575BD9583F0945294935A
:107800009CF59CF594D484957C366BD66BD56B94A3
:10781000C3D9DC77D4ADD508EDE9FE4AFDE9E466CD
:10782000DB04EAA5E1E4C8C1D0A1D0A1C8C2B8A1D7
:10783000A8C2A0E3A0C398C390A380A370A3506282
:10784000408238A3386338423842384130403040B3
:107850003040282018206B0BC5D6C617BDB68C311A
:1078600094B48C749CD58C749D1694F7847773F7BC
:1078700074166BD5CC1ADCB8DCF0CCE9E5A8F62997
:10788000F608ED06E3C5E305EA86C902C8C1C8A14A
:10789000C0E2B0A1A8C2A8E3A8C3A0C398A390C3A4
:1078A00080C36083488340833863386340623861B3
:1078B000286028602820280030C3AD13C5F6C5F61F
:1078C000AD348C518CB494D694D794B694D594F6A8
:1078D00073D363B274549558CC1AD498DD13CCABDF
:1078E000DD48EDE7F608ED87EC66EBA5F348D183BC
:1078F000C8E1C8C2C0E1B0A1A8A2A8C3A8C3A0E3C0
:1079000098C390C488E468A35083406338633863A5
:1079100038633861286128603041200059E7D5F785
:10792000C5D5C616AD339CD38C9474148455847518
:107930008C9484738C94AD78D69BDEDCCC1BD4798C
:10794000DCF6D4CEDD28EDA7EDC7EDA7ECE6EC26FE
:10795000FBC9E246C922C902C902B8C1B0A2B0C47B
:10796000A0E3A0E498C498E488E470A45883486332
:107970004063408340633862306230813861304117
:107980007AEBCDB5CDF6BDB5AD34A4F594D68495DE
:1079900084748C939CF4BDD7D67AE67AEE59FEDADD
:1079A000D47DD47BE519DD32DD2AED87E5A6EDA790
:1079B000F506F467FC09F308D184C903D102C8E2D3
:1079C000B8A2B0C4A0C398E398E498E490E580C45A
:1079D00060834883408340834063386238623882E2
:1079E000388238827AAAC554BD94AD33AD159473EC
:1079F00084338CB4A535BDF8C5F7E6DAF6BAF638A7
:107A0000ED95CC70CC7EC43BD4BAE556DD2BEDA70A
:107A1000E5A7EDA8F527EC87F3E8FBAADA06C9236A
:107A2000D923D102C082B0A3A0C3A0E398E498E414
:107A300098E588C46883508248A240A3408240628F
:107A40004083408348C3388259A6C534B533B574E2
:107A5000B5769C93A536B577CE18CE17DE38F67876
:107A6000EDB5CC70BBCEBBEECC5EBBFBC47BE558AA
:107A7000DD2DED89E5A8EDA8F547EC66E3C7FBEB46
:107A8000EA88C924E164D923C082B882A0A2A0C335
:107A9000A0E4A0C498E488C470A3588250A248A36C
:107AA0004883488348A350A350A348C35966BD14D4
:107AB000B574AD74B575BD96C5B7CDB6DDF7DDB59A
:107AC000BCD2B450AB8EBC10C472CD35CC5DC43CBE
:107AD000CC5BDD19E551E56BE5C8EDE7F588EC8693
:107AE000E3A7F3AAFB6BD184D944E124C8A2B082F6
:107AF000A8A3A0E498C3A0C4A0E490C470A368A401
:107B000060A358A450A350A350A458A46084506309
:107B10007A49CD96AD54AD74BDB6BD95CD54CCD299
:107B2000C44FBC0FABEFBC52BC94AC959C958C750C
:107B3000CC7DCC7DD47DDD1AE552E5ADEDE9EDE7F8
:107B4000FDA8ECA7E3A6F3A9FB8BD1A5D944D924C2
:107B5000C8A2B882A8C3A0E4A0C4A0E4A10490E491
:107B600078C470C468C460C460C458C458C460C4D5
:107B700070A460637A29CD96AD75AD95B595B512B3
:107B8000BC70C44FC40ED470CC92C4B3AC549455E2
:107B900084567C564A8979868943894499849963B5
:107BA0009965914499449964810448C4288230635A
:107BB00028832862288330A248C27903A165A144A2
:107BC000994499649964918499649944914589444C
:107BD000718452A979859143A144A964B144B164E7
:107BE000B164B965A12540A22862186220631862B9
:107BF00018621843204220232043286260C3A14416
:107C0000B985B1A5B184B185B1A4B164A983A142FC
:107C1000912579A78943A142A964B985B984C98509
:107C2000C1C5894430831863184220422043204252
:107C300068E538A32063186220821882186330E454
:107C400059048945B1E6C9A5B9E5B9C6B964A9A47D
:107C5000A16489438985B143B184C184C1C5D9A5D3
:107C6000B16538A320432884208320831883208291
:107C700070E548C21881186320642043206328E41B
:107C800020A328845146B1E6D9C6CA06C9A5B18544
:107C9000A96489849165C165B9C4C9A4D9C5D9A5A8
:107CA00068C42844308320822064204420632083D9
:107CB00018631883186420642063188320A320634A
:107CC000286328A420844105B1C6D9A5C1A5B9E57A
:107CD000A98599649964B184B9C4C9A5D1A5D1C64F
:107CE00038A32884188220A31843184310221002B6
:107CF000102318231822188220832043206318633E
:107D000018A31883288320A440C3C985D205C1C500
:107D1000B1849983A184A983C985D185D9A4B1A649
:107D200038A328C328A428A4312562CB9C119C52D7
:107D300094116AAB5A4A394628A42084188320A398
:107D400020A3208330A428642863B165D9A4C1C5C9
:107D5000A9A499859165B1A3B9A5C9A5EA0581240E
:107D6000308430E428E46AEDF6DCFFFFFFFFFFFF1C
:107D7000FFFFFFFFFFDFEF5DDEBBA4B349C828C4F0
:107D8000288428A4288420C430A440A3A9A6C9A577
:107D9000B16599849184B184B9A4D1C5E1C6792330
:107DA00028C438E43124D69AFFFFF7BEF7BEF7BEE9
:107DB000FFDFF7DEF7DEFFDEFFFFFFFFEF7DC61818
:107DC00049E830E428E428A4288528A26104C9C52C
:107DD000A9839985A165B184C185C9C5D9E5B9C60D
:107DE00040E430E541A7E71CFFFFFFFFFFFFFFFF77
:107DF000FFFFFFFFF7FFFFFFF7FFF7DEF7DEFFFFF5
:107E00005AAB28C430E528A42884288340C3B9A5E8
:107E1000B18499859183B184C986C9C5D9C5C1C6C4
:107E200038C328A33966528A52AA73CF845194D298
:107E3000E75CC699A5556B6D52AA4A49420839A715
:107E400028E428C4206420A32884288328A2A145EC
:107E5000B1859984A185B9A4C1A4D1A3EA067925E5
:107E6000208428C3206328C420C418621021104134
:107E7000738EDEFB39C718A31042106218621862B5
:107E800020831842206318832063288328A3A185B8
:107E9000B98591649965B164C9A5C986998530830E
:107EA000308520825A4A51E828C4396794314A08FB
:107EB0009471FFFF6B2D20E439A7290520C420A46D
:107EC00020A4208420622083208428633083A1643E
:107ED000B184998499659984590330A420C428A455
:107EE00028A428E3BDD7B596AD35D659FFFFD69A5D
:107EF000E71CEF7D41C84A09DE9B734E28E528A4A4
:107F0000208320832082288328A4288340839964A7
:107F1000A98499859165916449032884288338E46C
:107F200028E44187E73CFFFFFFDFFFFFFFDFFFFFA4
:107F3000FFDFF7BE4A29A4F4FFFFFFBF83AF394636
:107F400049C828C428C428A4288420A348C491A5CB
:107F5000B1A599849984B984814528A3288330E305
:107F600028E539C7E75CFFFFF7BEF7DFF7FFFFFF44
:107F7000FFFFFFFF630CBDF7FFFFF7FFF7BEBDD7A5
:107F80005ACB290428C528C4288420A33083712310
:107F9000B1A599849164B9858947208330A320C411
:107FA000292528E4C5F8FFFFF7BEF7BEFFFF9CF3C5
:107FB00052AA5AEB42086B6DEF7DF7FFE79D4A6AC4
:107FC00028E528E528C5208320C32884208320A312
:107FD00048C4898591A4B9847923288230A428C40F
:107FE000290420E4636DF7FFF7FEEFBEFFDF947115
:107FF000943183AF39663165C638FFFFD69A39862A
:1080000028E428A4208428A320A328A428A3288324
:10801000692491859165B1A4796428A338A428A422
:1080200020C428E54A08F77DF7FFF7FFFFFFDEFBD6
:108030008C71EF9D42088C51F7BEFFFF94B2212452
:10804000312528E420A428C3208328C428A4308311
:10805000916591859144B1648146206320A228C333
:1080600028C328E33145D69AFFFFEF9DB5D67BEFB5
:108070008450E73C4A29316642299492A53539A7B4
:1080800020C420C428A420A3208420C3288430A393
:10809000A1649965918668E238A348C4306320835F
:1080A000288428E518E49CF4FFFF5AEC318694926A
:1080B0005ACB41E8396720C420A31863290528C496
:1080C0002063208420832083208428A4208428A265
:1080D000A18399659964A1447925C9E648C520A280
:1080E000308428C420A44A29CE59524ACE59CE7A87
:1080F000CE7AC69A8BD028E420C420A42083208383
:108100002063206320832084208428842064388195
:10811000A18499659985A96560E3914438A520A358
:1081200028C520C420C43146BDF8C639FFFF94924B
:108130004A4939E820C4106220A320A428C5188326
:10814000186320A420A328A420832084286368E344
:10815000A98499859164B18558E4206320A328639C
:1081600020A420C328E520C45B0CB618EFDEE73C52
:10817000DEBBCE59C5D87B6E312528C428A428A4DF
:1081800020A420632083208320A320A43883998601
:10819000B16491849964996540842083286328841C
:1081A00028C320A320A430C420E320E3CE79FFFF1E
:1081B000FFFFFFFFE77DBE38316630C428C420834F
:1081C000288420A428842083288428846945B1A594
:1081D000B16691649964B185790348C330C320A323
:1081E000286428842884208328A428A442087C3179
:1081F0006BEF4269210420A320A4208420632884FB
:1082000020832083206320A42064286448A2A963DB
:10821000B16599849145A943D1A5792528A238A3B0
:10822000308520A22083208338C520A408A31042D3
:1082300010211842208318631863186218631863AA
:10824000208318832063188320A428647944C98577
:10825000B1849964A145A963C183A925C1A6A1657B
:1082600028632863286220833084308420A42083FC
:108270002083288318632064286328C318A318A3C5
:108280002083286428A5288350C43861B1A5C96516
:10829000A18499658964A983B1A4C186C14671246A
:1082A00020A428832082208320432863208318630E
:1082B0001883188318A2186320C418A3206420838D
:1082C0001882208330636904A9658944B9A4B18404
:1082D000A1648924712468E348833883208210A232
:1082E0001883186318821883104210831042208369
:1082F0001863188320411863186228A22884184242
:108300002062204350A2C186C1A5B985B964A944A1
:10831000A923894328E5084210421842184318430C
:1083200018621863184210422083204240C4386209
:108330001881288320821862488370E538432062C0
:108340002042186448A2C165A143A943A944A104DD
:10835000912471A55269292518A31062188330A2AF
:1083600040C2188420831883308330C260E4814681
:1083700048C3690550C428C428A238A3206318A3A1
:108380001882188330838943A145916389438944C6
:1083900079865289B8830008DA860008207E1000AA
:1083A000D28900081E8D0008207E12001690000859
:1083B000CA950008207E1800FFCC9999994924920B
:1083C000FFF492FFF4924920211EFA51CE297DE25A
:1083D00010C71CB21042084D38E361892492461838
:1083E0009658A275D0FC2529249122409122492536
:1083F0002900212B57388473AB521021084FFC847D
:10840000210055A0FFF0C00410821042084108204E
:1084100079E8618E3B6DC7186179E04B6492492F12
:10842000C079E86104138E410820FFF0FFF0410895
:10843000238E04186179E008218628A492FFF08237
:108440000820FFF820FBE04104186179E03CF410BB
:10845000820FBE86186179E0FFF041082104208276
:1084600008208079E86186179E86186179E079E8AE
:10847000618617DF041082F3C0CC5055801122446E
:1084800088442211FFF000FFF08844221122448822
:108490005A79E861965AEB9A68207DF030C492864A
:1084A0001861FFF8618610FBE861861FBE861861BF
:1084B000FBE079E86182082082086179E0FBE861ED
:1084C000861861861861FBE0FFF820820FBE8208E3
:1084D00020FFF0FFF820820FBE82082082007DF886
:1084E000208208279E18617DF0861861861FFF860E
:1084F00018618610FD2492492FC0041041041041D8
:1085000004186179E08618A2924E389248A286102B
:10851000820820820820820820FFF0861CF3B6DB48
:108520006D8618618610861C71A69B6D9658E38631
:108530001079E86186186186186179E0FBE8618648
:108540001FBE820820820079E8618618619658A2D1
:1085500075D0FBE861861FBE9248A2861079E8615B
:1085600082079E04186179E0FFC842108421084206
:108570001086186186186186186179E08618618610
:10858000186186149230C0861861861B6DB6DCF3C4
:10859000861086186149230C49286186108C631562
:1085A000288421084210FFF04108230C410820FFD5
:1085B000F0FFFC30C30C30C30C30FFF082041020FD
:1085C0008104082041FFF0C30C30C30C30C3FFF01E
:1085D0002114A8C4FFF091224079E0417DF8617D2B
:1085E000F0820820FBE861861861FBE07DF82082BC
:1085F00008207DF00410417DF8618618617DF079D6
:10860000E861FFF8207DF038E451410FBE410410CD
:10861000410079E8618617DF04179E820820FBE895
:10862000618618618610480D92492FC0084007BC2A
:1086300021084218C5CE8208208618A2F3C8A28657
:1086400010D92492492FC0CF3B6DB6DB6D8610FB4D
:10865000E861861861861079E86186186179E0FB27
:10866000E861861FBE8208207DF8618617DF04104E
:1086700041BEFC3082082082007DF82079E041FB79
:10868000E0208208FBE20820824918608618618693
:1086900018E375D086186186149230C0861861B6CA
:1086A000DB6DCF3086149230C492861086186186B6
:1086B00017DF04179EFFF08230C410FFF01C730C0C
:1086C00030CE3830C30C1C70FFFCE3830C30C1C7C4
:1086D00030C30CE3804A6B594800000000000800DA
:1086E00000000000010E0803F10002000406080269
:1086F000F1000500060E0801F1001000050E08014A
:10870000F1001900060C0801F3002200060E080112
:10871000F1002D0001060803F1002E00030E0801F0
:10872000F1003400030E0803F1003A00050E0801C1
:10873000F1004300050A0801F3004A00020608039D
:10874000F9004C0006020801F7004E000102080380
:10875000FD004F00060C0801F3005800060E08014A
:10876000F1006300030E0803F1006900060E080122
:10877000F1007400060E0801F1007F00060E0801EA
:10878000F1008A00060E0801F1009500060E0801AE
:10879000F100A000060E0801F100AB00060E080172
:1087A000F100B600060E0801F100C1000106080341
:1087B000F500C20002090803F500C500040E080216
:1087C000F100CC0006060801F500D100040E0802F5
:1087D000F100D80002040801F100D900060E0801DA
:1087E000F100E400060E0801F100EF00060E08019A
:1087F000F100FA00060E0801F1000501060E08015D
:10880000F1001001060E0801F1001B01060E08011F
:10881000F1002601060E0801F1003101060E0801E3
:10882000F1003C01030E0802F1004201060E0801AE
:10883000F1004D01060E0801F1005801060E080175
:10884000F1006301060E0801F1006E01060E080139
:10885000F1007901060E0801F1008401060E0801FD
:10886000F1008F01060E0801F1009A01060E0801C1
:10887000F100A501060E0801F100B001050E080186
:10888000F100B901060E0801F100C401060E08014D
:10889000F100CF01060E0801F100DA01060E080111
:1088A000F100E501050E0801F100EE01060E0801D8
:1088B000F100F901060E0801F1000402060C08019E
:1088C000F3000D02060E0801F1001802050608016A
:1088D000F5001C0206020801FD001E020306080244
:1088E000F1002102060A0801F5002902060E08011E
:1088F000F1003402060A0801F5003C02060E0801E8
:10890000F1004702060A0801F5004F02060E0801B1
:10891000F1005A02060C0801F5006302060E080178
:10892000F1006E02030E0802F10074020510080146
:10893000F1007E02060E0801F1008902030E080212
:10894000F1008F02060A0801F5009702060A0801E5
:10895000F5009F02060A0801F500A702060C0801AF
:10896000F500B002060C0801F500B902060A08017C
:10897000F500C102060A0801F500C902060E080149
:10898000F100D402060A0801F500DC02060A08011B
:10899000F500E402060A0801F500EC02060A0801E7
:1089A000F500F402060C0801F500FD02060A0801B4
:1089B000F5000503060E0801F1001003010E08037F
:1089C000F1001203060E0801F1001D03050608015F
:1089D000F500AAA80CED2492482448912FE4897F41
:1089E00028512240083E6240300E0181C3BE080873
:1089F0007112238023B80E224470388102061A6552
:108A000046C8ECE9245AAAA940A9555A8010224B1D
:108A1000E3051100102047F10204006B48FF00F04D
:108A2000020810608104082041020800388A0C18EE
:108A30003060C18288E02728421084213E388A08AD
:108A4000102082086103F87C0602021C0601010165
:108A5000423C18A2928A28BF0821C07C8103E440CE
:108A600040810388E01E41040B98B0C1C288E0FE3B
:108A7000040820408204082040388A0C1447114121
:108A8000838CE0388A1C1868CE810413C0F00F6C08
:108A900000D2D2000304186060180403FF80001F96
:108AA000F040180300602060C0803D840830C200A0
:108AB0000000303C46828EB2A2A29F8080403C3CA7
:108AC000014028090110420FC104409E3CFE219044
:108AD0004867E209028141FF803EB0F0300804029D
:108AE0000080608F80FE219068140A050283437F16
:108AF00000FF20900887C221008140FFC0FFA050E6
:108B00000887C22100804078001E986C0A008020EF
:108B1000F80B026087C0E3A0904827F20904824165
:108B200071C0F90842108427C01F020202020282AB
:108B300082C678E3A1110905832108844170C0E051
:108B40004040404040414141FFE0EC194528A4A489
:108B500094911202405C1CC3B0944A249249148A36
:108B60004370801E319050180C060282630F00FE85
:108B7000434141427C404040F01C319050180C066B
:108B80000282631F04079230FE2190482423E110E3
:108B9000844170C03ACD0A030180C1C778FFC46226
:108BA000210080402010081F00E3A09048241209F3
:108BB0000482220E00F1E81082104210220480503C
:108BC0000C0080F1E809112544A8550CA18C3184D2
:108BD00030E3A088828080C090444171C0E3A088C7
:108BE000828140402010081F00FD0A2081041021CE
:108BF00083FCEAAAAAC080810302040408081010BA
:108C00002020D55555C01051222820FFE088807EB5
:108C1000008047EC140A0CFBC020100BC6120502A2
:108C20008140B0B7803A8E0C0810109E0300804738
:108C3000A4340A050281218F603C4381FF8080615A
:108C40003E3D043E410410410F803DA1A050281438
:108C5000090C7A01018780C020100BC632090482FA
:108C60004120B8E01001C08102040811FC103E1040
:108C7000842108423F00C040404F4458704844425D
:108C8000C7702040810204081023F8B764623118CD
:108C90008C4623915E31904824120905C73E31A0CD
:108CA00030180C058C7CDE309028140A0584BC40FA
:108CB0002038003DA1A0502814090C7A010080E062
:108CC000CEA1820408107C3A8D0B80F070DE40400B
:108CD000FC4040404040413EC34141414141433D51
:108CE000E3A090844220A05010E3C0924B2592A9AB
:108CF0009844E331050101411105C7E3A090844286
:108D000040A0601010083E00FD0820820810BF2916
:108D100024A24926FFF889248A492C6124300000C6
:108D200000000B0001000000020B0B04F600030022
:108D300006050B02F6000700070C0B02F6001200F6
:108D4000080C0B01F6001E00070B0B02F6002800B2
:108D5000070A0B02F700310003050B04F60033008D
:108D6000020D0B05F6003700020D0B04F6003B0068
:108D700007070B02F600420007070B02F800490044
:108D800003050B02FF004B0009010B01FB004D0026
:108D900002020B04FF004E00070D0B02F5005A0003
:108DA000070B0B02F6006400050B0B03F6006B00CB
:108DB000070B0B02F6007500080B0B01F600800094
:108DC000060B0B03F6008900070B0B02F60093005D
:108DD000070B0B02F6009D00070B0B02F600A70025
:108DE000070B0B02F600B100070B0B02F600BB00ED
:108DF00002080B04F900BD00030B0B03F900C200CD
:108E000008080B01F800CA0009040B01FA00CF00A2
:108E100009080B01F800D800070A0B02F700E1006F
:108E2000080C0B02F600ED000B0A0B00F700FB002C
:108E3000090A0B01F7000701090A0B01F7001301EA
:108E4000090A0B01F7001F01090A0B01F7002B01AA
:108E5000090A0B01F70037010A0A0B01F700440168
:108E6000090A0B01F7005001050A0B03F70057012F
:108E7000080A0B02F7006101090A0B01F7006D01F6
:108E8000080A0B02F70077010B0A0B00F7008501B7
:108E9000090A0B01F7009101090A0B01F7009D0176
:108EA000080A0B01F700A701090D0B01F700B60135
:108EB000090A0B01F700C201070A0B02F700CB01F8
:108EC000090A0B01F700D701090A0B01F700E301BA
:108ED0000B0A0B00F700F1010B0A0B00F700FF0172
:108EE000090A0B01F7000B02090A0B01F700170230
:108EF000070A0B02F7002002020D0B05F600240200
:108F0000070D0B02F5003002020D0B04F6003402CF
:108F100007050B02F60039020B010B0002003B02B1
:108F200003030B03F5003D0209080B01F90046029B
:108F3000090B0B01F600530207080B02F9005A0255
:108F4000090B0B01F600670208080B01F9006F021C
:108F5000060B0B03F6007802090B0B01F9008502E2
:108F6000090B0B01F6009202070A0B02F7009B02A5
:108F7000050D0B03F700A402080B0B02F600AF026D
:108F8000070B0B02F600B90209080B01F900C20237
:108F900009080B01F900CB0209080B01F900D40202
:108FA000090B0B01F900E102090B0B01F900EE02BC
:108FB00007080B03F900F50207080B02F900FC0291
:108FC000080A0B02F700060308080B01F9000E035C
:108FD00009080B01F900170309080B01F900200328
:108FE00009080B01F9002903090B0B01F9003603ED
:108FF00007080B02F9003D03030D0B04F6004203C2
:10900000010D0B05F6004403030D0B04F6004903A4
:1090100007030B02FA004924924801F8E7E7674288
:109020004242420902411044111FF1104C123FE12B
:10903000204812048120480407A2190240100300AE
:109040003C0080100601E0A7C0401004003C1984D9
:109050002108660F000C1C7801E0CC210843307811
:109060003E30100802030347148A43118F60FDA4A9
:1090700090052524924892241124892492929000EC
:1090800004021107F0C050484200080402010087A2
:10909000FC2010080402003B9CCE6200FFE0FF8031
:1090A0000080C040202010100808040402020101C2
:1090B00000808040001C319058380C06030180C0AD
:1090C00060303413187030E14481020408102040ED
:1090D000811FC01E10906810080C040404060606C8
:1090E000060E07FE3E10400802008040E0040080AB
:1090F00010040100D863E0060A0A122222424282CA
:1091000082FF0202020F7F2010080402F18C03008C
:10911000804020181618F00F8C08080404027946C5
:10912000C1E0602814190878FF818102020202045C
:10913000040404080808083E31B070180C058C3887
:1091400063406030181B18F83C313050280C0F0673
:10915000853C804040202063E0FF8007FC39CE0042
:1091600000063398C40000C060180C0601800C0093
:10917000600300300100FFF000000FFFC006003068
:109180000180180180C030180C0200003E60A02051
:1091900010080818100800000001C0E01C31105031
:1091A00028143A2522914CA3F0080201807C3F004C
:1091B0000C00480120044021008404081FE0408284
:1091C0000108042013E1F0FF081101202404811F8D
:1091D000C20640680500A01405FF001E4874050182
:1091E000802008020080200401013087C0FE104466
:1091F000090240501405014050140D02413F80FF08
:10920000C80901200400881F022040080100A014A2
:1092100003FFC0FFE80500A00400881F02204008EB
:109220000100200401F0001F461901602801002000
:10923000040083F00B0120230C3E00E1D02409023E
:10924000409027F902409024090240B870FE204067
:1092500081020408102040811FC00FE0100200406E
:1092600008010020048090120240C6307C00F1E426
:109270000C4104204404805C0660430410408408D0
:1092800040CF07F8040080100200400801002004CD
:109290000480901203FFC0E03B019414A0A4892431
:1092A000491448A24512109004802401783CE0F64D
:1092B000025025024824C244242243241240A40A16
:1092C000406F060F030C6064028018018018018053
:1092D000180140260630C0F0FF10640501405034EC
:1092E00019FC4010040100403E000F030C606402B2
:1092F00080180180180180180140260630C1F00C4A
:1093000001F130E0FF041840C40440440C4187E000
:10931000430410408404404F031F483405014008B3
:1093200001C00E0040180601E1A7C0FFF0861082C0
:10933000004008010020040080100200407F00F07F
:10934000F40240240240240240240240240240222D
:109350000430C0F0F87C8022010404102040808298
:109360000210084011004801A003000C00F87C80A6
:10937000220088C223108E4229092424909141851D
:10938000061418706080F0F206304108098050061B
:1093900000600D008810C204602F0FF0F20210412F
:1093A000040880500500200200200200200201FC79
:1093B000FF40A090404040202020105030180FFC6B
:1093C000F249249249249C80601008020100402048
:1093D000080401008020100402008040E492492427
:1093E00092493C080C090C4C1404FFFC84213E00FB
:1093F0006008023F98280A02C39F30E0010008007D
:1094000040020013E0A08602200900480240130138
:10941000141B9F001F4C190140280100200200600E
:1094200043F000C008010020043C98520680500A16
:109430000140240CC287983F18680601FFE008032A
:109440000060C7C00F9808040207F8804020100889
:1094500004020103F81E6C390340280500A012061F
:109460006143C8010020083E00C010040100401301
:10947000871182409024090240902E1C08040200AB
:109480000003C0201008040201008043FE040810FD
:10949000001FC08102040810204081020BE0E0029E
:1094A0000020020020023C2102602C0380240220C4
:1094B000210208E1F0780402010080402010080435
:1094C0000201008043FEDCE31990848424212109F9
:1094D000084842421718C0678384202202202202D3
:1094E000202202202F071F04110140180300600AE8
:1094F000022083E0CF85066024014014014016025B
:109500005044F8400400400F001E6C3B0340280507
:1095100000A012066143C80100200403C0E38B13BE
:1095200080802008020080203F801F583405801E64
:1095300000600601C0AFC020040080100FF040089A
:109540000100200400801003043F00C1C80901206D
:1095500024048090120261C7CCF8F90108106081E0
:1095600008084022012005003000F07A0110088C24
:1095700042621290A5051828C0860078F30418806E
:10958000D006007009810C206F8FF0F20220410498
:10959000108088090050060020040040080FE0FFFA
:1095A000410080808080808040BFC01908421084C4
:1095B000641842108420C0FFFFC0C108421084100C
:1095C0004C421084260038133838000000000E008A
:1095D00001000000030F0E06F200060008070E034C
:1095E000F2000D000A100E02F20021000A110E0214
:1095F000F20037000A0F0E02F2004A00090C0E03B7
:10960000F500580003070E05F2005B0003120E0779
:10961000F200620003120E04F200690009090E0351
:10962000F2007400090B0E03F500810005070E031C
:10963000FD0086000B010E02FA00880003030E05F0
:10964000FE008A0009120E03F1009F00090F0E03AD
:10965000F200B000070E0E04F300BD00090F0E0269
:10966000F200CE000A0F0E02F200E100080F0E0316
:10967000F200F000090F0E03F2000101090F0E03C2
:10968000F2001201080F0E03F2002101090F0E0370
:10969000F2003201090F0E03F2004301030A0E0526
:1096A000F7004701050D0E03F70050010B0B0E02EA
:1096B000F50060010C040E01F80066010B0B0E02B0
:1096C000F5007601090E0E03F300860109100E0362
:1096D000F20098010E0E0E00F300B1010B0E0E0207
:1096E000F300C5010A0E0E02F300D7010A0E0E02A6
:1096F000F300E9010B0E0E02F300FD010B0E0E024A
:10970000F30011020B0E0E02F30025020A0E0E02E8
:10971000F3003702070E0E04F30044020B0E0E0294
:10972000F30058020C0E0E02F3006D020B0E0E0237
:10973000F30081020D0E0E01F30098020C0E0E01D3
:10974000F300AD020C0E0E01F300C2020A0E0E026F
:10975000F300D4020C110E01F300EE020C0E0E0207
:10976000F30003030A0E0E02F30015030B0E0E02A4
:10977000F30029030C0E0E01F3003E030E0E0E0043
:10978000F30057030E0E0E00F30070030C0E0E01D3
:10979000F30085030C0E0E01F3009A03090E0E036D
:1097A000F300AA0303120E07F200B10309120E031D
:1097B000F100C60303120E05F200CD0309060E03E5
:1097C000F200D4030E010E000300D60304040E04BD
:1097D000F100D8030A0A0E02F700E5030D0F0E0090
:1097E000F200FE030B0A0E02F7000C040B0F0E0230
:1097F000F20021040A0A0E02F7002E04090F0E04DB
:10980000F2003F040B0E0E02F70053040A0F0E0283
:10981000F2006604090F0E03F200770407130E032B
:10982000F20088040C0F0E01F2009F04090F0E03D2
:10983000F200B0040D0A0E01F700C1040C0A0E017B
:10984000F700D0040B0A0E02F700DE040C0E0E0126
:10985000F700F3040B0E0E02F70007050A0A0E03C9
:10986000F70014050A0A0E02F70021050B0E0E017F
:10987000F30035050B0A0E02F70043050D0A0E0131
:10988000F70054050D0A0E01F70065050C0A0E01DC
:10989000F70074050C0E0E01F7008905090A0E0386
:1098A000F700950505120E05F200A10501120E073D
:1098B000F200A40505120E05F200B0050A030E021F
:1098C000F9000000E49800080000002010000000EB
:1098D000E2150008F4980008100000205804000069
:1098E000F215000800A24A04010000001000000068
:0498F0000000000074
:04000005080000ED02
:00000001FF
